{
	"contracts/FundMe.sol": {
		"FundMe": {
			"abi": [
				{
					"inputs": [],
					"name": "favNumber",
					"outputs": [
						{
							"internalType": "int256",
							"name": "",
							"type": "int256"
						}
					],
					"stateMutability": "view",
					"type": "function"
				},
				{
					"inputs": [],
					"name": "fund",
					"outputs": [],
					"stateMutability": "payable",
					"type": "function"
				}
			],
			"devdoc": {
				"kind": "dev",
				"methods": {},
				"version": 1
			},
			"evm": {
				"assembly": "    /* \"contracts/FundMe.sol\":56:228  contract FundMe{... */\n  mstore(0x40, 0x80)\n  callvalue\n  dup1\n  iszero\n  tag_1\n  jumpi\n  0x00\n  dup1\n  revert\ntag_1:\n  pop\n  dataSize(sub_0)\n  dup1\n  dataOffset(sub_0)\n  0x00\n  codecopy\n  0x00\n  return\nstop\n\nsub_0: assembly {\n        /* \"contracts/FundMe.sol\":56:228  contract FundMe{... */\n      mstore(0x40, 0x80)\n      jumpi(tag_1, lt(calldatasize, 0x04))\n      shr(0xe0, calldataload(0x00))\n      dup1\n      0xb60d4288\n      eq\n      tag_2\n      jumpi\n      dup1\n      0xc7a0d9f6\n      eq\n      tag_3\n      jumpi\n    tag_1:\n      0x00\n      dup1\n      revert\n        /* \"contracts/FundMe.sol\":106:225  function fund () public payable{... */\n    tag_2:\n      tag_4\n      tag_5\n      jump\t// in\n    tag_4:\n      stop\n        /* \"contracts/FundMe.sol\":78:98  int public favNumber */\n    tag_3:\n      callvalue\n      dup1\n      iszero\n      tag_6\n      jumpi\n      0x00\n      dup1\n      revert\n    tag_6:\n      pop\n      tag_7\n      tag_8\n      jump\t// in\n    tag_7:\n      mload(0x40)\n      tag_9\n      swap2\n      swap1\n      tag_10\n      jump\t// in\n    tag_9:\n      mload(0x40)\n      dup1\n      swap2\n      sub\n      swap1\n      return\n        /* \"contracts/FundMe.sol\":106:225  function fund () public payable{... */\n    tag_5:\n        /* \"contracts/FundMe.sol\":160:161  5 */\n      0x05\n        /* \"contracts/FundMe.sol\":148:157  favNumber */\n      0x00\n        /* \"contracts/FundMe.sol\":148:161  favNumber = 5 */\n      dup2\n      swap1\n      sstore\n      pop\n        /* \"contracts/FundMe.sol\":193:197  1e18 */\n      0x0de0b6b3a7640000\n        /* \"contracts/FundMe.sol\":180:189  msg.value */\n      callvalue\n        /* \"contracts/FundMe.sol\":180:197  msg.value >= 1e18 */\n      lt\n      iszero\n        /* \"contracts/FundMe.sol\":172:217  require(msg.value >= 1e18, \"not enough fund\") */\n      tag_12\n      jumpi\n      mload(0x40)\n      0x08c379a000000000000000000000000000000000000000000000000000000000\n      dup2\n      mstore\n      0x04\n      add\n      tag_13\n      swap1\n      tag_14\n      jump\t// in\n    tag_13:\n      mload(0x40)\n      dup1\n      swap2\n      sub\n      swap1\n      revert\n    tag_12:\n        /* \"contracts/FundMe.sol\":106:225  function fund () public payable{... */\n      jump\t// out\n        /* \"contracts/FundMe.sol\":78:98  int public favNumber */\n    tag_8:\n      sload(0x00)\n      dup2\n      jump\t// out\n        /* \"#utility.yul\":7:83   */\n    tag_15:\n        /* \"#utility.yul\":43:50   */\n      0x00\n        /* \"#utility.yul\":72:77   */\n      dup2\n        /* \"#utility.yul\":61:77   */\n      swap1\n      pop\n        /* \"#utility.yul\":7:83   */\n      swap2\n      swap1\n      pop\n      jump\t// out\n        /* \"#utility.yul\":89:204   */\n    tag_16:\n        /* \"#utility.yul\":174:197   */\n      tag_23\n        /* \"#utility.yul\":191:196   */\n      dup2\n        /* \"#utility.yul\":174:197   */\n      tag_15\n      jump\t// in\n    tag_23:\n        /* \"#utility.yul\":169:172   */\n      dup3\n        /* \"#utility.yul\":162:198   */\n      mstore\n        /* \"#utility.yul\":89:204   */\n      pop\n      pop\n      jump\t// out\n        /* \"#utility.yul\":210:428   */\n    tag_10:\n        /* \"#utility.yul\":301:305   */\n      0x00\n        /* \"#utility.yul\":339:341   */\n      0x20\n        /* \"#utility.yul\":328:337   */\n      dup3\n        /* \"#utility.yul\":324:342   */\n      add\n        /* \"#utility.yul\":316:342   */\n      swap1\n      pop\n        /* \"#utility.yul\":352:421   */\n      tag_25\n        /* \"#utility.yul\":418:419   */\n      0x00\n        /* \"#utility.yul\":407:416   */\n      dup4\n        /* \"#utility.yul\":403:420   */\n      add\n        /* \"#utility.yul\":394:400   */\n      dup5\n        /* \"#utility.yul\":352:421   */\n      tag_16\n      jump\t// in\n    tag_25:\n        /* \"#utility.yul\":210:428   */\n      swap3\n      swap2\n      pop\n      pop\n      jump\t// out\n        /* \"#utility.yul\":434:603   */\n    tag_17:\n        /* \"#utility.yul\":518:529   */\n      0x00\n        /* \"#utility.yul\":552:558   */\n      dup3\n        /* \"#utility.yul\":547:550   */\n      dup3\n        /* \"#utility.yul\":540:559   */\n      mstore\n        /* \"#utility.yul\":592:596   */\n      0x20\n        /* \"#utility.yul\":587:590   */\n      dup3\n        /* \"#utility.yul\":583:597   */\n      add\n        /* \"#utility.yul\":568:597   */\n      swap1\n      pop\n        /* \"#utility.yul\":434:603   */\n      swap3\n      swap2\n      pop\n      pop\n      jump\t// out\n        /* \"#utility.yul\":609:774   */\n    tag_18:\n        /* \"#utility.yul\":749:766   */\n      0x6e6f7420656e6f7567682066756e640000000000000000000000000000000000\n        /* \"#utility.yul\":745:746   */\n      0x00\n        /* \"#utility.yul\":737:743   */\n      dup3\n        /* \"#utility.yul\":733:747   */\n      add\n        /* \"#utility.yul\":726:767   */\n      mstore\n        /* \"#utility.yul\":609:774   */\n      pop\n      jump\t// out\n        /* \"#utility.yul\":780:1146   */\n    tag_19:\n        /* \"#utility.yul\":922:925   */\n      0x00\n        /* \"#utility.yul\":943:1010   */\n      tag_29\n        /* \"#utility.yul\":1007:1009   */\n      0x0f\n        /* \"#utility.yul\":1002:1005   */\n      dup4\n        /* \"#utility.yul\":943:1010   */\n      tag_17\n      jump\t// in\n    tag_29:\n        /* \"#utility.yul\":936:1010   */\n      swap2\n      pop\n        /* \"#utility.yul\":1019:1112   */\n      tag_30\n        /* \"#utility.yul\":1108:1111   */\n      dup3\n        /* \"#utility.yul\":1019:1112   */\n      tag_18\n      jump\t// in\n    tag_30:\n        /* \"#utility.yul\":1137:1139   */\n      0x20\n        /* \"#utility.yul\":1132:1135   */\n      dup3\n        /* \"#utility.yul\":1128:1140   */\n      add\n        /* \"#utility.yul\":1121:1140   */\n      swap1\n      pop\n        /* \"#utility.yul\":780:1146   */\n      swap2\n      swap1\n      pop\n      jump\t// out\n        /* \"#utility.yul\":1152:1571   */\n    tag_14:\n        /* \"#utility.yul\":1318:1322   */\n      0x00\n        /* \"#utility.yul\":1356:1358   */\n      0x20\n        /* \"#utility.yul\":1345:1354   */\n      dup3\n        /* \"#utility.yul\":1341:1359   */\n      add\n        /* \"#utility.yul\":1333:1359   */\n      swap1\n      pop\n        /* \"#utility.yul\":1405:1414   */\n      dup2\n        /* \"#utility.yul\":1399:1403   */\n      dup2\n        /* \"#utility.yul\":1395:1415   */\n      sub\n        /* \"#utility.yul\":1391:1392   */\n      0x00\n        /* \"#utility.yul\":1380:1389   */\n      dup4\n        /* \"#utility.yul\":1376:1393   */\n      add\n        /* \"#utility.yul\":1369:1416   */\n      mstore\n        /* \"#utility.yul\":1433:1564   */\n      tag_32\n        /* \"#utility.yul\":1559:1563   */\n      dup2\n        /* \"#utility.yul\":1433:1564   */\n      tag_19\n      jump\t// in\n    tag_32:\n        /* \"#utility.yul\":1425:1564   */\n      swap1\n      pop\n        /* \"#utility.yul\":1152:1571   */\n      swap2\n      swap1\n      pop\n      jump\t// out\n\n    auxdata: 0xa26469706673582212200f6f8f521f9f0fe7754dcde656508424bc1ab06f2aa70f481cc7bc22c9873c4d64736f6c63430008080033\n}\n",
				"bytecode": {
					"linkReferences": {},
					"object": "608060405234801561001057600080fd5b506101a5806100206000396000f3fe6080604052600436106100295760003560e01c8063b60d42881461002e578063c7a0d9f614610038575b600080fd5b610036610063565b005b34801561004457600080fd5b5061004d6100b8565b60405161005a91906100d7565b60405180910390f35b6005600081905550670de0b6b3a76400003410156100b6576040517f08c379a00000000000000000000000000000000000000000000000000000000081526004016100ad9061014f565b60405180910390fd5b565b60005481565b6000819050919050565b6100d1816100be565b82525050565b60006020820190506100ec60008301846100c8565b92915050565b600082825260208201905092915050565b7f6e6f7420656e6f7567682066756e640000000000000000000000000000000000600082015250565b6000610139600f836100f2565b915061014482610103565b602082019050919050565b600060208201905081810360008301526101688161012c565b905091905056fea26469706673582212200f6f8f521f9f0fe7754dcde656508424bc1ab06f2aa70f481cc7bc22c9873c4d64736f6c63430008080033",
					"opcodes": "PUSH1 0x80 PUSH1 0x40 MSTORE CALLVALUE DUP1 ISZERO PUSH2 0x10 JUMPI PUSH1 0x0 DUP1 REVERT JUMPDEST POP PUSH2 0x1A5 DUP1 PUSH2 0x20 PUSH1 0x0 CODECOPY PUSH1 0x0 RETURN INVALID PUSH1 0x80 PUSH1 0x40 MSTORE PUSH1 0x4 CALLDATASIZE LT PUSH2 0x29 JUMPI PUSH1 0x0 CALLDATALOAD PUSH1 0xE0 SHR DUP1 PUSH4 0xB60D4288 EQ PUSH2 0x2E JUMPI DUP1 PUSH4 0xC7A0D9F6 EQ PUSH2 0x38 JUMPI JUMPDEST PUSH1 0x0 DUP1 REVERT JUMPDEST PUSH2 0x36 PUSH2 0x63 JUMP JUMPDEST STOP JUMPDEST CALLVALUE DUP1 ISZERO PUSH2 0x44 JUMPI PUSH1 0x0 DUP1 REVERT JUMPDEST POP PUSH2 0x4D PUSH2 0xB8 JUMP JUMPDEST PUSH1 0x40 MLOAD PUSH2 0x5A SWAP2 SWAP1 PUSH2 0xD7 JUMP JUMPDEST PUSH1 0x40 MLOAD DUP1 SWAP2 SUB SWAP1 RETURN JUMPDEST PUSH1 0x5 PUSH1 0x0 DUP2 SWAP1 SSTORE POP PUSH8 0xDE0B6B3A7640000 CALLVALUE LT ISZERO PUSH2 0xB6 JUMPI PUSH1 0x40 MLOAD PUSH32 0x8C379A000000000000000000000000000000000000000000000000000000000 DUP2 MSTORE PUSH1 0x4 ADD PUSH2 0xAD SWAP1 PUSH2 0x14F JUMP JUMPDEST PUSH1 0x40 MLOAD DUP1 SWAP2 SUB SWAP1 REVERT JUMPDEST JUMP JUMPDEST PUSH1 0x0 SLOAD DUP2 JUMP JUMPDEST PUSH1 0x0 DUP2 SWAP1 POP SWAP2 SWAP1 POP JUMP JUMPDEST PUSH2 0xD1 DUP2 PUSH2 0xBE JUMP JUMPDEST DUP3 MSTORE POP POP JUMP JUMPDEST PUSH1 0x0 PUSH1 0x20 DUP3 ADD SWAP1 POP PUSH2 0xEC PUSH1 0x0 DUP4 ADD DUP5 PUSH2 0xC8 JUMP JUMPDEST SWAP3 SWAP2 POP POP JUMP JUMPDEST PUSH1 0x0 DUP3 DUP3 MSTORE PUSH1 0x20 DUP3 ADD SWAP1 POP SWAP3 SWAP2 POP POP JUMP JUMPDEST PUSH32 0x6E6F7420656E6F7567682066756E640000000000000000000000000000000000 PUSH1 0x0 DUP3 ADD MSTORE POP JUMP JUMPDEST PUSH1 0x0 PUSH2 0x139 PUSH1 0xF DUP4 PUSH2 0xF2 JUMP JUMPDEST SWAP2 POP PUSH2 0x144 DUP3 PUSH2 0x103 JUMP JUMPDEST PUSH1 0x20 DUP3 ADD SWAP1 POP SWAP2 SWAP1 POP JUMP JUMPDEST PUSH1 0x0 PUSH1 0x20 DUP3 ADD SWAP1 POP DUP2 DUP2 SUB PUSH1 0x0 DUP4 ADD MSTORE PUSH2 0x168 DUP2 PUSH2 0x12C JUMP JUMPDEST SWAP1 POP SWAP2 SWAP1 POP JUMP INVALID LOG2 PUSH5 0x6970667358 0x22 SLT KECCAK256 0xF PUSH16 0x8F521F9F0FE7754DCDE656508424BC1A 0xB0 PUSH16 0x2AA70F481CC7BC22C9873C4D64736F6C PUSH4 0x43000808 STOP CALLER "
				},
				"gasEstimates": {
					"creation": {
						"codeDepositCost": "84200",
						"executionCost": "135",
						"totalCost": "84335"
					},
					"external": {
						"favNumber()": "2429",
						"fund()": "22526"
					}
				},
				"methodIdentifiers": {
					"favNumber()": "c7a0d9f6",
					"fund()": "b60d4288"
				}
			},
			"storageLayout": {
				"storage": [
					{
						"astId": 3,
						"contract": "contracts/FundMe.sol:FundMe",
						"label": "favNumber",
						"offset": 0,
						"slot": "0",
						"type": "t_int256"
					}
				],
				"types": {
					"t_int256": {
						"encoding": "inplace",
						"label": "int256",
						"numberOfBytes": "32"
					}
				}
			},
			"userdoc": {
				"kind": "user",
				"methods": {},
				"version": 1
			}
		}
	}
}