{
	"contracts/FundMe.sol": {
		"FundMe": {
			"abi": [
				{
					"inputs": [],
					"stateMutability": "nonpayable",
					"type": "constructor"
				},
				{
					"inputs": [],
					"name": "favNumber",
					"outputs": [
						{
							"internalType": "int256",
							"name": "",
							"type": "int256"
						}
					],
					"stateMutability": "view",
					"type": "function"
				},
				{
					"inputs": [],
					"name": "feedAddress",
					"outputs": [
						{
							"internalType": "address",
							"name": "",
							"type": "address"
						}
					],
					"stateMutability": "view",
					"type": "function"
				},
				{
					"inputs": [],
					"name": "fund",
					"outputs": [],
					"stateMutability": "payable",
					"type": "function"
				},
				{
					"inputs": [],
					"name": "getLatestPrice",
					"outputs": [
						{
							"internalType": "int256",
							"name": "",
							"type": "int256"
						}
					],
					"stateMutability": "view",
					"type": "function"
				},
				{
					"inputs": [],
					"name": "latestPriceOfBTCinETH",
					"outputs": [
						{
							"internalType": "int256",
							"name": "",
							"type": "int256"
						}
					],
					"stateMutability": "view",
					"type": "function"
				}
			],
			"devdoc": {
				"kind": "dev",
				"methods": {},
				"version": 1
			},
			"evm": {
				"assembly": "    /* \"contracts/FundMe.sol\":136:928  contract FundMe{... */\n  mstore(0x40, 0x80)\n    /* \"contracts/FundMe.sol\":254:296  0xF7904a295A029a3aBDFFB6F12755974a958C7C25 */\n  0xf7904a295a029a3abdffb6f12755974a958c7c25\n    /* \"contracts/FundMe.sol\":225:296  address public feedAddress = 0xF7904a295A029a3aBDFFB6F12755974a958C7C25 */\n  0x02\n  exp(0x0100, 0x00)\n  dup2\n  sload\n  dup2\n  0xffffffffffffffffffffffffffffffffffffffff\n  mul\n  not\n  and\n  swap1\n  dup4\n  0xffffffffffffffffffffffffffffffffffffffff\n  and\n  mul\n  or\n  swap1\n  sstore\n  pop\n    /* \"contracts/FundMe.sol\":537:616  constructor() {... */\n  callvalue\n  dup1\n  iszero\n  tag_1\n  jumpi\n  0x00\n  dup1\n  revert\ntag_1:\n  pop\n    /* \"contracts/FundMe.sol\":596:607  feedAddress */\n  0x02\n  0x00\n  swap1\n  sload\n  swap1\n  0x0100\n  exp\n  swap1\n  div\n  0xffffffffffffffffffffffffffffffffffffffff\n  and\n    /* \"contracts/FundMe.sol\":562:571  priceFeed */\n  0x03\n  0x00\n    /* \"contracts/FundMe.sol\":562:608  priceFeed = AggregatorV3Interface(feedAddress) */\n  0x0100\n  exp\n  dup2\n  sload\n  dup2\n  0xffffffffffffffffffffffffffffffffffffffff\n  mul\n  not\n  and\n  swap1\n  dup4\n  0xffffffffffffffffffffffffffffffffffffffff\n  and\n  mul\n  or\n  swap1\n  sstore\n  pop\n    /* \"contracts/FundMe.sol\":136:928  contract FundMe{... */\n  dataSize(sub_0)\n  dup1\n  dataOffset(sub_0)\n  0x00\n  codecopy\n  0x00\n  return\nstop\n\nsub_0: assembly {\n        /* \"contracts/FundMe.sol\":136:928  contract FundMe{... */\n      mstore(0x40, 0x80)\n      jumpi(tag_1, lt(calldatasize, 0x04))\n      shr(0xe0, calldataload(0x00))\n      dup1\n      0x1ab26def\n      eq\n      tag_2\n      jumpi\n      dup1\n      0x29c36bb5\n      eq\n      tag_3\n      jumpi\n      dup1\n      0x8e15f473\n      eq\n      tag_4\n      jumpi\n      dup1\n      0xb60d4288\n      eq\n      tag_5\n      jumpi\n      dup1\n      0xc7a0d9f6\n      eq\n      tag_6\n      jumpi\n    tag_1:\n      0x00\n      dup1\n      revert\n        /* \"contracts/FundMe.sol\":186:218  int public latestPriceOfBTCinETH */\n    tag_2:\n      callvalue\n      dup1\n      iszero\n      tag_7\n      jumpi\n      0x00\n      dup1\n      revert\n    tag_7:\n      pop\n      tag_8\n      tag_9\n      jump\t// in\n    tag_8:\n      mload(0x40)\n      tag_10\n      swap2\n      swap1\n      tag_11\n      jump\t// in\n    tag_10:\n      mload(0x40)\n      dup1\n      swap2\n      sub\n      swap1\n      return\n        /* \"contracts/FundMe.sol\":225:296  address public feedAddress = 0xF7904a295A029a3aBDFFB6F12755974a958C7C25 */\n    tag_3:\n      callvalue\n      dup1\n      iszero\n      tag_12\n      jumpi\n      0x00\n      dup1\n      revert\n    tag_12:\n      pop\n      tag_13\n      tag_14\n      jump\t// in\n    tag_13:\n      mload(0x40)\n      tag_15\n      swap2\n      swap1\n      tag_16\n      jump\t// in\n    tag_15:\n      mload(0x40)\n      dup1\n      swap2\n      sub\n      swap1\n      return\n        /* \"contracts/FundMe.sol\":626:925  function getLatestPrice() public view returns (int) {... */\n    tag_4:\n      callvalue\n      dup1\n      iszero\n      tag_17\n      jumpi\n      0x00\n      dup1\n      revert\n    tag_17:\n      pop\n      tag_18\n      tag_19\n      jump\t// in\n    tag_18:\n      mload(0x40)\n      tag_20\n      swap2\n      swap1\n      tag_11\n      jump\t// in\n    tag_20:\n      mload(0x40)\n      dup1\n      swap2\n      sub\n      swap1\n      return\n        /* \"contracts/FundMe.sol\":352:519  function fund () public payable{... */\n    tag_5:\n      tag_21\n      tag_22\n      jump\t// in\n    tag_21:\n      stop\n        /* \"contracts/FundMe.sol\":158:178  int public favNumber */\n    tag_6:\n      callvalue\n      dup1\n      iszero\n      tag_23\n      jumpi\n      0x00\n      dup1\n      revert\n    tag_23:\n      pop\n      tag_24\n      tag_25\n      jump\t// in\n    tag_24:\n      mload(0x40)\n      tag_26\n      swap2\n      swap1\n      tag_11\n      jump\t// in\n    tag_26:\n      mload(0x40)\n      dup1\n      swap2\n      sub\n      swap1\n      return\n        /* \"contracts/FundMe.sol\":186:218  int public latestPriceOfBTCinETH */\n    tag_9:\n      sload(0x01)\n      dup2\n      jump\t// out\n        /* \"contracts/FundMe.sol\":225:296  address public feedAddress = 0xF7904a295A029a3aBDFFB6F12755974a958C7C25 */\n    tag_14:\n      0x02\n      0x00\n      swap1\n      sload\n      swap1\n      0x0100\n      exp\n      swap1\n      div\n      0xffffffffffffffffffffffffffffffffffffffff\n      and\n      dup2\n      jump\t// out\n        /* \"contracts/FundMe.sol\":626:925  function getLatestPrice() public view returns (int) {... */\n    tag_19:\n        /* \"contracts/FundMe.sol\":673:676  int */\n      0x00\n        /* \"contracts/FundMe.sol\":737:746  int price */\n      dup1\n        /* \"contracts/FundMe.sol\":867:876  priceFeed */\n      0x03\n      0x00\n      swap1\n      sload\n      swap1\n      0x0100\n      exp\n      swap1\n      div\n      0xffffffffffffffffffffffffffffffffffffffff\n      and\n        /* \"contracts/FundMe.sol\":867:892  priceFeed.latestRoundData */\n      0xffffffffffffffffffffffffffffffffffffffff\n      and\n      0xfeaf968c\n        /* \"contracts/FundMe.sol\":867:894  priceFeed.latestRoundData() */\n      mload(0x40)\n      dup2\n      0xffffffff\n      and\n      0xe0\n      shl\n      dup2\n      mstore\n      0x04\n      add\n      0xa0\n      mload(0x40)\n      dup1\n      dup4\n      sub\n      dup2\n      dup7\n      dup1\n      extcodesize\n      iszero\n      dup1\n      iszero\n      tag_28\n      jumpi\n      0x00\n      dup1\n      revert\n    tag_28:\n      pop\n      gas\n      staticcall\n      iszero\n      dup1\n      iszero\n      tag_30\n      jumpi\n      returndatasize\n      0x00\n      dup1\n      returndatacopy\n      revert(0x00, returndatasize)\n    tag_30:\n      pop\n      pop\n      pop\n      pop\n      mload(0x40)\n      returndatasize\n      not(0x1f)\n      0x1f\n      dup3\n      add\n      and\n      dup3\n      add\n      dup1\n      0x40\n      mstore\n      pop\n      dup2\n      add\n      swap1\n      tag_31\n      swap2\n      swap1\n      tag_32\n      jump\t// in\n    tag_31:\n        /* \"contracts/FundMe.sol\":689:894  (... */\n      pop\n      pop\n      pop\n      swap2\n      pop\n      pop\n        /* \"contracts/FundMe.sol\":912:917  price */\n      dup1\n        /* \"contracts/FundMe.sol\":905:917  return price */\n      swap2\n      pop\n      pop\n        /* \"contracts/FundMe.sol\":626:925  function getLatestPrice() public view returns (int) {... */\n      swap1\n      jump\t// out\n        /* \"contracts/FundMe.sol\":352:519  function fund () public payable{... */\n    tag_22:\n        /* \"contracts/FundMe.sol\":406:407  5 */\n      0x05\n        /* \"contracts/FundMe.sol\":394:403  favNumber */\n      0x00\n        /* \"contracts/FundMe.sol\":394:407  favNumber = 5 */\n      dup2\n      swap1\n      sstore\n      pop\n        /* \"contracts/FundMe.sol\":439:440  1 */\n      0x01\n        /* \"contracts/FundMe.sol\":426:435  msg.value */\n      callvalue\n        /* \"contracts/FundMe.sol\":426:440  msg.value >= 1 */\n      lt\n      iszero\n        /* \"contracts/FundMe.sol\":418:460  require(msg.value >= 1, \"not enough fund\") */\n      tag_34\n      jumpi\n      mload(0x40)\n      0x08c379a000000000000000000000000000000000000000000000000000000000\n      dup2\n      mstore\n      0x04\n      add\n      tag_35\n      swap1\n      tag_36\n      jump\t// in\n    tag_35:\n      mload(0x40)\n      dup1\n      swap2\n      sub\n      swap1\n      revert\n    tag_34:\n        /* \"contracts/FundMe.sol\":495:511  getLatestPrice() */\n      tag_37\n        /* \"contracts/FundMe.sol\":495:509  getLatestPrice */\n      tag_19\n        /* \"contracts/FundMe.sol\":495:511  getLatestPrice() */\n      jump\t// in\n    tag_37:\n        /* \"contracts/FundMe.sol\":471:492  latestPriceOfBTCinETH */\n      0x01\n        /* \"contracts/FundMe.sol\":471:511  latestPriceOfBTCinETH = getLatestPrice() */\n      dup2\n      swap1\n      sstore\n      pop\n        /* \"contracts/FundMe.sol\":352:519  function fund () public payable{... */\n      jump\t// out\n        /* \"contracts/FundMe.sol\":158:178  int public favNumber */\n    tag_25:\n      sload(0x00)\n      dup2\n      jump\t// out\n        /* \"#utility.yul\":7:83   */\n    tag_38:\n        /* \"#utility.yul\":43:50   */\n      0x00\n        /* \"#utility.yul\":72:77   */\n      dup2\n        /* \"#utility.yul\":61:77   */\n      swap1\n      pop\n        /* \"#utility.yul\":7:83   */\n      swap2\n      swap1\n      pop\n      jump\t// out\n        /* \"#utility.yul\":89:204   */\n    tag_39:\n        /* \"#utility.yul\":174:197   */\n      tag_60\n        /* \"#utility.yul\":191:196   */\n      dup2\n        /* \"#utility.yul\":174:197   */\n      tag_38\n      jump\t// in\n    tag_60:\n        /* \"#utility.yul\":169:172   */\n      dup3\n        /* \"#utility.yul\":162:198   */\n      mstore\n        /* \"#utility.yul\":89:204   */\n      pop\n      pop\n      jump\t// out\n        /* \"#utility.yul\":210:428   */\n    tag_11:\n        /* \"#utility.yul\":301:305   */\n      0x00\n        /* \"#utility.yul\":339:341   */\n      0x20\n        /* \"#utility.yul\":328:337   */\n      dup3\n        /* \"#utility.yul\":324:342   */\n      add\n        /* \"#utility.yul\":316:342   */\n      swap1\n      pop\n        /* \"#utility.yul\":352:421   */\n      tag_62\n        /* \"#utility.yul\":418:419   */\n      0x00\n        /* \"#utility.yul\":407:416   */\n      dup4\n        /* \"#utility.yul\":403:420   */\n      add\n        /* \"#utility.yul\":394:400   */\n      dup5\n        /* \"#utility.yul\":352:421   */\n      tag_39\n      jump\t// in\n    tag_62:\n        /* \"#utility.yul\":210:428   */\n      swap3\n      swap2\n      pop\n      pop\n      jump\t// out\n        /* \"#utility.yul\":434:560   */\n    tag_40:\n        /* \"#utility.yul\":471:478   */\n      0x00\n        /* \"#utility.yul\":511:553   */\n      0xffffffffffffffffffffffffffffffffffffffff\n        /* \"#utility.yul\":504:509   */\n      dup3\n        /* \"#utility.yul\":500:554   */\n      and\n        /* \"#utility.yul\":489:554   */\n      swap1\n      pop\n        /* \"#utility.yul\":434:560   */\n      swap2\n      swap1\n      pop\n      jump\t// out\n        /* \"#utility.yul\":566:662   */\n    tag_41:\n        /* \"#utility.yul\":603:610   */\n      0x00\n        /* \"#utility.yul\":632:656   */\n      tag_65\n        /* \"#utility.yul\":650:655   */\n      dup3\n        /* \"#utility.yul\":632:656   */\n      tag_40\n      jump\t// in\n    tag_65:\n        /* \"#utility.yul\":621:656   */\n      swap1\n      pop\n        /* \"#utility.yul\":566:662   */\n      swap2\n      swap1\n      pop\n      jump\t// out\n        /* \"#utility.yul\":668:786   */\n    tag_42:\n        /* \"#utility.yul\":755:779   */\n      tag_67\n        /* \"#utility.yul\":773:778   */\n      dup2\n        /* \"#utility.yul\":755:779   */\n      tag_41\n      jump\t// in\n    tag_67:\n        /* \"#utility.yul\":750:753   */\n      dup3\n        /* \"#utility.yul\":743:780   */\n      mstore\n        /* \"#utility.yul\":668:786   */\n      pop\n      pop\n      jump\t// out\n        /* \"#utility.yul\":792:1014   */\n    tag_16:\n        /* \"#utility.yul\":885:889   */\n      0x00\n        /* \"#utility.yul\":923:925   */\n      0x20\n        /* \"#utility.yul\":912:921   */\n      dup3\n        /* \"#utility.yul\":908:926   */\n      add\n        /* \"#utility.yul\":900:926   */\n      swap1\n      pop\n        /* \"#utility.yul\":936:1007   */\n      tag_69\n        /* \"#utility.yul\":1004:1005   */\n      0x00\n        /* \"#utility.yul\":993:1002   */\n      dup4\n        /* \"#utility.yul\":989:1006   */\n      add\n        /* \"#utility.yul\":980:986   */\n      dup5\n        /* \"#utility.yul\":936:1007   */\n      tag_42\n      jump\t// in\n    tag_69:\n        /* \"#utility.yul\":792:1014   */\n      swap3\n      swap2\n      pop\n      pop\n      jump\t// out\n        /* \"#utility.yul\":1101:1218   */\n    tag_44:\n        /* \"#utility.yul\":1210:1211   */\n      0x00\n        /* \"#utility.yul\":1207:1208   */\n      dup1\n        /* \"#utility.yul\":1200:1212   */\n      revert\n        /* \"#utility.yul\":1347:1452   */\n    tag_46:\n        /* \"#utility.yul\":1383:1390   */\n      0x00\n        /* \"#utility.yul\":1423:1445   */\n      0xffffffffffffffffffff\n        /* \"#utility.yul\":1416:1421   */\n      dup3\n        /* \"#utility.yul\":1412:1446   */\n      and\n        /* \"#utility.yul\":1401:1446   */\n      swap1\n      pop\n        /* \"#utility.yul\":1347:1452   */\n      swap2\n      swap1\n      pop\n      jump\t// out\n        /* \"#utility.yul\":1458:1578   */\n    tag_47:\n        /* \"#utility.yul\":1530:1553   */\n      tag_75\n        /* \"#utility.yul\":1547:1552   */\n      dup2\n        /* \"#utility.yul\":1530:1553   */\n      tag_46\n      jump\t// in\n    tag_75:\n        /* \"#utility.yul\":1523:1528   */\n      dup2\n        /* \"#utility.yul\":1520:1554   */\n      eq\n        /* \"#utility.yul\":1510:1572   */\n      tag_76\n      jumpi\n        /* \"#utility.yul\":1568:1569   */\n      0x00\n        /* \"#utility.yul\":1565:1566   */\n      dup1\n        /* \"#utility.yul\":1558:1570   */\n      revert\n        /* \"#utility.yul\":1510:1572   */\n    tag_76:\n        /* \"#utility.yul\":1458:1578   */\n      pop\n      jump\t// out\n        /* \"#utility.yul\":1584:1725   */\n    tag_48:\n        /* \"#utility.yul\":1640:1645   */\n      0x00\n        /* \"#utility.yul\":1671:1677   */\n      dup2\n        /* \"#utility.yul\":1665:1678   */\n      mload\n        /* \"#utility.yul\":1656:1678   */\n      swap1\n      pop\n        /* \"#utility.yul\":1687:1719   */\n      tag_78\n        /* \"#utility.yul\":1713:1718   */\n      dup2\n        /* \"#utility.yul\":1687:1719   */\n      tag_47\n      jump\t// in\n    tag_78:\n        /* \"#utility.yul\":1584:1725   */\n      swap3\n      swap2\n      pop\n      pop\n      jump\t// out\n        /* \"#utility.yul\":1731:1851   */\n    tag_49:\n        /* \"#utility.yul\":1803:1826   */\n      tag_80\n        /* \"#utility.yul\":1820:1825   */\n      dup2\n        /* \"#utility.yul\":1803:1826   */\n      tag_38\n      jump\t// in\n    tag_80:\n        /* \"#utility.yul\":1796:1801   */\n      dup2\n        /* \"#utility.yul\":1793:1827   */\n      eq\n        /* \"#utility.yul\":1783:1845   */\n      tag_81\n      jumpi\n        /* \"#utility.yul\":1841:1842   */\n      0x00\n        /* \"#utility.yul\":1838:1839   */\n      dup1\n        /* \"#utility.yul\":1831:1843   */\n      revert\n        /* \"#utility.yul\":1783:1845   */\n    tag_81:\n        /* \"#utility.yul\":1731:1851   */\n      pop\n      jump\t// out\n        /* \"#utility.yul\":1857:1998   */\n    tag_50:\n        /* \"#utility.yul\":1913:1918   */\n      0x00\n        /* \"#utility.yul\":1944:1950   */\n      dup2\n        /* \"#utility.yul\":1938:1951   */\n      mload\n        /* \"#utility.yul\":1929:1951   */\n      swap1\n      pop\n        /* \"#utility.yul\":1960:1992   */\n      tag_83\n        /* \"#utility.yul\":1986:1991   */\n      dup2\n        /* \"#utility.yul\":1960:1992   */\n      tag_49\n      jump\t// in\n    tag_83:\n        /* \"#utility.yul\":1857:1998   */\n      swap3\n      swap2\n      pop\n      pop\n      jump\t// out\n        /* \"#utility.yul\":2004:2081   */\n    tag_51:\n        /* \"#utility.yul\":2041:2048   */\n      0x00\n        /* \"#utility.yul\":2070:2075   */\n      dup2\n        /* \"#utility.yul\":2059:2075   */\n      swap1\n      pop\n        /* \"#utility.yul\":2004:2081   */\n      swap2\n      swap1\n      pop\n      jump\t// out\n        /* \"#utility.yul\":2087:2209   */\n    tag_52:\n        /* \"#utility.yul\":2160:2184   */\n      tag_86\n        /* \"#utility.yul\":2178:2183   */\n      dup2\n        /* \"#utility.yul\":2160:2184   */\n      tag_51\n      jump\t// in\n    tag_86:\n        /* \"#utility.yul\":2153:2158   */\n      dup2\n        /* \"#utility.yul\":2150:2185   */\n      eq\n        /* \"#utility.yul\":2140:2203   */\n      tag_87\n      jumpi\n        /* \"#utility.yul\":2199:2200   */\n      0x00\n        /* \"#utility.yul\":2196:2197   */\n      dup1\n        /* \"#utility.yul\":2189:2201   */\n      revert\n        /* \"#utility.yul\":2140:2203   */\n    tag_87:\n        /* \"#utility.yul\":2087:2209   */\n      pop\n      jump\t// out\n        /* \"#utility.yul\":2215:2358   */\n    tag_53:\n        /* \"#utility.yul\":2272:2277   */\n      0x00\n        /* \"#utility.yul\":2303:2309   */\n      dup2\n        /* \"#utility.yul\":2297:2310   */\n      mload\n        /* \"#utility.yul\":2288:2310   */\n      swap1\n      pop\n        /* \"#utility.yul\":2319:2352   */\n      tag_89\n        /* \"#utility.yul\":2346:2351   */\n      dup2\n        /* \"#utility.yul\":2319:2352   */\n      tag_52\n      jump\t// in\n    tag_89:\n        /* \"#utility.yul\":2215:2358   */\n      swap3\n      swap2\n      pop\n      pop\n      jump\t// out\n        /* \"#utility.yul\":2364:3335   */\n    tag_32:\n        /* \"#utility.yul\":2467:2473   */\n      0x00\n        /* \"#utility.yul\":2475:2481   */\n      dup1\n        /* \"#utility.yul\":2483:2489   */\n      0x00\n        /* \"#utility.yul\":2491:2497   */\n      dup1\n        /* \"#utility.yul\":2499:2505   */\n      0x00\n        /* \"#utility.yul\":2548:2551   */\n      0xa0\n        /* \"#utility.yul\":2536:2545   */\n      dup7\n        /* \"#utility.yul\":2527:2534   */\n      dup9\n        /* \"#utility.yul\":2523:2546   */\n      sub\n        /* \"#utility.yul\":2519:2552   */\n      slt\n        /* \"#utility.yul\":2516:2636   */\n      iszero\n      tag_91\n      jumpi\n        /* \"#utility.yul\":2555:2634   */\n      tag_92\n      tag_44\n      jump\t// in\n    tag_92:\n        /* \"#utility.yul\":2516:2636   */\n    tag_91:\n        /* \"#utility.yul\":2675:2676   */\n      0x00\n        /* \"#utility.yul\":2700:2763   */\n      tag_93\n        /* \"#utility.yul\":2755:2762   */\n      dup9\n        /* \"#utility.yul\":2746:2752   */\n      dup3\n        /* \"#utility.yul\":2735:2744   */\n      dup10\n        /* \"#utility.yul\":2731:2753   */\n      add\n        /* \"#utility.yul\":2700:2763   */\n      tag_48\n      jump\t// in\n    tag_93:\n        /* \"#utility.yul\":2690:2763   */\n      swap6\n      pop\n        /* \"#utility.yul\":2646:2773   */\n      pop\n        /* \"#utility.yul\":2812:2814   */\n      0x20\n        /* \"#utility.yul\":2838:2901   */\n      tag_94\n        /* \"#utility.yul\":2893:2900   */\n      dup9\n        /* \"#utility.yul\":2884:2890   */\n      dup3\n        /* \"#utility.yul\":2873:2882   */\n      dup10\n        /* \"#utility.yul\":2869:2891   */\n      add\n        /* \"#utility.yul\":2838:2901   */\n      tag_50\n      jump\t// in\n    tag_94:\n        /* \"#utility.yul\":2828:2901   */\n      swap5\n      pop\n        /* \"#utility.yul\":2783:2911   */\n      pop\n        /* \"#utility.yul\":2950:2952   */\n      0x40\n        /* \"#utility.yul\":2976:3040   */\n      tag_95\n        /* \"#utility.yul\":3032:3039   */\n      dup9\n        /* \"#utility.yul\":3023:3029   */\n      dup3\n        /* \"#utility.yul\":3012:3021   */\n      dup10\n        /* \"#utility.yul\":3008:3030   */\n      add\n        /* \"#utility.yul\":2976:3040   */\n      tag_53\n      jump\t// in\n    tag_95:\n        /* \"#utility.yul\":2966:3040   */\n      swap4\n      pop\n        /* \"#utility.yul\":2921:3050   */\n      pop\n        /* \"#utility.yul\":3089:3091   */\n      0x60\n        /* \"#utility.yul\":3115:3179   */\n      tag_96\n        /* \"#utility.yul\":3171:3178   */\n      dup9\n        /* \"#utility.yul\":3162:3168   */\n      dup3\n        /* \"#utility.yul\":3151:3160   */\n      dup10\n        /* \"#utility.yul\":3147:3169   */\n      add\n        /* \"#utility.yul\":3115:3179   */\n      tag_53\n      jump\t// in\n    tag_96:\n        /* \"#utility.yul\":3105:3179   */\n      swap3\n      pop\n        /* \"#utility.yul\":3060:3189   */\n      pop\n        /* \"#utility.yul\":3228:3231   */\n      0x80\n        /* \"#utility.yul\":3255:3318   */\n      tag_97\n        /* \"#utility.yul\":3310:3317   */\n      dup9\n        /* \"#utility.yul\":3301:3307   */\n      dup3\n        /* \"#utility.yul\":3290:3299   */\n      dup10\n        /* \"#utility.yul\":3286:3308   */\n      add\n        /* \"#utility.yul\":3255:3318   */\n      tag_48\n      jump\t// in\n    tag_97:\n        /* \"#utility.yul\":3245:3318   */\n      swap2\n      pop\n        /* \"#utility.yul\":3199:3328   */\n      pop\n        /* \"#utility.yul\":2364:3335   */\n      swap3\n      swap6\n      pop\n      swap3\n      swap6\n      swap1\n      swap4\n      pop\n      jump\t// out\n        /* \"#utility.yul\":3341:3510   */\n    tag_54:\n        /* \"#utility.yul\":3425:3436   */\n      0x00\n        /* \"#utility.yul\":3459:3465   */\n      dup3\n        /* \"#utility.yul\":3454:3457   */\n      dup3\n        /* \"#utility.yul\":3447:3466   */\n      mstore\n        /* \"#utility.yul\":3499:3503   */\n      0x20\n        /* \"#utility.yul\":3494:3497   */\n      dup3\n        /* \"#utility.yul\":3490:3504   */\n      add\n        /* \"#utility.yul\":3475:3504   */\n      swap1\n      pop\n        /* \"#utility.yul\":3341:3510   */\n      swap3\n      swap2\n      pop\n      pop\n      jump\t// out\n        /* \"#utility.yul\":3516:3681   */\n    tag_55:\n        /* \"#utility.yul\":3656:3673   */\n      0x6e6f7420656e6f7567682066756e640000000000000000000000000000000000\n        /* \"#utility.yul\":3652:3653   */\n      0x00\n        /* \"#utility.yul\":3644:3650   */\n      dup3\n        /* \"#utility.yul\":3640:3654   */\n      add\n        /* \"#utility.yul\":3633:3674   */\n      mstore\n        /* \"#utility.yul\":3516:3681   */\n      pop\n      jump\t// out\n        /* \"#utility.yul\":3687:4053   */\n    tag_56:\n        /* \"#utility.yul\":3829:3832   */\n      0x00\n        /* \"#utility.yul\":3850:3917   */\n      tag_101\n        /* \"#utility.yul\":3914:3916   */\n      0x0f\n        /* \"#utility.yul\":3909:3912   */\n      dup4\n        /* \"#utility.yul\":3850:3917   */\n      tag_54\n      jump\t// in\n    tag_101:\n        /* \"#utility.yul\":3843:3917   */\n      swap2\n      pop\n        /* \"#utility.yul\":3926:4019   */\n      tag_102\n        /* \"#utility.yul\":4015:4018   */\n      dup3\n        /* \"#utility.yul\":3926:4019   */\n      tag_55\n      jump\t// in\n    tag_102:\n        /* \"#utility.yul\":4044:4046   */\n      0x20\n        /* \"#utility.yul\":4039:4042   */\n      dup3\n        /* \"#utility.yul\":4035:4047   */\n      add\n        /* \"#utility.yul\":4028:4047   */\n      swap1\n      pop\n        /* \"#utility.yul\":3687:4053   */\n      swap2\n      swap1\n      pop\n      jump\t// out\n        /* \"#utility.yul\":4059:4478   */\n    tag_36:\n        /* \"#utility.yul\":4225:4229   */\n      0x00\n        /* \"#utility.yul\":4263:4265   */\n      0x20\n        /* \"#utility.yul\":4252:4261   */\n      dup3\n        /* \"#utility.yul\":4248:4266   */\n      add\n        /* \"#utility.yul\":4240:4266   */\n      swap1\n      pop\n        /* \"#utility.yul\":4312:4321   */\n      dup2\n        /* \"#utility.yul\":4306:4310   */\n      dup2\n        /* \"#utility.yul\":4302:4322   */\n      sub\n        /* \"#utility.yul\":4298:4299   */\n      0x00\n        /* \"#utility.yul\":4287:4296   */\n      dup4\n        /* \"#utility.yul\":4283:4300   */\n      add\n        /* \"#utility.yul\":4276:4323   */\n      mstore\n        /* \"#utility.yul\":4340:4471   */\n      tag_104\n        /* \"#utility.yul\":4466:4470   */\n      dup2\n        /* \"#utility.yul\":4340:4471   */\n      tag_56\n      jump\t// in\n    tag_104:\n        /* \"#utility.yul\":4332:4471   */\n      swap1\n      pop\n        /* \"#utility.yul\":4059:4478   */\n      swap2\n      swap1\n      pop\n      jump\t// out\n\n    auxdata: 0xa2646970667358221220e7592cb76541ff9638c0f8741c736818f88ab25ad433e0c768f39cc36dbd9cc164736f6c63430008080033\n}\n",
				"bytecode": {
					"linkReferences": {},
					"object": "608060405273f7904a295a029a3abdffb6f12755974a958c7c25600260006101000a81548173ffffffffffffffffffffffffffffffffffffffff021916908373ffffffffffffffffffffffffffffffffffffffff16021790555034801561006557600080fd5b50600260009054906101000a900473ffffffffffffffffffffffffffffffffffffffff16600360006101000a81548173ffffffffffffffffffffffffffffffffffffffff021916908373ffffffffffffffffffffffffffffffffffffffff1602179055506104aa806100d86000396000f3fe60806040526004361061004a5760003560e01c80631ab26def1461004f57806329c36bb51461007a5780638e15f473146100a5578063b60d4288146100d0578063c7a0d9f6146100da575b600080fd5b34801561005b57600080fd5b50610064610105565b604051610071919061025c565b60405180910390f35b34801561008657600080fd5b5061008f61010b565b60405161009c91906102b8565b60405180910390f35b3480156100b157600080fd5b506100ba610131565b6040516100c7919061025c565b60405180910390f35b6100d86101e1565b005b3480156100e657600080fd5b506100ef61023d565b6040516100fc919061025c565b60405180910390f35b60015481565b600260009054906101000a900473ffffffffffffffffffffffffffffffffffffffff1681565b600080600360009054906101000a900473ffffffffffffffffffffffffffffffffffffffff1673ffffffffffffffffffffffffffffffffffffffff1663feaf968c6040518163ffffffff1660e01b815260040160a06040518083038186803b15801561019c57600080fd5b505afa1580156101b0573d6000803e3d6000fd5b505050506040513d601f19601f820116820180604052508101906101d4919061037c565b5050509150508091505090565b6005600081905550600134101561022d576040517f08c379a000000000000000000000000000000000000000000000000000000000815260040161022490610454565b60405180910390fd5b610235610131565b600181905550565b60005481565b6000819050919050565b61025681610243565b82525050565b6000602082019050610271600083018461024d565b92915050565b600073ffffffffffffffffffffffffffffffffffffffff82169050919050565b60006102a282610277565b9050919050565b6102b281610297565b82525050565b60006020820190506102cd60008301846102a9565b92915050565b600080fd5b600069ffffffffffffffffffff82169050919050565b6102f7816102d8565b811461030257600080fd5b50565b600081519050610314816102ee565b92915050565b61032381610243565b811461032e57600080fd5b50565b6000815190506103408161031a565b92915050565b6000819050919050565b61035981610346565b811461036457600080fd5b50565b60008151905061037681610350565b92915050565b600080600080600060a08688031215610398576103976102d3565b5b60006103a688828901610305565b95505060206103b788828901610331565b94505060406103c888828901610367565b93505060606103d988828901610367565b92505060806103ea88828901610305565b9150509295509295909350565b600082825260208201905092915050565b7f6e6f7420656e6f7567682066756e640000000000000000000000000000000000600082015250565b600061043e600f836103f7565b915061044982610408565b602082019050919050565b6000602082019050818103600083015261046d81610431565b905091905056fea2646970667358221220e7592cb76541ff9638c0f8741c736818f88ab25ad433e0c768f39cc36dbd9cc164736f6c63430008080033",
					"opcodes": "PUSH1 0x80 PUSH1 0x40 MSTORE PUSH20 0xF7904A295A029A3ABDFFB6F12755974A958C7C25 PUSH1 0x2 PUSH1 0x0 PUSH2 0x100 EXP DUP2 SLOAD DUP2 PUSH20 0xFFFFFFFFFFFFFFFFFFFFFFFFFFFFFFFFFFFFFFFF MUL NOT AND SWAP1 DUP4 PUSH20 0xFFFFFFFFFFFFFFFFFFFFFFFFFFFFFFFFFFFFFFFF AND MUL OR SWAP1 SSTORE POP CALLVALUE DUP1 ISZERO PUSH2 0x65 JUMPI PUSH1 0x0 DUP1 REVERT JUMPDEST POP PUSH1 0x2 PUSH1 0x0 SWAP1 SLOAD SWAP1 PUSH2 0x100 EXP SWAP1 DIV PUSH20 0xFFFFFFFFFFFFFFFFFFFFFFFFFFFFFFFFFFFFFFFF AND PUSH1 0x3 PUSH1 0x0 PUSH2 0x100 EXP DUP2 SLOAD DUP2 PUSH20 0xFFFFFFFFFFFFFFFFFFFFFFFFFFFFFFFFFFFFFFFF MUL NOT AND SWAP1 DUP4 PUSH20 0xFFFFFFFFFFFFFFFFFFFFFFFFFFFFFFFFFFFFFFFF AND MUL OR SWAP1 SSTORE POP PUSH2 0x4AA DUP1 PUSH2 0xD8 PUSH1 0x0 CODECOPY PUSH1 0x0 RETURN INVALID PUSH1 0x80 PUSH1 0x40 MSTORE PUSH1 0x4 CALLDATASIZE LT PUSH2 0x4A JUMPI PUSH1 0x0 CALLDATALOAD PUSH1 0xE0 SHR DUP1 PUSH4 0x1AB26DEF EQ PUSH2 0x4F JUMPI DUP1 PUSH4 0x29C36BB5 EQ PUSH2 0x7A JUMPI DUP1 PUSH4 0x8E15F473 EQ PUSH2 0xA5 JUMPI DUP1 PUSH4 0xB60D4288 EQ PUSH2 0xD0 JUMPI DUP1 PUSH4 0xC7A0D9F6 EQ PUSH2 0xDA JUMPI JUMPDEST PUSH1 0x0 DUP1 REVERT JUMPDEST CALLVALUE DUP1 ISZERO PUSH2 0x5B JUMPI PUSH1 0x0 DUP1 REVERT JUMPDEST POP PUSH2 0x64 PUSH2 0x105 JUMP JUMPDEST PUSH1 0x40 MLOAD PUSH2 0x71 SWAP2 SWAP1 PUSH2 0x25C JUMP JUMPDEST PUSH1 0x40 MLOAD DUP1 SWAP2 SUB SWAP1 RETURN JUMPDEST CALLVALUE DUP1 ISZERO PUSH2 0x86 JUMPI PUSH1 0x0 DUP1 REVERT JUMPDEST POP PUSH2 0x8F PUSH2 0x10B JUMP JUMPDEST PUSH1 0x40 MLOAD PUSH2 0x9C SWAP2 SWAP1 PUSH2 0x2B8 JUMP JUMPDEST PUSH1 0x40 MLOAD DUP1 SWAP2 SUB SWAP1 RETURN JUMPDEST CALLVALUE DUP1 ISZERO PUSH2 0xB1 JUMPI PUSH1 0x0 DUP1 REVERT JUMPDEST POP PUSH2 0xBA PUSH2 0x131 JUMP JUMPDEST PUSH1 0x40 MLOAD PUSH2 0xC7 SWAP2 SWAP1 PUSH2 0x25C JUMP JUMPDEST PUSH1 0x40 MLOAD DUP1 SWAP2 SUB SWAP1 RETURN JUMPDEST PUSH2 0xD8 PUSH2 0x1E1 JUMP JUMPDEST STOP JUMPDEST CALLVALUE DUP1 ISZERO PUSH2 0xE6 JUMPI PUSH1 0x0 DUP1 REVERT JUMPDEST POP PUSH2 0xEF PUSH2 0x23D JUMP JUMPDEST PUSH1 0x40 MLOAD PUSH2 0xFC SWAP2 SWAP1 PUSH2 0x25C JUMP JUMPDEST PUSH1 0x40 MLOAD DUP1 SWAP2 SUB SWAP1 RETURN JUMPDEST PUSH1 0x1 SLOAD DUP2 JUMP JUMPDEST PUSH1 0x2 PUSH1 0x0 SWAP1 SLOAD SWAP1 PUSH2 0x100 EXP SWAP1 DIV PUSH20 0xFFFFFFFFFFFFFFFFFFFFFFFFFFFFFFFFFFFFFFFF AND DUP2 JUMP JUMPDEST PUSH1 0x0 DUP1 PUSH1 0x3 PUSH1 0x0 SWAP1 SLOAD SWAP1 PUSH2 0x100 EXP SWAP1 DIV PUSH20 0xFFFFFFFFFFFFFFFFFFFFFFFFFFFFFFFFFFFFFFFF AND PUSH20 0xFFFFFFFFFFFFFFFFFFFFFFFFFFFFFFFFFFFFFFFF AND PUSH4 0xFEAF968C PUSH1 0x40 MLOAD DUP2 PUSH4 0xFFFFFFFF AND PUSH1 0xE0 SHL DUP2 MSTORE PUSH1 0x4 ADD PUSH1 0xA0 PUSH1 0x40 MLOAD DUP1 DUP4 SUB DUP2 DUP7 DUP1 EXTCODESIZE ISZERO DUP1 ISZERO PUSH2 0x19C JUMPI PUSH1 0x0 DUP1 REVERT JUMPDEST POP GAS STATICCALL ISZERO DUP1 ISZERO PUSH2 0x1B0 JUMPI RETURNDATASIZE PUSH1 0x0 DUP1 RETURNDATACOPY RETURNDATASIZE PUSH1 0x0 REVERT JUMPDEST POP POP POP POP PUSH1 0x40 MLOAD RETURNDATASIZE PUSH1 0x1F NOT PUSH1 0x1F DUP3 ADD AND DUP3 ADD DUP1 PUSH1 0x40 MSTORE POP DUP2 ADD SWAP1 PUSH2 0x1D4 SWAP2 SWAP1 PUSH2 0x37C JUMP JUMPDEST POP POP POP SWAP2 POP POP DUP1 SWAP2 POP POP SWAP1 JUMP JUMPDEST PUSH1 0x5 PUSH1 0x0 DUP2 SWAP1 SSTORE POP PUSH1 0x1 CALLVALUE LT ISZERO PUSH2 0x22D JUMPI PUSH1 0x40 MLOAD PUSH32 0x8C379A000000000000000000000000000000000000000000000000000000000 DUP2 MSTORE PUSH1 0x4 ADD PUSH2 0x224 SWAP1 PUSH2 0x454 JUMP JUMPDEST PUSH1 0x40 MLOAD DUP1 SWAP2 SUB SWAP1 REVERT JUMPDEST PUSH2 0x235 PUSH2 0x131 JUMP JUMPDEST PUSH1 0x1 DUP2 SWAP1 SSTORE POP JUMP JUMPDEST PUSH1 0x0 SLOAD DUP2 JUMP JUMPDEST PUSH1 0x0 DUP2 SWAP1 POP SWAP2 SWAP1 POP JUMP JUMPDEST PUSH2 0x256 DUP2 PUSH2 0x243 JUMP JUMPDEST DUP3 MSTORE POP POP JUMP JUMPDEST PUSH1 0x0 PUSH1 0x20 DUP3 ADD SWAP1 POP PUSH2 0x271 PUSH1 0x0 DUP4 ADD DUP5 PUSH2 0x24D JUMP JUMPDEST SWAP3 SWAP2 POP POP JUMP JUMPDEST PUSH1 0x0 PUSH20 0xFFFFFFFFFFFFFFFFFFFFFFFFFFFFFFFFFFFFFFFF DUP3 AND SWAP1 POP SWAP2 SWAP1 POP JUMP JUMPDEST PUSH1 0x0 PUSH2 0x2A2 DUP3 PUSH2 0x277 JUMP JUMPDEST SWAP1 POP SWAP2 SWAP1 POP JUMP JUMPDEST PUSH2 0x2B2 DUP2 PUSH2 0x297 JUMP JUMPDEST DUP3 MSTORE POP POP JUMP JUMPDEST PUSH1 0x0 PUSH1 0x20 DUP3 ADD SWAP1 POP PUSH2 0x2CD PUSH1 0x0 DUP4 ADD DUP5 PUSH2 0x2A9 JUMP JUMPDEST SWAP3 SWAP2 POP POP JUMP JUMPDEST PUSH1 0x0 DUP1 REVERT JUMPDEST PUSH1 0x0 PUSH10 0xFFFFFFFFFFFFFFFFFFFF DUP3 AND SWAP1 POP SWAP2 SWAP1 POP JUMP JUMPDEST PUSH2 0x2F7 DUP2 PUSH2 0x2D8 JUMP JUMPDEST DUP2 EQ PUSH2 0x302 JUMPI PUSH1 0x0 DUP1 REVERT JUMPDEST POP JUMP JUMPDEST PUSH1 0x0 DUP2 MLOAD SWAP1 POP PUSH2 0x314 DUP2 PUSH2 0x2EE JUMP JUMPDEST SWAP3 SWAP2 POP POP JUMP JUMPDEST PUSH2 0x323 DUP2 PUSH2 0x243 JUMP JUMPDEST DUP2 EQ PUSH2 0x32E JUMPI PUSH1 0x0 DUP1 REVERT JUMPDEST POP JUMP JUMPDEST PUSH1 0x0 DUP2 MLOAD SWAP1 POP PUSH2 0x340 DUP2 PUSH2 0x31A JUMP JUMPDEST SWAP3 SWAP2 POP POP JUMP JUMPDEST PUSH1 0x0 DUP2 SWAP1 POP SWAP2 SWAP1 POP JUMP JUMPDEST PUSH2 0x359 DUP2 PUSH2 0x346 JUMP JUMPDEST DUP2 EQ PUSH2 0x364 JUMPI PUSH1 0x0 DUP1 REVERT JUMPDEST POP JUMP JUMPDEST PUSH1 0x0 DUP2 MLOAD SWAP1 POP PUSH2 0x376 DUP2 PUSH2 0x350 JUMP JUMPDEST SWAP3 SWAP2 POP POP JUMP JUMPDEST PUSH1 0x0 DUP1 PUSH1 0x0 DUP1 PUSH1 0x0 PUSH1 0xA0 DUP7 DUP9 SUB SLT ISZERO PUSH2 0x398 JUMPI PUSH2 0x397 PUSH2 0x2D3 JUMP JUMPDEST JUMPDEST PUSH1 0x0 PUSH2 0x3A6 DUP9 DUP3 DUP10 ADD PUSH2 0x305 JUMP JUMPDEST SWAP6 POP POP PUSH1 0x20 PUSH2 0x3B7 DUP9 DUP3 DUP10 ADD PUSH2 0x331 JUMP JUMPDEST SWAP5 POP POP PUSH1 0x40 PUSH2 0x3C8 DUP9 DUP3 DUP10 ADD PUSH2 0x367 JUMP JUMPDEST SWAP4 POP POP PUSH1 0x60 PUSH2 0x3D9 DUP9 DUP3 DUP10 ADD PUSH2 0x367 JUMP JUMPDEST SWAP3 POP POP PUSH1 0x80 PUSH2 0x3EA DUP9 DUP3 DUP10 ADD PUSH2 0x305 JUMP JUMPDEST SWAP2 POP POP SWAP3 SWAP6 POP SWAP3 SWAP6 SWAP1 SWAP4 POP JUMP JUMPDEST PUSH1 0x0 DUP3 DUP3 MSTORE PUSH1 0x20 DUP3 ADD SWAP1 POP SWAP3 SWAP2 POP POP JUMP JUMPDEST PUSH32 0x6E6F7420656E6F7567682066756E640000000000000000000000000000000000 PUSH1 0x0 DUP3 ADD MSTORE POP JUMP JUMPDEST PUSH1 0x0 PUSH2 0x43E PUSH1 0xF DUP4 PUSH2 0x3F7 JUMP JUMPDEST SWAP2 POP PUSH2 0x449 DUP3 PUSH2 0x408 JUMP JUMPDEST PUSH1 0x20 DUP3 ADD SWAP1 POP SWAP2 SWAP1 POP JUMP JUMPDEST PUSH1 0x0 PUSH1 0x20 DUP3 ADD SWAP1 POP DUP2 DUP2 SUB PUSH1 0x0 DUP4 ADD MSTORE PUSH2 0x46D DUP2 PUSH2 0x431 JUMP JUMPDEST SWAP1 POP SWAP2 SWAP1 POP JUMP INVALID LOG2 PUSH5 0x6970667358 0x22 SLT KECCAK256 0xE7 MSIZE 0x2C 0xB7 PUSH6 0x41FF9638C0F8 PUSH21 0x1C736818F88AB25AD433E0C768F39CC36DBD9CC164 PUSH20 0x6F6C634300080800330000000000000000000000 "
				},
				"gasEstimates": {
					"creation": {
						"codeDepositCost": "238800",
						"executionCost": "50951",
						"totalCost": "289751"
					},
					"external": {
						"favNumber()": "2495",
						"feedAddress()": "2514",
						"fund()": "infinite",
						"getLatestPrice()": "infinite",
						"latestPriceOfBTCinETH()": "2407"
					}
				},
				"methodIdentifiers": {
					"favNumber()": "c7a0d9f6",
					"feedAddress()": "29c36bb5",
					"fund()": "b60d4288",
					"getLatestPrice()": "8e15f473",
					"latestPriceOfBTCinETH()": "1ab26def"
				}
			},
			"storageLayout": {
				"storage": [
					{
						"astId": 50,
						"contract": "contracts/FundMe.sol:FundMe",
						"label": "favNumber",
						"offset": 0,
						"slot": "0",
						"type": "t_int256"
					},
					{
						"astId": 52,
						"contract": "contracts/FundMe.sol:FundMe",
						"label": "latestPriceOfBTCinETH",
						"offset": 0,
						"slot": "1",
						"type": "t_int256"
					},
					{
						"astId": 55,
						"contract": "contracts/FundMe.sol:FundMe",
						"label": "feedAddress",
						"offset": 0,
						"slot": "2",
						"type": "t_address"
					},
					{
						"astId": 58,
						"contract": "contracts/FundMe.sol:FundMe",
						"label": "priceFeed",
						"offset": 0,
						"slot": "3",
						"type": "t_contract(AggregatorV3Interface)45"
					}
				],
				"types": {
					"t_address": {
						"encoding": "inplace",
						"label": "address",
						"numberOfBytes": "20"
					},
					"t_contract(AggregatorV3Interface)45": {
						"encoding": "inplace",
						"label": "contract AggregatorV3Interface",
						"numberOfBytes": "20"
					},
					"t_int256": {
						"encoding": "inplace",
						"label": "int256",
						"numberOfBytes": "32"
					}
				}
			},
			"userdoc": {
				"kind": "user",
				"methods": {},
				"version": 1
			}
		}
	}
}