{
	"contracts/FundMe.sol": {
		"FundMe": {
			"abi": [
				{
					"inputs": [],
					"stateMutability": "nonpayable",
					"type": "constructor"
				},
				{
					"inputs": [],
					"name": "favNumber",
					"outputs": [
						{
							"internalType": "int256",
							"name": "",
							"type": "int256"
						}
					],
					"stateMutability": "view",
					"type": "function"
				},
				{
					"inputs": [],
					"name": "feedAddress",
					"outputs": [
						{
							"internalType": "address",
							"name": "",
							"type": "address"
						}
					],
					"stateMutability": "view",
					"type": "function"
				},
				{
					"inputs": [],
					"name": "fund",
					"outputs": [],
					"stateMutability": "payable",
					"type": "function"
				},
				{
					"inputs": [],
					"name": "getDollarToEthereumConversionRate",
					"outputs": [
						{
							"internalType": "uint256",
							"name": "",
							"type": "uint256"
						}
					],
					"stateMutability": "view",
					"type": "function"
				},
				{
					"inputs": [],
					"name": "getLatestPriceOfEthInUSD",
					"outputs": [
						{
							"internalType": "int256",
							"name": "",
							"type": "int256"
						}
					],
					"stateMutability": "view",
					"type": "function"
				},
				{
					"inputs": [],
					"name": "minimumUSDToSend",
					"outputs": [
						{
							"internalType": "uint256",
							"name": "",
							"type": "uint256"
						}
					],
					"stateMutability": "view",
					"type": "function"
				}
			],
			"devdoc": {
				"kind": "dev",
				"methods": {},
				"version": 1
			},
			"evm": {
				"assembly": "    /* \"contracts/FundMe.sol\":136:810  contract FundMe{... */\n  mstore(0x40, 0x80)\n    /* \"contracts/FundMe.sol\":253:295  0x8A753747A1Fa494EC906cE90E9f37563A8AF630e */\n  0x8a753747a1fa494ec906ce90e9f37563a8af630e\n    /* \"contracts/FundMe.sol\":224:295  address public feedAddress = 0x8A753747A1Fa494EC906cE90E9f37563A8AF630e */\n  0x02\n  exp(0x0100, 0x00)\n  dup2\n  sload\n  dup2\n  0xffffffffffffffffffffffffffffffffffffffff\n  mul\n  not\n  and\n  swap1\n  dup4\n  0xffffffffffffffffffffffffffffffffffffffff\n  and\n  mul\n  or\n  swap1\n  sstore\n  pop\n    /* \"contracts/FundMe.sol\":471:550  constructor() {... */\n  callvalue\n  dup1\n  iszero\n  tag_1\n  jumpi\n  0x00\n  dup1\n  revert\ntag_1:\n  pop\n    /* \"contracts/FundMe.sol\":530:541  feedAddress */\n  0x02\n  0x00\n  swap1\n  sload\n  swap1\n  0x0100\n  exp\n  swap1\n  div\n  0xffffffffffffffffffffffffffffffffffffffff\n  and\n    /* \"contracts/FundMe.sol\":496:505  priceFeed */\n  0x03\n  0x00\n    /* \"contracts/FundMe.sol\":496:542  priceFeed = AggregatorV3Interface(feedAddress) */\n  0x0100\n  exp\n  dup2\n  sload\n  dup2\n  0xffffffffffffffffffffffffffffffffffffffff\n  mul\n  not\n  and\n  swap1\n  dup4\n  0xffffffffffffffffffffffffffffffffffffffff\n  and\n  mul\n  or\n  swap1\n  sstore\n  pop\n    /* \"contracts/FundMe.sol\":136:810  contract FundMe{... */\n  dataSize(sub_0)\n  dup1\n  dataOffset(sub_0)\n  0x00\n  codecopy\n  0x00\n  return\nstop\n\nsub_0: assembly {\n        /* \"contracts/FundMe.sol\":136:810  contract FundMe{... */\n      mstore(0x40, 0x80)\n      jumpi(tag_1, lt(calldatasize, 0x04))\n      shr(0xe0, calldataload(0x00))\n      dup1\n      0x11ae655a\n      eq\n      tag_2\n      jumpi\n      dup1\n      0x29c36bb5\n      eq\n      tag_3\n      jumpi\n      dup1\n      0x8e5d6157\n      eq\n      tag_4\n      jumpi\n      dup1\n      0xb60d4288\n      eq\n      tag_5\n      jumpi\n      dup1\n      0xc7a0d9f6\n      eq\n      tag_6\n      jumpi\n      dup1\n      0xc9f9a4d0\n      eq\n      tag_7\n      jumpi\n    tag_1:\n      0x00\n      dup1\n      revert\n        /* \"contracts/FundMe.sol\":186:217  uint256 public minimumUSDToSend */\n    tag_2:\n      callvalue\n      dup1\n      iszero\n      tag_8\n      jumpi\n      0x00\n      dup1\n      revert\n    tag_8:\n      pop\n      tag_9\n      tag_10\n      jump\t// in\n    tag_9:\n      mload(0x40)\n      tag_11\n      swap2\n      swap1\n      tag_12\n      jump\t// in\n    tag_11:\n      mload(0x40)\n      dup1\n      swap2\n      sub\n      swap1\n      return\n        /* \"contracts/FundMe.sol\":224:295  address public feedAddress = 0x8A753747A1Fa494EC906cE90E9f37563A8AF630e */\n    tag_3:\n      callvalue\n      dup1\n      iszero\n      tag_13\n      jumpi\n      0x00\n      dup1\n      revert\n    tag_13:\n      pop\n      tag_14\n      tag_15\n      jump\t// in\n    tag_14:\n      mload(0x40)\n      tag_16\n      swap2\n      swap1\n      tag_17\n      jump\t// in\n    tag_16:\n      mload(0x40)\n      dup1\n      swap2\n      sub\n      swap1\n      return\n        /* \"contracts/FundMe.sol\":652:801  function getLatestPriceOfEthInUSD() public view returns (int) {... */\n    tag_4:\n      callvalue\n      dup1\n      iszero\n      tag_18\n      jumpi\n      0x00\n      dup1\n      revert\n    tag_18:\n      pop\n      tag_19\n      tag_20\n      jump\t// in\n    tag_19:\n      mload(0x40)\n      tag_21\n      swap2\n      swap1\n      tag_22\n      jump\t// in\n    tag_21:\n      mload(0x40)\n      dup1\n      swap2\n      sub\n      swap1\n      return\n        /* \"contracts/FundMe.sol\":351:453  function fund () public payable{... */\n    tag_5:\n      tag_23\n      tag_24\n      jump\t// in\n    tag_23:\n      stop\n        /* \"contracts/FundMe.sol\":158:178  int public favNumber */\n    tag_6:\n      callvalue\n      dup1\n      iszero\n      tag_25\n      jumpi\n      0x00\n      dup1\n      revert\n    tag_25:\n      pop\n      tag_26\n      tag_27\n      jump\t// in\n    tag_26:\n      mload(0x40)\n      tag_28\n      swap2\n      swap1\n      tag_22\n      jump\t// in\n    tag_28:\n      mload(0x40)\n      dup1\n      swap2\n      sub\n      swap1\n      return\n        /* \"contracts/FundMe.sol\":558:642  function getDollarToEthereumConversionRate() public view returns (uint256){... */\n    tag_7:\n      callvalue\n      dup1\n      iszero\n      tag_29\n      jumpi\n      0x00\n      dup1\n      revert\n    tag_29:\n      pop\n      tag_30\n      tag_31\n      jump\t// in\n    tag_30:\n      mload(0x40)\n      tag_32\n      swap2\n      swap1\n      tag_12\n      jump\t// in\n    tag_32:\n      mload(0x40)\n      dup1\n      swap2\n      sub\n      swap1\n      return\n        /* \"contracts/FundMe.sol\":186:217  uint256 public minimumUSDToSend */\n    tag_10:\n      sload(0x01)\n      dup2\n      jump\t// out\n        /* \"contracts/FundMe.sol\":224:295  address public feedAddress = 0x8A753747A1Fa494EC906cE90E9f37563A8AF630e */\n    tag_15:\n      0x02\n      0x00\n      swap1\n      sload\n      swap1\n      0x0100\n      exp\n      swap1\n      div\n      0xffffffffffffffffffffffffffffffffffffffff\n      and\n      dup2\n      jump\t// out\n        /* \"contracts/FundMe.sol\":652:801  function getLatestPriceOfEthInUSD() public view returns (int) {... */\n    tag_20:\n        /* \"contracts/FundMe.sol\":709:712  int */\n      0x00\n        /* \"contracts/FundMe.sol\":727:736  int price */\n      dup1\n        /* \"contracts/FundMe.sol\":743:752  priceFeed */\n      0x03\n      0x00\n      swap1\n      sload\n      swap1\n      0x0100\n      exp\n      swap1\n      div\n      0xffffffffffffffffffffffffffffffffffffffff\n      and\n        /* \"contracts/FundMe.sol\":743:768  priceFeed.latestRoundData */\n      0xffffffffffffffffffffffffffffffffffffffff\n      and\n      0xfeaf968c\n        /* \"contracts/FundMe.sol\":743:770  priceFeed.latestRoundData() */\n      mload(0x40)\n      dup2\n      0xffffffff\n      and\n      0xe0\n      shl\n      dup2\n      mstore\n      0x04\n      add\n      0xa0\n      mload(0x40)\n      dup1\n      dup4\n      sub\n      dup2\n      dup7\n      dup1\n      extcodesize\n      iszero\n      dup1\n      iszero\n      tag_34\n      jumpi\n      0x00\n      dup1\n      revert\n    tag_34:\n      pop\n      gas\n      staticcall\n      iszero\n      dup1\n      iszero\n      tag_36\n      jumpi\n      returndatasize\n      0x00\n      dup1\n      returndatacopy\n      revert(0x00, returndatasize)\n    tag_36:\n      pop\n      pop\n      pop\n      pop\n      mload(0x40)\n      returndatasize\n      not(0x1f)\n      0x1f\n      dup3\n      add\n      and\n      dup3\n      add\n      dup1\n      0x40\n      mstore\n      pop\n      dup2\n      add\n      swap1\n      tag_37\n      swap2\n      swap1\n      tag_38\n      jump\t// in\n    tag_37:\n        /* \"contracts/FundMe.sol\":725:770  (,int price,,,) = priceFeed.latestRoundData() */\n      pop\n      pop\n      pop\n      swap2\n      pop\n      pop\n        /* \"contracts/FundMe.sol\":788:793  price */\n      dup1\n        /* \"contracts/FundMe.sol\":781:793  return price */\n      swap2\n      pop\n      pop\n        /* \"contracts/FundMe.sol\":652:801  function getLatestPriceOfEthInUSD() public view returns (int) {... */\n      swap1\n      jump\t// out\n        /* \"contracts/FundMe.sol\":351:453  function fund () public payable{... */\n    tag_24:\n        /* \"contracts/FundMe.sol\":424:425  1 */\n      0x01\n        /* \"contracts/FundMe.sol\":411:420  msg.value */\n      callvalue\n        /* \"contracts/FundMe.sol\":411:425  msg.value >= 1 */\n      lt\n      iszero\n        /* \"contracts/FundMe.sol\":403:445  require(msg.value >= 1, \"not enough fund\") */\n      tag_40\n      jumpi\n      mload(0x40)\n      0x08c379a000000000000000000000000000000000000000000000000000000000\n      dup2\n      mstore\n      0x04\n      add\n      tag_41\n      swap1\n      tag_42\n      jump\t// in\n    tag_41:\n      mload(0x40)\n      dup1\n      swap2\n      sub\n      swap1\n      revert\n    tag_40:\n        /* \"contracts/FundMe.sol\":351:453  function fund () public payable{... */\n      jump\t// out\n        /* \"contracts/FundMe.sol\":158:178  int public favNumber */\n    tag_27:\n      sload(0x00)\n      dup2\n      jump\t// out\n        /* \"contracts/FundMe.sol\":558:642  function getDollarToEthereumConversionRate() public view returns (uint256){... */\n    tag_31:\n        /* \"contracts/FundMe.sol\":624:631  uint256 */\n      0x00\n        /* \"contracts/FundMe.sol\":558:642  function getDollarToEthereumConversionRate() public view returns (uint256){... */\n      swap1\n      jump\t// out\n        /* \"#utility.yul\":7:84   */\n    tag_44:\n        /* \"#utility.yul\":44:51   */\n      0x00\n        /* \"#utility.yul\":73:78   */\n      dup2\n        /* \"#utility.yul\":62:78   */\n      swap1\n      pop\n        /* \"#utility.yul\":7:84   */\n      swap2\n      swap1\n      pop\n      jump\t// out\n        /* \"#utility.yul\":90:208   */\n    tag_45:\n        /* \"#utility.yul\":177:201   */\n      tag_67\n        /* \"#utility.yul\":195:200   */\n      dup2\n        /* \"#utility.yul\":177:201   */\n      tag_44\n      jump\t// in\n    tag_67:\n        /* \"#utility.yul\":172:175   */\n      dup3\n        /* \"#utility.yul\":165:202   */\n      mstore\n        /* \"#utility.yul\":90:208   */\n      pop\n      pop\n      jump\t// out\n        /* \"#utility.yul\":214:436   */\n    tag_12:\n        /* \"#utility.yul\":307:311   */\n      0x00\n        /* \"#utility.yul\":345:347   */\n      0x20\n        /* \"#utility.yul\":334:343   */\n      dup3\n        /* \"#utility.yul\":330:348   */\n      add\n        /* \"#utility.yul\":322:348   */\n      swap1\n      pop\n        /* \"#utility.yul\":358:429   */\n      tag_69\n        /* \"#utility.yul\":426:427   */\n      0x00\n        /* \"#utility.yul\":415:424   */\n      dup4\n        /* \"#utility.yul\":411:428   */\n      add\n        /* \"#utility.yul\":402:408   */\n      dup5\n        /* \"#utility.yul\":358:429   */\n      tag_45\n      jump\t// in\n    tag_69:\n        /* \"#utility.yul\":214:436   */\n      swap3\n      swap2\n      pop\n      pop\n      jump\t// out\n        /* \"#utility.yul\":442:568   */\n    tag_46:\n        /* \"#utility.yul\":479:486   */\n      0x00\n        /* \"#utility.yul\":519:561   */\n      0xffffffffffffffffffffffffffffffffffffffff\n        /* \"#utility.yul\":512:517   */\n      dup3\n        /* \"#utility.yul\":508:562   */\n      and\n        /* \"#utility.yul\":497:562   */\n      swap1\n      pop\n        /* \"#utility.yul\":442:568   */\n      swap2\n      swap1\n      pop\n      jump\t// out\n        /* \"#utility.yul\":574:670   */\n    tag_47:\n        /* \"#utility.yul\":611:618   */\n      0x00\n        /* \"#utility.yul\":640:664   */\n      tag_72\n        /* \"#utility.yul\":658:663   */\n      dup3\n        /* \"#utility.yul\":640:664   */\n      tag_46\n      jump\t// in\n    tag_72:\n        /* \"#utility.yul\":629:664   */\n      swap1\n      pop\n        /* \"#utility.yul\":574:670   */\n      swap2\n      swap1\n      pop\n      jump\t// out\n        /* \"#utility.yul\":676:794   */\n    tag_48:\n        /* \"#utility.yul\":763:787   */\n      tag_74\n        /* \"#utility.yul\":781:786   */\n      dup2\n        /* \"#utility.yul\":763:787   */\n      tag_47\n      jump\t// in\n    tag_74:\n        /* \"#utility.yul\":758:761   */\n      dup3\n        /* \"#utility.yul\":751:788   */\n      mstore\n        /* \"#utility.yul\":676:794   */\n      pop\n      pop\n      jump\t// out\n        /* \"#utility.yul\":800:1022   */\n    tag_17:\n        /* \"#utility.yul\":893:897   */\n      0x00\n        /* \"#utility.yul\":931:933   */\n      0x20\n        /* \"#utility.yul\":920:929   */\n      dup3\n        /* \"#utility.yul\":916:934   */\n      add\n        /* \"#utility.yul\":908:934   */\n      swap1\n      pop\n        /* \"#utility.yul\":944:1015   */\n      tag_76\n        /* \"#utility.yul\":1012:1013   */\n      0x00\n        /* \"#utility.yul\":1001:1010   */\n      dup4\n        /* \"#utility.yul\":997:1014   */\n      add\n        /* \"#utility.yul\":988:994   */\n      dup5\n        /* \"#utility.yul\":944:1015   */\n      tag_48\n      jump\t// in\n    tag_76:\n        /* \"#utility.yul\":800:1022   */\n      swap3\n      swap2\n      pop\n      pop\n      jump\t// out\n        /* \"#utility.yul\":1028:1104   */\n    tag_49:\n        /* \"#utility.yul\":1064:1071   */\n      0x00\n        /* \"#utility.yul\":1093:1098   */\n      dup2\n        /* \"#utility.yul\":1082:1098   */\n      swap1\n      pop\n        /* \"#utility.yul\":1028:1104   */\n      swap2\n      swap1\n      pop\n      jump\t// out\n        /* \"#utility.yul\":1110:1225   */\n    tag_50:\n        /* \"#utility.yul\":1195:1218   */\n      tag_79\n        /* \"#utility.yul\":1212:1217   */\n      dup2\n        /* \"#utility.yul\":1195:1218   */\n      tag_49\n      jump\t// in\n    tag_79:\n        /* \"#utility.yul\":1190:1193   */\n      dup3\n        /* \"#utility.yul\":1183:1219   */\n      mstore\n        /* \"#utility.yul\":1110:1225   */\n      pop\n      pop\n      jump\t// out\n        /* \"#utility.yul\":1231:1449   */\n    tag_22:\n        /* \"#utility.yul\":1322:1326   */\n      0x00\n        /* \"#utility.yul\":1360:1362   */\n      0x20\n        /* \"#utility.yul\":1349:1358   */\n      dup3\n        /* \"#utility.yul\":1345:1363   */\n      add\n        /* \"#utility.yul\":1337:1363   */\n      swap1\n      pop\n        /* \"#utility.yul\":1373:1442   */\n      tag_81\n        /* \"#utility.yul\":1439:1440   */\n      0x00\n        /* \"#utility.yul\":1428:1437   */\n      dup4\n        /* \"#utility.yul\":1424:1441   */\n      add\n        /* \"#utility.yul\":1415:1421   */\n      dup5\n        /* \"#utility.yul\":1373:1442   */\n      tag_50\n      jump\t// in\n    tag_81:\n        /* \"#utility.yul\":1231:1449   */\n      swap3\n      swap2\n      pop\n      pop\n      jump\t// out\n        /* \"#utility.yul\":1536:1653   */\n    tag_52:\n        /* \"#utility.yul\":1645:1646   */\n      0x00\n        /* \"#utility.yul\":1642:1643   */\n      dup1\n        /* \"#utility.yul\":1635:1647   */\n      revert\n        /* \"#utility.yul\":1782:1887   */\n    tag_54:\n        /* \"#utility.yul\":1818:1825   */\n      0x00\n        /* \"#utility.yul\":1858:1880   */\n      0xffffffffffffffffffff\n        /* \"#utility.yul\":1851:1856   */\n      dup3\n        /* \"#utility.yul\":1847:1881   */\n      and\n        /* \"#utility.yul\":1836:1881   */\n      swap1\n      pop\n        /* \"#utility.yul\":1782:1887   */\n      swap2\n      swap1\n      pop\n      jump\t// out\n        /* \"#utility.yul\":1893:2013   */\n    tag_55:\n        /* \"#utility.yul\":1965:1988   */\n      tag_87\n        /* \"#utility.yul\":1982:1987   */\n      dup2\n        /* \"#utility.yul\":1965:1988   */\n      tag_54\n      jump\t// in\n    tag_87:\n        /* \"#utility.yul\":1958:1963   */\n      dup2\n        /* \"#utility.yul\":1955:1989   */\n      eq\n        /* \"#utility.yul\":1945:2007   */\n      tag_88\n      jumpi\n        /* \"#utility.yul\":2003:2004   */\n      0x00\n        /* \"#utility.yul\":2000:2001   */\n      dup1\n        /* \"#utility.yul\":1993:2005   */\n      revert\n        /* \"#utility.yul\":1945:2007   */\n    tag_88:\n        /* \"#utility.yul\":1893:2013   */\n      pop\n      jump\t// out\n        /* \"#utility.yul\":2019:2160   */\n    tag_56:\n        /* \"#utility.yul\":2075:2080   */\n      0x00\n        /* \"#utility.yul\":2106:2112   */\n      dup2\n        /* \"#utility.yul\":2100:2113   */\n      mload\n        /* \"#utility.yul\":2091:2113   */\n      swap1\n      pop\n        /* \"#utility.yul\":2122:2154   */\n      tag_90\n        /* \"#utility.yul\":2148:2153   */\n      dup2\n        /* \"#utility.yul\":2122:2154   */\n      tag_55\n      jump\t// in\n    tag_90:\n        /* \"#utility.yul\":2019:2160   */\n      swap3\n      swap2\n      pop\n      pop\n      jump\t// out\n        /* \"#utility.yul\":2166:2286   */\n    tag_57:\n        /* \"#utility.yul\":2238:2261   */\n      tag_92\n        /* \"#utility.yul\":2255:2260   */\n      dup2\n        /* \"#utility.yul\":2238:2261   */\n      tag_49\n      jump\t// in\n    tag_92:\n        /* \"#utility.yul\":2231:2236   */\n      dup2\n        /* \"#utility.yul\":2228:2262   */\n      eq\n        /* \"#utility.yul\":2218:2280   */\n      tag_93\n      jumpi\n        /* \"#utility.yul\":2276:2277   */\n      0x00\n        /* \"#utility.yul\":2273:2274   */\n      dup1\n        /* \"#utility.yul\":2266:2278   */\n      revert\n        /* \"#utility.yul\":2218:2280   */\n    tag_93:\n        /* \"#utility.yul\":2166:2286   */\n      pop\n      jump\t// out\n        /* \"#utility.yul\":2292:2433   */\n    tag_58:\n        /* \"#utility.yul\":2348:2353   */\n      0x00\n        /* \"#utility.yul\":2379:2385   */\n      dup2\n        /* \"#utility.yul\":2373:2386   */\n      mload\n        /* \"#utility.yul\":2364:2386   */\n      swap1\n      pop\n        /* \"#utility.yul\":2395:2427   */\n      tag_95\n        /* \"#utility.yul\":2421:2426   */\n      dup2\n        /* \"#utility.yul\":2395:2427   */\n      tag_57\n      jump\t// in\n    tag_95:\n        /* \"#utility.yul\":2292:2433   */\n      swap3\n      swap2\n      pop\n      pop\n      jump\t// out\n        /* \"#utility.yul\":2439:2561   */\n    tag_59:\n        /* \"#utility.yul\":2512:2536   */\n      tag_97\n        /* \"#utility.yul\":2530:2535   */\n      dup2\n        /* \"#utility.yul\":2512:2536   */\n      tag_44\n      jump\t// in\n    tag_97:\n        /* \"#utility.yul\":2505:2510   */\n      dup2\n        /* \"#utility.yul\":2502:2537   */\n      eq\n        /* \"#utility.yul\":2492:2555   */\n      tag_98\n      jumpi\n        /* \"#utility.yul\":2551:2552   */\n      0x00\n        /* \"#utility.yul\":2548:2549   */\n      dup1\n        /* \"#utility.yul\":2541:2553   */\n      revert\n        /* \"#utility.yul\":2492:2555   */\n    tag_98:\n        /* \"#utility.yul\":2439:2561   */\n      pop\n      jump\t// out\n        /* \"#utility.yul\":2567:2710   */\n    tag_60:\n        /* \"#utility.yul\":2624:2629   */\n      0x00\n        /* \"#utility.yul\":2655:2661   */\n      dup2\n        /* \"#utility.yul\":2649:2662   */\n      mload\n        /* \"#utility.yul\":2640:2662   */\n      swap1\n      pop\n        /* \"#utility.yul\":2671:2704   */\n      tag_100\n        /* \"#utility.yul\":2698:2703   */\n      dup2\n        /* \"#utility.yul\":2671:2704   */\n      tag_59\n      jump\t// in\n    tag_100:\n        /* \"#utility.yul\":2567:2710   */\n      swap3\n      swap2\n      pop\n      pop\n      jump\t// out\n        /* \"#utility.yul\":2716:3687   */\n    tag_38:\n        /* \"#utility.yul\":2819:2825   */\n      0x00\n        /* \"#utility.yul\":2827:2833   */\n      dup1\n        /* \"#utility.yul\":2835:2841   */\n      0x00\n        /* \"#utility.yul\":2843:2849   */\n      dup1\n        /* \"#utility.yul\":2851:2857   */\n      0x00\n        /* \"#utility.yul\":2900:2903   */\n      0xa0\n        /* \"#utility.yul\":2888:2897   */\n      dup7\n        /* \"#utility.yul\":2879:2886   */\n      dup9\n        /* \"#utility.yul\":2875:2898   */\n      sub\n        /* \"#utility.yul\":2871:2904   */\n      slt\n        /* \"#utility.yul\":2868:2988   */\n      iszero\n      tag_102\n      jumpi\n        /* \"#utility.yul\":2907:2986   */\n      tag_103\n      tag_52\n      jump\t// in\n    tag_103:\n        /* \"#utility.yul\":2868:2988   */\n    tag_102:\n        /* \"#utility.yul\":3027:3028   */\n      0x00\n        /* \"#utility.yul\":3052:3115   */\n      tag_104\n        /* \"#utility.yul\":3107:3114   */\n      dup9\n        /* \"#utility.yul\":3098:3104   */\n      dup3\n        /* \"#utility.yul\":3087:3096   */\n      dup10\n        /* \"#utility.yul\":3083:3105   */\n      add\n        /* \"#utility.yul\":3052:3115   */\n      tag_56\n      jump\t// in\n    tag_104:\n        /* \"#utility.yul\":3042:3115   */\n      swap6\n      pop\n        /* \"#utility.yul\":2998:3125   */\n      pop\n        /* \"#utility.yul\":3164:3166   */\n      0x20\n        /* \"#utility.yul\":3190:3253   */\n      tag_105\n        /* \"#utility.yul\":3245:3252   */\n      dup9\n        /* \"#utility.yul\":3236:3242   */\n      dup3\n        /* \"#utility.yul\":3225:3234   */\n      dup10\n        /* \"#utility.yul\":3221:3243   */\n      add\n        /* \"#utility.yul\":3190:3253   */\n      tag_58\n      jump\t// in\n    tag_105:\n        /* \"#utility.yul\":3180:3253   */\n      swap5\n      pop\n        /* \"#utility.yul\":3135:3263   */\n      pop\n        /* \"#utility.yul\":3302:3304   */\n      0x40\n        /* \"#utility.yul\":3328:3392   */\n      tag_106\n        /* \"#utility.yul\":3384:3391   */\n      dup9\n        /* \"#utility.yul\":3375:3381   */\n      dup3\n        /* \"#utility.yul\":3364:3373   */\n      dup10\n        /* \"#utility.yul\":3360:3382   */\n      add\n        /* \"#utility.yul\":3328:3392   */\n      tag_60\n      jump\t// in\n    tag_106:\n        /* \"#utility.yul\":3318:3392   */\n      swap4\n      pop\n        /* \"#utility.yul\":3273:3402   */\n      pop\n        /* \"#utility.yul\":3441:3443   */\n      0x60\n        /* \"#utility.yul\":3467:3531   */\n      tag_107\n        /* \"#utility.yul\":3523:3530   */\n      dup9\n        /* \"#utility.yul\":3514:3520   */\n      dup3\n        /* \"#utility.yul\":3503:3512   */\n      dup10\n        /* \"#utility.yul\":3499:3521   */\n      add\n        /* \"#utility.yul\":3467:3531   */\n      tag_60\n      jump\t// in\n    tag_107:\n        /* \"#utility.yul\":3457:3531   */\n      swap3\n      pop\n        /* \"#utility.yul\":3412:3541   */\n      pop\n        /* \"#utility.yul\":3580:3583   */\n      0x80\n        /* \"#utility.yul\":3607:3670   */\n      tag_108\n        /* \"#utility.yul\":3662:3669   */\n      dup9\n        /* \"#utility.yul\":3653:3659   */\n      dup3\n        /* \"#utility.yul\":3642:3651   */\n      dup10\n        /* \"#utility.yul\":3638:3660   */\n      add\n        /* \"#utility.yul\":3607:3670   */\n      tag_56\n      jump\t// in\n    tag_108:\n        /* \"#utility.yul\":3597:3670   */\n      swap2\n      pop\n        /* \"#utility.yul\":3551:3680   */\n      pop\n        /* \"#utility.yul\":2716:3687   */\n      swap3\n      swap6\n      pop\n      swap3\n      swap6\n      swap1\n      swap4\n      pop\n      jump\t// out\n        /* \"#utility.yul\":3693:3862   */\n    tag_61:\n        /* \"#utility.yul\":3777:3788   */\n      0x00\n        /* \"#utility.yul\":3811:3817   */\n      dup3\n        /* \"#utility.yul\":3806:3809   */\n      dup3\n        /* \"#utility.yul\":3799:3818   */\n      mstore\n        /* \"#utility.yul\":3851:3855   */\n      0x20\n        /* \"#utility.yul\":3846:3849   */\n      dup3\n        /* \"#utility.yul\":3842:3856   */\n      add\n        /* \"#utility.yul\":3827:3856   */\n      swap1\n      pop\n        /* \"#utility.yul\":3693:3862   */\n      swap3\n      swap2\n      pop\n      pop\n      jump\t// out\n        /* \"#utility.yul\":3868:4033   */\n    tag_62:\n        /* \"#utility.yul\":4008:4025   */\n      0x6e6f7420656e6f7567682066756e640000000000000000000000000000000000\n        /* \"#utility.yul\":4004:4005   */\n      0x00\n        /* \"#utility.yul\":3996:4002   */\n      dup3\n        /* \"#utility.yul\":3992:4006   */\n      add\n        /* \"#utility.yul\":3985:4026   */\n      mstore\n        /* \"#utility.yul\":3868:4033   */\n      pop\n      jump\t// out\n        /* \"#utility.yul\":4039:4405   */\n    tag_63:\n        /* \"#utility.yul\":4181:4184   */\n      0x00\n        /* \"#utility.yul\":4202:4269   */\n      tag_112\n        /* \"#utility.yul\":4266:4268   */\n      0x0f\n        /* \"#utility.yul\":4261:4264   */\n      dup4\n        /* \"#utility.yul\":4202:4269   */\n      tag_61\n      jump\t// in\n    tag_112:\n        /* \"#utility.yul\":4195:4269   */\n      swap2\n      pop\n        /* \"#utility.yul\":4278:4371   */\n      tag_113\n        /* \"#utility.yul\":4367:4370   */\n      dup3\n        /* \"#utility.yul\":4278:4371   */\n      tag_62\n      jump\t// in\n    tag_113:\n        /* \"#utility.yul\":4396:4398   */\n      0x20\n        /* \"#utility.yul\":4391:4394   */\n      dup3\n        /* \"#utility.yul\":4387:4399   */\n      add\n        /* \"#utility.yul\":4380:4399   */\n      swap1\n      pop\n        /* \"#utility.yul\":4039:4405   */\n      swap2\n      swap1\n      pop\n      jump\t// out\n        /* \"#utility.yul\":4411:4830   */\n    tag_42:\n        /* \"#utility.yul\":4577:4581   */\n      0x00\n        /* \"#utility.yul\":4615:4617   */\n      0x20\n        /* \"#utility.yul\":4604:4613   */\n      dup3\n        /* \"#utility.yul\":4600:4618   */\n      add\n        /* \"#utility.yul\":4592:4618   */\n      swap1\n      pop\n        /* \"#utility.yul\":4664:4673   */\n      dup2\n        /* \"#utility.yul\":4658:4662   */\n      dup2\n        /* \"#utility.yul\":4654:4674   */\n      sub\n        /* \"#utility.yul\":4650:4651   */\n      0x00\n        /* \"#utility.yul\":4639:4648   */\n      dup4\n        /* \"#utility.yul\":4635:4652   */\n      add\n        /* \"#utility.yul\":4628:4675   */\n      mstore\n        /* \"#utility.yul\":4692:4823   */\n      tag_115\n        /* \"#utility.yul\":4818:4822   */\n      dup2\n        /* \"#utility.yul\":4692:4823   */\n      tag_63\n      jump\t// in\n    tag_115:\n        /* \"#utility.yul\":4684:4823   */\n      swap1\n      pop\n        /* \"#utility.yul\":4411:4830   */\n      swap2\n      swap1\n      pop\n      jump\t// out\n\n    auxdata: 0xa264697066735822122033e6ae8ca5529cd770f8fa4d6d0f0a48e21e513c2de14c6a2b519f6a5d671cab64736f6c63430008080033\n}\n",
				"bytecode": {
					"linkReferences": {},
					"object": "6080604052738a753747a1fa494ec906ce90e9f37563a8af630e600260006101000a81548173ffffffffffffffffffffffffffffffffffffffff021916908373ffffffffffffffffffffffffffffffffffffffff16021790555034801561006557600080fd5b50600260009054906101000a900473ffffffffffffffffffffffffffffffffffffffff16600360006101000a81548173ffffffffffffffffffffffffffffffffffffffff021916908373ffffffffffffffffffffffffffffffffffffffff1602179055506104f9806100d86000396000f3fe6080604052600436106100555760003560e01c806311ae655a1461005a57806329c36bb5146100855780638e5d6157146100b0578063b60d4288146100db578063c7a0d9f6146100e5578063c9f9a4d014610110575b600080fd5b34801561006657600080fd5b5061006f61013b565b60405161007c9190610281565b60405180910390f35b34801561009157600080fd5b5061009a610141565b6040516100a791906102dd565b60405180910390f35b3480156100bc57600080fd5b506100c5610167565b6040516100d29190610311565b60405180910390f35b6100e3610217565b005b3480156100f157600080fd5b506100fa61025d565b6040516101079190610311565b60405180910390f35b34801561011c57600080fd5b50610125610263565b6040516101329190610281565b60405180910390f35b60015481565b600260009054906101000a900473ffffffffffffffffffffffffffffffffffffffff1681565b600080600360009054906101000a900473ffffffffffffffffffffffffffffffffffffffff1673ffffffffffffffffffffffffffffffffffffffff1663feaf968c6040518163ffffffff1660e01b815260040160a06040518083038186803b1580156101d257600080fd5b505afa1580156101e6573d6000803e3d6000fd5b505050506040513d601f19601f8201168201806040525081019061020a91906103cb565b5050509150508091505090565b600134101561025b576040517f08c379a0000000000000000000000000000000000000000000000000000000008152600401610252906104a3565b60405180910390fd5b565b60005481565b600090565b6000819050919050565b61027b81610268565b82525050565b60006020820190506102966000830184610272565b92915050565b600073ffffffffffffffffffffffffffffffffffffffff82169050919050565b60006102c78261029c565b9050919050565b6102d7816102bc565b82525050565b60006020820190506102f260008301846102ce565b92915050565b6000819050919050565b61030b816102f8565b82525050565b60006020820190506103266000830184610302565b92915050565b600080fd5b600069ffffffffffffffffffff82169050919050565b61035081610331565b811461035b57600080fd5b50565b60008151905061036d81610347565b92915050565b61037c816102f8565b811461038757600080fd5b50565b60008151905061039981610373565b92915050565b6103a881610268565b81146103b357600080fd5b50565b6000815190506103c58161039f565b92915050565b600080600080600060a086880312156103e7576103e661032c565b5b60006103f58882890161035e565b95505060206104068882890161038a565b9450506040610417888289016103b6565b9350506060610428888289016103b6565b92505060806104398882890161035e565b9150509295509295909350565b600082825260208201905092915050565b7f6e6f7420656e6f7567682066756e640000000000000000000000000000000000600082015250565b600061048d600f83610446565b915061049882610457565b602082019050919050565b600060208201905081810360008301526104bc81610480565b905091905056fea264697066735822122033e6ae8ca5529cd770f8fa4d6d0f0a48e21e513c2de14c6a2b519f6a5d671cab64736f6c63430008080033",
					"opcodes": "PUSH1 0x80 PUSH1 0x40 MSTORE PUSH20 0x8A753747A1FA494EC906CE90E9F37563A8AF630E PUSH1 0x2 PUSH1 0x0 PUSH2 0x100 EXP DUP2 SLOAD DUP2 PUSH20 0xFFFFFFFFFFFFFFFFFFFFFFFFFFFFFFFFFFFFFFFF MUL NOT AND SWAP1 DUP4 PUSH20 0xFFFFFFFFFFFFFFFFFFFFFFFFFFFFFFFFFFFFFFFF AND MUL OR SWAP1 SSTORE POP CALLVALUE DUP1 ISZERO PUSH2 0x65 JUMPI PUSH1 0x0 DUP1 REVERT JUMPDEST POP PUSH1 0x2 PUSH1 0x0 SWAP1 SLOAD SWAP1 PUSH2 0x100 EXP SWAP1 DIV PUSH20 0xFFFFFFFFFFFFFFFFFFFFFFFFFFFFFFFFFFFFFFFF AND PUSH1 0x3 PUSH1 0x0 PUSH2 0x100 EXP DUP2 SLOAD DUP2 PUSH20 0xFFFFFFFFFFFFFFFFFFFFFFFFFFFFFFFFFFFFFFFF MUL NOT AND SWAP1 DUP4 PUSH20 0xFFFFFFFFFFFFFFFFFFFFFFFFFFFFFFFFFFFFFFFF AND MUL OR SWAP1 SSTORE POP PUSH2 0x4F9 DUP1 PUSH2 0xD8 PUSH1 0x0 CODECOPY PUSH1 0x0 RETURN INVALID PUSH1 0x80 PUSH1 0x40 MSTORE PUSH1 0x4 CALLDATASIZE LT PUSH2 0x55 JUMPI PUSH1 0x0 CALLDATALOAD PUSH1 0xE0 SHR DUP1 PUSH4 0x11AE655A EQ PUSH2 0x5A JUMPI DUP1 PUSH4 0x29C36BB5 EQ PUSH2 0x85 JUMPI DUP1 PUSH4 0x8E5D6157 EQ PUSH2 0xB0 JUMPI DUP1 PUSH4 0xB60D4288 EQ PUSH2 0xDB JUMPI DUP1 PUSH4 0xC7A0D9F6 EQ PUSH2 0xE5 JUMPI DUP1 PUSH4 0xC9F9A4D0 EQ PUSH2 0x110 JUMPI JUMPDEST PUSH1 0x0 DUP1 REVERT JUMPDEST CALLVALUE DUP1 ISZERO PUSH2 0x66 JUMPI PUSH1 0x0 DUP1 REVERT JUMPDEST POP PUSH2 0x6F PUSH2 0x13B JUMP JUMPDEST PUSH1 0x40 MLOAD PUSH2 0x7C SWAP2 SWAP1 PUSH2 0x281 JUMP JUMPDEST PUSH1 0x40 MLOAD DUP1 SWAP2 SUB SWAP1 RETURN JUMPDEST CALLVALUE DUP1 ISZERO PUSH2 0x91 JUMPI PUSH1 0x0 DUP1 REVERT JUMPDEST POP PUSH2 0x9A PUSH2 0x141 JUMP JUMPDEST PUSH1 0x40 MLOAD PUSH2 0xA7 SWAP2 SWAP1 PUSH2 0x2DD JUMP JUMPDEST PUSH1 0x40 MLOAD DUP1 SWAP2 SUB SWAP1 RETURN JUMPDEST CALLVALUE DUP1 ISZERO PUSH2 0xBC JUMPI PUSH1 0x0 DUP1 REVERT JUMPDEST POP PUSH2 0xC5 PUSH2 0x167 JUMP JUMPDEST PUSH1 0x40 MLOAD PUSH2 0xD2 SWAP2 SWAP1 PUSH2 0x311 JUMP JUMPDEST PUSH1 0x40 MLOAD DUP1 SWAP2 SUB SWAP1 RETURN JUMPDEST PUSH2 0xE3 PUSH2 0x217 JUMP JUMPDEST STOP JUMPDEST CALLVALUE DUP1 ISZERO PUSH2 0xF1 JUMPI PUSH1 0x0 DUP1 REVERT JUMPDEST POP PUSH2 0xFA PUSH2 0x25D JUMP JUMPDEST PUSH1 0x40 MLOAD PUSH2 0x107 SWAP2 SWAP1 PUSH2 0x311 JUMP JUMPDEST PUSH1 0x40 MLOAD DUP1 SWAP2 SUB SWAP1 RETURN JUMPDEST CALLVALUE DUP1 ISZERO PUSH2 0x11C JUMPI PUSH1 0x0 DUP1 REVERT JUMPDEST POP PUSH2 0x125 PUSH2 0x263 JUMP JUMPDEST PUSH1 0x40 MLOAD PUSH2 0x132 SWAP2 SWAP1 PUSH2 0x281 JUMP JUMPDEST PUSH1 0x40 MLOAD DUP1 SWAP2 SUB SWAP1 RETURN JUMPDEST PUSH1 0x1 SLOAD DUP2 JUMP JUMPDEST PUSH1 0x2 PUSH1 0x0 SWAP1 SLOAD SWAP1 PUSH2 0x100 EXP SWAP1 DIV PUSH20 0xFFFFFFFFFFFFFFFFFFFFFFFFFFFFFFFFFFFFFFFF AND DUP2 JUMP JUMPDEST PUSH1 0x0 DUP1 PUSH1 0x3 PUSH1 0x0 SWAP1 SLOAD SWAP1 PUSH2 0x100 EXP SWAP1 DIV PUSH20 0xFFFFFFFFFFFFFFFFFFFFFFFFFFFFFFFFFFFFFFFF AND PUSH20 0xFFFFFFFFFFFFFFFFFFFFFFFFFFFFFFFFFFFFFFFF AND PUSH4 0xFEAF968C PUSH1 0x40 MLOAD DUP2 PUSH4 0xFFFFFFFF AND PUSH1 0xE0 SHL DUP2 MSTORE PUSH1 0x4 ADD PUSH1 0xA0 PUSH1 0x40 MLOAD DUP1 DUP4 SUB DUP2 DUP7 DUP1 EXTCODESIZE ISZERO DUP1 ISZERO PUSH2 0x1D2 JUMPI PUSH1 0x0 DUP1 REVERT JUMPDEST POP GAS STATICCALL ISZERO DUP1 ISZERO PUSH2 0x1E6 JUMPI RETURNDATASIZE PUSH1 0x0 DUP1 RETURNDATACOPY RETURNDATASIZE PUSH1 0x0 REVERT JUMPDEST POP POP POP POP PUSH1 0x40 MLOAD RETURNDATASIZE PUSH1 0x1F NOT PUSH1 0x1F DUP3 ADD AND DUP3 ADD DUP1 PUSH1 0x40 MSTORE POP DUP2 ADD SWAP1 PUSH2 0x20A SWAP2 SWAP1 PUSH2 0x3CB JUMP JUMPDEST POP POP POP SWAP2 POP POP DUP1 SWAP2 POP POP SWAP1 JUMP JUMPDEST PUSH1 0x1 CALLVALUE LT ISZERO PUSH2 0x25B JUMPI PUSH1 0x40 MLOAD PUSH32 0x8C379A000000000000000000000000000000000000000000000000000000000 DUP2 MSTORE PUSH1 0x4 ADD PUSH2 0x252 SWAP1 PUSH2 0x4A3 JUMP JUMPDEST PUSH1 0x40 MLOAD DUP1 SWAP2 SUB SWAP1 REVERT JUMPDEST JUMP JUMPDEST PUSH1 0x0 SLOAD DUP2 JUMP JUMPDEST PUSH1 0x0 SWAP1 JUMP JUMPDEST PUSH1 0x0 DUP2 SWAP1 POP SWAP2 SWAP1 POP JUMP JUMPDEST PUSH2 0x27B DUP2 PUSH2 0x268 JUMP JUMPDEST DUP3 MSTORE POP POP JUMP JUMPDEST PUSH1 0x0 PUSH1 0x20 DUP3 ADD SWAP1 POP PUSH2 0x296 PUSH1 0x0 DUP4 ADD DUP5 PUSH2 0x272 JUMP JUMPDEST SWAP3 SWAP2 POP POP JUMP JUMPDEST PUSH1 0x0 PUSH20 0xFFFFFFFFFFFFFFFFFFFFFFFFFFFFFFFFFFFFFFFF DUP3 AND SWAP1 POP SWAP2 SWAP1 POP JUMP JUMPDEST PUSH1 0x0 PUSH2 0x2C7 DUP3 PUSH2 0x29C JUMP JUMPDEST SWAP1 POP SWAP2 SWAP1 POP JUMP JUMPDEST PUSH2 0x2D7 DUP2 PUSH2 0x2BC JUMP JUMPDEST DUP3 MSTORE POP POP JUMP JUMPDEST PUSH1 0x0 PUSH1 0x20 DUP3 ADD SWAP1 POP PUSH2 0x2F2 PUSH1 0x0 DUP4 ADD DUP5 PUSH2 0x2CE JUMP JUMPDEST SWAP3 SWAP2 POP POP JUMP JUMPDEST PUSH1 0x0 DUP2 SWAP1 POP SWAP2 SWAP1 POP JUMP JUMPDEST PUSH2 0x30B DUP2 PUSH2 0x2F8 JUMP JUMPDEST DUP3 MSTORE POP POP JUMP JUMPDEST PUSH1 0x0 PUSH1 0x20 DUP3 ADD SWAP1 POP PUSH2 0x326 PUSH1 0x0 DUP4 ADD DUP5 PUSH2 0x302 JUMP JUMPDEST SWAP3 SWAP2 POP POP JUMP JUMPDEST PUSH1 0x0 DUP1 REVERT JUMPDEST PUSH1 0x0 PUSH10 0xFFFFFFFFFFFFFFFFFFFF DUP3 AND SWAP1 POP SWAP2 SWAP1 POP JUMP JUMPDEST PUSH2 0x350 DUP2 PUSH2 0x331 JUMP JUMPDEST DUP2 EQ PUSH2 0x35B JUMPI PUSH1 0x0 DUP1 REVERT JUMPDEST POP JUMP JUMPDEST PUSH1 0x0 DUP2 MLOAD SWAP1 POP PUSH2 0x36D DUP2 PUSH2 0x347 JUMP JUMPDEST SWAP3 SWAP2 POP POP JUMP JUMPDEST PUSH2 0x37C DUP2 PUSH2 0x2F8 JUMP JUMPDEST DUP2 EQ PUSH2 0x387 JUMPI PUSH1 0x0 DUP1 REVERT JUMPDEST POP JUMP JUMPDEST PUSH1 0x0 DUP2 MLOAD SWAP1 POP PUSH2 0x399 DUP2 PUSH2 0x373 JUMP JUMPDEST SWAP3 SWAP2 POP POP JUMP JUMPDEST PUSH2 0x3A8 DUP2 PUSH2 0x268 JUMP JUMPDEST DUP2 EQ PUSH2 0x3B3 JUMPI PUSH1 0x0 DUP1 REVERT JUMPDEST POP JUMP JUMPDEST PUSH1 0x0 DUP2 MLOAD SWAP1 POP PUSH2 0x3C5 DUP2 PUSH2 0x39F JUMP JUMPDEST SWAP3 SWAP2 POP POP JUMP JUMPDEST PUSH1 0x0 DUP1 PUSH1 0x0 DUP1 PUSH1 0x0 PUSH1 0xA0 DUP7 DUP9 SUB SLT ISZERO PUSH2 0x3E7 JUMPI PUSH2 0x3E6 PUSH2 0x32C JUMP JUMPDEST JUMPDEST PUSH1 0x0 PUSH2 0x3F5 DUP9 DUP3 DUP10 ADD PUSH2 0x35E JUMP JUMPDEST SWAP6 POP POP PUSH1 0x20 PUSH2 0x406 DUP9 DUP3 DUP10 ADD PUSH2 0x38A JUMP JUMPDEST SWAP5 POP POP PUSH1 0x40 PUSH2 0x417 DUP9 DUP3 DUP10 ADD PUSH2 0x3B6 JUMP JUMPDEST SWAP4 POP POP PUSH1 0x60 PUSH2 0x428 DUP9 DUP3 DUP10 ADD PUSH2 0x3B6 JUMP JUMPDEST SWAP3 POP POP PUSH1 0x80 PUSH2 0x439 DUP9 DUP3 DUP10 ADD PUSH2 0x35E JUMP JUMPDEST SWAP2 POP POP SWAP3 SWAP6 POP SWAP3 SWAP6 SWAP1 SWAP4 POP JUMP JUMPDEST PUSH1 0x0 DUP3 DUP3 MSTORE PUSH1 0x20 DUP3 ADD SWAP1 POP SWAP3 SWAP2 POP POP JUMP JUMPDEST PUSH32 0x6E6F7420656E6F7567682066756E640000000000000000000000000000000000 PUSH1 0x0 DUP3 ADD MSTORE POP JUMP JUMPDEST PUSH1 0x0 PUSH2 0x48D PUSH1 0xF DUP4 PUSH2 0x446 JUMP JUMPDEST SWAP2 POP PUSH2 0x498 DUP3 PUSH2 0x457 JUMP JUMPDEST PUSH1 0x20 DUP3 ADD SWAP1 POP SWAP2 SWAP1 POP JUMP JUMPDEST PUSH1 0x0 PUSH1 0x20 DUP3 ADD SWAP1 POP DUP2 DUP2 SUB PUSH1 0x0 DUP4 ADD MSTORE PUSH2 0x4BC DUP2 PUSH2 0x480 JUMP JUMPDEST SWAP1 POP SWAP2 SWAP1 POP JUMP INVALID LOG2 PUSH5 0x6970667358 0x22 SLT KECCAK256 CALLER 0xE6 0xAE DUP13 0xA5 MSTORE SWAP13 0xD7 PUSH17 0xF8FA4D6D0F0A48E21E513C2DE14C6A2B51 SWAP16 PUSH11 0x5D671CAB64736F6C634300 ADDMOD ADDMOD STOP CALLER "
				},
				"gasEstimates": {
					"creation": {
						"codeDepositCost": "254600",
						"executionCost": "50964",
						"totalCost": "305564"
					},
					"external": {
						"favNumber()": "2495",
						"feedAddress()": "2514",
						"fund()": "478",
						"getDollarToEthereumConversionRate()": "417",
						"getLatestPriceOfEthInUSD()": "infinite",
						"minimumUSDToSend()": "2407"
					}
				},
				"methodIdentifiers": {
					"favNumber()": "c7a0d9f6",
					"feedAddress()": "29c36bb5",
					"fund()": "b60d4288",
					"getDollarToEthereumConversionRate()": "c9f9a4d0",
					"getLatestPriceOfEthInUSD()": "8e5d6157",
					"minimumUSDToSend()": "11ae655a"
				}
			},
			"storageLayout": {
				"storage": [
					{
						"astId": 50,
						"contract": "contracts/FundMe.sol:FundMe",
						"label": "favNumber",
						"offset": 0,
						"slot": "0",
						"type": "t_int256"
					},
					{
						"astId": 52,
						"contract": "contracts/FundMe.sol:FundMe",
						"label": "minimumUSDToSend",
						"offset": 0,
						"slot": "1",
						"type": "t_uint256"
					},
					{
						"astId": 55,
						"contract": "contracts/FundMe.sol:FundMe",
						"label": "feedAddress",
						"offset": 0,
						"slot": "2",
						"type": "t_address"
					},
					{
						"astId": 58,
						"contract": "contracts/FundMe.sol:FundMe",
						"label": "priceFeed",
						"offset": 0,
						"slot": "3",
						"type": "t_contract(AggregatorV3Interface)45"
					}
				],
				"types": {
					"t_address": {
						"encoding": "inplace",
						"label": "address",
						"numberOfBytes": "20"
					},
					"t_contract(AggregatorV3Interface)45": {
						"encoding": "inplace",
						"label": "contract AggregatorV3Interface",
						"numberOfBytes": "20"
					},
					"t_int256": {
						"encoding": "inplace",
						"label": "int256",
						"numberOfBytes": "32"
					},
					"t_uint256": {
						"encoding": "inplace",
						"label": "uint256",
						"numberOfBytes": "32"
					}
				}
			},
			"userdoc": {
				"kind": "user",
				"methods": {},
				"version": 1
			}
		}
	}
}