{
	"contracts/Arrays.sol": {
		"Arrays": {
			"abi": [
				{
					"inputs": [],
					"name": "person",
					"outputs": [
						{
							"internalType": "uint256",
							"name": "favouriteNumber",
							"type": "uint256"
						},
						{
							"internalType": "string",
							"name": "name",
							"type": "string"
						}
					],
					"stateMutability": "view",
					"type": "function"
				}
			],
			"devdoc": {
				"kind": "dev",
				"methods": {},
				"version": 1
			},
			"evm": {
				"assembly": "    /* \"contracts/Arrays.sol\":56:234  contract Arrays{... */\n  mstore(0x40, 0x80)\n    /* \"contracts/Arrays.sol\":184:228  People({favouriteNumber:4, name:\"Abhilash\"}) */\n  mload(0x40)\n  dup1\n  0x40\n  add\n  0x40\n  mstore\n  dup1\n    /* \"contracts/Arrays.sol\":208:209  4 */\n  0x04\n    /* \"contracts/Arrays.sol\":184:228  People({favouriteNumber:4, name:\"Abhilash\"}) */\n  dup2\n  mstore\n  0x20\n  add\n  mload(0x40)\n  dup1\n  0x40\n  add\n  0x40\n  mstore\n  dup1\n  0x08\n  dup2\n  mstore\n  0x20\n  add\n  0x416268696c617368000000000000000000000000000000000000000000000000\n  dup2\n  mstore\n  pop\n  dup2\n  mstore\n  pop\n    /* \"contracts/Arrays.sol\":161:228  People public person = People({favouriteNumber:4, name:\"Abhilash\"}) */\n  0x00\n  dup1\n  dup3\n  add\n  mload\n  dup2\n  0x00\n  add\n  sstore\n  0x20\n  dup3\n  add\n  mload\n  dup2\n  0x01\n  add\n  swap1\n  dup1\n  mload\n  swap1\n  0x20\n  add\n  swap1\n  tag_1\n  swap3\n  swap2\n  swap1\n  tag_2\n  jump\t// in\ntag_1:\n  pop\n  pop\n  pop\n    /* \"contracts/Arrays.sol\":56:234  contract Arrays{... */\n  callvalue\n  dup1\n  iszero\n  tag_3\n  jumpi\n  0x00\n  dup1\n  revert\ntag_3:\n  pop\n  jump(tag_4)\ntag_2:\n  dup3\n  dup1\n  sload\n  tag_5\n  swap1\n  tag_6\n  jump\t// in\ntag_5:\n  swap1\n  0x00\n  mstore\n  keccak256(0x00, 0x20)\n  swap1\n  0x1f\n  add\n  0x20\n  swap1\n  div\n  dup2\n  add\n  swap3\n  dup3\n  tag_8\n  jumpi\n  0x00\n  dup6\n  sstore\n  jump(tag_7)\ntag_8:\n  dup3\n  0x1f\n  lt\n  tag_9\n  jumpi\n  dup1\n  mload\n  not(0xff)\n  and\n  dup4\n  dup1\n  add\n  or\n  dup6\n  sstore\n  jump(tag_7)\ntag_9:\n  dup3\n  dup1\n  add\n  0x01\n  add\n  dup6\n  sstore\n  dup3\n  iszero\n  tag_7\n  jumpi\n  swap2\n  dup3\n  add\ntag_10:\n  dup3\n  dup2\n  gt\n  iszero\n  tag_11\n  jumpi\n  dup3\n  mload\n  dup3\n  sstore\n  swap2\n  0x20\n  add\n  swap2\n  swap1\n  0x01\n  add\n  swap1\n  jump(tag_10)\ntag_11:\ntag_7:\n  pop\n  swap1\n  pop\n  tag_12\n  swap2\n  swap1\n  tag_13\n  jump\t// in\ntag_12:\n  pop\n  swap1\n  jump\t// out\ntag_13:\ntag_14:\n  dup1\n  dup3\n  gt\n  iszero\n  tag_15\n  jumpi\n  0x00\n  dup2\n  0x00\n  swap1\n  sstore\n  pop\n  0x01\n  add\n  jump(tag_14)\ntag_15:\n  pop\n  swap1\n  jump\t// out\n    /* \"#utility.yul\":7:187   */\ntag_16:\n    /* \"#utility.yul\":55:132   */\n  0x4e487b7100000000000000000000000000000000000000000000000000000000\n    /* \"#utility.yul\":52:53   */\n  0x00\n    /* \"#utility.yul\":45:133   */\n  mstore\n    /* \"#utility.yul\":152:156   */\n  0x22\n    /* \"#utility.yul\":149:150   */\n  0x04\n    /* \"#utility.yul\":142:157   */\n  mstore\n    /* \"#utility.yul\":176:180   */\n  0x24\n    /* \"#utility.yul\":173:174   */\n  0x00\n    /* \"#utility.yul\":166:181   */\n  revert\n    /* \"#utility.yul\":193:513   */\ntag_6:\n    /* \"#utility.yul\":237:243   */\n  0x00\n    /* \"#utility.yul\":274:275   */\n  0x02\n    /* \"#utility.yul\":268:272   */\n  dup3\n    /* \"#utility.yul\":264:276   */\n  div\n    /* \"#utility.yul\":254:276   */\n  swap1\n  pop\n    /* \"#utility.yul\":321:322   */\n  0x01\n    /* \"#utility.yul\":315:319   */\n  dup3\n    /* \"#utility.yul\":311:323   */\n  and\n    /* \"#utility.yul\":342:360   */\n  dup1\n    /* \"#utility.yul\":332:413   */\n  tag_20\n  jumpi\n    /* \"#utility.yul\":398:402   */\n  0x7f\n    /* \"#utility.yul\":390:396   */\n  dup3\n    /* \"#utility.yul\":386:403   */\n  and\n    /* \"#utility.yul\":376:403   */\n  swap2\n  pop\n    /* \"#utility.yul\":332:413   */\ntag_20:\n    /* \"#utility.yul\":460:462   */\n  0x20\n    /* \"#utility.yul\":452:458   */\n  dup3\n    /* \"#utility.yul\":449:463   */\n  lt\n    /* \"#utility.yul\":429:447   */\n  dup2\n    /* \"#utility.yul\":426:464   */\n  eq\n    /* \"#utility.yul\":423:507   */\n  iszero\n  tag_21\n  jumpi\n    /* \"#utility.yul\":479:497   */\n  tag_22\n  tag_16\n  jump\t// in\ntag_22:\n    /* \"#utility.yul\":423:507   */\ntag_21:\n    /* \"#utility.yul\":244:513   */\n  pop\n    /* \"#utility.yul\":193:513   */\n  swap2\n  swap1\n  pop\n  jump\t// out\n    /* \"contracts/Arrays.sol\":56:234  contract Arrays{... */\ntag_4:\n  dataSize(sub_0)\n  dup1\n  dataOffset(sub_0)\n  0x00\n  codecopy\n  0x00\n  return\nstop\n\nsub_0: assembly {\n        /* \"contracts/Arrays.sol\":56:234  contract Arrays{... */\n      mstore(0x40, 0x80)\n      callvalue\n      dup1\n      iszero\n      tag_1\n      jumpi\n      0x00\n      dup1\n      revert\n    tag_1:\n      pop\n      jumpi(tag_2, lt(calldatasize, 0x04))\n      shr(0xe0, calldataload(0x00))\n      dup1\n      0x77ec2b55\n      eq\n      tag_3\n      jumpi\n    tag_2:\n      0x00\n      dup1\n      revert\n        /* \"contracts/Arrays.sol\":161:228  People public person = People({favouriteNumber:4, name:\"Abhilash\"}) */\n    tag_3:\n      tag_4\n      tag_5\n      jump\t// in\n    tag_4:\n      mload(0x40)\n      tag_6\n      swap3\n      swap2\n      swap1\n      tag_7\n      jump\t// in\n    tag_6:\n      mload(0x40)\n      dup1\n      swap2\n      sub\n      swap1\n      return\n    tag_5:\n      0x00\n      dup1\n      0x00\n      add\n      sload\n      swap1\n      dup1\n      0x01\n      add\n      dup1\n      sload\n      tag_8\n      swap1\n      tag_9\n      jump\t// in\n    tag_8:\n      dup1\n      0x1f\n      add\n      0x20\n      dup1\n      swap2\n      div\n      mul\n      0x20\n      add\n      mload(0x40)\n      swap1\n      dup2\n      add\n      0x40\n      mstore\n      dup1\n      swap3\n      swap2\n      swap1\n      dup2\n      dup2\n      mstore\n      0x20\n      add\n      dup3\n      dup1\n      sload\n      tag_10\n      swap1\n      tag_9\n      jump\t// in\n    tag_10:\n      dup1\n      iszero\n      tag_11\n      jumpi\n      dup1\n      0x1f\n      lt\n      tag_12\n      jumpi\n      0x0100\n      dup1\n      dup4\n      sload\n      div\n      mul\n      dup4\n      mstore\n      swap2\n      0x20\n      add\n      swap2\n      jump(tag_11)\n    tag_12:\n      dup3\n      add\n      swap2\n      swap1\n      0x00\n      mstore\n      keccak256(0x00, 0x20)\n      swap1\n    tag_13:\n      dup2\n      sload\n      dup2\n      mstore\n      swap1\n      0x01\n      add\n      swap1\n      0x20\n      add\n      dup1\n      dup4\n      gt\n      tag_13\n      jumpi\n      dup3\n      swap1\n      sub\n      0x1f\n      and\n      dup3\n      add\n      swap2\n    tag_11:\n      pop\n      pop\n      pop\n      pop\n      pop\n      swap1\n      pop\n      dup3\n      jump\t// out\n        /* \"#utility.yul\":7:84   */\n    tag_14:\n        /* \"#utility.yul\":44:51   */\n      0x00\n        /* \"#utility.yul\":73:78   */\n      dup2\n        /* \"#utility.yul\":62:78   */\n      swap1\n      pop\n        /* \"#utility.yul\":7:84   */\n      swap2\n      swap1\n      pop\n      jump\t// out\n        /* \"#utility.yul\":90:208   */\n    tag_15:\n        /* \"#utility.yul\":177:201   */\n      tag_25\n        /* \"#utility.yul\":195:200   */\n      dup2\n        /* \"#utility.yul\":177:201   */\n      tag_14\n      jump\t// in\n    tag_25:\n        /* \"#utility.yul\":172:175   */\n      dup3\n        /* \"#utility.yul\":165:202   */\n      mstore\n        /* \"#utility.yul\":90:208   */\n      pop\n      pop\n      jump\t// out\n        /* \"#utility.yul\":214:313   */\n    tag_16:\n        /* \"#utility.yul\":266:272   */\n      0x00\n        /* \"#utility.yul\":300:305   */\n      dup2\n        /* \"#utility.yul\":294:306   */\n      mload\n        /* \"#utility.yul\":284:306   */\n      swap1\n      pop\n        /* \"#utility.yul\":214:313   */\n      swap2\n      swap1\n      pop\n      jump\t// out\n        /* \"#utility.yul\":319:488   */\n    tag_17:\n        /* \"#utility.yul\":403:414   */\n      0x00\n        /* \"#utility.yul\":437:443   */\n      dup3\n        /* \"#utility.yul\":432:435   */\n      dup3\n        /* \"#utility.yul\":425:444   */\n      mstore\n        /* \"#utility.yul\":477:481   */\n      0x20\n        /* \"#utility.yul\":472:475   */\n      dup3\n        /* \"#utility.yul\":468:482   */\n      add\n        /* \"#utility.yul\":453:482   */\n      swap1\n      pop\n        /* \"#utility.yul\":319:488   */\n      swap3\n      swap2\n      pop\n      pop\n      jump\t// out\n        /* \"#utility.yul\":494:801   */\n    tag_18:\n        /* \"#utility.yul\":562:563   */\n      0x00\n        /* \"#utility.yul\":572:685   */\n    tag_29:\n        /* \"#utility.yul\":586:592   */\n      dup4\n        /* \"#utility.yul\":583:584   */\n      dup2\n        /* \"#utility.yul\":580:593   */\n      lt\n        /* \"#utility.yul\":572:685   */\n      iszero\n      tag_31\n      jumpi\n        /* \"#utility.yul\":671:672   */\n      dup1\n        /* \"#utility.yul\":666:669   */\n      dup3\n        /* \"#utility.yul\":662:673   */\n      add\n        /* \"#utility.yul\":656:674   */\n      mload\n        /* \"#utility.yul\":652:653   */\n      dup2\n        /* \"#utility.yul\":647:650   */\n      dup5\n        /* \"#utility.yul\":643:654   */\n      add\n        /* \"#utility.yul\":636:675   */\n      mstore\n        /* \"#utility.yul\":608:610   */\n      0x20\n        /* \"#utility.yul\":605:606   */\n      dup2\n        /* \"#utility.yul\":601:611   */\n      add\n        /* \"#utility.yul\":596:611   */\n      swap1\n      pop\n        /* \"#utility.yul\":572:685   */\n      jump(tag_29)\n    tag_31:\n        /* \"#utility.yul\":703:709   */\n      dup4\n        /* \"#utility.yul\":700:701   */\n      dup2\n        /* \"#utility.yul\":697:710   */\n      gt\n        /* \"#utility.yul\":694:795   */\n      iszero\n      tag_32\n      jumpi\n        /* \"#utility.yul\":783:784   */\n      0x00\n        /* \"#utility.yul\":774:780   */\n      dup5\n        /* \"#utility.yul\":769:772   */\n      dup5\n        /* \"#utility.yul\":765:781   */\n      add\n        /* \"#utility.yul\":758:785   */\n      mstore\n        /* \"#utility.yul\":694:795   */\n    tag_32:\n        /* \"#utility.yul\":543:801   */\n      pop\n        /* \"#utility.yul\":494:801   */\n      pop\n      pop\n      pop\n      jump\t// out\n        /* \"#utility.yul\":807:909   */\n    tag_19:\n        /* \"#utility.yul\":848:854   */\n      0x00\n        /* \"#utility.yul\":899:901   */\n      0x1f\n        /* \"#utility.yul\":895:902   */\n      not\n        /* \"#utility.yul\":890:892   */\n      0x1f\n        /* \"#utility.yul\":883:888   */\n      dup4\n        /* \"#utility.yul\":879:893   */\n      add\n        /* \"#utility.yul\":875:903   */\n      and\n        /* \"#utility.yul\":865:903   */\n      swap1\n      pop\n        /* \"#utility.yul\":807:909   */\n      swap2\n      swap1\n      pop\n      jump\t// out\n        /* \"#utility.yul\":915:1279   */\n    tag_20:\n        /* \"#utility.yul\":1003:1006   */\n      0x00\n        /* \"#utility.yul\":1031:1070   */\n      tag_35\n        /* \"#utility.yul\":1064:1069   */\n      dup3\n        /* \"#utility.yul\":1031:1070   */\n      tag_16\n      jump\t// in\n    tag_35:\n        /* \"#utility.yul\":1086:1157   */\n      tag_36\n        /* \"#utility.yul\":1150:1156   */\n      dup2\n        /* \"#utility.yul\":1145:1148   */\n      dup6\n        /* \"#utility.yul\":1086:1157   */\n      tag_17\n      jump\t// in\n    tag_36:\n        /* \"#utility.yul\":1079:1157   */\n      swap4\n      pop\n        /* \"#utility.yul\":1166:1218   */\n      tag_37\n        /* \"#utility.yul\":1211:1217   */\n      dup2\n        /* \"#utility.yul\":1206:1209   */\n      dup6\n        /* \"#utility.yul\":1199:1203   */\n      0x20\n        /* \"#utility.yul\":1192:1197   */\n      dup7\n        /* \"#utility.yul\":1188:1204   */\n      add\n        /* \"#utility.yul\":1166:1218   */\n      tag_18\n      jump\t// in\n    tag_37:\n        /* \"#utility.yul\":1243:1272   */\n      tag_38\n        /* \"#utility.yul\":1265:1271   */\n      dup2\n        /* \"#utility.yul\":1243:1272   */\n      tag_19\n      jump\t// in\n    tag_38:\n        /* \"#utility.yul\":1238:1241   */\n      dup5\n        /* \"#utility.yul\":1234:1273   */\n      add\n        /* \"#utility.yul\":1227:1273   */\n      swap2\n      pop\n        /* \"#utility.yul\":1007:1279   */\n      pop\n        /* \"#utility.yul\":915:1279   */\n      swap3\n      swap2\n      pop\n      pop\n      jump\t// out\n        /* \"#utility.yul\":1285:1708   */\n    tag_7:\n        /* \"#utility.yul\":1426:1430   */\n      0x00\n        /* \"#utility.yul\":1464:1466   */\n      0x40\n        /* \"#utility.yul\":1453:1462   */\n      dup3\n        /* \"#utility.yul\":1449:1467   */\n      add\n        /* \"#utility.yul\":1441:1467   */\n      swap1\n      pop\n        /* \"#utility.yul\":1477:1548   */\n      tag_40\n        /* \"#utility.yul\":1545:1546   */\n      0x00\n        /* \"#utility.yul\":1534:1543   */\n      dup4\n        /* \"#utility.yul\":1530:1547   */\n      add\n        /* \"#utility.yul\":1521:1527   */\n      dup6\n        /* \"#utility.yul\":1477:1548   */\n      tag_15\n      jump\t// in\n    tag_40:\n        /* \"#utility.yul\":1595:1604   */\n      dup2\n        /* \"#utility.yul\":1589:1593   */\n      dup2\n        /* \"#utility.yul\":1585:1605   */\n      sub\n        /* \"#utility.yul\":1580:1582   */\n      0x20\n        /* \"#utility.yul\":1569:1578   */\n      dup4\n        /* \"#utility.yul\":1565:1583   */\n      add\n        /* \"#utility.yul\":1558:1606   */\n      mstore\n        /* \"#utility.yul\":1623:1701   */\n      tag_41\n        /* \"#utility.yul\":1696:1700   */\n      dup2\n        /* \"#utility.yul\":1687:1693   */\n      dup5\n        /* \"#utility.yul\":1623:1701   */\n      tag_20\n      jump\t// in\n    tag_41:\n        /* \"#utility.yul\":1615:1701   */\n      swap1\n      pop\n        /* \"#utility.yul\":1285:1708   */\n      swap4\n      swap3\n      pop\n      pop\n      pop\n      jump\t// out\n        /* \"#utility.yul\":1714:1894   */\n    tag_21:\n        /* \"#utility.yul\":1762:1839   */\n      0x4e487b7100000000000000000000000000000000000000000000000000000000\n        /* \"#utility.yul\":1759:1760   */\n      0x00\n        /* \"#utility.yul\":1752:1840   */\n      mstore\n        /* \"#utility.yul\":1859:1863   */\n      0x22\n        /* \"#utility.yul\":1856:1857   */\n      0x04\n        /* \"#utility.yul\":1849:1864   */\n      mstore\n        /* \"#utility.yul\":1883:1887   */\n      0x24\n        /* \"#utility.yul\":1880:1881   */\n      0x00\n        /* \"#utility.yul\":1873:1888   */\n      revert\n        /* \"#utility.yul\":1900:2220   */\n    tag_9:\n        /* \"#utility.yul\":1944:1950   */\n      0x00\n        /* \"#utility.yul\":1981:1982   */\n      0x02\n        /* \"#utility.yul\":1975:1979   */\n      dup3\n        /* \"#utility.yul\":1971:1983   */\n      div\n        /* \"#utility.yul\":1961:1983   */\n      swap1\n      pop\n        /* \"#utility.yul\":2028:2029   */\n      0x01\n        /* \"#utility.yul\":2022:2026   */\n      dup3\n        /* \"#utility.yul\":2018:2030   */\n      and\n        /* \"#utility.yul\":2049:2067   */\n      dup1\n        /* \"#utility.yul\":2039:2120   */\n      tag_44\n      jumpi\n        /* \"#utility.yul\":2105:2109   */\n      0x7f\n        /* \"#utility.yul\":2097:2103   */\n      dup3\n        /* \"#utility.yul\":2093:2110   */\n      and\n        /* \"#utility.yul\":2083:2110   */\n      swap2\n      pop\n        /* \"#utility.yul\":2039:2120   */\n    tag_44:\n        /* \"#utility.yul\":2167:2169   */\n      0x20\n        /* \"#utility.yul\":2159:2165   */\n      dup3\n        /* \"#utility.yul\":2156:2170   */\n      lt\n        /* \"#utility.yul\":2136:2154   */\n      dup2\n        /* \"#utility.yul\":2133:2171   */\n      eq\n        /* \"#utility.yul\":2130:2214   */\n      iszero\n      tag_45\n      jumpi\n        /* \"#utility.yul\":2186:2204   */\n      tag_46\n      tag_21\n      jump\t// in\n    tag_46:\n        /* \"#utility.yul\":2130:2214   */\n    tag_45:\n        /* \"#utility.yul\":1951:2220   */\n      pop\n        /* \"#utility.yul\":1900:2220   */\n      swap2\n      swap1\n      pop\n      jump\t// out\n\n    auxdata: 0xa2646970667358221220aa1963061eec628bc107bb1ba1c929289597e24c17a6a94e7c4b4ff31a22a38f64736f6c63430008080033\n}\n",
				"bytecode": {
					"linkReferences": {},
					"object": "60806040526040518060400160405280600481526020016040518060400160405280600881526020017f416268696c6173680000000000000000000000000000000000000000000000008152508152506000808201518160000155602082015181600101908051906020019061007692919061008b565b50505034801561008557600080fd5b5061018f565b8280546100979061015d565b90600052602060002090601f0160209004810192826100b95760008555610100565b82601f106100d257805160ff1916838001178555610100565b82800160010185558215610100579182015b828111156100ff5782518255916020019190600101906100e4565b5b50905061010d9190610111565b5090565b5b8082111561012a576000816000905550600101610112565b5090565b7f4e487b7100000000000000000000000000000000000000000000000000000000600052602260045260246000fd5b6000600282049050600182168061017557607f821691505b602082108114156101895761018861012e565b5b50919050565b6102628061019e6000396000f3fe608060405234801561001057600080fd5b506004361061002b5760003560e01c806377ec2b5514610030575b600080fd5b61003861004f565b60405161004692919061019b565b60405180910390f35b6000806000015490806001018054610066906101fa565b80601f0160208091040260200160405190810160405280929190818152602001828054610092906101fa565b80156100df5780601f106100b4576101008083540402835291602001916100df565b820191906000526020600020905b8154815290600101906020018083116100c257829003601f168201915b5050505050905082565b6000819050919050565b6100fc816100e9565b82525050565b600081519050919050565b600082825260208201905092915050565b60005b8381101561013c578082015181840152602081019050610121565b8381111561014b576000848401525b50505050565b6000601f19601f8301169050919050565b600061016d82610102565b610177818561010d565b935061018781856020860161011e565b61019081610151565b840191505092915050565b60006040820190506101b060008301856100f3565b81810360208301526101c28184610162565b90509392505050565b7f4e487b7100000000000000000000000000000000000000000000000000000000600052602260045260246000fd5b6000600282049050600182168061021257607f821691505b60208210811415610226576102256101cb565b5b5091905056fea2646970667358221220aa1963061eec628bc107bb1ba1c929289597e24c17a6a94e7c4b4ff31a22a38f64736f6c63430008080033",
					"opcodes": "PUSH1 0x80 PUSH1 0x40 MSTORE PUSH1 0x40 MLOAD DUP1 PUSH1 0x40 ADD PUSH1 0x40 MSTORE DUP1 PUSH1 0x4 DUP2 MSTORE PUSH1 0x20 ADD PUSH1 0x40 MLOAD DUP1 PUSH1 0x40 ADD PUSH1 0x40 MSTORE DUP1 PUSH1 0x8 DUP2 MSTORE PUSH1 0x20 ADD PUSH32 0x416268696C617368000000000000000000000000000000000000000000000000 DUP2 MSTORE POP DUP2 MSTORE POP PUSH1 0x0 DUP1 DUP3 ADD MLOAD DUP2 PUSH1 0x0 ADD SSTORE PUSH1 0x20 DUP3 ADD MLOAD DUP2 PUSH1 0x1 ADD SWAP1 DUP1 MLOAD SWAP1 PUSH1 0x20 ADD SWAP1 PUSH2 0x76 SWAP3 SWAP2 SWAP1 PUSH2 0x8B JUMP JUMPDEST POP POP POP CALLVALUE DUP1 ISZERO PUSH2 0x85 JUMPI PUSH1 0x0 DUP1 REVERT JUMPDEST POP PUSH2 0x18F JUMP JUMPDEST DUP3 DUP1 SLOAD PUSH2 0x97 SWAP1 PUSH2 0x15D JUMP JUMPDEST SWAP1 PUSH1 0x0 MSTORE PUSH1 0x20 PUSH1 0x0 KECCAK256 SWAP1 PUSH1 0x1F ADD PUSH1 0x20 SWAP1 DIV DUP2 ADD SWAP3 DUP3 PUSH2 0xB9 JUMPI PUSH1 0x0 DUP6 SSTORE PUSH2 0x100 JUMP JUMPDEST DUP3 PUSH1 0x1F LT PUSH2 0xD2 JUMPI DUP1 MLOAD PUSH1 0xFF NOT AND DUP4 DUP1 ADD OR DUP6 SSTORE PUSH2 0x100 JUMP JUMPDEST DUP3 DUP1 ADD PUSH1 0x1 ADD DUP6 SSTORE DUP3 ISZERO PUSH2 0x100 JUMPI SWAP2 DUP3 ADD JUMPDEST DUP3 DUP2 GT ISZERO PUSH2 0xFF JUMPI DUP3 MLOAD DUP3 SSTORE SWAP2 PUSH1 0x20 ADD SWAP2 SWAP1 PUSH1 0x1 ADD SWAP1 PUSH2 0xE4 JUMP JUMPDEST JUMPDEST POP SWAP1 POP PUSH2 0x10D SWAP2 SWAP1 PUSH2 0x111 JUMP JUMPDEST POP SWAP1 JUMP JUMPDEST JUMPDEST DUP1 DUP3 GT ISZERO PUSH2 0x12A JUMPI PUSH1 0x0 DUP2 PUSH1 0x0 SWAP1 SSTORE POP PUSH1 0x1 ADD PUSH2 0x112 JUMP JUMPDEST POP SWAP1 JUMP JUMPDEST PUSH32 0x4E487B7100000000000000000000000000000000000000000000000000000000 PUSH1 0x0 MSTORE PUSH1 0x22 PUSH1 0x4 MSTORE PUSH1 0x24 PUSH1 0x0 REVERT JUMPDEST PUSH1 0x0 PUSH1 0x2 DUP3 DIV SWAP1 POP PUSH1 0x1 DUP3 AND DUP1 PUSH2 0x175 JUMPI PUSH1 0x7F DUP3 AND SWAP2 POP JUMPDEST PUSH1 0x20 DUP3 LT DUP2 EQ ISZERO PUSH2 0x189 JUMPI PUSH2 0x188 PUSH2 0x12E JUMP JUMPDEST JUMPDEST POP SWAP2 SWAP1 POP JUMP JUMPDEST PUSH2 0x262 DUP1 PUSH2 0x19E PUSH1 0x0 CODECOPY PUSH1 0x0 RETURN INVALID PUSH1 0x80 PUSH1 0x40 MSTORE CALLVALUE DUP1 ISZERO PUSH2 0x10 JUMPI PUSH1 0x0 DUP1 REVERT JUMPDEST POP PUSH1 0x4 CALLDATASIZE LT PUSH2 0x2B JUMPI PUSH1 0x0 CALLDATALOAD PUSH1 0xE0 SHR DUP1 PUSH4 0x77EC2B55 EQ PUSH2 0x30 JUMPI JUMPDEST PUSH1 0x0 DUP1 REVERT JUMPDEST PUSH2 0x38 PUSH2 0x4F JUMP JUMPDEST PUSH1 0x40 MLOAD PUSH2 0x46 SWAP3 SWAP2 SWAP1 PUSH2 0x19B JUMP JUMPDEST PUSH1 0x40 MLOAD DUP1 SWAP2 SUB SWAP1 RETURN JUMPDEST PUSH1 0x0 DUP1 PUSH1 0x0 ADD SLOAD SWAP1 DUP1 PUSH1 0x1 ADD DUP1 SLOAD PUSH2 0x66 SWAP1 PUSH2 0x1FA JUMP JUMPDEST DUP1 PUSH1 0x1F ADD PUSH1 0x20 DUP1 SWAP2 DIV MUL PUSH1 0x20 ADD PUSH1 0x40 MLOAD SWAP1 DUP2 ADD PUSH1 0x40 MSTORE DUP1 SWAP3 SWAP2 SWAP1 DUP2 DUP2 MSTORE PUSH1 0x20 ADD DUP3 DUP1 SLOAD PUSH2 0x92 SWAP1 PUSH2 0x1FA JUMP JUMPDEST DUP1 ISZERO PUSH2 0xDF JUMPI DUP1 PUSH1 0x1F LT PUSH2 0xB4 JUMPI PUSH2 0x100 DUP1 DUP4 SLOAD DIV MUL DUP4 MSTORE SWAP2 PUSH1 0x20 ADD SWAP2 PUSH2 0xDF JUMP JUMPDEST DUP3 ADD SWAP2 SWAP1 PUSH1 0x0 MSTORE PUSH1 0x20 PUSH1 0x0 KECCAK256 SWAP1 JUMPDEST DUP2 SLOAD DUP2 MSTORE SWAP1 PUSH1 0x1 ADD SWAP1 PUSH1 0x20 ADD DUP1 DUP4 GT PUSH2 0xC2 JUMPI DUP3 SWAP1 SUB PUSH1 0x1F AND DUP3 ADD SWAP2 JUMPDEST POP POP POP POP POP SWAP1 POP DUP3 JUMP JUMPDEST PUSH1 0x0 DUP2 SWAP1 POP SWAP2 SWAP1 POP JUMP JUMPDEST PUSH2 0xFC DUP2 PUSH2 0xE9 JUMP JUMPDEST DUP3 MSTORE POP POP JUMP JUMPDEST PUSH1 0x0 DUP2 MLOAD SWAP1 POP SWAP2 SWAP1 POP JUMP JUMPDEST PUSH1 0x0 DUP3 DUP3 MSTORE PUSH1 0x20 DUP3 ADD SWAP1 POP SWAP3 SWAP2 POP POP JUMP JUMPDEST PUSH1 0x0 JUMPDEST DUP4 DUP2 LT ISZERO PUSH2 0x13C JUMPI DUP1 DUP3 ADD MLOAD DUP2 DUP5 ADD MSTORE PUSH1 0x20 DUP2 ADD SWAP1 POP PUSH2 0x121 JUMP JUMPDEST DUP4 DUP2 GT ISZERO PUSH2 0x14B JUMPI PUSH1 0x0 DUP5 DUP5 ADD MSTORE JUMPDEST POP POP POP POP JUMP JUMPDEST PUSH1 0x0 PUSH1 0x1F NOT PUSH1 0x1F DUP4 ADD AND SWAP1 POP SWAP2 SWAP1 POP JUMP JUMPDEST PUSH1 0x0 PUSH2 0x16D DUP3 PUSH2 0x102 JUMP JUMPDEST PUSH2 0x177 DUP2 DUP6 PUSH2 0x10D JUMP JUMPDEST SWAP4 POP PUSH2 0x187 DUP2 DUP6 PUSH1 0x20 DUP7 ADD PUSH2 0x11E JUMP JUMPDEST PUSH2 0x190 DUP2 PUSH2 0x151 JUMP JUMPDEST DUP5 ADD SWAP2 POP POP SWAP3 SWAP2 POP POP JUMP JUMPDEST PUSH1 0x0 PUSH1 0x40 DUP3 ADD SWAP1 POP PUSH2 0x1B0 PUSH1 0x0 DUP4 ADD DUP6 PUSH2 0xF3 JUMP JUMPDEST DUP2 DUP2 SUB PUSH1 0x20 DUP4 ADD MSTORE PUSH2 0x1C2 DUP2 DUP5 PUSH2 0x162 JUMP JUMPDEST SWAP1 POP SWAP4 SWAP3 POP POP POP JUMP JUMPDEST PUSH32 0x4E487B7100000000000000000000000000000000000000000000000000000000 PUSH1 0x0 MSTORE PUSH1 0x22 PUSH1 0x4 MSTORE PUSH1 0x24 PUSH1 0x0 REVERT JUMPDEST PUSH1 0x0 PUSH1 0x2 DUP3 DIV SWAP1 POP PUSH1 0x1 DUP3 AND DUP1 PUSH2 0x212 JUMPI PUSH1 0x7F DUP3 AND SWAP2 POP JUMPDEST PUSH1 0x20 DUP3 LT DUP2 EQ ISZERO PUSH2 0x226 JUMPI PUSH2 0x225 PUSH2 0x1CB JUMP JUMPDEST JUMPDEST POP SWAP2 SWAP1 POP JUMP INVALID LOG2 PUSH5 0x6970667358 0x22 SLT KECCAK256 0xAA NOT PUSH4 0x61EEC62 DUP12 0xC1 SMOD 0xBB SHL LOG1 0xC9 0x29 0x28 SWAP6 SWAP8 0xE2 0x4C OR 0xA6 0xA9 0x4E PUSH29 0x4B4FF31A22A38F64736F6C634300080800330000000000000000000000 "
				},
				"gasEstimates": {
					"creation": {
						"codeDepositCost": "122000",
						"executionCost": "infinite",
						"totalCost": "infinite"
					},
					"external": {
						"person()": "infinite"
					}
				},
				"methodIdentifiers": {
					"person()": "77ec2b55"
				}
			},
			"storageLayout": {
				"storage": [
					{
						"astId": 13,
						"contract": "contracts/Arrays.sol:Arrays",
						"label": "person",
						"offset": 0,
						"slot": "0",
						"type": "t_struct(People)6_storage"
					}
				],
				"types": {
					"t_string_storage": {
						"encoding": "bytes",
						"label": "string",
						"numberOfBytes": "32"
					},
					"t_struct(People)6_storage": {
						"encoding": "inplace",
						"label": "struct Arrays.People",
						"members": [
							{
								"astId": 3,
								"contract": "contracts/Arrays.sol:Arrays",
								"label": "favouriteNumber",
								"offset": 0,
								"slot": "0",
								"type": "t_uint256"
							},
							{
								"astId": 5,
								"contract": "contracts/Arrays.sol:Arrays",
								"label": "name",
								"offset": 0,
								"slot": "1",
								"type": "t_string_storage"
							}
						],
						"numberOfBytes": "64"
					},
					"t_uint256": {
						"encoding": "inplace",
						"label": "uint256",
						"numberOfBytes": "32"
					}
				}
			},
			"userdoc": {
				"kind": "user",
				"methods": {},
				"version": 1
			}
		}
	}
}