{
	"contracts/FundMe.sol": {
		"FundMe": {
			"abi": [
				{
					"inputs": [],
					"stateMutability": "nonpayable",
					"type": "constructor"
				},
				{
					"inputs": [],
					"name": "favNumber",
					"outputs": [
						{
							"internalType": "int256",
							"name": "",
							"type": "int256"
						}
					],
					"stateMutability": "view",
					"type": "function"
				},
				{
					"inputs": [],
					"name": "feedAddress",
					"outputs": [
						{
							"internalType": "address",
							"name": "",
							"type": "address"
						}
					],
					"stateMutability": "view",
					"type": "function"
				},
				{
					"inputs": [],
					"name": "fund",
					"outputs": [],
					"stateMutability": "payable",
					"type": "function"
				},
				{
					"inputs": [],
					"name": "getLatestPrice",
					"outputs": [
						{
							"internalType": "int256",
							"name": "",
							"type": "int256"
						}
					],
					"stateMutability": "view",
					"type": "function"
				},
				{
					"inputs": [],
					"name": "latestPrice",
					"outputs": [
						{
							"internalType": "int256",
							"name": "",
							"type": "int256"
						}
					],
					"stateMutability": "view",
					"type": "function"
				}
			],
			"devdoc": {
				"kind": "dev",
				"methods": {},
				"version": 1
			},
			"evm": {
				"assembly": "    /* \"contracts/FundMe.sol\":136:854  contract FundMe{... */\n  mstore(0x40, 0x80)\n    /* \"contracts/FundMe.sol\":244:286  0xF7904a295A029a3aBDFFB6F12755974a958C7C25 */\n  0xf7904a295a029a3abdffb6f12755974a958c7c25\n    /* \"contracts/FundMe.sol\":215:286  address public feedAddress = 0xF7904a295A029a3aBDFFB6F12755974a958C7C25 */\n  0x02\n  exp(0x0100, 0x00)\n  dup2\n  sload\n  dup2\n  0xffffffffffffffffffffffffffffffffffffffff\n  mul\n  not\n  and\n  swap1\n  dup4\n  0xffffffffffffffffffffffffffffffffffffffff\n  and\n  mul\n  or\n  swap1\n  sstore\n  pop\n    /* \"contracts/FundMe.sol\":340:419  constructor() {... */\n  callvalue\n  dup1\n  iszero\n  tag_1\n  jumpi\n  0x00\n  dup1\n  revert\ntag_1:\n  pop\n    /* \"contracts/FundMe.sol\":399:410  feedAddress */\n  0x02\n  0x00\n  swap1\n  sload\n  swap1\n  0x0100\n  exp\n  swap1\n  div\n  0xffffffffffffffffffffffffffffffffffffffff\n  and\n    /* \"contracts/FundMe.sol\":365:374  priceFeed */\n  0x03\n  0x00\n    /* \"contracts/FundMe.sol\":365:411  priceFeed = AggregatorV3Interface(feedAddress) */\n  0x0100\n  exp\n  dup2\n  sload\n  dup2\n  0xffffffffffffffffffffffffffffffffffffffff\n  mul\n  not\n  and\n  swap1\n  dup4\n  0xffffffffffffffffffffffffffffffffffffffff\n  and\n  mul\n  or\n  swap1\n  sstore\n  pop\n    /* \"contracts/FundMe.sol\":136:854  contract FundMe{... */\n  dataSize(sub_0)\n  dup1\n  dataOffset(sub_0)\n  0x00\n  codecopy\n  0x00\n  return\nstop\n\nsub_0: assembly {\n        /* \"contracts/FundMe.sol\":136:854  contract FundMe{... */\n      mstore(0x40, 0x80)\n      jumpi(tag_1, lt(calldatasize, 0x04))\n      shr(0xe0, calldataload(0x00))\n      dup1\n      0x29c36bb5\n      eq\n      tag_2\n      jumpi\n      dup1\n      0x8e15f473\n      eq\n      tag_3\n      jumpi\n      dup1\n      0xa3e6ba94\n      eq\n      tag_4\n      jumpi\n      dup1\n      0xb60d4288\n      eq\n      tag_5\n      jumpi\n      dup1\n      0xc7a0d9f6\n      eq\n      tag_6\n      jumpi\n    tag_1:\n      0x00\n      dup1\n      revert\n        /* \"contracts/FundMe.sol\":215:286  address public feedAddress = 0xF7904a295A029a3aBDFFB6F12755974a958C7C25 */\n    tag_2:\n      callvalue\n      dup1\n      iszero\n      tag_7\n      jumpi\n      0x00\n      dup1\n      revert\n    tag_7:\n      pop\n      tag_8\n      tag_9\n      jump\t// in\n    tag_8:\n      mload(0x40)\n      tag_10\n      swap2\n      swap1\n      tag_11\n      jump\t// in\n    tag_10:\n      mload(0x40)\n      dup1\n      swap2\n      sub\n      swap1\n      return\n        /* \"contracts/FundMe.sol\":552:851  function getLatestPrice() public view returns (int) {... */\n    tag_3:\n      callvalue\n      dup1\n      iszero\n      tag_12\n      jumpi\n      0x00\n      dup1\n      revert\n    tag_12:\n      pop\n      tag_13\n      tag_14\n      jump\t// in\n    tag_13:\n      mload(0x40)\n      tag_15\n      swap2\n      swap1\n      tag_16\n      jump\t// in\n    tag_15:\n      mload(0x40)\n      dup1\n      swap2\n      sub\n      swap1\n      return\n        /* \"contracts/FundMe.sol\":186:208  int public latestPrice */\n    tag_4:\n      callvalue\n      dup1\n      iszero\n      tag_17\n      jumpi\n      0x00\n      dup1\n      revert\n    tag_17:\n      pop\n      tag_18\n      tag_19\n      jump\t// in\n    tag_18:\n      mload(0x40)\n      tag_20\n      swap2\n      swap1\n      tag_16\n      jump\t// in\n    tag_20:\n      mload(0x40)\n      dup1\n      swap2\n      sub\n      swap1\n      return\n        /* \"contracts/FundMe.sol\":425:546  function fund () public payable{... */\n    tag_5:\n      tag_21\n      tag_22\n      jump\t// in\n    tag_21:\n      stop\n        /* \"contracts/FundMe.sol\":158:178  int public favNumber */\n    tag_6:\n      callvalue\n      dup1\n      iszero\n      tag_23\n      jumpi\n      0x00\n      dup1\n      revert\n    tag_23:\n      pop\n      tag_24\n      tag_25\n      jump\t// in\n    tag_24:\n      mload(0x40)\n      tag_26\n      swap2\n      swap1\n      tag_16\n      jump\t// in\n    tag_26:\n      mload(0x40)\n      dup1\n      swap2\n      sub\n      swap1\n      return\n        /* \"contracts/FundMe.sol\":215:286  address public feedAddress = 0xF7904a295A029a3aBDFFB6F12755974a958C7C25 */\n    tag_9:\n      0x02\n      0x00\n      swap1\n      sload\n      swap1\n      0x0100\n      exp\n      swap1\n      div\n      0xffffffffffffffffffffffffffffffffffffffff\n      and\n      dup2\n      jump\t// out\n        /* \"contracts/FundMe.sol\":552:851  function getLatestPrice() public view returns (int) {... */\n    tag_14:\n        /* \"contracts/FundMe.sol\":599:602  int */\n      0x00\n        /* \"contracts/FundMe.sol\":663:672  int price */\n      dup1\n        /* \"contracts/FundMe.sol\":793:802  priceFeed */\n      0x03\n      0x00\n      swap1\n      sload\n      swap1\n      0x0100\n      exp\n      swap1\n      div\n      0xffffffffffffffffffffffffffffffffffffffff\n      and\n        /* \"contracts/FundMe.sol\":793:818  priceFeed.latestRoundData */\n      0xffffffffffffffffffffffffffffffffffffffff\n      and\n      0xfeaf968c\n        /* \"contracts/FundMe.sol\":793:820  priceFeed.latestRoundData() */\n      mload(0x40)\n      dup2\n      0xffffffff\n      and\n      0xe0\n      shl\n      dup2\n      mstore\n      0x04\n      add\n      0xa0\n      mload(0x40)\n      dup1\n      dup4\n      sub\n      dup2\n      dup7\n      dup1\n      extcodesize\n      iszero\n      dup1\n      iszero\n      tag_28\n      jumpi\n      0x00\n      dup1\n      revert\n    tag_28:\n      pop\n      gas\n      staticcall\n      iszero\n      dup1\n      iszero\n      tag_30\n      jumpi\n      returndatasize\n      0x00\n      dup1\n      returndatacopy\n      revert(0x00, returndatasize)\n    tag_30:\n      pop\n      pop\n      pop\n      pop\n      mload(0x40)\n      returndatasize\n      not(0x1f)\n      0x1f\n      dup3\n      add\n      and\n      dup3\n      add\n      dup1\n      0x40\n      mstore\n      pop\n      dup2\n      add\n      swap1\n      tag_31\n      swap2\n      swap1\n      tag_32\n      jump\t// in\n    tag_31:\n        /* \"contracts/FundMe.sol\":615:820  (... */\n      pop\n      pop\n      pop\n      swap2\n      pop\n      pop\n        /* \"contracts/FundMe.sol\":838:843  price */\n      dup1\n        /* \"contracts/FundMe.sol\":831:843  return price */\n      swap2\n      pop\n      pop\n        /* \"contracts/FundMe.sol\":552:851  function getLatestPrice() public view returns (int) {... */\n      swap1\n      jump\t// out\n        /* \"contracts/FundMe.sol\":186:208  int public latestPrice */\n    tag_19:\n      sload(0x01)\n      dup2\n      jump\t// out\n        /* \"contracts/FundMe.sol\":425:546  function fund () public payable{... */\n    tag_22:\n        /* \"contracts/FundMe.sol\":479:480  5 */\n      0x05\n        /* \"contracts/FundMe.sol\":467:476  favNumber */\n      0x00\n        /* \"contracts/FundMe.sol\":467:480  favNumber = 5 */\n      dup2\n      swap1\n      sstore\n      pop\n        /* \"contracts/FundMe.sol\":512:516  1e18 */\n      0x0de0b6b3a7640000\n        /* \"contracts/FundMe.sol\":499:508  msg.value */\n      callvalue\n        /* \"contracts/FundMe.sol\":499:516  msg.value >= 1e18 */\n      lt\n      iszero\n        /* \"contracts/FundMe.sol\":491:536  require(msg.value >= 1e18, \"not enough fund\") */\n      tag_34\n      jumpi\n      mload(0x40)\n      0x08c379a000000000000000000000000000000000000000000000000000000000\n      dup2\n      mstore\n      0x04\n      add\n      tag_35\n      swap1\n      tag_36\n      jump\t// in\n    tag_35:\n      mload(0x40)\n      dup1\n      swap2\n      sub\n      swap1\n      revert\n    tag_34:\n        /* \"contracts/FundMe.sol\":425:546  function fund () public payable{... */\n      jump\t// out\n        /* \"contracts/FundMe.sol\":158:178  int public favNumber */\n    tag_25:\n      sload(0x00)\n      dup2\n      jump\t// out\n        /* \"#utility.yul\":7:133   */\n    tag_37:\n        /* \"#utility.yul\":44:51   */\n      0x00\n        /* \"#utility.yul\":84:126   */\n      0xffffffffffffffffffffffffffffffffffffffff\n        /* \"#utility.yul\":77:82   */\n      dup3\n        /* \"#utility.yul\":73:127   */\n      and\n        /* \"#utility.yul\":62:127   */\n      swap1\n      pop\n        /* \"#utility.yul\":7:133   */\n      swap2\n      swap1\n      pop\n      jump\t// out\n        /* \"#utility.yul\":139:235   */\n    tag_38:\n        /* \"#utility.yul\":176:183   */\n      0x00\n        /* \"#utility.yul\":205:229   */\n      tag_59\n        /* \"#utility.yul\":223:228   */\n      dup3\n        /* \"#utility.yul\":205:229   */\n      tag_37\n      jump\t// in\n    tag_59:\n        /* \"#utility.yul\":194:229   */\n      swap1\n      pop\n        /* \"#utility.yul\":139:235   */\n      swap2\n      swap1\n      pop\n      jump\t// out\n        /* \"#utility.yul\":241:359   */\n    tag_39:\n        /* \"#utility.yul\":328:352   */\n      tag_61\n        /* \"#utility.yul\":346:351   */\n      dup2\n        /* \"#utility.yul\":328:352   */\n      tag_38\n      jump\t// in\n    tag_61:\n        /* \"#utility.yul\":323:326   */\n      dup3\n        /* \"#utility.yul\":316:353   */\n      mstore\n        /* \"#utility.yul\":241:359   */\n      pop\n      pop\n      jump\t// out\n        /* \"#utility.yul\":365:587   */\n    tag_11:\n        /* \"#utility.yul\":458:462   */\n      0x00\n        /* \"#utility.yul\":496:498   */\n      0x20\n        /* \"#utility.yul\":485:494   */\n      dup3\n        /* \"#utility.yul\":481:499   */\n      add\n        /* \"#utility.yul\":473:499   */\n      swap1\n      pop\n        /* \"#utility.yul\":509:580   */\n      tag_63\n        /* \"#utility.yul\":577:578   */\n      0x00\n        /* \"#utility.yul\":566:575   */\n      dup4\n        /* \"#utility.yul\":562:579   */\n      add\n        /* \"#utility.yul\":553:559   */\n      dup5\n        /* \"#utility.yul\":509:580   */\n      tag_39\n      jump\t// in\n    tag_63:\n        /* \"#utility.yul\":365:587   */\n      swap3\n      swap2\n      pop\n      pop\n      jump\t// out\n        /* \"#utility.yul\":593:669   */\n    tag_40:\n        /* \"#utility.yul\":629:636   */\n      0x00\n        /* \"#utility.yul\":658:663   */\n      dup2\n        /* \"#utility.yul\":647:663   */\n      swap1\n      pop\n        /* \"#utility.yul\":593:669   */\n      swap2\n      swap1\n      pop\n      jump\t// out\n        /* \"#utility.yul\":675:790   */\n    tag_41:\n        /* \"#utility.yul\":760:783   */\n      tag_66\n        /* \"#utility.yul\":777:782   */\n      dup2\n        /* \"#utility.yul\":760:783   */\n      tag_40\n      jump\t// in\n    tag_66:\n        /* \"#utility.yul\":755:758   */\n      dup3\n        /* \"#utility.yul\":748:784   */\n      mstore\n        /* \"#utility.yul\":675:790   */\n      pop\n      pop\n      jump\t// out\n        /* \"#utility.yul\":796:1014   */\n    tag_16:\n        /* \"#utility.yul\":887:891   */\n      0x00\n        /* \"#utility.yul\":925:927   */\n      0x20\n        /* \"#utility.yul\":914:923   */\n      dup3\n        /* \"#utility.yul\":910:928   */\n      add\n        /* \"#utility.yul\":902:928   */\n      swap1\n      pop\n        /* \"#utility.yul\":938:1007   */\n      tag_68\n        /* \"#utility.yul\":1004:1005   */\n      0x00\n        /* \"#utility.yul\":993:1002   */\n      dup4\n        /* \"#utility.yul\":989:1006   */\n      add\n        /* \"#utility.yul\":980:986   */\n      dup5\n        /* \"#utility.yul\":938:1007   */\n      tag_41\n      jump\t// in\n    tag_68:\n        /* \"#utility.yul\":796:1014   */\n      swap3\n      swap2\n      pop\n      pop\n      jump\t// out\n        /* \"#utility.yul\":1101:1218   */\n    tag_43:\n        /* \"#utility.yul\":1210:1211   */\n      0x00\n        /* \"#utility.yul\":1207:1208   */\n      dup1\n        /* \"#utility.yul\":1200:1212   */\n      revert\n        /* \"#utility.yul\":1347:1452   */\n    tag_45:\n        /* \"#utility.yul\":1383:1390   */\n      0x00\n        /* \"#utility.yul\":1423:1445   */\n      0xffffffffffffffffffff\n        /* \"#utility.yul\":1416:1421   */\n      dup3\n        /* \"#utility.yul\":1412:1446   */\n      and\n        /* \"#utility.yul\":1401:1446   */\n      swap1\n      pop\n        /* \"#utility.yul\":1347:1452   */\n      swap2\n      swap1\n      pop\n      jump\t// out\n        /* \"#utility.yul\":1458:1578   */\n    tag_46:\n        /* \"#utility.yul\":1530:1553   */\n      tag_74\n        /* \"#utility.yul\":1547:1552   */\n      dup2\n        /* \"#utility.yul\":1530:1553   */\n      tag_45\n      jump\t// in\n    tag_74:\n        /* \"#utility.yul\":1523:1528   */\n      dup2\n        /* \"#utility.yul\":1520:1554   */\n      eq\n        /* \"#utility.yul\":1510:1572   */\n      tag_75\n      jumpi\n        /* \"#utility.yul\":1568:1569   */\n      0x00\n        /* \"#utility.yul\":1565:1566   */\n      dup1\n        /* \"#utility.yul\":1558:1570   */\n      revert\n        /* \"#utility.yul\":1510:1572   */\n    tag_75:\n        /* \"#utility.yul\":1458:1578   */\n      pop\n      jump\t// out\n        /* \"#utility.yul\":1584:1725   */\n    tag_47:\n        /* \"#utility.yul\":1640:1645   */\n      0x00\n        /* \"#utility.yul\":1671:1677   */\n      dup2\n        /* \"#utility.yul\":1665:1678   */\n      mload\n        /* \"#utility.yul\":1656:1678   */\n      swap1\n      pop\n        /* \"#utility.yul\":1687:1719   */\n      tag_77\n        /* \"#utility.yul\":1713:1718   */\n      dup2\n        /* \"#utility.yul\":1687:1719   */\n      tag_46\n      jump\t// in\n    tag_77:\n        /* \"#utility.yul\":1584:1725   */\n      swap3\n      swap2\n      pop\n      pop\n      jump\t// out\n        /* \"#utility.yul\":1731:1851   */\n    tag_48:\n        /* \"#utility.yul\":1803:1826   */\n      tag_79\n        /* \"#utility.yul\":1820:1825   */\n      dup2\n        /* \"#utility.yul\":1803:1826   */\n      tag_40\n      jump\t// in\n    tag_79:\n        /* \"#utility.yul\":1796:1801   */\n      dup2\n        /* \"#utility.yul\":1793:1827   */\n      eq\n        /* \"#utility.yul\":1783:1845   */\n      tag_80\n      jumpi\n        /* \"#utility.yul\":1841:1842   */\n      0x00\n        /* \"#utility.yul\":1838:1839   */\n      dup1\n        /* \"#utility.yul\":1831:1843   */\n      revert\n        /* \"#utility.yul\":1783:1845   */\n    tag_80:\n        /* \"#utility.yul\":1731:1851   */\n      pop\n      jump\t// out\n        /* \"#utility.yul\":1857:1998   */\n    tag_49:\n        /* \"#utility.yul\":1913:1918   */\n      0x00\n        /* \"#utility.yul\":1944:1950   */\n      dup2\n        /* \"#utility.yul\":1938:1951   */\n      mload\n        /* \"#utility.yul\":1929:1951   */\n      swap1\n      pop\n        /* \"#utility.yul\":1960:1992   */\n      tag_82\n        /* \"#utility.yul\":1986:1991   */\n      dup2\n        /* \"#utility.yul\":1960:1992   */\n      tag_48\n      jump\t// in\n    tag_82:\n        /* \"#utility.yul\":1857:1998   */\n      swap3\n      swap2\n      pop\n      pop\n      jump\t// out\n        /* \"#utility.yul\":2004:2081   */\n    tag_50:\n        /* \"#utility.yul\":2041:2048   */\n      0x00\n        /* \"#utility.yul\":2070:2075   */\n      dup2\n        /* \"#utility.yul\":2059:2075   */\n      swap1\n      pop\n        /* \"#utility.yul\":2004:2081   */\n      swap2\n      swap1\n      pop\n      jump\t// out\n        /* \"#utility.yul\":2087:2209   */\n    tag_51:\n        /* \"#utility.yul\":2160:2184   */\n      tag_85\n        /* \"#utility.yul\":2178:2183   */\n      dup2\n        /* \"#utility.yul\":2160:2184   */\n      tag_50\n      jump\t// in\n    tag_85:\n        /* \"#utility.yul\":2153:2158   */\n      dup2\n        /* \"#utility.yul\":2150:2185   */\n      eq\n        /* \"#utility.yul\":2140:2203   */\n      tag_86\n      jumpi\n        /* \"#utility.yul\":2199:2200   */\n      0x00\n        /* \"#utility.yul\":2196:2197   */\n      dup1\n        /* \"#utility.yul\":2189:2201   */\n      revert\n        /* \"#utility.yul\":2140:2203   */\n    tag_86:\n        /* \"#utility.yul\":2087:2209   */\n      pop\n      jump\t// out\n        /* \"#utility.yul\":2215:2358   */\n    tag_52:\n        /* \"#utility.yul\":2272:2277   */\n      0x00\n        /* \"#utility.yul\":2303:2309   */\n      dup2\n        /* \"#utility.yul\":2297:2310   */\n      mload\n        /* \"#utility.yul\":2288:2310   */\n      swap1\n      pop\n        /* \"#utility.yul\":2319:2352   */\n      tag_88\n        /* \"#utility.yul\":2346:2351   */\n      dup2\n        /* \"#utility.yul\":2319:2352   */\n      tag_51\n      jump\t// in\n    tag_88:\n        /* \"#utility.yul\":2215:2358   */\n      swap3\n      swap2\n      pop\n      pop\n      jump\t// out\n        /* \"#utility.yul\":2364:3335   */\n    tag_32:\n        /* \"#utility.yul\":2467:2473   */\n      0x00\n        /* \"#utility.yul\":2475:2481   */\n      dup1\n        /* \"#utility.yul\":2483:2489   */\n      0x00\n        /* \"#utility.yul\":2491:2497   */\n      dup1\n        /* \"#utility.yul\":2499:2505   */\n      0x00\n        /* \"#utility.yul\":2548:2551   */\n      0xa0\n        /* \"#utility.yul\":2536:2545   */\n      dup7\n        /* \"#utility.yul\":2527:2534   */\n      dup9\n        /* \"#utility.yul\":2523:2546   */\n      sub\n        /* \"#utility.yul\":2519:2552   */\n      slt\n        /* \"#utility.yul\":2516:2636   */\n      iszero\n      tag_90\n      jumpi\n        /* \"#utility.yul\":2555:2634   */\n      tag_91\n      tag_43\n      jump\t// in\n    tag_91:\n        /* \"#utility.yul\":2516:2636   */\n    tag_90:\n        /* \"#utility.yul\":2675:2676   */\n      0x00\n        /* \"#utility.yul\":2700:2763   */\n      tag_92\n        /* \"#utility.yul\":2755:2762   */\n      dup9\n        /* \"#utility.yul\":2746:2752   */\n      dup3\n        /* \"#utility.yul\":2735:2744   */\n      dup10\n        /* \"#utility.yul\":2731:2753   */\n      add\n        /* \"#utility.yul\":2700:2763   */\n      tag_47\n      jump\t// in\n    tag_92:\n        /* \"#utility.yul\":2690:2763   */\n      swap6\n      pop\n        /* \"#utility.yul\":2646:2773   */\n      pop\n        /* \"#utility.yul\":2812:2814   */\n      0x20\n        /* \"#utility.yul\":2838:2901   */\n      tag_93\n        /* \"#utility.yul\":2893:2900   */\n      dup9\n        /* \"#utility.yul\":2884:2890   */\n      dup3\n        /* \"#utility.yul\":2873:2882   */\n      dup10\n        /* \"#utility.yul\":2869:2891   */\n      add\n        /* \"#utility.yul\":2838:2901   */\n      tag_49\n      jump\t// in\n    tag_93:\n        /* \"#utility.yul\":2828:2901   */\n      swap5\n      pop\n        /* \"#utility.yul\":2783:2911   */\n      pop\n        /* \"#utility.yul\":2950:2952   */\n      0x40\n        /* \"#utility.yul\":2976:3040   */\n      tag_94\n        /* \"#utility.yul\":3032:3039   */\n      dup9\n        /* \"#utility.yul\":3023:3029   */\n      dup3\n        /* \"#utility.yul\":3012:3021   */\n      dup10\n        /* \"#utility.yul\":3008:3030   */\n      add\n        /* \"#utility.yul\":2976:3040   */\n      tag_52\n      jump\t// in\n    tag_94:\n        /* \"#utility.yul\":2966:3040   */\n      swap4\n      pop\n        /* \"#utility.yul\":2921:3050   */\n      pop\n        /* \"#utility.yul\":3089:3091   */\n      0x60\n        /* \"#utility.yul\":3115:3179   */\n      tag_95\n        /* \"#utility.yul\":3171:3178   */\n      dup9\n        /* \"#utility.yul\":3162:3168   */\n      dup3\n        /* \"#utility.yul\":3151:3160   */\n      dup10\n        /* \"#utility.yul\":3147:3169   */\n      add\n        /* \"#utility.yul\":3115:3179   */\n      tag_52\n      jump\t// in\n    tag_95:\n        /* \"#utility.yul\":3105:3179   */\n      swap3\n      pop\n        /* \"#utility.yul\":3060:3189   */\n      pop\n        /* \"#utility.yul\":3228:3231   */\n      0x80\n        /* \"#utility.yul\":3255:3318   */\n      tag_96\n        /* \"#utility.yul\":3310:3317   */\n      dup9\n        /* \"#utility.yul\":3301:3307   */\n      dup3\n        /* \"#utility.yul\":3290:3299   */\n      dup10\n        /* \"#utility.yul\":3286:3308   */\n      add\n        /* \"#utility.yul\":3255:3318   */\n      tag_47\n      jump\t// in\n    tag_96:\n        /* \"#utility.yul\":3245:3318   */\n      swap2\n      pop\n        /* \"#utility.yul\":3199:3328   */\n      pop\n        /* \"#utility.yul\":2364:3335   */\n      swap3\n      swap6\n      pop\n      swap3\n      swap6\n      swap1\n      swap4\n      pop\n      jump\t// out\n        /* \"#utility.yul\":3341:3510   */\n    tag_53:\n        /* \"#utility.yul\":3425:3436   */\n      0x00\n        /* \"#utility.yul\":3459:3465   */\n      dup3\n        /* \"#utility.yul\":3454:3457   */\n      dup3\n        /* \"#utility.yul\":3447:3466   */\n      mstore\n        /* \"#utility.yul\":3499:3503   */\n      0x20\n        /* \"#utility.yul\":3494:3497   */\n      dup3\n        /* \"#utility.yul\":3490:3504   */\n      add\n        /* \"#utility.yul\":3475:3504   */\n      swap1\n      pop\n        /* \"#utility.yul\":3341:3510   */\n      swap3\n      swap2\n      pop\n      pop\n      jump\t// out\n        /* \"#utility.yul\":3516:3681   */\n    tag_54:\n        /* \"#utility.yul\":3656:3673   */\n      0x6e6f7420656e6f7567682066756e640000000000000000000000000000000000\n        /* \"#utility.yul\":3652:3653   */\n      0x00\n        /* \"#utility.yul\":3644:3650   */\n      dup3\n        /* \"#utility.yul\":3640:3654   */\n      add\n        /* \"#utility.yul\":3633:3674   */\n      mstore\n        /* \"#utility.yul\":3516:3681   */\n      pop\n      jump\t// out\n        /* \"#utility.yul\":3687:4053   */\n    tag_55:\n        /* \"#utility.yul\":3829:3832   */\n      0x00\n        /* \"#utility.yul\":3850:3917   */\n      tag_100\n        /* \"#utility.yul\":3914:3916   */\n      0x0f\n        /* \"#utility.yul\":3909:3912   */\n      dup4\n        /* \"#utility.yul\":3850:3917   */\n      tag_53\n      jump\t// in\n    tag_100:\n        /* \"#utility.yul\":3843:3917   */\n      swap2\n      pop\n        /* \"#utility.yul\":3926:4019   */\n      tag_101\n        /* \"#utility.yul\":4015:4018   */\n      dup3\n        /* \"#utility.yul\":3926:4019   */\n      tag_54\n      jump\t// in\n    tag_101:\n        /* \"#utility.yul\":4044:4046   */\n      0x20\n        /* \"#utility.yul\":4039:4042   */\n      dup3\n        /* \"#utility.yul\":4035:4047   */\n      add\n        /* \"#utility.yul\":4028:4047   */\n      swap1\n      pop\n        /* \"#utility.yul\":3687:4053   */\n      swap2\n      swap1\n      pop\n      jump\t// out\n        /* \"#utility.yul\":4059:4478   */\n    tag_36:\n        /* \"#utility.yul\":4225:4229   */\n      0x00\n        /* \"#utility.yul\":4263:4265   */\n      0x20\n        /* \"#utility.yul\":4252:4261   */\n      dup3\n        /* \"#utility.yul\":4248:4266   */\n      add\n        /* \"#utility.yul\":4240:4266   */\n      swap1\n      pop\n        /* \"#utility.yul\":4312:4321   */\n      dup2\n        /* \"#utility.yul\":4306:4310   */\n      dup2\n        /* \"#utility.yul\":4302:4322   */\n      sub\n        /* \"#utility.yul\":4298:4299   */\n      0x00\n        /* \"#utility.yul\":4287:4296   */\n      dup4\n        /* \"#utility.yul\":4283:4300   */\n      add\n        /* \"#utility.yul\":4276:4323   */\n      mstore\n        /* \"#utility.yul\":4340:4471   */\n      tag_103\n        /* \"#utility.yul\":4466:4470   */\n      dup2\n        /* \"#utility.yul\":4340:4471   */\n      tag_55\n      jump\t// in\n    tag_103:\n        /* \"#utility.yul\":4332:4471   */\n      swap1\n      pop\n        /* \"#utility.yul\":4059:4478   */\n      swap2\n      swap1\n      pop\n      jump\t// out\n\n    auxdata: 0xa26469706673582212201bc0cf4c26bf1da7a6d9a9c98039859007bebab73578d52dda21b52c5eda918464736f6c63430008080033\n}\n",
				"bytecode": {
					"linkReferences": {},
					"object": "608060405273f7904a295a029a3abdffb6f12755974a958c7c25600260006101000a81548173ffffffffffffffffffffffffffffffffffffffff021916908373ffffffffffffffffffffffffffffffffffffffff16021790555034801561006557600080fd5b50600260009054906101000a900473ffffffffffffffffffffffffffffffffffffffff16600360006101000a81548173ffffffffffffffffffffffffffffffffffffffff021916908373ffffffffffffffffffffffffffffffffffffffff1602179055506104a3806100d86000396000f3fe60806040526004361061004a5760003560e01c806329c36bb51461004f5780638e15f4731461007a578063a3e6ba94146100a5578063b60d4288146100d0578063c7a0d9f6146100da575b600080fd5b34801561005b57600080fd5b50610064610105565b604051610071919061027d565b60405180910390f35b34801561008657600080fd5b5061008f61012b565b60405161009c91906102b1565b60405180910390f35b3480156100b157600080fd5b506100ba6101db565b6040516100c791906102b1565b60405180910390f35b6100d86101e1565b005b3480156100e657600080fd5b506100ef610236565b6040516100fc91906102b1565b60405180910390f35b600260009054906101000a900473ffffffffffffffffffffffffffffffffffffffff1681565b600080600360009054906101000a900473ffffffffffffffffffffffffffffffffffffffff1673ffffffffffffffffffffffffffffffffffffffff1663feaf968c6040518163ffffffff1660e01b815260040160a06040518083038186803b15801561019657600080fd5b505afa1580156101aa573d6000803e3d6000fd5b505050506040513d601f19601f820116820180604052508101906101ce9190610375565b5050509150508091505090565b60015481565b6005600081905550670de0b6b3a7640000341015610234576040517f08c379a000000000000000000000000000000000000000000000000000000000815260040161022b9061044d565b60405180910390fd5b565b60005481565b600073ffffffffffffffffffffffffffffffffffffffff82169050919050565b60006102678261023c565b9050919050565b6102778161025c565b82525050565b6000602082019050610292600083018461026e565b92915050565b6000819050919050565b6102ab81610298565b82525050565b60006020820190506102c660008301846102a2565b92915050565b600080fd5b600069ffffffffffffffffffff82169050919050565b6102f0816102d1565b81146102fb57600080fd5b50565b60008151905061030d816102e7565b92915050565b61031c81610298565b811461032757600080fd5b50565b60008151905061033981610313565b92915050565b6000819050919050565b6103528161033f565b811461035d57600080fd5b50565b60008151905061036f81610349565b92915050565b600080600080600060a08688031215610391576103906102cc565b5b600061039f888289016102fe565b95505060206103b08882890161032a565b94505060406103c188828901610360565b93505060606103d288828901610360565b92505060806103e3888289016102fe565b9150509295509295909350565b600082825260208201905092915050565b7f6e6f7420656e6f7567682066756e640000000000000000000000000000000000600082015250565b6000610437600f836103f0565b915061044282610401565b602082019050919050565b600060208201905081810360008301526104668161042a565b905091905056fea26469706673582212201bc0cf4c26bf1da7a6d9a9c98039859007bebab73578d52dda21b52c5eda918464736f6c63430008080033",
					"opcodes": "PUSH1 0x80 PUSH1 0x40 MSTORE PUSH20 0xF7904A295A029A3ABDFFB6F12755974A958C7C25 PUSH1 0x2 PUSH1 0x0 PUSH2 0x100 EXP DUP2 SLOAD DUP2 PUSH20 0xFFFFFFFFFFFFFFFFFFFFFFFFFFFFFFFFFFFFFFFF MUL NOT AND SWAP1 DUP4 PUSH20 0xFFFFFFFFFFFFFFFFFFFFFFFFFFFFFFFFFFFFFFFF AND MUL OR SWAP1 SSTORE POP CALLVALUE DUP1 ISZERO PUSH2 0x65 JUMPI PUSH1 0x0 DUP1 REVERT JUMPDEST POP PUSH1 0x2 PUSH1 0x0 SWAP1 SLOAD SWAP1 PUSH2 0x100 EXP SWAP1 DIV PUSH20 0xFFFFFFFFFFFFFFFFFFFFFFFFFFFFFFFFFFFFFFFF AND PUSH1 0x3 PUSH1 0x0 PUSH2 0x100 EXP DUP2 SLOAD DUP2 PUSH20 0xFFFFFFFFFFFFFFFFFFFFFFFFFFFFFFFFFFFFFFFF MUL NOT AND SWAP1 DUP4 PUSH20 0xFFFFFFFFFFFFFFFFFFFFFFFFFFFFFFFFFFFFFFFF AND MUL OR SWAP1 SSTORE POP PUSH2 0x4A3 DUP1 PUSH2 0xD8 PUSH1 0x0 CODECOPY PUSH1 0x0 RETURN INVALID PUSH1 0x80 PUSH1 0x40 MSTORE PUSH1 0x4 CALLDATASIZE LT PUSH2 0x4A JUMPI PUSH1 0x0 CALLDATALOAD PUSH1 0xE0 SHR DUP1 PUSH4 0x29C36BB5 EQ PUSH2 0x4F JUMPI DUP1 PUSH4 0x8E15F473 EQ PUSH2 0x7A JUMPI DUP1 PUSH4 0xA3E6BA94 EQ PUSH2 0xA5 JUMPI DUP1 PUSH4 0xB60D4288 EQ PUSH2 0xD0 JUMPI DUP1 PUSH4 0xC7A0D9F6 EQ PUSH2 0xDA JUMPI JUMPDEST PUSH1 0x0 DUP1 REVERT JUMPDEST CALLVALUE DUP1 ISZERO PUSH2 0x5B JUMPI PUSH1 0x0 DUP1 REVERT JUMPDEST POP PUSH2 0x64 PUSH2 0x105 JUMP JUMPDEST PUSH1 0x40 MLOAD PUSH2 0x71 SWAP2 SWAP1 PUSH2 0x27D JUMP JUMPDEST PUSH1 0x40 MLOAD DUP1 SWAP2 SUB SWAP1 RETURN JUMPDEST CALLVALUE DUP1 ISZERO PUSH2 0x86 JUMPI PUSH1 0x0 DUP1 REVERT JUMPDEST POP PUSH2 0x8F PUSH2 0x12B JUMP JUMPDEST PUSH1 0x40 MLOAD PUSH2 0x9C SWAP2 SWAP1 PUSH2 0x2B1 JUMP JUMPDEST PUSH1 0x40 MLOAD DUP1 SWAP2 SUB SWAP1 RETURN JUMPDEST CALLVALUE DUP1 ISZERO PUSH2 0xB1 JUMPI PUSH1 0x0 DUP1 REVERT JUMPDEST POP PUSH2 0xBA PUSH2 0x1DB JUMP JUMPDEST PUSH1 0x40 MLOAD PUSH2 0xC7 SWAP2 SWAP1 PUSH2 0x2B1 JUMP JUMPDEST PUSH1 0x40 MLOAD DUP1 SWAP2 SUB SWAP1 RETURN JUMPDEST PUSH2 0xD8 PUSH2 0x1E1 JUMP JUMPDEST STOP JUMPDEST CALLVALUE DUP1 ISZERO PUSH2 0xE6 JUMPI PUSH1 0x0 DUP1 REVERT JUMPDEST POP PUSH2 0xEF PUSH2 0x236 JUMP JUMPDEST PUSH1 0x40 MLOAD PUSH2 0xFC SWAP2 SWAP1 PUSH2 0x2B1 JUMP JUMPDEST PUSH1 0x40 MLOAD DUP1 SWAP2 SUB SWAP1 RETURN JUMPDEST PUSH1 0x2 PUSH1 0x0 SWAP1 SLOAD SWAP1 PUSH2 0x100 EXP SWAP1 DIV PUSH20 0xFFFFFFFFFFFFFFFFFFFFFFFFFFFFFFFFFFFFFFFF AND DUP2 JUMP JUMPDEST PUSH1 0x0 DUP1 PUSH1 0x3 PUSH1 0x0 SWAP1 SLOAD SWAP1 PUSH2 0x100 EXP SWAP1 DIV PUSH20 0xFFFFFFFFFFFFFFFFFFFFFFFFFFFFFFFFFFFFFFFF AND PUSH20 0xFFFFFFFFFFFFFFFFFFFFFFFFFFFFFFFFFFFFFFFF AND PUSH4 0xFEAF968C PUSH1 0x40 MLOAD DUP2 PUSH4 0xFFFFFFFF AND PUSH1 0xE0 SHL DUP2 MSTORE PUSH1 0x4 ADD PUSH1 0xA0 PUSH1 0x40 MLOAD DUP1 DUP4 SUB DUP2 DUP7 DUP1 EXTCODESIZE ISZERO DUP1 ISZERO PUSH2 0x196 JUMPI PUSH1 0x0 DUP1 REVERT JUMPDEST POP GAS STATICCALL ISZERO DUP1 ISZERO PUSH2 0x1AA JUMPI RETURNDATASIZE PUSH1 0x0 DUP1 RETURNDATACOPY RETURNDATASIZE PUSH1 0x0 REVERT JUMPDEST POP POP POP POP PUSH1 0x40 MLOAD RETURNDATASIZE PUSH1 0x1F NOT PUSH1 0x1F DUP3 ADD AND DUP3 ADD DUP1 PUSH1 0x40 MSTORE POP DUP2 ADD SWAP1 PUSH2 0x1CE SWAP2 SWAP1 PUSH2 0x375 JUMP JUMPDEST POP POP POP SWAP2 POP POP DUP1 SWAP2 POP POP SWAP1 JUMP JUMPDEST PUSH1 0x1 SLOAD DUP2 JUMP JUMPDEST PUSH1 0x5 PUSH1 0x0 DUP2 SWAP1 SSTORE POP PUSH8 0xDE0B6B3A7640000 CALLVALUE LT ISZERO PUSH2 0x234 JUMPI PUSH1 0x40 MLOAD PUSH32 0x8C379A000000000000000000000000000000000000000000000000000000000 DUP2 MSTORE PUSH1 0x4 ADD PUSH2 0x22B SWAP1 PUSH2 0x44D JUMP JUMPDEST PUSH1 0x40 MLOAD DUP1 SWAP2 SUB SWAP1 REVERT JUMPDEST JUMP JUMPDEST PUSH1 0x0 SLOAD DUP2 JUMP JUMPDEST PUSH1 0x0 PUSH20 0xFFFFFFFFFFFFFFFFFFFFFFFFFFFFFFFFFFFFFFFF DUP3 AND SWAP1 POP SWAP2 SWAP1 POP JUMP JUMPDEST PUSH1 0x0 PUSH2 0x267 DUP3 PUSH2 0x23C JUMP JUMPDEST SWAP1 POP SWAP2 SWAP1 POP JUMP JUMPDEST PUSH2 0x277 DUP2 PUSH2 0x25C JUMP JUMPDEST DUP3 MSTORE POP POP JUMP JUMPDEST PUSH1 0x0 PUSH1 0x20 DUP3 ADD SWAP1 POP PUSH2 0x292 PUSH1 0x0 DUP4 ADD DUP5 PUSH2 0x26E JUMP JUMPDEST SWAP3 SWAP2 POP POP JUMP JUMPDEST PUSH1 0x0 DUP2 SWAP1 POP SWAP2 SWAP1 POP JUMP JUMPDEST PUSH2 0x2AB DUP2 PUSH2 0x298 JUMP JUMPDEST DUP3 MSTORE POP POP JUMP JUMPDEST PUSH1 0x0 PUSH1 0x20 DUP3 ADD SWAP1 POP PUSH2 0x2C6 PUSH1 0x0 DUP4 ADD DUP5 PUSH2 0x2A2 JUMP JUMPDEST SWAP3 SWAP2 POP POP JUMP JUMPDEST PUSH1 0x0 DUP1 REVERT JUMPDEST PUSH1 0x0 PUSH10 0xFFFFFFFFFFFFFFFFFFFF DUP3 AND SWAP1 POP SWAP2 SWAP1 POP JUMP JUMPDEST PUSH2 0x2F0 DUP2 PUSH2 0x2D1 JUMP JUMPDEST DUP2 EQ PUSH2 0x2FB JUMPI PUSH1 0x0 DUP1 REVERT JUMPDEST POP JUMP JUMPDEST PUSH1 0x0 DUP2 MLOAD SWAP1 POP PUSH2 0x30D DUP2 PUSH2 0x2E7 JUMP JUMPDEST SWAP3 SWAP2 POP POP JUMP JUMPDEST PUSH2 0x31C DUP2 PUSH2 0x298 JUMP JUMPDEST DUP2 EQ PUSH2 0x327 JUMPI PUSH1 0x0 DUP1 REVERT JUMPDEST POP JUMP JUMPDEST PUSH1 0x0 DUP2 MLOAD SWAP1 POP PUSH2 0x339 DUP2 PUSH2 0x313 JUMP JUMPDEST SWAP3 SWAP2 POP POP JUMP JUMPDEST PUSH1 0x0 DUP2 SWAP1 POP SWAP2 SWAP1 POP JUMP JUMPDEST PUSH2 0x352 DUP2 PUSH2 0x33F JUMP JUMPDEST DUP2 EQ PUSH2 0x35D JUMPI PUSH1 0x0 DUP1 REVERT JUMPDEST POP JUMP JUMPDEST PUSH1 0x0 DUP2 MLOAD SWAP1 POP PUSH2 0x36F DUP2 PUSH2 0x349 JUMP JUMPDEST SWAP3 SWAP2 POP POP JUMP JUMPDEST PUSH1 0x0 DUP1 PUSH1 0x0 DUP1 PUSH1 0x0 PUSH1 0xA0 DUP7 DUP9 SUB SLT ISZERO PUSH2 0x391 JUMPI PUSH2 0x390 PUSH2 0x2CC JUMP JUMPDEST JUMPDEST PUSH1 0x0 PUSH2 0x39F DUP9 DUP3 DUP10 ADD PUSH2 0x2FE JUMP JUMPDEST SWAP6 POP POP PUSH1 0x20 PUSH2 0x3B0 DUP9 DUP3 DUP10 ADD PUSH2 0x32A JUMP JUMPDEST SWAP5 POP POP PUSH1 0x40 PUSH2 0x3C1 DUP9 DUP3 DUP10 ADD PUSH2 0x360 JUMP JUMPDEST SWAP4 POP POP PUSH1 0x60 PUSH2 0x3D2 DUP9 DUP3 DUP10 ADD PUSH2 0x360 JUMP JUMPDEST SWAP3 POP POP PUSH1 0x80 PUSH2 0x3E3 DUP9 DUP3 DUP10 ADD PUSH2 0x2FE JUMP JUMPDEST SWAP2 POP POP SWAP3 SWAP6 POP SWAP3 SWAP6 SWAP1 SWAP4 POP JUMP JUMPDEST PUSH1 0x0 DUP3 DUP3 MSTORE PUSH1 0x20 DUP3 ADD SWAP1 POP SWAP3 SWAP2 POP POP JUMP JUMPDEST PUSH32 0x6E6F7420656E6F7567682066756E640000000000000000000000000000000000 PUSH1 0x0 DUP3 ADD MSTORE POP JUMP JUMPDEST PUSH1 0x0 PUSH2 0x437 PUSH1 0xF DUP4 PUSH2 0x3F0 JUMP JUMPDEST SWAP2 POP PUSH2 0x442 DUP3 PUSH2 0x401 JUMP JUMPDEST PUSH1 0x20 DUP3 ADD SWAP1 POP SWAP2 SWAP1 POP JUMP JUMPDEST PUSH1 0x0 PUSH1 0x20 DUP3 ADD SWAP1 POP DUP2 DUP2 SUB PUSH1 0x0 DUP4 ADD MSTORE PUSH2 0x466 DUP2 PUSH2 0x42A JUMP JUMPDEST SWAP1 POP SWAP2 SWAP1 POP JUMP INVALID LOG2 PUSH5 0x6970667358 0x22 SLT KECCAK256 SHL 0xC0 0xCF 0x4C 0x26 0xBF SAR 0xA7 0xA6 0xD9 0xA9 0xC9 DUP1 CODECOPY DUP6 SWAP1 SMOD 0xBE 0xBA 0xB7 CALLDATALOAD PUSH25 0xD52DDA21B52C5EDA918464736F6C6343000808003300000000 "
				},
				"gasEstimates": {
					"creation": {
						"codeDepositCost": "237400",
						"executionCost": "50951",
						"totalCost": "288351"
					},
					"external": {
						"favNumber()": "2495",
						"feedAddress()": "2492",
						"fund()": "22592",
						"getLatestPrice()": "infinite",
						"latestPrice()": "2451"
					}
				},
				"methodIdentifiers": {
					"favNumber()": "c7a0d9f6",
					"feedAddress()": "29c36bb5",
					"fund()": "b60d4288",
					"getLatestPrice()": "8e15f473",
					"latestPrice()": "a3e6ba94"
				}
			},
			"storageLayout": {
				"storage": [
					{
						"astId": 50,
						"contract": "contracts/FundMe.sol:FundMe",
						"label": "favNumber",
						"offset": 0,
						"slot": "0",
						"type": "t_int256"
					},
					{
						"astId": 52,
						"contract": "contracts/FundMe.sol:FundMe",
						"label": "latestPrice",
						"offset": 0,
						"slot": "1",
						"type": "t_int256"
					},
					{
						"astId": 55,
						"contract": "contracts/FundMe.sol:FundMe",
						"label": "feedAddress",
						"offset": 0,
						"slot": "2",
						"type": "t_address"
					},
					{
						"astId": 58,
						"contract": "contracts/FundMe.sol:FundMe",
						"label": "priceFeed",
						"offset": 0,
						"slot": "3",
						"type": "t_contract(AggregatorV3Interface)45"
					}
				],
				"types": {
					"t_address": {
						"encoding": "inplace",
						"label": "address",
						"numberOfBytes": "20"
					},
					"t_contract(AggregatorV3Interface)45": {
						"encoding": "inplace",
						"label": "contract AggregatorV3Interface",
						"numberOfBytes": "20"
					},
					"t_int256": {
						"encoding": "inplace",
						"label": "int256",
						"numberOfBytes": "32"
					}
				}
			},
			"userdoc": {
				"kind": "user",
				"methods": {},
				"version": 1
			}
		}
	}
}