{
	"contracts/FundMe.sol": {
		"FundMe": {
			"abi": [
				{
					"inputs": [],
					"name": "favNumber",
					"outputs": [
						{
							"internalType": "int256",
							"name": "",
							"type": "int256"
						}
					],
					"stateMutability": "view",
					"type": "function"
				},
				{
					"inputs": [],
					"name": "fund",
					"outputs": [],
					"stateMutability": "payable",
					"type": "function"
				},
				{
					"inputs": [],
					"name": "minimumUSDToSend",
					"outputs": [
						{
							"internalType": "uint256",
							"name": "",
							"type": "uint256"
						}
					],
					"stateMutability": "view",
					"type": "function"
				}
			],
			"devdoc": {
				"kind": "dev",
				"methods": {},
				"version": 1
			},
			"evm": {
				"assembly": "    /* \"contracts/FundMe.sol\":58:273  contract FundMe{... */\n  mstore(0x40, 0x80)\n    /* \"contracts/FundMe.sol\":142:150  1 * 1e18 */\n  0x0de0b6b3a7640000\n    /* \"contracts/FundMe.sol\":108:150  uint256 public minimumUSDToSend = 1 * 1e18 */\n  0x01\n  sstore\n    /* \"contracts/FundMe.sol\":58:273  contract FundMe{... */\n  callvalue\n  dup1\n  iszero\n  tag_1\n  jumpi\n  0x00\n  dup1\n  revert\ntag_1:\n  pop\n  dataSize(sub_0)\n  dup1\n  dataOffset(sub_0)\n  0x00\n  codecopy\n  0x00\n  return\nstop\n\nsub_0: assembly {\n        /* \"contracts/FundMe.sol\":58:273  contract FundMe{... */\n      mstore(0x40, 0x80)\n      jumpi(tag_1, lt(calldatasize, 0x04))\n      shr(0xe0, calldataload(0x00))\n      dup1\n      0x11ae655a\n      eq\n      tag_2\n      jumpi\n      dup1\n      0xb60d4288\n      eq\n      tag_3\n      jumpi\n      dup1\n      0xc7a0d9f6\n      eq\n      tag_4\n      jumpi\n    tag_1:\n      0x00\n      dup1\n      revert\n        /* \"contracts/FundMe.sol\":108:150  uint256 public minimumUSDToSend = 1 * 1e18 */\n    tag_2:\n      callvalue\n      dup1\n      iszero\n      tag_5\n      jumpi\n      0x00\n      dup1\n      revert\n    tag_5:\n      pop\n      tag_6\n      tag_7\n      jump\t// in\n    tag_6:\n      mload(0x40)\n      tag_8\n      swap2\n      swap1\n      tag_9\n      jump\t// in\n    tag_8:\n      mload(0x40)\n      dup1\n      swap2\n      sub\n      swap1\n      return\n        /* \"contracts/FundMe.sol\":157:264  function fund () public payable{... */\n    tag_3:\n      tag_10\n      tag_11\n      jump\t// in\n    tag_10:\n      stop\n        /* \"contracts/FundMe.sol\":80:100  int public favNumber */\n    tag_4:\n      callvalue\n      dup1\n      iszero\n      tag_12\n      jumpi\n      0x00\n      dup1\n      revert\n    tag_12:\n      pop\n      tag_13\n      tag_14\n      jump\t// in\n    tag_13:\n      mload(0x40)\n      tag_15\n      swap2\n      swap1\n      tag_16\n      jump\t// in\n    tag_15:\n      mload(0x40)\n      dup1\n      swap2\n      sub\n      swap1\n      return\n        /* \"contracts/FundMe.sol\":108:150  uint256 public minimumUSDToSend = 1 * 1e18 */\n    tag_7:\n      sload(0x01)\n      dup2\n      jump\t// out\n        /* \"contracts/FundMe.sol\":157:264  function fund () public payable{... */\n    tag_11:\n        /* \"contracts/FundMe.sol\":220:236  minimumUSDToSend */\n      sload(0x01)\n        /* \"contracts/FundMe.sol\":207:216  msg.value */\n      callvalue\n        /* \"contracts/FundMe.sol\":207:236  msg.value >= minimumUSDToSend */\n      lt\n      iszero\n        /* \"contracts/FundMe.sol\":199:256  require(msg.value >= minimumUSDToSend, \"not enough fund\") */\n      tag_18\n      jumpi\n      mload(0x40)\n      0x08c379a000000000000000000000000000000000000000000000000000000000\n      dup2\n      mstore\n      0x04\n      add\n      tag_19\n      swap1\n      tag_20\n      jump\t// in\n    tag_19:\n      mload(0x40)\n      dup1\n      swap2\n      sub\n      swap1\n      revert\n    tag_18:\n        /* \"contracts/FundMe.sol\":157:264  function fund () public payable{... */\n      jump\t// out\n        /* \"contracts/FundMe.sol\":80:100  int public favNumber */\n    tag_14:\n      sload(0x00)\n      dup2\n      jump\t// out\n        /* \"#utility.yul\":7:84   */\n    tag_21:\n        /* \"#utility.yul\":44:51   */\n      0x00\n        /* \"#utility.yul\":73:78   */\n      dup2\n        /* \"#utility.yul\":62:78   */\n      swap1\n      pop\n        /* \"#utility.yul\":7:84   */\n      swap2\n      swap1\n      pop\n      jump\t// out\n        /* \"#utility.yul\":90:208   */\n    tag_22:\n        /* \"#utility.yul\":177:201   */\n      tag_31\n        /* \"#utility.yul\":195:200   */\n      dup2\n        /* \"#utility.yul\":177:201   */\n      tag_21\n      jump\t// in\n    tag_31:\n        /* \"#utility.yul\":172:175   */\n      dup3\n        /* \"#utility.yul\":165:202   */\n      mstore\n        /* \"#utility.yul\":90:208   */\n      pop\n      pop\n      jump\t// out\n        /* \"#utility.yul\":214:436   */\n    tag_9:\n        /* \"#utility.yul\":307:311   */\n      0x00\n        /* \"#utility.yul\":345:347   */\n      0x20\n        /* \"#utility.yul\":334:343   */\n      dup3\n        /* \"#utility.yul\":330:348   */\n      add\n        /* \"#utility.yul\":322:348   */\n      swap1\n      pop\n        /* \"#utility.yul\":358:429   */\n      tag_33\n        /* \"#utility.yul\":426:427   */\n      0x00\n        /* \"#utility.yul\":415:424   */\n      dup4\n        /* \"#utility.yul\":411:428   */\n      add\n        /* \"#utility.yul\":402:408   */\n      dup5\n        /* \"#utility.yul\":358:429   */\n      tag_22\n      jump\t// in\n    tag_33:\n        /* \"#utility.yul\":214:436   */\n      swap3\n      swap2\n      pop\n      pop\n      jump\t// out\n        /* \"#utility.yul\":442:518   */\n    tag_23:\n        /* \"#utility.yul\":478:485   */\n      0x00\n        /* \"#utility.yul\":507:512   */\n      dup2\n        /* \"#utility.yul\":496:512   */\n      swap1\n      pop\n        /* \"#utility.yul\":442:518   */\n      swap2\n      swap1\n      pop\n      jump\t// out\n        /* \"#utility.yul\":524:639   */\n    tag_24:\n        /* \"#utility.yul\":609:632   */\n      tag_36\n        /* \"#utility.yul\":626:631   */\n      dup2\n        /* \"#utility.yul\":609:632   */\n      tag_23\n      jump\t// in\n    tag_36:\n        /* \"#utility.yul\":604:607   */\n      dup3\n        /* \"#utility.yul\":597:633   */\n      mstore\n        /* \"#utility.yul\":524:639   */\n      pop\n      pop\n      jump\t// out\n        /* \"#utility.yul\":645:863   */\n    tag_16:\n        /* \"#utility.yul\":736:740   */\n      0x00\n        /* \"#utility.yul\":774:776   */\n      0x20\n        /* \"#utility.yul\":763:772   */\n      dup3\n        /* \"#utility.yul\":759:777   */\n      add\n        /* \"#utility.yul\":751:777   */\n      swap1\n      pop\n        /* \"#utility.yul\":787:856   */\n      tag_38\n        /* \"#utility.yul\":853:854   */\n      0x00\n        /* \"#utility.yul\":842:851   */\n      dup4\n        /* \"#utility.yul\":838:855   */\n      add\n        /* \"#utility.yul\":829:835   */\n      dup5\n        /* \"#utility.yul\":787:856   */\n      tag_24\n      jump\t// in\n    tag_38:\n        /* \"#utility.yul\":645:863   */\n      swap3\n      swap2\n      pop\n      pop\n      jump\t// out\n        /* \"#utility.yul\":869:1038   */\n    tag_25:\n        /* \"#utility.yul\":953:964   */\n      0x00\n        /* \"#utility.yul\":987:993   */\n      dup3\n        /* \"#utility.yul\":982:985   */\n      dup3\n        /* \"#utility.yul\":975:994   */\n      mstore\n        /* \"#utility.yul\":1027:1031   */\n      0x20\n        /* \"#utility.yul\":1022:1025   */\n      dup3\n        /* \"#utility.yul\":1018:1032   */\n      add\n        /* \"#utility.yul\":1003:1032   */\n      swap1\n      pop\n        /* \"#utility.yul\":869:1038   */\n      swap3\n      swap2\n      pop\n      pop\n      jump\t// out\n        /* \"#utility.yul\":1044:1209   */\n    tag_26:\n        /* \"#utility.yul\":1184:1201   */\n      0x6e6f7420656e6f7567682066756e640000000000000000000000000000000000\n        /* \"#utility.yul\":1180:1181   */\n      0x00\n        /* \"#utility.yul\":1172:1178   */\n      dup3\n        /* \"#utility.yul\":1168:1182   */\n      add\n        /* \"#utility.yul\":1161:1202   */\n      mstore\n        /* \"#utility.yul\":1044:1209   */\n      pop\n      jump\t// out\n        /* \"#utility.yul\":1215:1581   */\n    tag_27:\n        /* \"#utility.yul\":1357:1360   */\n      0x00\n        /* \"#utility.yul\":1378:1445   */\n      tag_42\n        /* \"#utility.yul\":1442:1444   */\n      0x0f\n        /* \"#utility.yul\":1437:1440   */\n      dup4\n        /* \"#utility.yul\":1378:1445   */\n      tag_25\n      jump\t// in\n    tag_42:\n        /* \"#utility.yul\":1371:1445   */\n      swap2\n      pop\n        /* \"#utility.yul\":1454:1547   */\n      tag_43\n        /* \"#utility.yul\":1543:1546   */\n      dup3\n        /* \"#utility.yul\":1454:1547   */\n      tag_26\n      jump\t// in\n    tag_43:\n        /* \"#utility.yul\":1572:1574   */\n      0x20\n        /* \"#utility.yul\":1567:1570   */\n      dup3\n        /* \"#utility.yul\":1563:1575   */\n      add\n        /* \"#utility.yul\":1556:1575   */\n      swap1\n      pop\n        /* \"#utility.yul\":1215:1581   */\n      swap2\n      swap1\n      pop\n      jump\t// out\n        /* \"#utility.yul\":1587:2006   */\n    tag_20:\n        /* \"#utility.yul\":1753:1757   */\n      0x00\n        /* \"#utility.yul\":1791:1793   */\n      0x20\n        /* \"#utility.yul\":1780:1789   */\n      dup3\n        /* \"#utility.yul\":1776:1794   */\n      add\n        /* \"#utility.yul\":1768:1794   */\n      swap1\n      pop\n        /* \"#utility.yul\":1840:1849   */\n      dup2\n        /* \"#utility.yul\":1834:1838   */\n      dup2\n        /* \"#utility.yul\":1830:1850   */\n      sub\n        /* \"#utility.yul\":1826:1827   */\n      0x00\n        /* \"#utility.yul\":1815:1824   */\n      dup4\n        /* \"#utility.yul\":1811:1828   */\n      add\n        /* \"#utility.yul\":1804:1851   */\n      mstore\n        /* \"#utility.yul\":1868:1999   */\n      tag_45\n        /* \"#utility.yul\":1994:1998   */\n      dup2\n        /* \"#utility.yul\":1868:1999   */\n      tag_27\n      jump\t// in\n    tag_45:\n        /* \"#utility.yul\":1860:1999   */\n      swap1\n      pop\n        /* \"#utility.yul\":1587:2006   */\n      swap2\n      swap1\n      pop\n      jump\t// out\n\n    auxdata: 0xa26469706673582212206a9d6561501b10d96aba4cd5f730f4bc0a6c79ed31d822aa7c1286dba0e8565364736f6c63430008080033\n}\n",
				"bytecode": {
					"linkReferences": {},
					"object": "6080604052670de0b6b3a764000060015534801561001c57600080fd5b506102078061002c6000396000f3fe6080604052600436106100345760003560e01c806311ae655a14610039578063b60d428814610064578063c7a0d9f61461006e575b600080fd5b34801561004557600080fd5b5061004e610099565b60405161005b9190610105565b60405180910390f35b61006c61009f565b005b34801561007a57600080fd5b506100836100e6565b6040516100909190610139565b60405180910390f35b60015481565b6001543410156100e4576040517f08c379a00000000000000000000000000000000000000000000000000000000081526004016100db906101b1565b60405180910390fd5b565b60005481565b6000819050919050565b6100ff816100ec565b82525050565b600060208201905061011a60008301846100f6565b92915050565b6000819050919050565b61013381610120565b82525050565b600060208201905061014e600083018461012a565b92915050565b600082825260208201905092915050565b7f6e6f7420656e6f7567682066756e640000000000000000000000000000000000600082015250565b600061019b600f83610154565b91506101a682610165565b602082019050919050565b600060208201905081810360008301526101ca8161018e565b905091905056fea26469706673582212206a9d6561501b10d96aba4cd5f730f4bc0a6c79ed31d822aa7c1286dba0e8565364736f6c63430008080033",
					"opcodes": "PUSH1 0x80 PUSH1 0x40 MSTORE PUSH8 0xDE0B6B3A7640000 PUSH1 0x1 SSTORE CALLVALUE DUP1 ISZERO PUSH2 0x1C JUMPI PUSH1 0x0 DUP1 REVERT JUMPDEST POP PUSH2 0x207 DUP1 PUSH2 0x2C PUSH1 0x0 CODECOPY PUSH1 0x0 RETURN INVALID PUSH1 0x80 PUSH1 0x40 MSTORE PUSH1 0x4 CALLDATASIZE LT PUSH2 0x34 JUMPI PUSH1 0x0 CALLDATALOAD PUSH1 0xE0 SHR DUP1 PUSH4 0x11AE655A EQ PUSH2 0x39 JUMPI DUP1 PUSH4 0xB60D4288 EQ PUSH2 0x64 JUMPI DUP1 PUSH4 0xC7A0D9F6 EQ PUSH2 0x6E JUMPI JUMPDEST PUSH1 0x0 DUP1 REVERT JUMPDEST CALLVALUE DUP1 ISZERO PUSH2 0x45 JUMPI PUSH1 0x0 DUP1 REVERT JUMPDEST POP PUSH2 0x4E PUSH2 0x99 JUMP JUMPDEST PUSH1 0x40 MLOAD PUSH2 0x5B SWAP2 SWAP1 PUSH2 0x105 JUMP JUMPDEST PUSH1 0x40 MLOAD DUP1 SWAP2 SUB SWAP1 RETURN JUMPDEST PUSH2 0x6C PUSH2 0x9F JUMP JUMPDEST STOP JUMPDEST CALLVALUE DUP1 ISZERO PUSH2 0x7A JUMPI PUSH1 0x0 DUP1 REVERT JUMPDEST POP PUSH2 0x83 PUSH2 0xE6 JUMP JUMPDEST PUSH1 0x40 MLOAD PUSH2 0x90 SWAP2 SWAP1 PUSH2 0x139 JUMP JUMPDEST PUSH1 0x40 MLOAD DUP1 SWAP2 SUB SWAP1 RETURN JUMPDEST PUSH1 0x1 SLOAD DUP2 JUMP JUMPDEST PUSH1 0x1 SLOAD CALLVALUE LT ISZERO PUSH2 0xE4 JUMPI PUSH1 0x40 MLOAD PUSH32 0x8C379A000000000000000000000000000000000000000000000000000000000 DUP2 MSTORE PUSH1 0x4 ADD PUSH2 0xDB SWAP1 PUSH2 0x1B1 JUMP JUMPDEST PUSH1 0x40 MLOAD DUP1 SWAP2 SUB SWAP1 REVERT JUMPDEST JUMP JUMPDEST PUSH1 0x0 SLOAD DUP2 JUMP JUMPDEST PUSH1 0x0 DUP2 SWAP1 POP SWAP2 SWAP1 POP JUMP JUMPDEST PUSH2 0xFF DUP2 PUSH2 0xEC JUMP JUMPDEST DUP3 MSTORE POP POP JUMP JUMPDEST PUSH1 0x0 PUSH1 0x20 DUP3 ADD SWAP1 POP PUSH2 0x11A PUSH1 0x0 DUP4 ADD DUP5 PUSH2 0xF6 JUMP JUMPDEST SWAP3 SWAP2 POP POP JUMP JUMPDEST PUSH1 0x0 DUP2 SWAP1 POP SWAP2 SWAP1 POP JUMP JUMPDEST PUSH2 0x133 DUP2 PUSH2 0x120 JUMP JUMPDEST DUP3 MSTORE POP POP JUMP JUMPDEST PUSH1 0x0 PUSH1 0x20 DUP3 ADD SWAP1 POP PUSH2 0x14E PUSH1 0x0 DUP4 ADD DUP5 PUSH2 0x12A JUMP JUMPDEST SWAP3 SWAP2 POP POP JUMP JUMPDEST PUSH1 0x0 DUP3 DUP3 MSTORE PUSH1 0x20 DUP3 ADD SWAP1 POP SWAP3 SWAP2 POP POP JUMP JUMPDEST PUSH32 0x6E6F7420656E6F7567682066756E640000000000000000000000000000000000 PUSH1 0x0 DUP3 ADD MSTORE POP JUMP JUMPDEST PUSH1 0x0 PUSH2 0x19B PUSH1 0xF DUP4 PUSH2 0x154 JUMP JUMPDEST SWAP2 POP PUSH2 0x1A6 DUP3 PUSH2 0x165 JUMP JUMPDEST PUSH1 0x20 DUP3 ADD SWAP1 POP SWAP2 SWAP1 POP JUMP JUMPDEST PUSH1 0x0 PUSH1 0x20 DUP3 ADD SWAP1 POP DUP2 DUP2 SUB PUSH1 0x0 DUP4 ADD MSTORE PUSH2 0x1CA DUP2 PUSH2 0x18E JUMP JUMPDEST SWAP1 POP SWAP2 SWAP1 POP JUMP INVALID LOG2 PUSH5 0x6970667358 0x22 SLT KECCAK256 PUSH11 0x9D6561501B10D96ABA4CD5 0xF7 ADDRESS DELEGATECALL 0xBC EXP PUSH13 0x79ED31D822AA7C1286DBA0E856 MSTORE8 PUSH5 0x736F6C6343 STOP ADDMOD ADDMOD STOP CALLER "
				},
				"gasEstimates": {
					"creation": {
						"codeDepositCost": "103800",
						"executionCost": "22259",
						"totalCost": "126059"
					},
					"external": {
						"favNumber()": "2451",
						"fund()": "2534",
						"minimumUSDToSend()": "2407"
					}
				},
				"methodIdentifiers": {
					"favNumber()": "c7a0d9f6",
					"fund()": "b60d4288",
					"minimumUSDToSend()": "11ae655a"
				}
			},
			"storageLayout": {
				"storage": [
					{
						"astId": 3,
						"contract": "contracts/FundMe.sol:FundMe",
						"label": "favNumber",
						"offset": 0,
						"slot": "0",
						"type": "t_int256"
					},
					{
						"astId": 8,
						"contract": "contracts/FundMe.sol:FundMe",
						"label": "minimumUSDToSend",
						"offset": 0,
						"slot": "1",
						"type": "t_uint256"
					}
				],
				"types": {
					"t_int256": {
						"encoding": "inplace",
						"label": "int256",
						"numberOfBytes": "32"
					},
					"t_uint256": {
						"encoding": "inplace",
						"label": "uint256",
						"numberOfBytes": "32"
					}
				}
			},
			"userdoc": {
				"kind": "user",
				"methods": {},
				"version": 1
			}
		}
	}
}