{
	"contracts/FundMe.sol": {
		"FundMe": {
			"abi": [
				{
					"inputs": [],
					"stateMutability": "nonpayable",
					"type": "constructor"
				},
				{
					"inputs": [],
					"name": "favNumber",
					"outputs": [
						{
							"internalType": "int256",
							"name": "",
							"type": "int256"
						}
					],
					"stateMutability": "view",
					"type": "function"
				},
				{
					"inputs": [],
					"name": "feedAddress",
					"outputs": [
						{
							"internalType": "address",
							"name": "",
							"type": "address"
						}
					],
					"stateMutability": "view",
					"type": "function"
				},
				{
					"inputs": [],
					"name": "fund",
					"outputs": [],
					"stateMutability": "payable",
					"type": "function"
				},
				{
					"inputs": [],
					"name": "getLatestPrice",
					"outputs": [
						{
							"internalType": "int256",
							"name": "",
							"type": "int256"
						}
					],
					"stateMutability": "view",
					"type": "function"
				},
				{
					"inputs": [],
					"name": "latestPriceOfBTCinETH",
					"outputs": [
						{
							"internalType": "int256",
							"name": "",
							"type": "int256"
						}
					],
					"stateMutability": "view",
					"type": "function"
				},
				{
					"inputs": [],
					"name": "minimumUSDToSend",
					"outputs": [
						{
							"internalType": "uint256",
							"name": "",
							"type": "uint256"
						}
					],
					"stateMutability": "view",
					"type": "function"
				}
			],
			"devdoc": {
				"kind": "dev",
				"methods": {},
				"version": 1
			},
			"evm": {
				"assembly": "    /* \"contracts/FundMe.sol\":136:966  contract FundMe{... */\n  mstore(0x40, 0x80)\n    /* \"contracts/FundMe.sol\":292:334  0x8A753747A1Fa494EC906cE90E9f37563A8AF630e */\n  0x8a753747a1fa494ec906ce90e9f37563a8af630e\n    /* \"contracts/FundMe.sol\":263:334  address public feedAddress = 0x8A753747A1Fa494EC906cE90E9f37563A8AF630e */\n  0x03\n  exp(0x0100, 0x00)\n  dup2\n  sload\n  dup2\n  0xffffffffffffffffffffffffffffffffffffffff\n  mul\n  not\n  and\n  swap1\n  dup4\n  0xffffffffffffffffffffffffffffffffffffffff\n  and\n  mul\n  or\n  swap1\n  sstore\n  pop\n    /* \"contracts/FundMe.sol\":575:654  constructor() {... */\n  callvalue\n  dup1\n  iszero\n  tag_1\n  jumpi\n  0x00\n  dup1\n  revert\ntag_1:\n  pop\n    /* \"contracts/FundMe.sol\":634:645  feedAddress */\n  0x03\n  0x00\n  swap1\n  sload\n  swap1\n  0x0100\n  exp\n  swap1\n  div\n  0xffffffffffffffffffffffffffffffffffffffff\n  and\n    /* \"contracts/FundMe.sol\":600:609  priceFeed */\n  0x04\n  0x00\n    /* \"contracts/FundMe.sol\":600:646  priceFeed = AggregatorV3Interface(feedAddress) */\n  0x0100\n  exp\n  dup2\n  sload\n  dup2\n  0xffffffffffffffffffffffffffffffffffffffff\n  mul\n  not\n  and\n  swap1\n  dup4\n  0xffffffffffffffffffffffffffffffffffffffff\n  and\n  mul\n  or\n  swap1\n  sstore\n  pop\n    /* \"contracts/FundMe.sol\":136:966  contract FundMe{... */\n  dataSize(sub_0)\n  dup1\n  dataOffset(sub_0)\n  0x00\n  codecopy\n  0x00\n  return\nstop\n\nsub_0: assembly {\n        /* \"contracts/FundMe.sol\":136:966  contract FundMe{... */\n      mstore(0x40, 0x80)\n      jumpi(tag_1, lt(calldatasize, 0x04))\n      shr(0xe0, calldataload(0x00))\n      dup1\n      0x11ae655a\n      eq\n      tag_2\n      jumpi\n      dup1\n      0x1ab26def\n      eq\n      tag_3\n      jumpi\n      dup1\n      0x29c36bb5\n      eq\n      tag_4\n      jumpi\n      dup1\n      0x8e15f473\n      eq\n      tag_5\n      jumpi\n      dup1\n      0xb60d4288\n      eq\n      tag_6\n      jumpi\n      dup1\n      0xc7a0d9f6\n      eq\n      tag_7\n      jumpi\n    tag_1:\n      0x00\n      dup1\n      revert\n        /* \"contracts/FundMe.sol\":186:217  uint256 public minimumUSDToSend */\n    tag_2:\n      callvalue\n      dup1\n      iszero\n      tag_8\n      jumpi\n      0x00\n      dup1\n      revert\n    tag_8:\n      pop\n      tag_9\n      tag_10\n      jump\t// in\n    tag_9:\n      mload(0x40)\n      tag_11\n      swap2\n      swap1\n      tag_12\n      jump\t// in\n    tag_11:\n      mload(0x40)\n      dup1\n      swap2\n      sub\n      swap1\n      return\n        /* \"contracts/FundMe.sol\":224:256  int public latestPriceOfBTCinETH */\n    tag_3:\n      callvalue\n      dup1\n      iszero\n      tag_13\n      jumpi\n      0x00\n      dup1\n      revert\n    tag_13:\n      pop\n      tag_14\n      tag_15\n      jump\t// in\n    tag_14:\n      mload(0x40)\n      tag_16\n      swap2\n      swap1\n      tag_17\n      jump\t// in\n    tag_16:\n      mload(0x40)\n      dup1\n      swap2\n      sub\n      swap1\n      return\n        /* \"contracts/FundMe.sol\":263:334  address public feedAddress = 0x8A753747A1Fa494EC906cE90E9f37563A8AF630e */\n    tag_4:\n      callvalue\n      dup1\n      iszero\n      tag_18\n      jumpi\n      0x00\n      dup1\n      revert\n    tag_18:\n      pop\n      tag_19\n      tag_20\n      jump\t// in\n    tag_19:\n      mload(0x40)\n      tag_21\n      swap2\n      swap1\n      tag_22\n      jump\t// in\n    tag_21:\n      mload(0x40)\n      dup1\n      swap2\n      sub\n      swap1\n      return\n        /* \"contracts/FundMe.sol\":664:963  function getLatestPrice() public view returns (int) {... */\n    tag_5:\n      callvalue\n      dup1\n      iszero\n      tag_23\n      jumpi\n      0x00\n      dup1\n      revert\n    tag_23:\n      pop\n      tag_24\n      tag_25\n      jump\t// in\n    tag_24:\n      mload(0x40)\n      tag_26\n      swap2\n      swap1\n      tag_17\n      jump\t// in\n    tag_26:\n      mload(0x40)\n      dup1\n      swap2\n      sub\n      swap1\n      return\n        /* \"contracts/FundMe.sol\":390:557  function fund () public payable{... */\n    tag_6:\n      tag_27\n      tag_28\n      jump\t// in\n    tag_27:\n      stop\n        /* \"contracts/FundMe.sol\":158:178  int public favNumber */\n    tag_7:\n      callvalue\n      dup1\n      iszero\n      tag_29\n      jumpi\n      0x00\n      dup1\n      revert\n    tag_29:\n      pop\n      tag_30\n      tag_31\n      jump\t// in\n    tag_30:\n      mload(0x40)\n      tag_32\n      swap2\n      swap1\n      tag_17\n      jump\t// in\n    tag_32:\n      mload(0x40)\n      dup1\n      swap2\n      sub\n      swap1\n      return\n        /* \"contracts/FundMe.sol\":186:217  uint256 public minimumUSDToSend */\n    tag_10:\n      sload(0x01)\n      dup2\n      jump\t// out\n        /* \"contracts/FundMe.sol\":224:256  int public latestPriceOfBTCinETH */\n    tag_15:\n      sload(0x02)\n      dup2\n      jump\t// out\n        /* \"contracts/FundMe.sol\":263:334  address public feedAddress = 0x8A753747A1Fa494EC906cE90E9f37563A8AF630e */\n    tag_20:\n      0x03\n      0x00\n      swap1\n      sload\n      swap1\n      0x0100\n      exp\n      swap1\n      div\n      0xffffffffffffffffffffffffffffffffffffffff\n      and\n      dup2\n      jump\t// out\n        /* \"contracts/FundMe.sol\":664:963  function getLatestPrice() public view returns (int) {... */\n    tag_25:\n        /* \"contracts/FundMe.sol\":711:714  int */\n      0x00\n        /* \"contracts/FundMe.sol\":775:784  int price */\n      dup1\n        /* \"contracts/FundMe.sol\":905:914  priceFeed */\n      0x04\n      0x00\n      swap1\n      sload\n      swap1\n      0x0100\n      exp\n      swap1\n      div\n      0xffffffffffffffffffffffffffffffffffffffff\n      and\n        /* \"contracts/FundMe.sol\":905:930  priceFeed.latestRoundData */\n      0xffffffffffffffffffffffffffffffffffffffff\n      and\n      0xfeaf968c\n        /* \"contracts/FundMe.sol\":905:932  priceFeed.latestRoundData() */\n      mload(0x40)\n      dup2\n      0xffffffff\n      and\n      0xe0\n      shl\n      dup2\n      mstore\n      0x04\n      add\n      0xa0\n      mload(0x40)\n      dup1\n      dup4\n      sub\n      dup2\n      dup7\n      dup1\n      extcodesize\n      iszero\n      dup1\n      iszero\n      tag_34\n      jumpi\n      0x00\n      dup1\n      revert\n    tag_34:\n      pop\n      gas\n      staticcall\n      iszero\n      dup1\n      iszero\n      tag_36\n      jumpi\n      returndatasize\n      0x00\n      dup1\n      returndatacopy\n      revert(0x00, returndatasize)\n    tag_36:\n      pop\n      pop\n      pop\n      pop\n      mload(0x40)\n      returndatasize\n      not(0x1f)\n      0x1f\n      dup3\n      add\n      and\n      dup3\n      add\n      dup1\n      0x40\n      mstore\n      pop\n      dup2\n      add\n      swap1\n      tag_37\n      swap2\n      swap1\n      tag_38\n      jump\t// in\n    tag_37:\n        /* \"contracts/FundMe.sol\":727:932  (... */\n      pop\n      pop\n      pop\n      swap2\n      pop\n      pop\n        /* \"contracts/FundMe.sol\":950:955  price */\n      dup1\n        /* \"contracts/FundMe.sol\":943:955  return price */\n      swap2\n      pop\n      pop\n        /* \"contracts/FundMe.sol\":664:963  function getLatestPrice() public view returns (int) {... */\n      swap1\n      jump\t// out\n        /* \"contracts/FundMe.sol\":390:557  function fund () public payable{... */\n    tag_28:\n        /* \"contracts/FundMe.sol\":444:445  5 */\n      0x05\n        /* \"contracts/FundMe.sol\":432:441  favNumber */\n      0x00\n        /* \"contracts/FundMe.sol\":432:445  favNumber = 5 */\n      dup2\n      swap1\n      sstore\n      pop\n        /* \"contracts/FundMe.sol\":477:478  1 */\n      0x01\n        /* \"contracts/FundMe.sol\":464:473  msg.value */\n      callvalue\n        /* \"contracts/FundMe.sol\":464:478  msg.value >= 1 */\n      lt\n      iszero\n        /* \"contracts/FundMe.sol\":456:498  require(msg.value >= 1, \"not enough fund\") */\n      tag_40\n      jumpi\n      mload(0x40)\n      0x08c379a000000000000000000000000000000000000000000000000000000000\n      dup2\n      mstore\n      0x04\n      add\n      tag_41\n      swap1\n      tag_42\n      jump\t// in\n    tag_41:\n      mload(0x40)\n      dup1\n      swap2\n      sub\n      swap1\n      revert\n    tag_40:\n        /* \"contracts/FundMe.sol\":533:549  getLatestPrice() */\n      tag_43\n        /* \"contracts/FundMe.sol\":533:547  getLatestPrice */\n      tag_25\n        /* \"contracts/FundMe.sol\":533:549  getLatestPrice() */\n      jump\t// in\n    tag_43:\n        /* \"contracts/FundMe.sol\":509:530  latestPriceOfBTCinETH */\n      0x02\n        /* \"contracts/FundMe.sol\":509:549  latestPriceOfBTCinETH = getLatestPrice() */\n      dup2\n      swap1\n      sstore\n      pop\n        /* \"contracts/FundMe.sol\":390:557  function fund () public payable{... */\n      jump\t// out\n        /* \"contracts/FundMe.sol\":158:178  int public favNumber */\n    tag_31:\n      sload(0x00)\n      dup2\n      jump\t// out\n        /* \"#utility.yul\":7:84   */\n    tag_44:\n        /* \"#utility.yul\":44:51   */\n      0x00\n        /* \"#utility.yul\":73:78   */\n      dup2\n        /* \"#utility.yul\":62:78   */\n      swap1\n      pop\n        /* \"#utility.yul\":7:84   */\n      swap2\n      swap1\n      pop\n      jump\t// out\n        /* \"#utility.yul\":90:208   */\n    tag_45:\n        /* \"#utility.yul\":177:201   */\n      tag_67\n        /* \"#utility.yul\":195:200   */\n      dup2\n        /* \"#utility.yul\":177:201   */\n      tag_44\n      jump\t// in\n    tag_67:\n        /* \"#utility.yul\":172:175   */\n      dup3\n        /* \"#utility.yul\":165:202   */\n      mstore\n        /* \"#utility.yul\":90:208   */\n      pop\n      pop\n      jump\t// out\n        /* \"#utility.yul\":214:436   */\n    tag_12:\n        /* \"#utility.yul\":307:311   */\n      0x00\n        /* \"#utility.yul\":345:347   */\n      0x20\n        /* \"#utility.yul\":334:343   */\n      dup3\n        /* \"#utility.yul\":330:348   */\n      add\n        /* \"#utility.yul\":322:348   */\n      swap1\n      pop\n        /* \"#utility.yul\":358:429   */\n      tag_69\n        /* \"#utility.yul\":426:427   */\n      0x00\n        /* \"#utility.yul\":415:424   */\n      dup4\n        /* \"#utility.yul\":411:428   */\n      add\n        /* \"#utility.yul\":402:408   */\n      dup5\n        /* \"#utility.yul\":358:429   */\n      tag_45\n      jump\t// in\n    tag_69:\n        /* \"#utility.yul\":214:436   */\n      swap3\n      swap2\n      pop\n      pop\n      jump\t// out\n        /* \"#utility.yul\":442:518   */\n    tag_46:\n        /* \"#utility.yul\":478:485   */\n      0x00\n        /* \"#utility.yul\":507:512   */\n      dup2\n        /* \"#utility.yul\":496:512   */\n      swap1\n      pop\n        /* \"#utility.yul\":442:518   */\n      swap2\n      swap1\n      pop\n      jump\t// out\n        /* \"#utility.yul\":524:639   */\n    tag_47:\n        /* \"#utility.yul\":609:632   */\n      tag_72\n        /* \"#utility.yul\":626:631   */\n      dup2\n        /* \"#utility.yul\":609:632   */\n      tag_46\n      jump\t// in\n    tag_72:\n        /* \"#utility.yul\":604:607   */\n      dup3\n        /* \"#utility.yul\":597:633   */\n      mstore\n        /* \"#utility.yul\":524:639   */\n      pop\n      pop\n      jump\t// out\n        /* \"#utility.yul\":645:863   */\n    tag_17:\n        /* \"#utility.yul\":736:740   */\n      0x00\n        /* \"#utility.yul\":774:776   */\n      0x20\n        /* \"#utility.yul\":763:772   */\n      dup3\n        /* \"#utility.yul\":759:777   */\n      add\n        /* \"#utility.yul\":751:777   */\n      swap1\n      pop\n        /* \"#utility.yul\":787:856   */\n      tag_74\n        /* \"#utility.yul\":853:854   */\n      0x00\n        /* \"#utility.yul\":842:851   */\n      dup4\n        /* \"#utility.yul\":838:855   */\n      add\n        /* \"#utility.yul\":829:835   */\n      dup5\n        /* \"#utility.yul\":787:856   */\n      tag_47\n      jump\t// in\n    tag_74:\n        /* \"#utility.yul\":645:863   */\n      swap3\n      swap2\n      pop\n      pop\n      jump\t// out\n        /* \"#utility.yul\":869:995   */\n    tag_48:\n        /* \"#utility.yul\":906:913   */\n      0x00\n        /* \"#utility.yul\":946:988   */\n      0xffffffffffffffffffffffffffffffffffffffff\n        /* \"#utility.yul\":939:944   */\n      dup3\n        /* \"#utility.yul\":935:989   */\n      and\n        /* \"#utility.yul\":924:989   */\n      swap1\n      pop\n        /* \"#utility.yul\":869:995   */\n      swap2\n      swap1\n      pop\n      jump\t// out\n        /* \"#utility.yul\":1001:1097   */\n    tag_49:\n        /* \"#utility.yul\":1038:1045   */\n      0x00\n        /* \"#utility.yul\":1067:1091   */\n      tag_77\n        /* \"#utility.yul\":1085:1090   */\n      dup3\n        /* \"#utility.yul\":1067:1091   */\n      tag_48\n      jump\t// in\n    tag_77:\n        /* \"#utility.yul\":1056:1091   */\n      swap1\n      pop\n        /* \"#utility.yul\":1001:1097   */\n      swap2\n      swap1\n      pop\n      jump\t// out\n        /* \"#utility.yul\":1103:1221   */\n    tag_50:\n        /* \"#utility.yul\":1190:1214   */\n      tag_79\n        /* \"#utility.yul\":1208:1213   */\n      dup2\n        /* \"#utility.yul\":1190:1214   */\n      tag_49\n      jump\t// in\n    tag_79:\n        /* \"#utility.yul\":1185:1188   */\n      dup3\n        /* \"#utility.yul\":1178:1215   */\n      mstore\n        /* \"#utility.yul\":1103:1221   */\n      pop\n      pop\n      jump\t// out\n        /* \"#utility.yul\":1227:1449   */\n    tag_22:\n        /* \"#utility.yul\":1320:1324   */\n      0x00\n        /* \"#utility.yul\":1358:1360   */\n      0x20\n        /* \"#utility.yul\":1347:1356   */\n      dup3\n        /* \"#utility.yul\":1343:1361   */\n      add\n        /* \"#utility.yul\":1335:1361   */\n      swap1\n      pop\n        /* \"#utility.yul\":1371:1442   */\n      tag_81\n        /* \"#utility.yul\":1439:1440   */\n      0x00\n        /* \"#utility.yul\":1428:1437   */\n      dup4\n        /* \"#utility.yul\":1424:1441   */\n      add\n        /* \"#utility.yul\":1415:1421   */\n      dup5\n        /* \"#utility.yul\":1371:1442   */\n      tag_50\n      jump\t// in\n    tag_81:\n        /* \"#utility.yul\":1227:1449   */\n      swap3\n      swap2\n      pop\n      pop\n      jump\t// out\n        /* \"#utility.yul\":1536:1653   */\n    tag_52:\n        /* \"#utility.yul\":1645:1646   */\n      0x00\n        /* \"#utility.yul\":1642:1643   */\n      dup1\n        /* \"#utility.yul\":1635:1647   */\n      revert\n        /* \"#utility.yul\":1782:1887   */\n    tag_54:\n        /* \"#utility.yul\":1818:1825   */\n      0x00\n        /* \"#utility.yul\":1858:1880   */\n      0xffffffffffffffffffff\n        /* \"#utility.yul\":1851:1856   */\n      dup3\n        /* \"#utility.yul\":1847:1881   */\n      and\n        /* \"#utility.yul\":1836:1881   */\n      swap1\n      pop\n        /* \"#utility.yul\":1782:1887   */\n      swap2\n      swap1\n      pop\n      jump\t// out\n        /* \"#utility.yul\":1893:2013   */\n    tag_55:\n        /* \"#utility.yul\":1965:1988   */\n      tag_87\n        /* \"#utility.yul\":1982:1987   */\n      dup2\n        /* \"#utility.yul\":1965:1988   */\n      tag_54\n      jump\t// in\n    tag_87:\n        /* \"#utility.yul\":1958:1963   */\n      dup2\n        /* \"#utility.yul\":1955:1989   */\n      eq\n        /* \"#utility.yul\":1945:2007   */\n      tag_88\n      jumpi\n        /* \"#utility.yul\":2003:2004   */\n      0x00\n        /* \"#utility.yul\":2000:2001   */\n      dup1\n        /* \"#utility.yul\":1993:2005   */\n      revert\n        /* \"#utility.yul\":1945:2007   */\n    tag_88:\n        /* \"#utility.yul\":1893:2013   */\n      pop\n      jump\t// out\n        /* \"#utility.yul\":2019:2160   */\n    tag_56:\n        /* \"#utility.yul\":2075:2080   */\n      0x00\n        /* \"#utility.yul\":2106:2112   */\n      dup2\n        /* \"#utility.yul\":2100:2113   */\n      mload\n        /* \"#utility.yul\":2091:2113   */\n      swap1\n      pop\n        /* \"#utility.yul\":2122:2154   */\n      tag_90\n        /* \"#utility.yul\":2148:2153   */\n      dup2\n        /* \"#utility.yul\":2122:2154   */\n      tag_55\n      jump\t// in\n    tag_90:\n        /* \"#utility.yul\":2019:2160   */\n      swap3\n      swap2\n      pop\n      pop\n      jump\t// out\n        /* \"#utility.yul\":2166:2286   */\n    tag_57:\n        /* \"#utility.yul\":2238:2261   */\n      tag_92\n        /* \"#utility.yul\":2255:2260   */\n      dup2\n        /* \"#utility.yul\":2238:2261   */\n      tag_46\n      jump\t// in\n    tag_92:\n        /* \"#utility.yul\":2231:2236   */\n      dup2\n        /* \"#utility.yul\":2228:2262   */\n      eq\n        /* \"#utility.yul\":2218:2280   */\n      tag_93\n      jumpi\n        /* \"#utility.yul\":2276:2277   */\n      0x00\n        /* \"#utility.yul\":2273:2274   */\n      dup1\n        /* \"#utility.yul\":2266:2278   */\n      revert\n        /* \"#utility.yul\":2218:2280   */\n    tag_93:\n        /* \"#utility.yul\":2166:2286   */\n      pop\n      jump\t// out\n        /* \"#utility.yul\":2292:2433   */\n    tag_58:\n        /* \"#utility.yul\":2348:2353   */\n      0x00\n        /* \"#utility.yul\":2379:2385   */\n      dup2\n        /* \"#utility.yul\":2373:2386   */\n      mload\n        /* \"#utility.yul\":2364:2386   */\n      swap1\n      pop\n        /* \"#utility.yul\":2395:2427   */\n      tag_95\n        /* \"#utility.yul\":2421:2426   */\n      dup2\n        /* \"#utility.yul\":2395:2427   */\n      tag_57\n      jump\t// in\n    tag_95:\n        /* \"#utility.yul\":2292:2433   */\n      swap3\n      swap2\n      pop\n      pop\n      jump\t// out\n        /* \"#utility.yul\":2439:2561   */\n    tag_59:\n        /* \"#utility.yul\":2512:2536   */\n      tag_97\n        /* \"#utility.yul\":2530:2535   */\n      dup2\n        /* \"#utility.yul\":2512:2536   */\n      tag_44\n      jump\t// in\n    tag_97:\n        /* \"#utility.yul\":2505:2510   */\n      dup2\n        /* \"#utility.yul\":2502:2537   */\n      eq\n        /* \"#utility.yul\":2492:2555   */\n      tag_98\n      jumpi\n        /* \"#utility.yul\":2551:2552   */\n      0x00\n        /* \"#utility.yul\":2548:2549   */\n      dup1\n        /* \"#utility.yul\":2541:2553   */\n      revert\n        /* \"#utility.yul\":2492:2555   */\n    tag_98:\n        /* \"#utility.yul\":2439:2561   */\n      pop\n      jump\t// out\n        /* \"#utility.yul\":2567:2710   */\n    tag_60:\n        /* \"#utility.yul\":2624:2629   */\n      0x00\n        /* \"#utility.yul\":2655:2661   */\n      dup2\n        /* \"#utility.yul\":2649:2662   */\n      mload\n        /* \"#utility.yul\":2640:2662   */\n      swap1\n      pop\n        /* \"#utility.yul\":2671:2704   */\n      tag_100\n        /* \"#utility.yul\":2698:2703   */\n      dup2\n        /* \"#utility.yul\":2671:2704   */\n      tag_59\n      jump\t// in\n    tag_100:\n        /* \"#utility.yul\":2567:2710   */\n      swap3\n      swap2\n      pop\n      pop\n      jump\t// out\n        /* \"#utility.yul\":2716:3687   */\n    tag_38:\n        /* \"#utility.yul\":2819:2825   */\n      0x00\n        /* \"#utility.yul\":2827:2833   */\n      dup1\n        /* \"#utility.yul\":2835:2841   */\n      0x00\n        /* \"#utility.yul\":2843:2849   */\n      dup1\n        /* \"#utility.yul\":2851:2857   */\n      0x00\n        /* \"#utility.yul\":2900:2903   */\n      0xa0\n        /* \"#utility.yul\":2888:2897   */\n      dup7\n        /* \"#utility.yul\":2879:2886   */\n      dup9\n        /* \"#utility.yul\":2875:2898   */\n      sub\n        /* \"#utility.yul\":2871:2904   */\n      slt\n        /* \"#utility.yul\":2868:2988   */\n      iszero\n      tag_102\n      jumpi\n        /* \"#utility.yul\":2907:2986   */\n      tag_103\n      tag_52\n      jump\t// in\n    tag_103:\n        /* \"#utility.yul\":2868:2988   */\n    tag_102:\n        /* \"#utility.yul\":3027:3028   */\n      0x00\n        /* \"#utility.yul\":3052:3115   */\n      tag_104\n        /* \"#utility.yul\":3107:3114   */\n      dup9\n        /* \"#utility.yul\":3098:3104   */\n      dup3\n        /* \"#utility.yul\":3087:3096   */\n      dup10\n        /* \"#utility.yul\":3083:3105   */\n      add\n        /* \"#utility.yul\":3052:3115   */\n      tag_56\n      jump\t// in\n    tag_104:\n        /* \"#utility.yul\":3042:3115   */\n      swap6\n      pop\n        /* \"#utility.yul\":2998:3125   */\n      pop\n        /* \"#utility.yul\":3164:3166   */\n      0x20\n        /* \"#utility.yul\":3190:3253   */\n      tag_105\n        /* \"#utility.yul\":3245:3252   */\n      dup9\n        /* \"#utility.yul\":3236:3242   */\n      dup3\n        /* \"#utility.yul\":3225:3234   */\n      dup10\n        /* \"#utility.yul\":3221:3243   */\n      add\n        /* \"#utility.yul\":3190:3253   */\n      tag_58\n      jump\t// in\n    tag_105:\n        /* \"#utility.yul\":3180:3253   */\n      swap5\n      pop\n        /* \"#utility.yul\":3135:3263   */\n      pop\n        /* \"#utility.yul\":3302:3304   */\n      0x40\n        /* \"#utility.yul\":3328:3392   */\n      tag_106\n        /* \"#utility.yul\":3384:3391   */\n      dup9\n        /* \"#utility.yul\":3375:3381   */\n      dup3\n        /* \"#utility.yul\":3364:3373   */\n      dup10\n        /* \"#utility.yul\":3360:3382   */\n      add\n        /* \"#utility.yul\":3328:3392   */\n      tag_60\n      jump\t// in\n    tag_106:\n        /* \"#utility.yul\":3318:3392   */\n      swap4\n      pop\n        /* \"#utility.yul\":3273:3402   */\n      pop\n        /* \"#utility.yul\":3441:3443   */\n      0x60\n        /* \"#utility.yul\":3467:3531   */\n      tag_107\n        /* \"#utility.yul\":3523:3530   */\n      dup9\n        /* \"#utility.yul\":3514:3520   */\n      dup3\n        /* \"#utility.yul\":3503:3512   */\n      dup10\n        /* \"#utility.yul\":3499:3521   */\n      add\n        /* \"#utility.yul\":3467:3531   */\n      tag_60\n      jump\t// in\n    tag_107:\n        /* \"#utility.yul\":3457:3531   */\n      swap3\n      pop\n        /* \"#utility.yul\":3412:3541   */\n      pop\n        /* \"#utility.yul\":3580:3583   */\n      0x80\n        /* \"#utility.yul\":3607:3670   */\n      tag_108\n        /* \"#utility.yul\":3662:3669   */\n      dup9\n        /* \"#utility.yul\":3653:3659   */\n      dup3\n        /* \"#utility.yul\":3642:3651   */\n      dup10\n        /* \"#utility.yul\":3638:3660   */\n      add\n        /* \"#utility.yul\":3607:3670   */\n      tag_56\n      jump\t// in\n    tag_108:\n        /* \"#utility.yul\":3597:3670   */\n      swap2\n      pop\n        /* \"#utility.yul\":3551:3680   */\n      pop\n        /* \"#utility.yul\":2716:3687   */\n      swap3\n      swap6\n      pop\n      swap3\n      swap6\n      swap1\n      swap4\n      pop\n      jump\t// out\n        /* \"#utility.yul\":3693:3862   */\n    tag_61:\n        /* \"#utility.yul\":3777:3788   */\n      0x00\n        /* \"#utility.yul\":3811:3817   */\n      dup3\n        /* \"#utility.yul\":3806:3809   */\n      dup3\n        /* \"#utility.yul\":3799:3818   */\n      mstore\n        /* \"#utility.yul\":3851:3855   */\n      0x20\n        /* \"#utility.yul\":3846:3849   */\n      dup3\n        /* \"#utility.yul\":3842:3856   */\n      add\n        /* \"#utility.yul\":3827:3856   */\n      swap1\n      pop\n        /* \"#utility.yul\":3693:3862   */\n      swap3\n      swap2\n      pop\n      pop\n      jump\t// out\n        /* \"#utility.yul\":3868:4033   */\n    tag_62:\n        /* \"#utility.yul\":4008:4025   */\n      0x6e6f7420656e6f7567682066756e640000000000000000000000000000000000\n        /* \"#utility.yul\":4004:4005   */\n      0x00\n        /* \"#utility.yul\":3996:4002   */\n      dup3\n        /* \"#utility.yul\":3992:4006   */\n      add\n        /* \"#utility.yul\":3985:4026   */\n      mstore\n        /* \"#utility.yul\":3868:4033   */\n      pop\n      jump\t// out\n        /* \"#utility.yul\":4039:4405   */\n    tag_63:\n        /* \"#utility.yul\":4181:4184   */\n      0x00\n        /* \"#utility.yul\":4202:4269   */\n      tag_112\n        /* \"#utility.yul\":4266:4268   */\n      0x0f\n        /* \"#utility.yul\":4261:4264   */\n      dup4\n        /* \"#utility.yul\":4202:4269   */\n      tag_61\n      jump\t// in\n    tag_112:\n        /* \"#utility.yul\":4195:4269   */\n      swap2\n      pop\n        /* \"#utility.yul\":4278:4371   */\n      tag_113\n        /* \"#utility.yul\":4367:4370   */\n      dup3\n        /* \"#utility.yul\":4278:4371   */\n      tag_62\n      jump\t// in\n    tag_113:\n        /* \"#utility.yul\":4396:4398   */\n      0x20\n        /* \"#utility.yul\":4391:4394   */\n      dup3\n        /* \"#utility.yul\":4387:4399   */\n      add\n        /* \"#utility.yul\":4380:4399   */\n      swap1\n      pop\n        /* \"#utility.yul\":4039:4405   */\n      swap2\n      swap1\n      pop\n      jump\t// out\n        /* \"#utility.yul\":4411:4830   */\n    tag_42:\n        /* \"#utility.yul\":4577:4581   */\n      0x00\n        /* \"#utility.yul\":4615:4617   */\n      0x20\n        /* \"#utility.yul\":4604:4613   */\n      dup3\n        /* \"#utility.yul\":4600:4618   */\n      add\n        /* \"#utility.yul\":4592:4618   */\n      swap1\n      pop\n        /* \"#utility.yul\":4664:4673   */\n      dup2\n        /* \"#utility.yul\":4658:4662   */\n      dup2\n        /* \"#utility.yul\":4654:4674   */\n      sub\n        /* \"#utility.yul\":4650:4651   */\n      0x00\n        /* \"#utility.yul\":4639:4648   */\n      dup4\n        /* \"#utility.yul\":4635:4652   */\n      add\n        /* \"#utility.yul\":4628:4675   */\n      mstore\n        /* \"#utility.yul\":4692:4823   */\n      tag_115\n        /* \"#utility.yul\":4818:4822   */\n      dup2\n        /* \"#utility.yul\":4692:4823   */\n      tag_63\n      jump\t// in\n    tag_115:\n        /* \"#utility.yul\":4684:4823   */\n      swap1\n      pop\n        /* \"#utility.yul\":4411:4830   */\n      swap2\n      swap1\n      pop\n      jump\t// out\n\n    auxdata: 0xa2646970667358221220526cc84e83b2bfef7c35cececebf8d1e18990f300efcb087c74820a33075d22f64736f6c63430008080033\n}\n",
				"bytecode": {
					"linkReferences": {},
					"object": "6080604052738a753747a1fa494ec906ce90e9f37563a8af630e600360006101000a81548173ffffffffffffffffffffffffffffffffffffffff021916908373ffffffffffffffffffffffffffffffffffffffff16021790555034801561006557600080fd5b50600360009054906101000a900473ffffffffffffffffffffffffffffffffffffffff16600460006101000a81548173ffffffffffffffffffffffffffffffffffffffff021916908373ffffffffffffffffffffffffffffffffffffffff160217905550610510806100d86000396000f3fe6080604052600436106100555760003560e01c806311ae655a1461005a5780631ab26def1461008557806329c36bb5146100b05780638e15f473146100db578063b60d428814610106578063c7a0d9f614610110575b600080fd5b34801561006657600080fd5b5061006f61013b565b60405161007c9190610298565b60405180910390f35b34801561009157600080fd5b5061009a610141565b6040516100a791906102cc565b60405180910390f35b3480156100bc57600080fd5b506100c5610147565b6040516100d29190610328565b60405180910390f35b3480156100e757600080fd5b506100f061016d565b6040516100fd91906102cc565b60405180910390f35b61010e61021d565b005b34801561011c57600080fd5b50610125610279565b60405161013291906102cc565b60405180910390f35b60015481565b60025481565b600360009054906101000a900473ffffffffffffffffffffffffffffffffffffffff1681565b600080600460009054906101000a900473ffffffffffffffffffffffffffffffffffffffff1673ffffffffffffffffffffffffffffffffffffffff1663feaf968c6040518163ffffffff1660e01b815260040160a06040518083038186803b1580156101d857600080fd5b505afa1580156101ec573d6000803e3d6000fd5b505050506040513d601f19601f8201168201806040525081019061021091906103e2565b5050509150508091505090565b60056000819055506001341015610269576040517f08c379a0000000000000000000000000000000000000000000000000000000008152600401610260906104ba565b60405180910390fd5b61027161016d565b600281905550565b60005481565b6000819050919050565b6102928161027f565b82525050565b60006020820190506102ad6000830184610289565b92915050565b6000819050919050565b6102c6816102b3565b82525050565b60006020820190506102e160008301846102bd565b92915050565b600073ffffffffffffffffffffffffffffffffffffffff82169050919050565b6000610312826102e7565b9050919050565b61032281610307565b82525050565b600060208201905061033d6000830184610319565b92915050565b600080fd5b600069ffffffffffffffffffff82169050919050565b61036781610348565b811461037257600080fd5b50565b6000815190506103848161035e565b92915050565b610393816102b3565b811461039e57600080fd5b50565b6000815190506103b08161038a565b92915050565b6103bf8161027f565b81146103ca57600080fd5b50565b6000815190506103dc816103b6565b92915050565b600080600080600060a086880312156103fe576103fd610343565b5b600061040c88828901610375565b955050602061041d888289016103a1565b945050604061042e888289016103cd565b935050606061043f888289016103cd565b925050608061045088828901610375565b9150509295509295909350565b600082825260208201905092915050565b7f6e6f7420656e6f7567682066756e640000000000000000000000000000000000600082015250565b60006104a4600f8361045d565b91506104af8261046e565b602082019050919050565b600060208201905081810360008301526104d381610497565b905091905056fea2646970667358221220526cc84e83b2bfef7c35cececebf8d1e18990f300efcb087c74820a33075d22f64736f6c63430008080033",
					"opcodes": "PUSH1 0x80 PUSH1 0x40 MSTORE PUSH20 0x8A753747A1FA494EC906CE90E9F37563A8AF630E PUSH1 0x3 PUSH1 0x0 PUSH2 0x100 EXP DUP2 SLOAD DUP2 PUSH20 0xFFFFFFFFFFFFFFFFFFFFFFFFFFFFFFFFFFFFFFFF MUL NOT AND SWAP1 DUP4 PUSH20 0xFFFFFFFFFFFFFFFFFFFFFFFFFFFFFFFFFFFFFFFF AND MUL OR SWAP1 SSTORE POP CALLVALUE DUP1 ISZERO PUSH2 0x65 JUMPI PUSH1 0x0 DUP1 REVERT JUMPDEST POP PUSH1 0x3 PUSH1 0x0 SWAP1 SLOAD SWAP1 PUSH2 0x100 EXP SWAP1 DIV PUSH20 0xFFFFFFFFFFFFFFFFFFFFFFFFFFFFFFFFFFFFFFFF AND PUSH1 0x4 PUSH1 0x0 PUSH2 0x100 EXP DUP2 SLOAD DUP2 PUSH20 0xFFFFFFFFFFFFFFFFFFFFFFFFFFFFFFFFFFFFFFFF MUL NOT AND SWAP1 DUP4 PUSH20 0xFFFFFFFFFFFFFFFFFFFFFFFFFFFFFFFFFFFFFFFF AND MUL OR SWAP1 SSTORE POP PUSH2 0x510 DUP1 PUSH2 0xD8 PUSH1 0x0 CODECOPY PUSH1 0x0 RETURN INVALID PUSH1 0x80 PUSH1 0x40 MSTORE PUSH1 0x4 CALLDATASIZE LT PUSH2 0x55 JUMPI PUSH1 0x0 CALLDATALOAD PUSH1 0xE0 SHR DUP1 PUSH4 0x11AE655A EQ PUSH2 0x5A JUMPI DUP1 PUSH4 0x1AB26DEF EQ PUSH2 0x85 JUMPI DUP1 PUSH4 0x29C36BB5 EQ PUSH2 0xB0 JUMPI DUP1 PUSH4 0x8E15F473 EQ PUSH2 0xDB JUMPI DUP1 PUSH4 0xB60D4288 EQ PUSH2 0x106 JUMPI DUP1 PUSH4 0xC7A0D9F6 EQ PUSH2 0x110 JUMPI JUMPDEST PUSH1 0x0 DUP1 REVERT JUMPDEST CALLVALUE DUP1 ISZERO PUSH2 0x66 JUMPI PUSH1 0x0 DUP1 REVERT JUMPDEST POP PUSH2 0x6F PUSH2 0x13B JUMP JUMPDEST PUSH1 0x40 MLOAD PUSH2 0x7C SWAP2 SWAP1 PUSH2 0x298 JUMP JUMPDEST PUSH1 0x40 MLOAD DUP1 SWAP2 SUB SWAP1 RETURN JUMPDEST CALLVALUE DUP1 ISZERO PUSH2 0x91 JUMPI PUSH1 0x0 DUP1 REVERT JUMPDEST POP PUSH2 0x9A PUSH2 0x141 JUMP JUMPDEST PUSH1 0x40 MLOAD PUSH2 0xA7 SWAP2 SWAP1 PUSH2 0x2CC JUMP JUMPDEST PUSH1 0x40 MLOAD DUP1 SWAP2 SUB SWAP1 RETURN JUMPDEST CALLVALUE DUP1 ISZERO PUSH2 0xBC JUMPI PUSH1 0x0 DUP1 REVERT JUMPDEST POP PUSH2 0xC5 PUSH2 0x147 JUMP JUMPDEST PUSH1 0x40 MLOAD PUSH2 0xD2 SWAP2 SWAP1 PUSH2 0x328 JUMP JUMPDEST PUSH1 0x40 MLOAD DUP1 SWAP2 SUB SWAP1 RETURN JUMPDEST CALLVALUE DUP1 ISZERO PUSH2 0xE7 JUMPI PUSH1 0x0 DUP1 REVERT JUMPDEST POP PUSH2 0xF0 PUSH2 0x16D JUMP JUMPDEST PUSH1 0x40 MLOAD PUSH2 0xFD SWAP2 SWAP1 PUSH2 0x2CC JUMP JUMPDEST PUSH1 0x40 MLOAD DUP1 SWAP2 SUB SWAP1 RETURN JUMPDEST PUSH2 0x10E PUSH2 0x21D JUMP JUMPDEST STOP JUMPDEST CALLVALUE DUP1 ISZERO PUSH2 0x11C JUMPI PUSH1 0x0 DUP1 REVERT JUMPDEST POP PUSH2 0x125 PUSH2 0x279 JUMP JUMPDEST PUSH1 0x40 MLOAD PUSH2 0x132 SWAP2 SWAP1 PUSH2 0x2CC JUMP JUMPDEST PUSH1 0x40 MLOAD DUP1 SWAP2 SUB SWAP1 RETURN JUMPDEST PUSH1 0x1 SLOAD DUP2 JUMP JUMPDEST PUSH1 0x2 SLOAD DUP2 JUMP JUMPDEST PUSH1 0x3 PUSH1 0x0 SWAP1 SLOAD SWAP1 PUSH2 0x100 EXP SWAP1 DIV PUSH20 0xFFFFFFFFFFFFFFFFFFFFFFFFFFFFFFFFFFFFFFFF AND DUP2 JUMP JUMPDEST PUSH1 0x0 DUP1 PUSH1 0x4 PUSH1 0x0 SWAP1 SLOAD SWAP1 PUSH2 0x100 EXP SWAP1 DIV PUSH20 0xFFFFFFFFFFFFFFFFFFFFFFFFFFFFFFFFFFFFFFFF AND PUSH20 0xFFFFFFFFFFFFFFFFFFFFFFFFFFFFFFFFFFFFFFFF AND PUSH4 0xFEAF968C PUSH1 0x40 MLOAD DUP2 PUSH4 0xFFFFFFFF AND PUSH1 0xE0 SHL DUP2 MSTORE PUSH1 0x4 ADD PUSH1 0xA0 PUSH1 0x40 MLOAD DUP1 DUP4 SUB DUP2 DUP7 DUP1 EXTCODESIZE ISZERO DUP1 ISZERO PUSH2 0x1D8 JUMPI PUSH1 0x0 DUP1 REVERT JUMPDEST POP GAS STATICCALL ISZERO DUP1 ISZERO PUSH2 0x1EC JUMPI RETURNDATASIZE PUSH1 0x0 DUP1 RETURNDATACOPY RETURNDATASIZE PUSH1 0x0 REVERT JUMPDEST POP POP POP POP PUSH1 0x40 MLOAD RETURNDATASIZE PUSH1 0x1F NOT PUSH1 0x1F DUP3 ADD AND DUP3 ADD DUP1 PUSH1 0x40 MSTORE POP DUP2 ADD SWAP1 PUSH2 0x210 SWAP2 SWAP1 PUSH2 0x3E2 JUMP JUMPDEST POP POP POP SWAP2 POP POP DUP1 SWAP2 POP POP SWAP1 JUMP JUMPDEST PUSH1 0x5 PUSH1 0x0 DUP2 SWAP1 SSTORE POP PUSH1 0x1 CALLVALUE LT ISZERO PUSH2 0x269 JUMPI PUSH1 0x40 MLOAD PUSH32 0x8C379A000000000000000000000000000000000000000000000000000000000 DUP2 MSTORE PUSH1 0x4 ADD PUSH2 0x260 SWAP1 PUSH2 0x4BA JUMP JUMPDEST PUSH1 0x40 MLOAD DUP1 SWAP2 SUB SWAP1 REVERT JUMPDEST PUSH2 0x271 PUSH2 0x16D JUMP JUMPDEST PUSH1 0x2 DUP2 SWAP1 SSTORE POP JUMP JUMPDEST PUSH1 0x0 SLOAD DUP2 JUMP JUMPDEST PUSH1 0x0 DUP2 SWAP1 POP SWAP2 SWAP1 POP JUMP JUMPDEST PUSH2 0x292 DUP2 PUSH2 0x27F JUMP JUMPDEST DUP3 MSTORE POP POP JUMP JUMPDEST PUSH1 0x0 PUSH1 0x20 DUP3 ADD SWAP1 POP PUSH2 0x2AD PUSH1 0x0 DUP4 ADD DUP5 PUSH2 0x289 JUMP JUMPDEST SWAP3 SWAP2 POP POP JUMP JUMPDEST PUSH1 0x0 DUP2 SWAP1 POP SWAP2 SWAP1 POP JUMP JUMPDEST PUSH2 0x2C6 DUP2 PUSH2 0x2B3 JUMP JUMPDEST DUP3 MSTORE POP POP JUMP JUMPDEST PUSH1 0x0 PUSH1 0x20 DUP3 ADD SWAP1 POP PUSH2 0x2E1 PUSH1 0x0 DUP4 ADD DUP5 PUSH2 0x2BD JUMP JUMPDEST SWAP3 SWAP2 POP POP JUMP JUMPDEST PUSH1 0x0 PUSH20 0xFFFFFFFFFFFFFFFFFFFFFFFFFFFFFFFFFFFFFFFF DUP3 AND SWAP1 POP SWAP2 SWAP1 POP JUMP JUMPDEST PUSH1 0x0 PUSH2 0x312 DUP3 PUSH2 0x2E7 JUMP JUMPDEST SWAP1 POP SWAP2 SWAP1 POP JUMP JUMPDEST PUSH2 0x322 DUP2 PUSH2 0x307 JUMP JUMPDEST DUP3 MSTORE POP POP JUMP JUMPDEST PUSH1 0x0 PUSH1 0x20 DUP3 ADD SWAP1 POP PUSH2 0x33D PUSH1 0x0 DUP4 ADD DUP5 PUSH2 0x319 JUMP JUMPDEST SWAP3 SWAP2 POP POP JUMP JUMPDEST PUSH1 0x0 DUP1 REVERT JUMPDEST PUSH1 0x0 PUSH10 0xFFFFFFFFFFFFFFFFFFFF DUP3 AND SWAP1 POP SWAP2 SWAP1 POP JUMP JUMPDEST PUSH2 0x367 DUP2 PUSH2 0x348 JUMP JUMPDEST DUP2 EQ PUSH2 0x372 JUMPI PUSH1 0x0 DUP1 REVERT JUMPDEST POP JUMP JUMPDEST PUSH1 0x0 DUP2 MLOAD SWAP1 POP PUSH2 0x384 DUP2 PUSH2 0x35E JUMP JUMPDEST SWAP3 SWAP2 POP POP JUMP JUMPDEST PUSH2 0x393 DUP2 PUSH2 0x2B3 JUMP JUMPDEST DUP2 EQ PUSH2 0x39E JUMPI PUSH1 0x0 DUP1 REVERT JUMPDEST POP JUMP JUMPDEST PUSH1 0x0 DUP2 MLOAD SWAP1 POP PUSH2 0x3B0 DUP2 PUSH2 0x38A JUMP JUMPDEST SWAP3 SWAP2 POP POP JUMP JUMPDEST PUSH2 0x3BF DUP2 PUSH2 0x27F JUMP JUMPDEST DUP2 EQ PUSH2 0x3CA JUMPI PUSH1 0x0 DUP1 REVERT JUMPDEST POP JUMP JUMPDEST PUSH1 0x0 DUP2 MLOAD SWAP1 POP PUSH2 0x3DC DUP2 PUSH2 0x3B6 JUMP JUMPDEST SWAP3 SWAP2 POP POP JUMP JUMPDEST PUSH1 0x0 DUP1 PUSH1 0x0 DUP1 PUSH1 0x0 PUSH1 0xA0 DUP7 DUP9 SUB SLT ISZERO PUSH2 0x3FE JUMPI PUSH2 0x3FD PUSH2 0x343 JUMP JUMPDEST JUMPDEST PUSH1 0x0 PUSH2 0x40C DUP9 DUP3 DUP10 ADD PUSH2 0x375 JUMP JUMPDEST SWAP6 POP POP PUSH1 0x20 PUSH2 0x41D DUP9 DUP3 DUP10 ADD PUSH2 0x3A1 JUMP JUMPDEST SWAP5 POP POP PUSH1 0x40 PUSH2 0x42E DUP9 DUP3 DUP10 ADD PUSH2 0x3CD JUMP JUMPDEST SWAP4 POP POP PUSH1 0x60 PUSH2 0x43F DUP9 DUP3 DUP10 ADD PUSH2 0x3CD JUMP JUMPDEST SWAP3 POP POP PUSH1 0x80 PUSH2 0x450 DUP9 DUP3 DUP10 ADD PUSH2 0x375 JUMP JUMPDEST SWAP2 POP POP SWAP3 SWAP6 POP SWAP3 SWAP6 SWAP1 SWAP4 POP JUMP JUMPDEST PUSH1 0x0 DUP3 DUP3 MSTORE PUSH1 0x20 DUP3 ADD SWAP1 POP SWAP3 SWAP2 POP POP JUMP JUMPDEST PUSH32 0x6E6F7420656E6F7567682066756E640000000000000000000000000000000000 PUSH1 0x0 DUP3 ADD MSTORE POP JUMP JUMPDEST PUSH1 0x0 PUSH2 0x4A4 PUSH1 0xF DUP4 PUSH2 0x45D JUMP JUMPDEST SWAP2 POP PUSH2 0x4AF DUP3 PUSH2 0x46E JUMP JUMPDEST PUSH1 0x20 DUP3 ADD SWAP1 POP SWAP2 SWAP1 POP JUMP JUMPDEST PUSH1 0x0 PUSH1 0x20 DUP3 ADD SWAP1 POP DUP2 DUP2 SUB PUSH1 0x0 DUP4 ADD MSTORE PUSH2 0x4D3 DUP2 PUSH2 0x497 JUMP JUMPDEST SWAP1 POP SWAP2 SWAP1 POP JUMP INVALID LOG2 PUSH5 0x6970667358 0x22 SLT KECCAK256 MSTORE PUSH13 0xC84E83B2BFEF7C35CECECEBF8D 0x1E XOR SWAP10 0xF ADDRESS 0xE 0xFC 0xB0 DUP8 0xC7 BASEFEE KECCAK256 LOG3 ADDRESS PUSH22 0xD22F64736F6C63430008080033000000000000000000 "
				},
				"gasEstimates": {
					"creation": {
						"codeDepositCost": "259200",
						"executionCost": "50970",
						"totalCost": "310170"
					},
					"external": {
						"favNumber()": "2517",
						"feedAddress()": "2536",
						"fund()": "infinite",
						"getLatestPrice()": "infinite",
						"latestPriceOfBTCinETH()": "2429",
						"minimumUSDToSend()": "2407"
					}
				},
				"methodIdentifiers": {
					"favNumber()": "c7a0d9f6",
					"feedAddress()": "29c36bb5",
					"fund()": "b60d4288",
					"getLatestPrice()": "8e15f473",
					"latestPriceOfBTCinETH()": "1ab26def",
					"minimumUSDToSend()": "11ae655a"
				}
			},
			"storageLayout": {
				"storage": [
					{
						"astId": 50,
						"contract": "contracts/FundMe.sol:FundMe",
						"label": "favNumber",
						"offset": 0,
						"slot": "0",
						"type": "t_int256"
					},
					{
						"astId": 52,
						"contract": "contracts/FundMe.sol:FundMe",
						"label": "minimumUSDToSend",
						"offset": 0,
						"slot": "1",
						"type": "t_uint256"
					},
					{
						"astId": 54,
						"contract": "contracts/FundMe.sol:FundMe",
						"label": "latestPriceOfBTCinETH",
						"offset": 0,
						"slot": "2",
						"type": "t_int256"
					},
					{
						"astId": 57,
						"contract": "contracts/FundMe.sol:FundMe",
						"label": "feedAddress",
						"offset": 0,
						"slot": "3",
						"type": "t_address"
					},
					{
						"astId": 60,
						"contract": "contracts/FundMe.sol:FundMe",
						"label": "priceFeed",
						"offset": 0,
						"slot": "4",
						"type": "t_contract(AggregatorV3Interface)45"
					}
				],
				"types": {
					"t_address": {
						"encoding": "inplace",
						"label": "address",
						"numberOfBytes": "20"
					},
					"t_contract(AggregatorV3Interface)45": {
						"encoding": "inplace",
						"label": "contract AggregatorV3Interface",
						"numberOfBytes": "20"
					},
					"t_int256": {
						"encoding": "inplace",
						"label": "int256",
						"numberOfBytes": "32"
					},
					"t_uint256": {
						"encoding": "inplace",
						"label": "uint256",
						"numberOfBytes": "32"
					}
				}
			},
			"userdoc": {
				"kind": "user",
				"methods": {},
				"version": 1
			}
		}
	}
}