{
	"contracts/PriceConverter.sol": {
		"PriceConverter": {
			"abi": [
				{
					"inputs": [
						{
							"internalType": "uint256",
							"name": "ethValue",
							"type": "uint256"
						}
					],
					"name": "convertEthToDollars",
					"outputs": [
						{
							"internalType": "uint256",
							"name": "",
							"type": "uint256"
						}
					],
					"stateMutability": "view",
					"type": "function"
				},
				{
					"inputs": [],
					"name": "feedAddress",
					"outputs": [
						{
							"internalType": "address",
							"name": "",
							"type": "address"
						}
					],
					"stateMutability": "view",
					"type": "function"
				},
				{
					"inputs": [],
					"name": "getDecimalsInReturnedValueByThePriceFeed",
					"outputs": [
						{
							"internalType": "uint8",
							"name": "",
							"type": "uint8"
						}
					],
					"stateMutability": "view",
					"type": "function"
				},
				{
					"inputs": [],
					"name": "getLatestPriceOfEthInUSD",
					"outputs": [
						{
							"internalType": "int256",
							"name": "",
							"type": "int256"
						}
					],
					"stateMutability": "view",
					"type": "function"
				}
			],
			"devdoc": {
				"kind": "dev",
				"methods": {},
				"version": 1
			},
			"evm": {
				"assembly": "    /* \"contracts/PriceConverter.sol\":135:966  library PriceConverter{... */\n  dataSize(sub_0)\n  dataOffset(sub_0)\n  0x0b\n  dup3\n  dup3\n  dup3\n  codecopy\n  dup1\n  mload\n  0x00\n  byte\n  0x73\n  eq\n  tag_1\n  jumpi\n  mstore(0x00, 0x4e487b7100000000000000000000000000000000000000000000000000000000)\n  mstore(0x04, 0x00)\n  revert(0x00, 0x24)\ntag_1:\n  mstore(0x00, address)\n  0x73\n  dup2\n  mstore8\n  dup3\n  dup2\n  return\nstop\n\nsub_0: assembly {\n        /* \"contracts/PriceConverter.sol\":135:966  library PriceConverter{... */\n      eq(address, deployTimeAddress())\n      mstore(0x40, 0x80)\n      jumpi(tag_1, lt(calldatasize, 0x04))\n      shr(0xe0, calldataload(0x00))\n      dup1\n      0x29c36bb5\n      eq\n      tag_2\n      jumpi\n      dup1\n      0x535be4f9\n      eq\n      tag_3\n      jumpi\n      dup1\n      0x8e5d6157\n      eq\n      tag_4\n      jumpi\n      dup1\n      0xad93f57a\n      eq\n      tag_5\n      jumpi\n    tag_1:\n      0x00\n      dup1\n      revert\n        /* \"contracts/PriceConverter.sol\":164:244  address public constant feedAddress = 0x8A753747A1Fa494EC906cE90E9f37563A8AF630e */\n    tag_2:\n      tag_6\n      tag_7\n      jump\t// in\n    tag_6:\n      mload(0x40)\n      tag_8\n      swap2\n      swap1\n      tag_9\n      jump\t// in\n    tag_8:\n      mload(0x40)\n      dup1\n      swap2\n      sub\n      swap1\n      return\n        /* \"contracts/PriceConverter.sol\":251:509  function convertEthToDollars(uint256 ethValue) public view returns (uint256){... */\n    tag_3:\n      tag_10\n      0x04\n      dup1\n      calldatasize\n      sub\n      dup2\n      add\n      swap1\n      tag_11\n      swap2\n      swap1\n      tag_12\n      jump\t// in\n    tag_11:\n      tag_13\n      jump\t// in\n    tag_10:\n      mload(0x40)\n      tag_14\n      swap2\n      swap1\n      tag_15\n      jump\t// in\n    tag_14:\n      mload(0x40)\n      dup1\n      swap2\n      sub\n      swap1\n      return\n        /* \"contracts/PriceConverter.sol\":519:753  function getLatestPriceOfEthInUSD() public view returns (int256) {... */\n    tag_4:\n      tag_16\n      tag_17\n      jump\t// in\n    tag_16:\n      mload(0x40)\n      tag_18\n      swap2\n      swap1\n      tag_19\n      jump\t// in\n    tag_18:\n      mload(0x40)\n      dup1\n      swap2\n      sub\n      swap1\n      return\n        /* \"contracts/PriceConverter.sol\":759:963  function getDecimalsInReturnedValueByThePriceFeed() public view returns (uint8){... */\n    tag_5:\n      tag_20\n      tag_21\n      jump\t// in\n    tag_20:\n      mload(0x40)\n      tag_22\n      swap2\n      swap1\n      tag_23\n      jump\t// in\n    tag_22:\n      mload(0x40)\n      dup1\n      swap2\n      sub\n      swap1\n      return\n        /* \"contracts/PriceConverter.sol\":164:244  address public constant feedAddress = 0x8A753747A1Fa494EC906cE90E9f37563A8AF630e */\n    tag_7:\n        /* \"contracts/PriceConverter.sol\":202:244  0x8A753747A1Fa494EC906cE90E9f37563A8AF630e */\n      0x8a753747a1fa494ec906ce90e9f37563a8af630e\n        /* \"contracts/PriceConverter.sol\":164:244  address public constant feedAddress = 0x8A753747A1Fa494EC906cE90E9f37563A8AF630e */\n      dup2\n      jump\t// out\n        /* \"contracts/PriceConverter.sol\":251:509  function convertEthToDollars(uint256 ethValue) public view returns (uint256){... */\n    tag_13:\n        /* \"contracts/PriceConverter.sol\":319:326  uint256 */\n      0x00\n        /* \"contracts/PriceConverter.sol\":338:356  uint256 priceInUSD */\n      dup1\n        /* \"contracts/PriceConverter.sol\":367:393  getLatestPriceOfEthInUSD() */\n      tag_25\n        /* \"contracts/PriceConverter.sol\":367:391  getLatestPriceOfEthInUSD */\n      tag_17\n        /* \"contracts/PriceConverter.sol\":367:393  getLatestPriceOfEthInUSD() */\n      jump\t// in\n    tag_25:\n        /* \"contracts/PriceConverter.sol\":338:394  uint256 priceInUSD = uint256(getLatestPriceOfEthInUSD()) */\n      swap1\n      pop\n        /* \"contracts/PriceConverter.sol\":497:501  1e18 */\n      0x0de0b6b3a7640000\n        /* \"contracts/PriceConverter.sol\":486:494  ethValue */\n      dup4\n        /* \"contracts/PriceConverter.sol\":439:481  getDecimalsInReturnedValueByThePriceFeed() */\n      tag_26\n        /* \"contracts/PriceConverter.sol\":439:479  getDecimalsInReturnedValueByThePriceFeed */\n      tag_21\n        /* \"contracts/PriceConverter.sol\":439:481  getDecimalsInReturnedValueByThePriceFeed() */\n      jump\t// in\n    tag_26:\n        /* \"contracts/PriceConverter.sol\":434:436  18 */\n      0x12\n        /* \"contracts/PriceConverter.sol\":434:481  18 - getDecimalsInReturnedValueByThePriceFeed() */\n      tag_27\n      swap2\n      swap1\n      tag_28\n      jump\t// in\n    tag_27:\n        /* \"contracts/PriceConverter.sol\":427:429  10 */\n      0x0a\n        /* \"contracts/PriceConverter.sol\":427:482  10 ** (18 - getDecimalsInReturnedValueByThePriceFeed()) */\n      tag_29\n      swap2\n      swap1\n      tag_30\n      jump\t// in\n    tag_29:\n        /* \"contracts/PriceConverter.sol\":413:423  priceInUSD */\n      dup4\n        /* \"contracts/PriceConverter.sol\":413:483  priceInUSD * (10 ** (18 - getDecimalsInReturnedValueByThePriceFeed())) */\n      tag_31\n      swap2\n      swap1\n      tag_32\n      jump\t// in\n    tag_31:\n        /* \"contracts/PriceConverter.sol\":413:494  priceInUSD * (10 ** (18 - getDecimalsInReturnedValueByThePriceFeed())) * ethValue */\n      tag_33\n      swap2\n      swap1\n      tag_32\n      jump\t// in\n    tag_33:\n        /* \"contracts/PriceConverter.sol\":412:501  (priceInUSD * (10 ** (18 - getDecimalsInReturnedValueByThePriceFeed())) * ethValue) /1e18 */\n      tag_34\n      swap2\n      swap1\n      tag_35\n      jump\t// in\n    tag_34:\n        /* \"contracts/PriceConverter.sol\":405:501  return (priceInUSD * (10 ** (18 - getDecimalsInReturnedValueByThePriceFeed())) * ethValue) /1e18 */\n      swap2\n      pop\n      pop\n        /* \"contracts/PriceConverter.sol\":251:509  function convertEthToDollars(uint256 ethValue) public view returns (uint256){... */\n      swap2\n      swap1\n      pop\n      jump\t// out\n        /* \"contracts/PriceConverter.sol\":519:753  function getLatestPriceOfEthInUSD() public view returns (int256) {... */\n    tag_17:\n        /* \"contracts/PriceConverter.sol\":576:582  int256 */\n      0x00\n        /* \"contracts/PriceConverter.sol\":595:626  AggregatorV3Interface priceFeed */\n      dup1\n        /* \"contracts/PriceConverter.sol\":202:244  0x8A753747A1Fa494EC906cE90E9f37563A8AF630e */\n      0x8a753747a1fa494ec906ce90e9f37563a8af630e\n        /* \"contracts/PriceConverter.sol\":595:663  AggregatorV3Interface priceFeed = AggregatorV3Interface(feedAddress) */\n      swap1\n      pop\n        /* \"contracts/PriceConverter.sol\":676:688  int256 price */\n      0x00\n        /* \"contracts/PriceConverter.sol\":695:704  priceFeed */\n      dup2\n        /* \"contracts/PriceConverter.sol\":695:720  priceFeed.latestRoundData */\n      0xffffffffffffffffffffffffffffffffffffffff\n      and\n      0xfeaf968c\n        /* \"contracts/PriceConverter.sol\":695:722  priceFeed.latestRoundData() */\n      mload(0x40)\n      dup2\n      0xffffffff\n      and\n      0xe0\n      shl\n      dup2\n      mstore\n      0x04\n      add\n      0xa0\n      mload(0x40)\n      dup1\n      dup4\n      sub\n      dup2\n      dup7\n      dup1\n      extcodesize\n      iszero\n      dup1\n      iszero\n      tag_37\n      jumpi\n      0x00\n      dup1\n      revert\n    tag_37:\n      pop\n      gas\n      staticcall\n      iszero\n      dup1\n      iszero\n      tag_39\n      jumpi\n      returndatasize\n      0x00\n      dup1\n      returndatacopy\n      revert(0x00, returndatasize)\n    tag_39:\n      pop\n      pop\n      pop\n      pop\n      mload(0x40)\n      returndatasize\n      not(0x1f)\n      0x1f\n      dup3\n      add\n      and\n      dup3\n      add\n      dup1\n      0x40\n      mstore\n      pop\n      dup2\n      add\n      swap1\n      tag_40\n      swap2\n      swap1\n      tag_41\n      jump\t// in\n    tag_40:\n        /* \"contracts/PriceConverter.sol\":674:722  (,int256 price,,,) = priceFeed.latestRoundData() */\n      pop\n      pop\n      pop\n      swap2\n      pop\n      pop\n        /* \"contracts/PriceConverter.sol\":740:745  price */\n      dup1\n        /* \"contracts/PriceConverter.sol\":733:745  return price */\n      swap3\n      pop\n      pop\n      pop\n        /* \"contracts/PriceConverter.sol\":519:753  function getLatestPriceOfEthInUSD() public view returns (int256) {... */\n      swap1\n      jump\t// out\n        /* \"contracts/PriceConverter.sol\":759:963  function getDecimalsInReturnedValueByThePriceFeed() public view returns (uint8){... */\n    tag_21:\n        /* \"contracts/PriceConverter.sol\":832:837  uint8 */\n      0x00\n        /* \"contracts/PriceConverter.sol\":849:880  AggregatorV3Interface priceFeed */\n      dup1\n        /* \"contracts/PriceConverter.sol\":202:244  0x8A753747A1Fa494EC906cE90E9f37563A8AF630e */\n      0x8a753747a1fa494ec906ce90e9f37563a8af630e\n        /* \"contracts/PriceConverter.sol\":849:917  AggregatorV3Interface priceFeed = AggregatorV3Interface(feedAddress) */\n      swap1\n      pop\n        /* \"contracts/PriceConverter.sol\":935:944  priceFeed */\n      dup1\n        /* \"contracts/PriceConverter.sol\":935:953  priceFeed.decimals */\n      0xffffffffffffffffffffffffffffffffffffffff\n      and\n      0x313ce567\n        /* \"contracts/PriceConverter.sol\":935:955  priceFeed.decimals() */\n      mload(0x40)\n      dup2\n      0xffffffff\n      and\n      0xe0\n      shl\n      dup2\n      mstore\n      0x04\n      add\n      0x20\n      mload(0x40)\n      dup1\n      dup4\n      sub\n      dup2\n      dup7\n      dup1\n      extcodesize\n      iszero\n      dup1\n      iszero\n      tag_43\n      jumpi\n      0x00\n      dup1\n      revert\n    tag_43:\n      pop\n      gas\n      staticcall\n      iszero\n      dup1\n      iszero\n      tag_45\n      jumpi\n      returndatasize\n      0x00\n      dup1\n      returndatacopy\n      revert(0x00, returndatasize)\n    tag_45:\n      pop\n      pop\n      pop\n      pop\n      mload(0x40)\n      returndatasize\n      not(0x1f)\n      0x1f\n      dup3\n      add\n      and\n      dup3\n      add\n      dup1\n      0x40\n      mstore\n      pop\n      dup2\n      add\n      swap1\n      tag_46\n      swap2\n      swap1\n      tag_47\n      jump\t// in\n    tag_46:\n        /* \"contracts/PriceConverter.sol\":928:955  return priceFeed.decimals() */\n      swap2\n      pop\n      pop\n        /* \"contracts/PriceConverter.sol\":759:963  function getDecimalsInReturnedValueByThePriceFeed() public view returns (uint8){... */\n      swap1\n      jump\t// out\n        /* \"#utility.yul\":7:133   */\n    tag_48:\n        /* \"#utility.yul\":44:51   */\n      0x00\n        /* \"#utility.yul\":84:126   */\n      0xffffffffffffffffffffffffffffffffffffffff\n        /* \"#utility.yul\":77:82   */\n      dup3\n        /* \"#utility.yul\":73:127   */\n      and\n        /* \"#utility.yul\":62:127   */\n      swap1\n      pop\n        /* \"#utility.yul\":7:133   */\n      swap2\n      swap1\n      pop\n      jump\t// out\n        /* \"#utility.yul\":139:235   */\n    tag_49:\n        /* \"#utility.yul\":176:183   */\n      0x00\n        /* \"#utility.yul\":205:229   */\n      tag_78\n        /* \"#utility.yul\":223:228   */\n      dup3\n        /* \"#utility.yul\":205:229   */\n      tag_48\n      jump\t// in\n    tag_78:\n        /* \"#utility.yul\":194:229   */\n      swap1\n      pop\n        /* \"#utility.yul\":139:235   */\n      swap2\n      swap1\n      pop\n      jump\t// out\n        /* \"#utility.yul\":241:367   */\n    tag_50:\n        /* \"#utility.yul\":336:360   */\n      tag_80\n        /* \"#utility.yul\":354:359   */\n      dup2\n        /* \"#utility.yul\":336:360   */\n      tag_49\n      jump\t// in\n    tag_80:\n        /* \"#utility.yul\":331:334   */\n      dup3\n        /* \"#utility.yul\":324:361   */\n      mstore\n        /* \"#utility.yul\":241:367   */\n      pop\n      pop\n      jump\t// out\n        /* \"#utility.yul\":373:611   */\n    tag_9:\n        /* \"#utility.yul\":474:478   */\n      0x00\n        /* \"#utility.yul\":512:514   */\n      0x20\n        /* \"#utility.yul\":501:510   */\n      dup3\n        /* \"#utility.yul\":497:515   */\n      add\n        /* \"#utility.yul\":489:515   */\n      swap1\n      pop\n        /* \"#utility.yul\":525:604   */\n      tag_82\n        /* \"#utility.yul\":601:602   */\n      0x00\n        /* \"#utility.yul\":590:599   */\n      dup4\n        /* \"#utility.yul\":586:603   */\n      add\n        /* \"#utility.yul\":577:583   */\n      dup5\n        /* \"#utility.yul\":525:604   */\n      tag_50\n      jump\t// in\n    tag_82:\n        /* \"#utility.yul\":373:611   */\n      swap3\n      swap2\n      pop\n      pop\n      jump\t// out\n        /* \"#utility.yul\":698:815   */\n    tag_52:\n        /* \"#utility.yul\":807:808   */\n      0x00\n        /* \"#utility.yul\":804:805   */\n      dup1\n        /* \"#utility.yul\":797:809   */\n      revert\n        /* \"#utility.yul\":944:1021   */\n    tag_54:\n        /* \"#utility.yul\":981:988   */\n      0x00\n        /* \"#utility.yul\":1010:1015   */\n      dup2\n        /* \"#utility.yul\":999:1015   */\n      swap1\n      pop\n        /* \"#utility.yul\":944:1021   */\n      swap2\n      swap1\n      pop\n      jump\t// out\n        /* \"#utility.yul\":1027:1149   */\n    tag_55:\n        /* \"#utility.yul\":1100:1124   */\n      tag_88\n        /* \"#utility.yul\":1118:1123   */\n      dup2\n        /* \"#utility.yul\":1100:1124   */\n      tag_54\n      jump\t// in\n    tag_88:\n        /* \"#utility.yul\":1093:1098   */\n      dup2\n        /* \"#utility.yul\":1090:1125   */\n      eq\n        /* \"#utility.yul\":1080:1143   */\n      tag_89\n      jumpi\n        /* \"#utility.yul\":1139:1140   */\n      0x00\n        /* \"#utility.yul\":1136:1137   */\n      dup1\n        /* \"#utility.yul\":1129:1141   */\n      revert\n        /* \"#utility.yul\":1080:1143   */\n    tag_89:\n        /* \"#utility.yul\":1027:1149   */\n      pop\n      jump\t// out\n        /* \"#utility.yul\":1155:1294   */\n    tag_56:\n        /* \"#utility.yul\":1201:1206   */\n      0x00\n        /* \"#utility.yul\":1239:1245   */\n      dup2\n        /* \"#utility.yul\":1226:1246   */\n      calldataload\n        /* \"#utility.yul\":1217:1246   */\n      swap1\n      pop\n        /* \"#utility.yul\":1255:1288   */\n      tag_91\n        /* \"#utility.yul\":1282:1287   */\n      dup2\n        /* \"#utility.yul\":1255:1288   */\n      tag_55\n      jump\t// in\n    tag_91:\n        /* \"#utility.yul\":1155:1294   */\n      swap3\n      swap2\n      pop\n      pop\n      jump\t// out\n        /* \"#utility.yul\":1300:1629   */\n    tag_12:\n        /* \"#utility.yul\":1359:1365   */\n      0x00\n        /* \"#utility.yul\":1408:1410   */\n      0x20\n        /* \"#utility.yul\":1396:1405   */\n      dup3\n        /* \"#utility.yul\":1387:1394   */\n      dup5\n        /* \"#utility.yul\":1383:1406   */\n      sub\n        /* \"#utility.yul\":1379:1411   */\n      slt\n        /* \"#utility.yul\":1376:1495   */\n      iszero\n      tag_93\n      jumpi\n        /* \"#utility.yul\":1414:1493   */\n      tag_94\n      tag_52\n      jump\t// in\n    tag_94:\n        /* \"#utility.yul\":1376:1495   */\n    tag_93:\n        /* \"#utility.yul\":1534:1535   */\n      0x00\n        /* \"#utility.yul\":1559:1612   */\n      tag_95\n        /* \"#utility.yul\":1604:1611   */\n      dup5\n        /* \"#utility.yul\":1595:1601   */\n      dup3\n        /* \"#utility.yul\":1584:1593   */\n      dup6\n        /* \"#utility.yul\":1580:1602   */\n      add\n        /* \"#utility.yul\":1559:1612   */\n      tag_56\n      jump\t// in\n    tag_95:\n        /* \"#utility.yul\":1549:1612   */\n      swap2\n      pop\n        /* \"#utility.yul\":1505:1622   */\n      pop\n        /* \"#utility.yul\":1300:1629   */\n      swap3\n      swap2\n      pop\n      pop\n      jump\t// out\n        /* \"#utility.yul\":1635:1761   */\n    tag_57:\n        /* \"#utility.yul\":1730:1754   */\n      tag_97\n        /* \"#utility.yul\":1748:1753   */\n      dup2\n        /* \"#utility.yul\":1730:1754   */\n      tag_54\n      jump\t// in\n    tag_97:\n        /* \"#utility.yul\":1725:1728   */\n      dup3\n        /* \"#utility.yul\":1718:1755   */\n      mstore\n        /* \"#utility.yul\":1635:1761   */\n      pop\n      pop\n      jump\t// out\n        /* \"#utility.yul\":1767:2005   */\n    tag_15:\n        /* \"#utility.yul\":1868:1872   */\n      0x00\n        /* \"#utility.yul\":1906:1908   */\n      0x20\n        /* \"#utility.yul\":1895:1904   */\n      dup3\n        /* \"#utility.yul\":1891:1909   */\n      add\n        /* \"#utility.yul\":1883:1909   */\n      swap1\n      pop\n        /* \"#utility.yul\":1919:1998   */\n      tag_99\n        /* \"#utility.yul\":1995:1996   */\n      0x00\n        /* \"#utility.yul\":1984:1993   */\n      dup4\n        /* \"#utility.yul\":1980:1997   */\n      add\n        /* \"#utility.yul\":1971:1977   */\n      dup5\n        /* \"#utility.yul\":1919:1998   */\n      tag_57\n      jump\t// in\n    tag_99:\n        /* \"#utility.yul\":1767:2005   */\n      swap3\n      swap2\n      pop\n      pop\n      jump\t// out\n        /* \"#utility.yul\":2011:2087   */\n    tag_58:\n        /* \"#utility.yul\":2047:2054   */\n      0x00\n        /* \"#utility.yul\":2076:2081   */\n      dup2\n        /* \"#utility.yul\":2065:2081   */\n      swap1\n      pop\n        /* \"#utility.yul\":2011:2087   */\n      swap2\n      swap1\n      pop\n      jump\t// out\n        /* \"#utility.yul\":2093:2216   */\n    tag_59:\n        /* \"#utility.yul\":2186:2209   */\n      tag_102\n        /* \"#utility.yul\":2203:2208   */\n      dup2\n        /* \"#utility.yul\":2186:2209   */\n      tag_58\n      jump\t// in\n    tag_102:\n        /* \"#utility.yul\":2181:2184   */\n      dup3\n        /* \"#utility.yul\":2174:2210   */\n      mstore\n        /* \"#utility.yul\":2093:2216   */\n      pop\n      pop\n      jump\t// out\n        /* \"#utility.yul\":2222:2456   */\n    tag_19:\n        /* \"#utility.yul\":2321:2325   */\n      0x00\n        /* \"#utility.yul\":2359:2361   */\n      0x20\n        /* \"#utility.yul\":2348:2357   */\n      dup3\n        /* \"#utility.yul\":2344:2362   */\n      add\n        /* \"#utility.yul\":2336:2362   */\n      swap1\n      pop\n        /* \"#utility.yul\":2372:2449   */\n      tag_104\n        /* \"#utility.yul\":2446:2447   */\n      0x00\n        /* \"#utility.yul\":2435:2444   */\n      dup4\n        /* \"#utility.yul\":2431:2448   */\n      add\n        /* \"#utility.yul\":2422:2428   */\n      dup5\n        /* \"#utility.yul\":2372:2449   */\n      tag_59\n      jump\t// in\n    tag_104:\n        /* \"#utility.yul\":2222:2456   */\n      swap3\n      swap2\n      pop\n      pop\n      jump\t// out\n        /* \"#utility.yul\":2462:2548   */\n    tag_60:\n        /* \"#utility.yul\":2497:2504   */\n      0x00\n        /* \"#utility.yul\":2537:2541   */\n      0xff\n        /* \"#utility.yul\":2530:2535   */\n      dup3\n        /* \"#utility.yul\":2526:2542   */\n      and\n        /* \"#utility.yul\":2515:2542   */\n      swap1\n      pop\n        /* \"#utility.yul\":2462:2548   */\n      swap2\n      swap1\n      pop\n      jump\t// out\n        /* \"#utility.yul\":2554:2674   */\n    tag_61:\n        /* \"#utility.yul\":2645:2667   */\n      tag_107\n        /* \"#utility.yul\":2661:2666   */\n      dup2\n        /* \"#utility.yul\":2645:2667   */\n      tag_60\n      jump\t// in\n    tag_107:\n        /* \"#utility.yul\":2640:2643   */\n      dup3\n        /* \"#utility.yul\":2633:2668   */\n      mstore\n        /* \"#utility.yul\":2554:2674   */\n      pop\n      pop\n      jump\t// out\n        /* \"#utility.yul\":2680:2910   */\n    tag_23:\n        /* \"#utility.yul\":2777:2781   */\n      0x00\n        /* \"#utility.yul\":2815:2817   */\n      0x20\n        /* \"#utility.yul\":2804:2813   */\n      dup3\n        /* \"#utility.yul\":2800:2818   */\n      add\n        /* \"#utility.yul\":2792:2818   */\n      swap1\n      pop\n        /* \"#utility.yul\":2828:2903   */\n      tag_109\n        /* \"#utility.yul\":2900:2901   */\n      0x00\n        /* \"#utility.yul\":2889:2898   */\n      dup4\n        /* \"#utility.yul\":2885:2902   */\n      add\n        /* \"#utility.yul\":2876:2882   */\n      dup5\n        /* \"#utility.yul\":2828:2903   */\n      tag_61\n      jump\t// in\n    tag_109:\n        /* \"#utility.yul\":2680:2910   */\n      swap3\n      swap2\n      pop\n      pop\n      jump\t// out\n        /* \"#utility.yul\":2916:3096   */\n    tag_62:\n        /* \"#utility.yul\":2964:3041   */\n      0x4e487b7100000000000000000000000000000000000000000000000000000000\n        /* \"#utility.yul\":2961:2962   */\n      0x00\n        /* \"#utility.yul\":2954:3042   */\n      mstore\n        /* \"#utility.yul\":3061:3065   */\n      0x11\n        /* \"#utility.yul\":3058:3059   */\n      0x04\n        /* \"#utility.yul\":3051:3066   */\n      mstore\n        /* \"#utility.yul\":3085:3089   */\n      0x24\n        /* \"#utility.yul\":3082:3083   */\n      0x00\n        /* \"#utility.yul\":3075:3090   */\n      revert\n        /* \"#utility.yul\":3102:3287   */\n    tag_28:\n        /* \"#utility.yul\":3140:3144   */\n      0x00\n        /* \"#utility.yul\":3160:3178   */\n      tag_112\n        /* \"#utility.yul\":3176:3177   */\n      dup3\n        /* \"#utility.yul\":3160:3178   */\n      tag_60\n      jump\t// in\n    tag_112:\n        /* \"#utility.yul\":3155:3178   */\n      swap2\n      pop\n        /* \"#utility.yul\":3192:3210   */\n      tag_113\n        /* \"#utility.yul\":3208:3209   */\n      dup4\n        /* \"#utility.yul\":3192:3210   */\n      tag_60\n      jump\t// in\n    tag_113:\n        /* \"#utility.yul\":3187:3210   */\n      swap3\n      pop\n        /* \"#utility.yul\":3229:3230   */\n      dup3\n        /* \"#utility.yul\":3226:3227   */\n      dup3\n        /* \"#utility.yul\":3223:3231   */\n      lt\n        /* \"#utility.yul\":3220:3254   */\n      iszero\n      tag_114\n      jumpi\n        /* \"#utility.yul\":3234:3252   */\n      tag_115\n      tag_62\n      jump\t// in\n    tag_115:\n        /* \"#utility.yul\":3220:3254   */\n    tag_114:\n        /* \"#utility.yul\":3279:3280   */\n      dup3\n        /* \"#utility.yul\":3276:3277   */\n      dup3\n        /* \"#utility.yul\":3272:3281   */\n      sub\n        /* \"#utility.yul\":3264:3281   */\n      swap1\n      pop\n        /* \"#utility.yul\":3102:3287   */\n      swap3\n      swap2\n      pop\n      pop\n      jump\t// out\n        /* \"#utility.yul\":3293:3395   */\n    tag_63:\n        /* \"#utility.yul\":3335:3343   */\n      0x00\n        /* \"#utility.yul\":3382:3387   */\n      dup2\n        /* \"#utility.yul\":3379:3380   */\n      0x01\n        /* \"#utility.yul\":3375:3388   */\n      shr\n        /* \"#utility.yul\":3354:3388   */\n      swap1\n      pop\n        /* \"#utility.yul\":3293:3395   */\n      swap2\n      swap1\n      pop\n      jump\t// out\n        /* \"#utility.yul\":3401:4249   */\n    tag_64:\n        /* \"#utility.yul\":3462:3467   */\n      0x00\n        /* \"#utility.yul\":3469:3473   */\n      dup1\n        /* \"#utility.yul\":3493:3499   */\n      dup3\n        /* \"#utility.yul\":3484:3499   */\n      swap2\n      pop\n        /* \"#utility.yul\":3517:3522   */\n      dup4\n        /* \"#utility.yul\":3508:3522   */\n      swap1\n      pop\n        /* \"#utility.yul\":3531:4243   */\n    tag_118:\n        /* \"#utility.yul\":3552:3553   */\n      0x01\n        /* \"#utility.yul\":3542:3550   */\n      dup6\n        /* \"#utility.yul\":3539:3554   */\n      gt\n        /* \"#utility.yul\":3531:4243   */\n      iszero\n      tag_120\n      jumpi\n        /* \"#utility.yul\":3647:3651   */\n      dup1\n        /* \"#utility.yul\":3642:3645   */\n      dup7\n        /* \"#utility.yul\":3638:3652   */\n      div\n        /* \"#utility.yul\":3632:3636   */\n      dup2\n        /* \"#utility.yul\":3629:3653   */\n      gt\n        /* \"#utility.yul\":3626:3676   */\n      iszero\n      tag_121\n      jumpi\n        /* \"#utility.yul\":3656:3674   */\n      tag_122\n      tag_62\n      jump\t// in\n    tag_122:\n        /* \"#utility.yul\":3626:3676   */\n    tag_121:\n        /* \"#utility.yul\":3706:3707   */\n      0x01\n        /* \"#utility.yul\":3696:3704   */\n      dup6\n        /* \"#utility.yul\":3692:3708   */\n      and\n        /* \"#utility.yul\":3689:4140   */\n      iszero\n      tag_123\n      jumpi\n        /* \"#utility.yul\":4121:4125   */\n      dup1\n        /* \"#utility.yul\":4114:4119   */\n      dup3\n        /* \"#utility.yul\":4110:4126   */\n      mul\n        /* \"#utility.yul\":4101:4126   */\n      swap2\n      pop\n        /* \"#utility.yul\":3689:4140   */\n    tag_123:\n        /* \"#utility.yul\":4171:4175   */\n      dup1\n        /* \"#utility.yul\":4165:4169   */\n      dup2\n        /* \"#utility.yul\":4161:4176   */\n      mul\n        /* \"#utility.yul\":4153:4176   */\n      swap1\n      pop\n        /* \"#utility.yul\":4201:4233   */\n      tag_124\n        /* \"#utility.yul\":4224:4232   */\n      dup6\n        /* \"#utility.yul\":4201:4233   */\n      tag_63\n      jump\t// in\n    tag_124:\n        /* \"#utility.yul\":4189:4233   */\n      swap5\n      pop\n        /* \"#utility.yul\":3531:4243   */\n      jump(tag_118)\n    tag_120:\n        /* \"#utility.yul\":3401:4249   */\n      swap5\n      pop\n      swap5\n      swap3\n      pop\n      pop\n      pop\n      jump\t// out\n        /* \"#utility.yul\":4255:5328   */\n    tag_65:\n        /* \"#utility.yul\":4309:4314   */\n      0x00\n        /* \"#utility.yul\":4500:4508   */\n      dup3\n        /* \"#utility.yul\":4490:4530   */\n      tag_126\n      jumpi\n        /* \"#utility.yul\":4521:4522   */\n      0x01\n        /* \"#utility.yul\":4512:4522   */\n      swap1\n      pop\n        /* \"#utility.yul\":4523:4528   */\n      jump(tag_125)\n        /* \"#utility.yul\":4490:4530   */\n    tag_126:\n        /* \"#utility.yul\":4549:4553   */\n      dup2\n        /* \"#utility.yul\":4539:4575   */\n      tag_127\n      jumpi\n        /* \"#utility.yul\":4566:4567   */\n      0x00\n        /* \"#utility.yul\":4557:4567   */\n      swap1\n      pop\n        /* \"#utility.yul\":4568:4573   */\n      jump(tag_125)\n        /* \"#utility.yul\":4539:4575   */\n    tag_127:\n        /* \"#utility.yul\":4635:4639   */\n      dup2\n        /* \"#utility.yul\":4683:4684   */\n      0x01\n        /* \"#utility.yul\":4678:4705   */\n      dup2\n      eq\n      tag_129\n      jumpi\n        /* \"#utility.yul\":4719:4720   */\n      0x02\n        /* \"#utility.yul\":4714:4905   */\n      dup2\n      eq\n      tag_130\n      jumpi\n        /* \"#utility.yul\":4628:4905   */\n      jump(tag_128)\n        /* \"#utility.yul\":4678:4705   */\n    tag_129:\n        /* \"#utility.yul\":4696:4697   */\n      0x01\n        /* \"#utility.yul\":4687:4697   */\n      swap2\n      pop\n        /* \"#utility.yul\":4698:4703   */\n      pop\n      jump(tag_125)\n        /* \"#utility.yul\":4714:4905   */\n    tag_130:\n        /* \"#utility.yul\":4759:4762   */\n      0xff\n        /* \"#utility.yul\":4749:4757   */\n      dup5\n        /* \"#utility.yul\":4746:4763   */\n      gt\n        /* \"#utility.yul\":4743:4786   */\n      iszero\n      tag_131\n      jumpi\n        /* \"#utility.yul\":4766:4784   */\n      tag_132\n      tag_62\n      jump\t// in\n    tag_132:\n        /* \"#utility.yul\":4743:4786   */\n    tag_131:\n        /* \"#utility.yul\":4815:4823   */\n      dup4\n        /* \"#utility.yul\":4812:4813   */\n      0x02\n        /* \"#utility.yul\":4808:4824   */\n      exp\n        /* \"#utility.yul\":4799:4824   */\n      swap2\n      pop\n        /* \"#utility.yul\":4850:4853   */\n      dup5\n        /* \"#utility.yul\":4843:4848   */\n      dup3\n        /* \"#utility.yul\":4840:4854   */\n      gt\n        /* \"#utility.yul\":4837:4877   */\n      iszero\n      tag_133\n      jumpi\n        /* \"#utility.yul\":4857:4875   */\n      tag_134\n      tag_62\n      jump\t// in\n    tag_134:\n        /* \"#utility.yul\":4837:4877   */\n    tag_133:\n        /* \"#utility.yul\":4890:4895   */\n      pop\n      jump(tag_125)\n        /* \"#utility.yul\":4628:4905   */\n    tag_128:\n      pop\n        /* \"#utility.yul\":5014:5016   */\n      0x20\n        /* \"#utility.yul\":5004:5012   */\n      dup4\n        /* \"#utility.yul\":5001:5017   */\n      lt\n        /* \"#utility.yul\":4995:4998   */\n      0x0133\n        /* \"#utility.yul\":4989:4993   */\n      dup4\n        /* \"#utility.yul\":4986:4999   */\n      lt\n        /* \"#utility.yul\":4982:5018   */\n      and\n        /* \"#utility.yul\":4964:4966   */\n      0x4e\n        /* \"#utility.yul\":4954:4962   */\n      dup5\n        /* \"#utility.yul\":4951:4967   */\n      lt\n        /* \"#utility.yul\":4946:4948   */\n      0x0b\n        /* \"#utility.yul\":4940:4944   */\n      dup5\n        /* \"#utility.yul\":4937:4949   */\n      lt\n        /* \"#utility.yul\":4933:4968   */\n      and\n        /* \"#utility.yul\":4917:5028   */\n      or\n        /* \"#utility.yul\":4914:5160   */\n      iszero\n      tag_135\n      jumpi\n        /* \"#utility.yul\":5070:5078   */\n      dup3\n        /* \"#utility.yul\":5064:5068   */\n      dup3\n        /* \"#utility.yul\":5060:5079   */\n      exp\n        /* \"#utility.yul\":5051:5079   */\n      swap1\n      pop\n        /* \"#utility.yul\":5105:5108   */\n      dup4\n        /* \"#utility.yul\":5098:5103   */\n      dup2\n        /* \"#utility.yul\":5095:5109   */\n      gt\n        /* \"#utility.yul\":5092:5132   */\n      iszero\n      tag_136\n      jumpi\n        /* \"#utility.yul\":5112:5130   */\n      tag_137\n      tag_62\n      jump\t// in\n    tag_137:\n        /* \"#utility.yul\":5092:5132   */\n    tag_136:\n        /* \"#utility.yul\":5145:5150   */\n      jump(tag_125)\n        /* \"#utility.yul\":4914:5160   */\n    tag_135:\n        /* \"#utility.yul\":5185:5227   */\n      tag_138\n        /* \"#utility.yul\":5223:5226   */\n      dup5\n        /* \"#utility.yul\":5213:5221   */\n      dup5\n        /* \"#utility.yul\":5207:5211   */\n      dup5\n        /* \"#utility.yul\":5204:5205   */\n      0x01\n        /* \"#utility.yul\":5185:5227   */\n      tag_64\n      jump\t// in\n    tag_138:\n        /* \"#utility.yul\":5170:5227   */\n      swap3\n      pop\n      swap1\n      pop\n        /* \"#utility.yul\":5259:5263   */\n      dup2\n        /* \"#utility.yul\":5254:5257   */\n      dup5\n        /* \"#utility.yul\":5250:5264   */\n      div\n        /* \"#utility.yul\":5243:5248   */\n      dup2\n        /* \"#utility.yul\":5240:5265   */\n      gt\n        /* \"#utility.yul\":5237:5288   */\n      iszero\n      tag_139\n      jumpi\n        /* \"#utility.yul\":5268:5286   */\n      tag_140\n      tag_62\n      jump\t// in\n    tag_140:\n        /* \"#utility.yul\":5237:5288   */\n    tag_139:\n        /* \"#utility.yul\":5317:5321   */\n      dup2\n        /* \"#utility.yul\":5310:5315   */\n      dup2\n        /* \"#utility.yul\":5306:5322   */\n      mul\n        /* \"#utility.yul\":5297:5322   */\n      swap1\n      pop\n        /* \"#utility.yul\":4255:5328   */\n    tag_125:\n      swap4\n      swap3\n      pop\n      pop\n      pop\n      jump\t// out\n        /* \"#utility.yul\":5334:5615   */\n    tag_30:\n        /* \"#utility.yul\":5392:5397   */\n      0x00\n        /* \"#utility.yul\":5416:5439   */\n      tag_142\n        /* \"#utility.yul\":5434:5438   */\n      dup3\n        /* \"#utility.yul\":5416:5439   */\n      tag_54\n      jump\t// in\n    tag_142:\n        /* \"#utility.yul\":5408:5439   */\n      swap2\n      pop\n        /* \"#utility.yul\":5460:5485   */\n      tag_143\n        /* \"#utility.yul\":5476:5484   */\n      dup4\n        /* \"#utility.yul\":5460:5485   */\n      tag_60\n      jump\t// in\n    tag_143:\n        /* \"#utility.yul\":5448:5485   */\n      swap3\n      pop\n        /* \"#utility.yul\":5504:5608   */\n      tag_144\n        /* \"#utility.yul\":5541:5607   */\n      0xffffffffffffffffffffffffffffffffffffffffffffffffffffffffffffffff\n        /* \"#utility.yul\":5531:5539   */\n      dup5\n        /* \"#utility.yul\":5525:5529   */\n      dup5\n        /* \"#utility.yul\":5504:5608   */\n      tag_65\n      jump\t// in\n    tag_144:\n        /* \"#utility.yul\":5495:5608   */\n      swap1\n      pop\n        /* \"#utility.yul\":5334:5615   */\n      swap3\n      swap2\n      pop\n      pop\n      jump\t// out\n        /* \"#utility.yul\":5621:5969   */\n    tag_32:\n        /* \"#utility.yul\":5661:5668   */\n      0x00\n        /* \"#utility.yul\":5684:5704   */\n      tag_146\n        /* \"#utility.yul\":5702:5703   */\n      dup3\n        /* \"#utility.yul\":5684:5704   */\n      tag_54\n      jump\t// in\n    tag_146:\n        /* \"#utility.yul\":5679:5704   */\n      swap2\n      pop\n        /* \"#utility.yul\":5718:5738   */\n      tag_147\n        /* \"#utility.yul\":5736:5737   */\n      dup4\n        /* \"#utility.yul\":5718:5738   */\n      tag_54\n      jump\t// in\n    tag_147:\n        /* \"#utility.yul\":5713:5738   */\n      swap3\n      pop\n        /* \"#utility.yul\":5906:5907   */\n      dup2\n        /* \"#utility.yul\":5838:5904   */\n      0xffffffffffffffffffffffffffffffffffffffffffffffffffffffffffffffff\n        /* \"#utility.yul\":5834:5908   */\n      div\n        /* \"#utility.yul\":5831:5832   */\n      dup4\n        /* \"#utility.yul\":5828:5909   */\n      gt\n        /* \"#utility.yul\":5823:5824   */\n      dup3\n        /* \"#utility.yul\":5816:5825   */\n      iszero\n        /* \"#utility.yul\":5809:5826   */\n      iszero\n        /* \"#utility.yul\":5805:5910   */\n      and\n        /* \"#utility.yul\":5802:5933   */\n      iszero\n      tag_148\n      jumpi\n        /* \"#utility.yul\":5913:5931   */\n      tag_149\n      tag_62\n      jump\t// in\n    tag_149:\n        /* \"#utility.yul\":5802:5933   */\n    tag_148:\n        /* \"#utility.yul\":5961:5962   */\n      dup3\n        /* \"#utility.yul\":5958:5959   */\n      dup3\n        /* \"#utility.yul\":5954:5963   */\n      mul\n        /* \"#utility.yul\":5943:5963   */\n      swap1\n      pop\n        /* \"#utility.yul\":5621:5969   */\n      swap3\n      swap2\n      pop\n      pop\n      jump\t// out\n        /* \"#utility.yul\":5975:6155   */\n    tag_66:\n        /* \"#utility.yul\":6023:6100   */\n      0x4e487b7100000000000000000000000000000000000000000000000000000000\n        /* \"#utility.yul\":6020:6021   */\n      0x00\n        /* \"#utility.yul\":6013:6101   */\n      mstore\n        /* \"#utility.yul\":6120:6124   */\n      0x12\n        /* \"#utility.yul\":6117:6118   */\n      0x04\n        /* \"#utility.yul\":6110:6125   */\n      mstore\n        /* \"#utility.yul\":6144:6148   */\n      0x24\n        /* \"#utility.yul\":6141:6142   */\n      0x00\n        /* \"#utility.yul\":6134:6149   */\n      revert\n        /* \"#utility.yul\":6161:6346   */\n    tag_35:\n        /* \"#utility.yul\":6201:6202   */\n      0x00\n        /* \"#utility.yul\":6218:6238   */\n      tag_152\n        /* \"#utility.yul\":6236:6237   */\n      dup3\n        /* \"#utility.yul\":6218:6238   */\n      tag_54\n      jump\t// in\n    tag_152:\n        /* \"#utility.yul\":6213:6238   */\n      swap2\n      pop\n        /* \"#utility.yul\":6252:6272   */\n      tag_153\n        /* \"#utility.yul\":6270:6271   */\n      dup4\n        /* \"#utility.yul\":6252:6272   */\n      tag_54\n      jump\t// in\n    tag_153:\n        /* \"#utility.yul\":6247:6272   */\n      swap3\n      pop\n        /* \"#utility.yul\":6291:6292   */\n      dup3\n        /* \"#utility.yul\":6281:6316   */\n      tag_154\n      jumpi\n        /* \"#utility.yul\":6296:6314   */\n      tag_155\n      tag_66\n      jump\t// in\n    tag_155:\n        /* \"#utility.yul\":6281:6316   */\n    tag_154:\n        /* \"#utility.yul\":6338:6339   */\n      dup3\n        /* \"#utility.yul\":6335:6336   */\n      dup3\n        /* \"#utility.yul\":6331:6340   */\n      div\n        /* \"#utility.yul\":6326:6340   */\n      swap1\n      pop\n        /* \"#utility.yul\":6161:6346   */\n      swap3\n      swap2\n      pop\n      pop\n      jump\t// out\n        /* \"#utility.yul\":6352:6457   */\n    tag_67:\n        /* \"#utility.yul\":6388:6395   */\n      0x00\n        /* \"#utility.yul\":6428:6450   */\n      0xffffffffffffffffffff\n        /* \"#utility.yul\":6421:6426   */\n      dup3\n        /* \"#utility.yul\":6417:6451   */\n      and\n        /* \"#utility.yul\":6406:6451   */\n      swap1\n      pop\n        /* \"#utility.yul\":6352:6457   */\n      swap2\n      swap1\n      pop\n      jump\t// out\n        /* \"#utility.yul\":6463:6583   */\n    tag_68:\n        /* \"#utility.yul\":6535:6558   */\n      tag_158\n        /* \"#utility.yul\":6552:6557   */\n      dup2\n        /* \"#utility.yul\":6535:6558   */\n      tag_67\n      jump\t// in\n    tag_158:\n        /* \"#utility.yul\":6528:6533   */\n      dup2\n        /* \"#utility.yul\":6525:6559   */\n      eq\n        /* \"#utility.yul\":6515:6577   */\n      tag_159\n      jumpi\n        /* \"#utility.yul\":6573:6574   */\n      0x00\n        /* \"#utility.yul\":6570:6571   */\n      dup1\n        /* \"#utility.yul\":6563:6575   */\n      revert\n        /* \"#utility.yul\":6515:6577   */\n    tag_159:\n        /* \"#utility.yul\":6463:6583   */\n      pop\n      jump\t// out\n        /* \"#utility.yul\":6589:6730   */\n    tag_69:\n        /* \"#utility.yul\":6645:6650   */\n      0x00\n        /* \"#utility.yul\":6676:6682   */\n      dup2\n        /* \"#utility.yul\":6670:6683   */\n      mload\n        /* \"#utility.yul\":6661:6683   */\n      swap1\n      pop\n        /* \"#utility.yul\":6692:6724   */\n      tag_161\n        /* \"#utility.yul\":6718:6723   */\n      dup2\n        /* \"#utility.yul\":6692:6724   */\n      tag_68\n      jump\t// in\n    tag_161:\n        /* \"#utility.yul\":6589:6730   */\n      swap3\n      swap2\n      pop\n      pop\n      jump\t// out\n        /* \"#utility.yul\":6736:6856   */\n    tag_70:\n        /* \"#utility.yul\":6808:6831   */\n      tag_163\n        /* \"#utility.yul\":6825:6830   */\n      dup2\n        /* \"#utility.yul\":6808:6831   */\n      tag_58\n      jump\t// in\n    tag_163:\n        /* \"#utility.yul\":6801:6806   */\n      dup2\n        /* \"#utility.yul\":6798:6832   */\n      eq\n        /* \"#utility.yul\":6788:6850   */\n      tag_164\n      jumpi\n        /* \"#utility.yul\":6846:6847   */\n      0x00\n        /* \"#utility.yul\":6843:6844   */\n      dup1\n        /* \"#utility.yul\":6836:6848   */\n      revert\n        /* \"#utility.yul\":6788:6850   */\n    tag_164:\n        /* \"#utility.yul\":6736:6856   */\n      pop\n      jump\t// out\n        /* \"#utility.yul\":6862:7003   */\n    tag_71:\n        /* \"#utility.yul\":6918:6923   */\n      0x00\n        /* \"#utility.yul\":6949:6955   */\n      dup2\n        /* \"#utility.yul\":6943:6956   */\n      mload\n        /* \"#utility.yul\":6934:6956   */\n      swap1\n      pop\n        /* \"#utility.yul\":6965:6997   */\n      tag_166\n        /* \"#utility.yul\":6991:6996   */\n      dup2\n        /* \"#utility.yul\":6965:6997   */\n      tag_70\n      jump\t// in\n    tag_166:\n        /* \"#utility.yul\":6862:7003   */\n      swap3\n      swap2\n      pop\n      pop\n      jump\t// out\n        /* \"#utility.yul\":7009:7152   */\n    tag_72:\n        /* \"#utility.yul\":7066:7071   */\n      0x00\n        /* \"#utility.yul\":7097:7103   */\n      dup2\n        /* \"#utility.yul\":7091:7104   */\n      mload\n        /* \"#utility.yul\":7082:7104   */\n      swap1\n      pop\n        /* \"#utility.yul\":7113:7146   */\n      tag_168\n        /* \"#utility.yul\":7140:7145   */\n      dup2\n        /* \"#utility.yul\":7113:7146   */\n      tag_55\n      jump\t// in\n    tag_168:\n        /* \"#utility.yul\":7009:7152   */\n      swap3\n      swap2\n      pop\n      pop\n      jump\t// out\n        /* \"#utility.yul\":7158:8129   */\n    tag_41:\n        /* \"#utility.yul\":7261:7267   */\n      0x00\n        /* \"#utility.yul\":7269:7275   */\n      dup1\n        /* \"#utility.yul\":7277:7283   */\n      0x00\n        /* \"#utility.yul\":7285:7291   */\n      dup1\n        /* \"#utility.yul\":7293:7299   */\n      0x00\n        /* \"#utility.yul\":7342:7345   */\n      0xa0\n        /* \"#utility.yul\":7330:7339   */\n      dup7\n        /* \"#utility.yul\":7321:7328   */\n      dup9\n        /* \"#utility.yul\":7317:7340   */\n      sub\n        /* \"#utility.yul\":7313:7346   */\n      slt\n        /* \"#utility.yul\":7310:7430   */\n      iszero\n      tag_170\n      jumpi\n        /* \"#utility.yul\":7349:7428   */\n      tag_171\n      tag_52\n      jump\t// in\n    tag_171:\n        /* \"#utility.yul\":7310:7430   */\n    tag_170:\n        /* \"#utility.yul\":7469:7470   */\n      0x00\n        /* \"#utility.yul\":7494:7557   */\n      tag_172\n        /* \"#utility.yul\":7549:7556   */\n      dup9\n        /* \"#utility.yul\":7540:7546   */\n      dup3\n        /* \"#utility.yul\":7529:7538   */\n      dup10\n        /* \"#utility.yul\":7525:7547   */\n      add\n        /* \"#utility.yul\":7494:7557   */\n      tag_69\n      jump\t// in\n    tag_172:\n        /* \"#utility.yul\":7484:7557   */\n      swap6\n      pop\n        /* \"#utility.yul\":7440:7567   */\n      pop\n        /* \"#utility.yul\":7606:7608   */\n      0x20\n        /* \"#utility.yul\":7632:7695   */\n      tag_173\n        /* \"#utility.yul\":7687:7694   */\n      dup9\n        /* \"#utility.yul\":7678:7684   */\n      dup3\n        /* \"#utility.yul\":7667:7676   */\n      dup10\n        /* \"#utility.yul\":7663:7685   */\n      add\n        /* \"#utility.yul\":7632:7695   */\n      tag_71\n      jump\t// in\n    tag_173:\n        /* \"#utility.yul\":7622:7695   */\n      swap5\n      pop\n        /* \"#utility.yul\":7577:7705   */\n      pop\n        /* \"#utility.yul\":7744:7746   */\n      0x40\n        /* \"#utility.yul\":7770:7834   */\n      tag_174\n        /* \"#utility.yul\":7826:7833   */\n      dup9\n        /* \"#utility.yul\":7817:7823   */\n      dup3\n        /* \"#utility.yul\":7806:7815   */\n      dup10\n        /* \"#utility.yul\":7802:7824   */\n      add\n        /* \"#utility.yul\":7770:7834   */\n      tag_72\n      jump\t// in\n    tag_174:\n        /* \"#utility.yul\":7760:7834   */\n      swap4\n      pop\n        /* \"#utility.yul\":7715:7844   */\n      pop\n        /* \"#utility.yul\":7883:7885   */\n      0x60\n        /* \"#utility.yul\":7909:7973   */\n      tag_175\n        /* \"#utility.yul\":7965:7972   */\n      dup9\n        /* \"#utility.yul\":7956:7962   */\n      dup3\n        /* \"#utility.yul\":7945:7954   */\n      dup10\n        /* \"#utility.yul\":7941:7963   */\n      add\n        /* \"#utility.yul\":7909:7973   */\n      tag_72\n      jump\t// in\n    tag_175:\n        /* \"#utility.yul\":7899:7973   */\n      swap3\n      pop\n        /* \"#utility.yul\":7854:7983   */\n      pop\n        /* \"#utility.yul\":8022:8025   */\n      0x80\n        /* \"#utility.yul\":8049:8112   */\n      tag_176\n        /* \"#utility.yul\":8104:8111   */\n      dup9\n        /* \"#utility.yul\":8095:8101   */\n      dup3\n        /* \"#utility.yul\":8084:8093   */\n      dup10\n        /* \"#utility.yul\":8080:8102   */\n      add\n        /* \"#utility.yul\":8049:8112   */\n      tag_69\n      jump\t// in\n    tag_176:\n        /* \"#utility.yul\":8039:8112   */\n      swap2\n      pop\n        /* \"#utility.yul\":7993:8122   */\n      pop\n        /* \"#utility.yul\":7158:8129   */\n      swap3\n      swap6\n      pop\n      swap3\n      swap6\n      swap1\n      swap4\n      pop\n      jump\t// out\n        /* \"#utility.yul\":8135:8253   */\n    tag_73:\n        /* \"#utility.yul\":8206:8228   */\n      tag_178\n        /* \"#utility.yul\":8222:8227   */\n      dup2\n        /* \"#utility.yul\":8206:8228   */\n      tag_60\n      jump\t// in\n    tag_178:\n        /* \"#utility.yul\":8199:8204   */\n      dup2\n        /* \"#utility.yul\":8196:8229   */\n      eq\n        /* \"#utility.yul\":8186:8247   */\n      tag_179\n      jumpi\n        /* \"#utility.yul\":8243:8244   */\n      0x00\n        /* \"#utility.yul\":8240:8241   */\n      dup1\n        /* \"#utility.yul\":8233:8245   */\n      revert\n        /* \"#utility.yul\":8186:8247   */\n    tag_179:\n        /* \"#utility.yul\":8135:8253   */\n      pop\n      jump\t// out\n        /* \"#utility.yul\":8259:8398   */\n    tag_74:\n        /* \"#utility.yul\":8314:8319   */\n      0x00\n        /* \"#utility.yul\":8345:8351   */\n      dup2\n        /* \"#utility.yul\":8339:8352   */\n      mload\n        /* \"#utility.yul\":8330:8352   */\n      swap1\n      pop\n        /* \"#utility.yul\":8361:8392   */\n      tag_181\n        /* \"#utility.yul\":8386:8391   */\n      dup2\n        /* \"#utility.yul\":8361:8392   */\n      tag_73\n      jump\t// in\n    tag_181:\n        /* \"#utility.yul\":8259:8398   */\n      swap3\n      swap2\n      pop\n      pop\n      jump\t// out\n        /* \"#utility.yul\":8404:8751   */\n    tag_47:\n        /* \"#utility.yul\":8472:8478   */\n      0x00\n        /* \"#utility.yul\":8521:8523   */\n      0x20\n        /* \"#utility.yul\":8509:8518   */\n      dup3\n        /* \"#utility.yul\":8500:8507   */\n      dup5\n        /* \"#utility.yul\":8496:8519   */\n      sub\n        /* \"#utility.yul\":8492:8524   */\n      slt\n        /* \"#utility.yul\":8489:8608   */\n      iszero\n      tag_183\n      jumpi\n        /* \"#utility.yul\":8527:8606   */\n      tag_184\n      tag_52\n      jump\t// in\n    tag_184:\n        /* \"#utility.yul\":8489:8608   */\n    tag_183:\n        /* \"#utility.yul\":8647:8648   */\n      0x00\n        /* \"#utility.yul\":8672:8734   */\n      tag_185\n        /* \"#utility.yul\":8726:8733   */\n      dup5\n        /* \"#utility.yul\":8717:8723   */\n      dup3\n        /* \"#utility.yul\":8706:8715   */\n      dup6\n        /* \"#utility.yul\":8702:8724   */\n      add\n        /* \"#utility.yul\":8672:8734   */\n      tag_74\n      jump\t// in\n    tag_185:\n        /* \"#utility.yul\":8662:8734   */\n      swap2\n      pop\n        /* \"#utility.yul\":8618:8744   */\n      pop\n        /* \"#utility.yul\":8404:8751   */\n      swap3\n      swap2\n      pop\n      pop\n      jump\t// out\n\n    auxdata: 0xa264697066735822122006feb46331c42fdd55f647cdc915cbd6e72a805aa4abc46e6f044806ef4d1a5964736f6c63430008080033\n}\n",
				"bytecode": {
					"linkReferences": {},
					"object": "610822610053600b82828239805160001a607314610046577f4e487b7100000000000000000000000000000000000000000000000000000000600052600060045260246000fd5b30600052607381538281f3fe73000000000000000000000000000000000000000030146080604052600436106100565760003560e01c806329c36bb51461005b578063535be4f9146100795780638e5d6157146100a9578063ad93f57a146100c7575b600080fd5b6100636100e5565b60405161007091906102e2565b60405180910390f35b610093600480360381019061008e9190610338565b6100fd565b6040516100a09190610374565b60405180910390f35b6100b161015b565b6040516100be91906103a8565b60405180910390f35b6100cf610203565b6040516100dc91906103df565b60405180910390f35b738a753747a1fa494ec906ce90e9f37563a8af630e81565b60008061010861015b565b9050670de0b6b3a76400008361011c610203565b60126101289190610429565b600a6101349190610590565b8361013f91906105db565b61014991906105db565b6101539190610664565b915050919050565b600080738a753747a1fa494ec906ce90e9f37563a8af630e905060008173ffffffffffffffffffffffffffffffffffffffff1663feaf968c6040518163ffffffff1660e01b815260040160a06040518083038186803b1580156101bd57600080fd5b505afa1580156101d1573d6000803e3d6000fd5b505050506040513d601f19601f820116820180604052508101906101f59190610718565b505050915050809250505090565b600080738a753747a1fa494ec906ce90e9f37563a8af630e90508073ffffffffffffffffffffffffffffffffffffffff1663313ce5676040518163ffffffff1660e01b815260040160206040518083038186803b15801561026357600080fd5b505afa158015610277573d6000803e3d6000fd5b505050506040513d601f19601f8201168201806040525081019061029b91906107bf565b91505090565b600073ffffffffffffffffffffffffffffffffffffffff82169050919050565b60006102cc826102a1565b9050919050565b6102dc816102c1565b82525050565b60006020820190506102f760008301846102d3565b92915050565b600080fd5b6000819050919050565b61031581610302565b811461032057600080fd5b50565b6000813590506103328161030c565b92915050565b60006020828403121561034e5761034d6102fd565b5b600061035c84828501610323565b91505092915050565b61036e81610302565b82525050565b60006020820190506103896000830184610365565b92915050565b6000819050919050565b6103a28161038f565b82525050565b60006020820190506103bd6000830184610399565b92915050565b600060ff82169050919050565b6103d9816103c3565b82525050565b60006020820190506103f460008301846103d0565b92915050565b7f4e487b7100000000000000000000000000000000000000000000000000000000600052601160045260246000fd5b6000610434826103c3565b915061043f836103c3565b925082821015610452576104516103fa565b5b828203905092915050565b60008160011c9050919050565b6000808291508390505b60018511156104b4578086048111156104905761048f6103fa565b5b600185161561049f5780820291505b80810290506104ad8561045d565b9450610474565b94509492505050565b6000826104cd5760019050610589565b816104db5760009050610589565b81600181146104f157600281146104fb5761052a565b6001915050610589565b60ff84111561050d5761050c6103fa565b5b8360020a915084821115610524576105236103fa565b5b50610589565b5060208310610133831016604e8410600b841016171561055f5782820a90508381111561055a576105596103fa565b5b610589565b61056c848484600161046a565b92509050818404811115610583576105826103fa565b5b81810290505b9392505050565b600061059b82610302565b91506105a6836103c3565b92506105d37fffffffffffffffffffffffffffffffffffffffffffffffffffffffffffffffff84846104bd565b905092915050565b60006105e682610302565b91506105f183610302565b9250817fffffffffffffffffffffffffffffffffffffffffffffffffffffffffffffffff048311821515161561062a576106296103fa565b5b828202905092915050565b7f4e487b7100000000000000000000000000000000000000000000000000000000600052601260045260246000fd5b600061066f82610302565b915061067a83610302565b92508261068a57610689610635565b5b828204905092915050565b600069ffffffffffffffffffff82169050919050565b6106b481610695565b81146106bf57600080fd5b50565b6000815190506106d1816106ab565b92915050565b6106e08161038f565b81146106eb57600080fd5b50565b6000815190506106fd816106d7565b92915050565b6000815190506107128161030c565b92915050565b600080600080600060a08688031215610734576107336102fd565b5b6000610742888289016106c2565b9550506020610753888289016106ee565b945050604061076488828901610703565b935050606061077588828901610703565b9250506080610786888289016106c2565b9150509295509295909350565b61079c816103c3565b81146107a757600080fd5b50565b6000815190506107b981610793565b92915050565b6000602082840312156107d5576107d46102fd565b5b60006107e3848285016107aa565b9150509291505056fea264697066735822122006feb46331c42fdd55f647cdc915cbd6e72a805aa4abc46e6f044806ef4d1a5964736f6c63430008080033",
					"opcodes": "PUSH2 0x822 PUSH2 0x53 PUSH1 0xB DUP3 DUP3 DUP3 CODECOPY DUP1 MLOAD PUSH1 0x0 BYTE PUSH1 0x73 EQ PUSH2 0x46 JUMPI PUSH32 0x4E487B7100000000000000000000000000000000000000000000000000000000 PUSH1 0x0 MSTORE PUSH1 0x0 PUSH1 0x4 MSTORE PUSH1 0x24 PUSH1 0x0 REVERT JUMPDEST ADDRESS PUSH1 0x0 MSTORE PUSH1 0x73 DUP2 MSTORE8 DUP3 DUP2 RETURN INVALID PUSH20 0x0 ADDRESS EQ PUSH1 0x80 PUSH1 0x40 MSTORE PUSH1 0x4 CALLDATASIZE LT PUSH2 0x56 JUMPI PUSH1 0x0 CALLDATALOAD PUSH1 0xE0 SHR DUP1 PUSH4 0x29C36BB5 EQ PUSH2 0x5B JUMPI DUP1 PUSH4 0x535BE4F9 EQ PUSH2 0x79 JUMPI DUP1 PUSH4 0x8E5D6157 EQ PUSH2 0xA9 JUMPI DUP1 PUSH4 0xAD93F57A EQ PUSH2 0xC7 JUMPI JUMPDEST PUSH1 0x0 DUP1 REVERT JUMPDEST PUSH2 0x63 PUSH2 0xE5 JUMP JUMPDEST PUSH1 0x40 MLOAD PUSH2 0x70 SWAP2 SWAP1 PUSH2 0x2E2 JUMP JUMPDEST PUSH1 0x40 MLOAD DUP1 SWAP2 SUB SWAP1 RETURN JUMPDEST PUSH2 0x93 PUSH1 0x4 DUP1 CALLDATASIZE SUB DUP2 ADD SWAP1 PUSH2 0x8E SWAP2 SWAP1 PUSH2 0x338 JUMP JUMPDEST PUSH2 0xFD JUMP JUMPDEST PUSH1 0x40 MLOAD PUSH2 0xA0 SWAP2 SWAP1 PUSH2 0x374 JUMP JUMPDEST PUSH1 0x40 MLOAD DUP1 SWAP2 SUB SWAP1 RETURN JUMPDEST PUSH2 0xB1 PUSH2 0x15B JUMP JUMPDEST PUSH1 0x40 MLOAD PUSH2 0xBE SWAP2 SWAP1 PUSH2 0x3A8 JUMP JUMPDEST PUSH1 0x40 MLOAD DUP1 SWAP2 SUB SWAP1 RETURN JUMPDEST PUSH2 0xCF PUSH2 0x203 JUMP JUMPDEST PUSH1 0x40 MLOAD PUSH2 0xDC SWAP2 SWAP1 PUSH2 0x3DF JUMP JUMPDEST PUSH1 0x40 MLOAD DUP1 SWAP2 SUB SWAP1 RETURN JUMPDEST PUSH20 0x8A753747A1FA494EC906CE90E9F37563A8AF630E DUP2 JUMP JUMPDEST PUSH1 0x0 DUP1 PUSH2 0x108 PUSH2 0x15B JUMP JUMPDEST SWAP1 POP PUSH8 0xDE0B6B3A7640000 DUP4 PUSH2 0x11C PUSH2 0x203 JUMP JUMPDEST PUSH1 0x12 PUSH2 0x128 SWAP2 SWAP1 PUSH2 0x429 JUMP JUMPDEST PUSH1 0xA PUSH2 0x134 SWAP2 SWAP1 PUSH2 0x590 JUMP JUMPDEST DUP4 PUSH2 0x13F SWAP2 SWAP1 PUSH2 0x5DB JUMP JUMPDEST PUSH2 0x149 SWAP2 SWAP1 PUSH2 0x5DB JUMP JUMPDEST PUSH2 0x153 SWAP2 SWAP1 PUSH2 0x664 JUMP JUMPDEST SWAP2 POP POP SWAP2 SWAP1 POP JUMP JUMPDEST PUSH1 0x0 DUP1 PUSH20 0x8A753747A1FA494EC906CE90E9F37563A8AF630E SWAP1 POP PUSH1 0x0 DUP2 PUSH20 0xFFFFFFFFFFFFFFFFFFFFFFFFFFFFFFFFFFFFFFFF AND PUSH4 0xFEAF968C PUSH1 0x40 MLOAD DUP2 PUSH4 0xFFFFFFFF AND PUSH1 0xE0 SHL DUP2 MSTORE PUSH1 0x4 ADD PUSH1 0xA0 PUSH1 0x40 MLOAD DUP1 DUP4 SUB DUP2 DUP7 DUP1 EXTCODESIZE ISZERO DUP1 ISZERO PUSH2 0x1BD JUMPI PUSH1 0x0 DUP1 REVERT JUMPDEST POP GAS STATICCALL ISZERO DUP1 ISZERO PUSH2 0x1D1 JUMPI RETURNDATASIZE PUSH1 0x0 DUP1 RETURNDATACOPY RETURNDATASIZE PUSH1 0x0 REVERT JUMPDEST POP POP POP POP PUSH1 0x40 MLOAD RETURNDATASIZE PUSH1 0x1F NOT PUSH1 0x1F DUP3 ADD AND DUP3 ADD DUP1 PUSH1 0x40 MSTORE POP DUP2 ADD SWAP1 PUSH2 0x1F5 SWAP2 SWAP1 PUSH2 0x718 JUMP JUMPDEST POP POP POP SWAP2 POP POP DUP1 SWAP3 POP POP POP SWAP1 JUMP JUMPDEST PUSH1 0x0 DUP1 PUSH20 0x8A753747A1FA494EC906CE90E9F37563A8AF630E SWAP1 POP DUP1 PUSH20 0xFFFFFFFFFFFFFFFFFFFFFFFFFFFFFFFFFFFFFFFF AND PUSH4 0x313CE567 PUSH1 0x40 MLOAD DUP2 PUSH4 0xFFFFFFFF AND PUSH1 0xE0 SHL DUP2 MSTORE PUSH1 0x4 ADD PUSH1 0x20 PUSH1 0x40 MLOAD DUP1 DUP4 SUB DUP2 DUP7 DUP1 EXTCODESIZE ISZERO DUP1 ISZERO PUSH2 0x263 JUMPI PUSH1 0x0 DUP1 REVERT JUMPDEST POP GAS STATICCALL ISZERO DUP1 ISZERO PUSH2 0x277 JUMPI RETURNDATASIZE PUSH1 0x0 DUP1 RETURNDATACOPY RETURNDATASIZE PUSH1 0x0 REVERT JUMPDEST POP POP POP POP PUSH1 0x40 MLOAD RETURNDATASIZE PUSH1 0x1F NOT PUSH1 0x1F DUP3 ADD AND DUP3 ADD DUP1 PUSH1 0x40 MSTORE POP DUP2 ADD SWAP1 PUSH2 0x29B SWAP2 SWAP1 PUSH2 0x7BF JUMP JUMPDEST SWAP2 POP POP SWAP1 JUMP JUMPDEST PUSH1 0x0 PUSH20 0xFFFFFFFFFFFFFFFFFFFFFFFFFFFFFFFFFFFFFFFF DUP3 AND SWAP1 POP SWAP2 SWAP1 POP JUMP JUMPDEST PUSH1 0x0 PUSH2 0x2CC DUP3 PUSH2 0x2A1 JUMP JUMPDEST SWAP1 POP SWAP2 SWAP1 POP JUMP JUMPDEST PUSH2 0x2DC DUP2 PUSH2 0x2C1 JUMP JUMPDEST DUP3 MSTORE POP POP JUMP JUMPDEST PUSH1 0x0 PUSH1 0x20 DUP3 ADD SWAP1 POP PUSH2 0x2F7 PUSH1 0x0 DUP4 ADD DUP5 PUSH2 0x2D3 JUMP JUMPDEST SWAP3 SWAP2 POP POP JUMP JUMPDEST PUSH1 0x0 DUP1 REVERT JUMPDEST PUSH1 0x0 DUP2 SWAP1 POP SWAP2 SWAP1 POP JUMP JUMPDEST PUSH2 0x315 DUP2 PUSH2 0x302 JUMP JUMPDEST DUP2 EQ PUSH2 0x320 JUMPI PUSH1 0x0 DUP1 REVERT JUMPDEST POP JUMP JUMPDEST PUSH1 0x0 DUP2 CALLDATALOAD SWAP1 POP PUSH2 0x332 DUP2 PUSH2 0x30C JUMP JUMPDEST SWAP3 SWAP2 POP POP JUMP JUMPDEST PUSH1 0x0 PUSH1 0x20 DUP3 DUP5 SUB SLT ISZERO PUSH2 0x34E JUMPI PUSH2 0x34D PUSH2 0x2FD JUMP JUMPDEST JUMPDEST PUSH1 0x0 PUSH2 0x35C DUP5 DUP3 DUP6 ADD PUSH2 0x323 JUMP JUMPDEST SWAP2 POP POP SWAP3 SWAP2 POP POP JUMP JUMPDEST PUSH2 0x36E DUP2 PUSH2 0x302 JUMP JUMPDEST DUP3 MSTORE POP POP JUMP JUMPDEST PUSH1 0x0 PUSH1 0x20 DUP3 ADD SWAP1 POP PUSH2 0x389 PUSH1 0x0 DUP4 ADD DUP5 PUSH2 0x365 JUMP JUMPDEST SWAP3 SWAP2 POP POP JUMP JUMPDEST PUSH1 0x0 DUP2 SWAP1 POP SWAP2 SWAP1 POP JUMP JUMPDEST PUSH2 0x3A2 DUP2 PUSH2 0x38F JUMP JUMPDEST DUP3 MSTORE POP POP JUMP JUMPDEST PUSH1 0x0 PUSH1 0x20 DUP3 ADD SWAP1 POP PUSH2 0x3BD PUSH1 0x0 DUP4 ADD DUP5 PUSH2 0x399 JUMP JUMPDEST SWAP3 SWAP2 POP POP JUMP JUMPDEST PUSH1 0x0 PUSH1 0xFF DUP3 AND SWAP1 POP SWAP2 SWAP1 POP JUMP JUMPDEST PUSH2 0x3D9 DUP2 PUSH2 0x3C3 JUMP JUMPDEST DUP3 MSTORE POP POP JUMP JUMPDEST PUSH1 0x0 PUSH1 0x20 DUP3 ADD SWAP1 POP PUSH2 0x3F4 PUSH1 0x0 DUP4 ADD DUP5 PUSH2 0x3D0 JUMP JUMPDEST SWAP3 SWAP2 POP POP JUMP JUMPDEST PUSH32 0x4E487B7100000000000000000000000000000000000000000000000000000000 PUSH1 0x0 MSTORE PUSH1 0x11 PUSH1 0x4 MSTORE PUSH1 0x24 PUSH1 0x0 REVERT JUMPDEST PUSH1 0x0 PUSH2 0x434 DUP3 PUSH2 0x3C3 JUMP JUMPDEST SWAP2 POP PUSH2 0x43F DUP4 PUSH2 0x3C3 JUMP JUMPDEST SWAP3 POP DUP3 DUP3 LT ISZERO PUSH2 0x452 JUMPI PUSH2 0x451 PUSH2 0x3FA JUMP JUMPDEST JUMPDEST DUP3 DUP3 SUB SWAP1 POP SWAP3 SWAP2 POP POP JUMP JUMPDEST PUSH1 0x0 DUP2 PUSH1 0x1 SHR SWAP1 POP SWAP2 SWAP1 POP JUMP JUMPDEST PUSH1 0x0 DUP1 DUP3 SWAP2 POP DUP4 SWAP1 POP JUMPDEST PUSH1 0x1 DUP6 GT ISZERO PUSH2 0x4B4 JUMPI DUP1 DUP7 DIV DUP2 GT ISZERO PUSH2 0x490 JUMPI PUSH2 0x48F PUSH2 0x3FA JUMP JUMPDEST JUMPDEST PUSH1 0x1 DUP6 AND ISZERO PUSH2 0x49F JUMPI DUP1 DUP3 MUL SWAP2 POP JUMPDEST DUP1 DUP2 MUL SWAP1 POP PUSH2 0x4AD DUP6 PUSH2 0x45D JUMP JUMPDEST SWAP5 POP PUSH2 0x474 JUMP JUMPDEST SWAP5 POP SWAP5 SWAP3 POP POP POP JUMP JUMPDEST PUSH1 0x0 DUP3 PUSH2 0x4CD JUMPI PUSH1 0x1 SWAP1 POP PUSH2 0x589 JUMP JUMPDEST DUP2 PUSH2 0x4DB JUMPI PUSH1 0x0 SWAP1 POP PUSH2 0x589 JUMP JUMPDEST DUP2 PUSH1 0x1 DUP2 EQ PUSH2 0x4F1 JUMPI PUSH1 0x2 DUP2 EQ PUSH2 0x4FB JUMPI PUSH2 0x52A JUMP JUMPDEST PUSH1 0x1 SWAP2 POP POP PUSH2 0x589 JUMP JUMPDEST PUSH1 0xFF DUP5 GT ISZERO PUSH2 0x50D JUMPI PUSH2 0x50C PUSH2 0x3FA JUMP JUMPDEST JUMPDEST DUP4 PUSH1 0x2 EXP SWAP2 POP DUP5 DUP3 GT ISZERO PUSH2 0x524 JUMPI PUSH2 0x523 PUSH2 0x3FA JUMP JUMPDEST JUMPDEST POP PUSH2 0x589 JUMP JUMPDEST POP PUSH1 0x20 DUP4 LT PUSH2 0x133 DUP4 LT AND PUSH1 0x4E DUP5 LT PUSH1 0xB DUP5 LT AND OR ISZERO PUSH2 0x55F JUMPI DUP3 DUP3 EXP SWAP1 POP DUP4 DUP2 GT ISZERO PUSH2 0x55A JUMPI PUSH2 0x559 PUSH2 0x3FA JUMP JUMPDEST JUMPDEST PUSH2 0x589 JUMP JUMPDEST PUSH2 0x56C DUP5 DUP5 DUP5 PUSH1 0x1 PUSH2 0x46A JUMP JUMPDEST SWAP3 POP SWAP1 POP DUP2 DUP5 DIV DUP2 GT ISZERO PUSH2 0x583 JUMPI PUSH2 0x582 PUSH2 0x3FA JUMP JUMPDEST JUMPDEST DUP2 DUP2 MUL SWAP1 POP JUMPDEST SWAP4 SWAP3 POP POP POP JUMP JUMPDEST PUSH1 0x0 PUSH2 0x59B DUP3 PUSH2 0x302 JUMP JUMPDEST SWAP2 POP PUSH2 0x5A6 DUP4 PUSH2 0x3C3 JUMP JUMPDEST SWAP3 POP PUSH2 0x5D3 PUSH32 0xFFFFFFFFFFFFFFFFFFFFFFFFFFFFFFFFFFFFFFFFFFFFFFFFFFFFFFFFFFFFFFFF DUP5 DUP5 PUSH2 0x4BD JUMP JUMPDEST SWAP1 POP SWAP3 SWAP2 POP POP JUMP JUMPDEST PUSH1 0x0 PUSH2 0x5E6 DUP3 PUSH2 0x302 JUMP JUMPDEST SWAP2 POP PUSH2 0x5F1 DUP4 PUSH2 0x302 JUMP JUMPDEST SWAP3 POP DUP2 PUSH32 0xFFFFFFFFFFFFFFFFFFFFFFFFFFFFFFFFFFFFFFFFFFFFFFFFFFFFFFFFFFFFFFFF DIV DUP4 GT DUP3 ISZERO ISZERO AND ISZERO PUSH2 0x62A JUMPI PUSH2 0x629 PUSH2 0x3FA JUMP JUMPDEST JUMPDEST DUP3 DUP3 MUL SWAP1 POP SWAP3 SWAP2 POP POP JUMP JUMPDEST PUSH32 0x4E487B7100000000000000000000000000000000000000000000000000000000 PUSH1 0x0 MSTORE PUSH1 0x12 PUSH1 0x4 MSTORE PUSH1 0x24 PUSH1 0x0 REVERT JUMPDEST PUSH1 0x0 PUSH2 0x66F DUP3 PUSH2 0x302 JUMP JUMPDEST SWAP2 POP PUSH2 0x67A DUP4 PUSH2 0x302 JUMP JUMPDEST SWAP3 POP DUP3 PUSH2 0x68A JUMPI PUSH2 0x689 PUSH2 0x635 JUMP JUMPDEST JUMPDEST DUP3 DUP3 DIV SWAP1 POP SWAP3 SWAP2 POP POP JUMP JUMPDEST PUSH1 0x0 PUSH10 0xFFFFFFFFFFFFFFFFFFFF DUP3 AND SWAP1 POP SWAP2 SWAP1 POP JUMP JUMPDEST PUSH2 0x6B4 DUP2 PUSH2 0x695 JUMP JUMPDEST DUP2 EQ PUSH2 0x6BF JUMPI PUSH1 0x0 DUP1 REVERT JUMPDEST POP JUMP JUMPDEST PUSH1 0x0 DUP2 MLOAD SWAP1 POP PUSH2 0x6D1 DUP2 PUSH2 0x6AB JUMP JUMPDEST SWAP3 SWAP2 POP POP JUMP JUMPDEST PUSH2 0x6E0 DUP2 PUSH2 0x38F JUMP JUMPDEST DUP2 EQ PUSH2 0x6EB JUMPI PUSH1 0x0 DUP1 REVERT JUMPDEST POP JUMP JUMPDEST PUSH1 0x0 DUP2 MLOAD SWAP1 POP PUSH2 0x6FD DUP2 PUSH2 0x6D7 JUMP JUMPDEST SWAP3 SWAP2 POP POP JUMP JUMPDEST PUSH1 0x0 DUP2 MLOAD SWAP1 POP PUSH2 0x712 DUP2 PUSH2 0x30C JUMP JUMPDEST SWAP3 SWAP2 POP POP JUMP JUMPDEST PUSH1 0x0 DUP1 PUSH1 0x0 DUP1 PUSH1 0x0 PUSH1 0xA0 DUP7 DUP9 SUB SLT ISZERO PUSH2 0x734 JUMPI PUSH2 0x733 PUSH2 0x2FD JUMP JUMPDEST JUMPDEST PUSH1 0x0 PUSH2 0x742 DUP9 DUP3 DUP10 ADD PUSH2 0x6C2 JUMP JUMPDEST SWAP6 POP POP PUSH1 0x20 PUSH2 0x753 DUP9 DUP3 DUP10 ADD PUSH2 0x6EE JUMP JUMPDEST SWAP5 POP POP PUSH1 0x40 PUSH2 0x764 DUP9 DUP3 DUP10 ADD PUSH2 0x703 JUMP JUMPDEST SWAP4 POP POP PUSH1 0x60 PUSH2 0x775 DUP9 DUP3 DUP10 ADD PUSH2 0x703 JUMP JUMPDEST SWAP3 POP POP PUSH1 0x80 PUSH2 0x786 DUP9 DUP3 DUP10 ADD PUSH2 0x6C2 JUMP JUMPDEST SWAP2 POP POP SWAP3 SWAP6 POP SWAP3 SWAP6 SWAP1 SWAP4 POP JUMP JUMPDEST PUSH2 0x79C DUP2 PUSH2 0x3C3 JUMP JUMPDEST DUP2 EQ PUSH2 0x7A7 JUMPI PUSH1 0x0 DUP1 REVERT JUMPDEST POP JUMP JUMPDEST PUSH1 0x0 DUP2 MLOAD SWAP1 POP PUSH2 0x7B9 DUP2 PUSH2 0x793 JUMP JUMPDEST SWAP3 SWAP2 POP POP JUMP JUMPDEST PUSH1 0x0 PUSH1 0x20 DUP3 DUP5 SUB SLT ISZERO PUSH2 0x7D5 JUMPI PUSH2 0x7D4 PUSH2 0x2FD JUMP JUMPDEST JUMPDEST PUSH1 0x0 PUSH2 0x7E3 DUP5 DUP3 DUP6 ADD PUSH2 0x7AA JUMP JUMPDEST SWAP2 POP POP SWAP3 SWAP2 POP POP JUMP INVALID LOG2 PUSH5 0x6970667358 0x22 SLT KECCAK256 MOD INVALID 0xB4 PUSH4 0x31C42FDD SSTORE 0xF6 SELFBALANCE 0xCD 0xC9 ISZERO 0xCB 0xD6 0xE7 0x2A DUP1 GAS LOG4 0xAB 0xC4 PUSH15 0x6F044806EF4D1A5964736F6C634300 ADDMOD ADDMOD STOP CALLER "
				},
				"gasEstimates": {
					"creation": {
						"codeDepositCost": "416400",
						"executionCost": "480",
						"totalCost": "416880"
					},
					"external": {
						"convertEthToDollars(uint256)": "infinite",
						"feedAddress()": "340",
						"getDecimalsInReturnedValueByThePriceFeed()": "infinite",
						"getLatestPriceOfEthInUSD()": "infinite"
					}
				},
				"methodIdentifiers": {
					"convertEthToDollars(uint256)": "535be4f9",
					"feedAddress()": "29c36bb5",
					"getDecimalsInReturnedValueByThePriceFeed()": "ad93f57a",
					"getLatestPriceOfEthInUSD()": "8e5d6157"
				}
			},
			"storageLayout": {
				"storage": [],
				"types": null
			},
			"userdoc": {
				"kind": "user",
				"methods": {},
				"version": 1
			}
		}
	}
}