{
	"contracts/FundMe.sol": {
		"FundMe": {
			"abi": [
				{
					"inputs": [],
					"stateMutability": "nonpayable",
					"type": "constructor"
				},
				{
					"inputs": [],
					"name": "MINIMUM_USD",
					"outputs": [
						{
							"internalType": "uint256",
							"name": "",
							"type": "uint256"
						}
					],
					"stateMutability": "view",
					"type": "function"
				},
				{
					"inputs": [],
					"name": "favNumber",
					"outputs": [
						{
							"internalType": "int256",
							"name": "",
							"type": "int256"
						}
					],
					"stateMutability": "view",
					"type": "function"
				},
				{
					"inputs": [],
					"name": "fund",
					"outputs": [],
					"stateMutability": "payable",
					"type": "function"
				},
				{
					"inputs": [
						{
							"internalType": "address",
							"name": "",
							"type": "address"
						}
					],
					"name": "funderAddressToAmount",
					"outputs": [
						{
							"internalType": "uint256",
							"name": "",
							"type": "uint256"
						}
					],
					"stateMutability": "view",
					"type": "function"
				},
				{
					"inputs": [
						{
							"internalType": "uint256",
							"name": "",
							"type": "uint256"
						}
					],
					"name": "funders",
					"outputs": [
						{
							"internalType": "address",
							"name": "",
							"type": "address"
						}
					],
					"stateMutability": "view",
					"type": "function"
				},
				{
					"inputs": [],
					"name": "i_owner",
					"outputs": [
						{
							"internalType": "address",
							"name": "",
							"type": "address"
						}
					],
					"stateMutability": "view",
					"type": "function"
				},
				{
					"inputs": [],
					"name": "withdraw",
					"outputs": [],
					"stateMutability": "nonpayable",
					"type": "function"
				}
			],
			"devdoc": {
				"kind": "dev",
				"methods": {},
				"version": 1
			},
			"evm": {
				"assembly": "    /* \"contracts/FundMe.sol\":88:1679  contract FundMe{... */\n  mstore(0x40, 0xa0)\n    /* \"contracts/FundMe.sol\":860:912  constructor(){... */\n  callvalue\n  dup1\n  iszero\n  tag_1\n  jumpi\n  0x00\n  dup1\n  revert\ntag_1:\n  pop\n    /* \"contracts/FundMe.sol\":894:904  msg.sender */\n  caller\n    /* \"contracts/FundMe.sol\":884:904  i_owner = msg.sender */\n  0xffffffffffffffffffffffffffffffffffffffff\n  and\n  0x80\n  dup2\n  0xffffffffffffffffffffffffffffffffffffffff\n  and\n  0x60\n  shl\n  dup2\n  mstore\n  pop\n  pop\n    /* \"contracts/FundMe.sol\":88:1679  contract FundMe{... */\n  shr(0x60, mload(0x80))\n  codecopy(0x00, dataOffset(sub_0), dataSize(sub_0))\n  0x00\n  assignImmutable(\"0x4569971f3d79dc8da7f8a6820be6cb8dc4a52bb0df6599b2aae7182111b63cd5\")\n  return(0x00, dataSize(sub_0))\nstop\n\nsub_0: assembly {\n        /* \"contracts/FundMe.sol\":88:1679  contract FundMe{... */\n      mstore(0x40, 0x80)\n      jumpi(tag_1, lt(calldatasize, 0x04))\n      shr(0xe0, calldataload(0x00))\n      dup1\n      0xb60d4288\n      gt\n      tag_9\n      jumpi\n      dup1\n      0xb60d4288\n      eq\n      tag_5\n      jumpi\n      dup1\n      0xc7a0d9f6\n      eq\n      tag_6\n      jumpi\n      dup1\n      0xdba6335f\n      eq\n      tag_7\n      jumpi\n      dup1\n      0xdc0d3dff\n      eq\n      tag_8\n      jumpi\n      jump(tag_1)\n    tag_9:\n      dup1\n      0x132ebbd6\n      eq\n      tag_2\n      jumpi\n      dup1\n      0x3ccfd60b\n      eq\n      tag_3\n      jumpi\n      dup1\n      0x6b69a592\n      eq\n      tag_4\n      jumpi\n    tag_1:\n      0x00\n      dup1\n      revert\n        /* \"contracts/FundMe.sol\":301:355  mapping(address=>uint256) public funderAddressToAmount */\n    tag_2:\n      callvalue\n      dup1\n      iszero\n      tag_10\n      jumpi\n      0x00\n      dup1\n      revert\n    tag_10:\n      pop\n      tag_11\n      0x04\n      dup1\n      calldatasize\n      sub\n      dup2\n      add\n      swap1\n      tag_12\n      swap2\n      swap1\n      tag_13\n      jump\t// in\n    tag_12:\n      tag_14\n      jump\t// in\n    tag_11:\n      mload(0x40)\n      tag_15\n      swap2\n      swap1\n      tag_16\n      jump\t// in\n    tag_15:\n      mload(0x40)\n      dup1\n      swap2\n      sub\n      swap1\n      return\n        /* \"contracts/FundMe.sol\":1144:1556  function withdraw() public onlyOwner{... */\n    tag_3:\n      callvalue\n      dup1\n      iszero\n      tag_17\n      jumpi\n      0x00\n      dup1\n      revert\n    tag_17:\n      pop\n      tag_18\n      tag_19\n      jump\t// in\n    tag_18:\n      stop\n        /* \"contracts/FundMe.sol\":178:224  uint256 public constant MINIMUM_USD = 1 * 1e18 */\n    tag_4:\n      callvalue\n      dup1\n      iszero\n      tag_20\n      jumpi\n      0x00\n      dup1\n      revert\n    tag_20:\n      pop\n      tag_21\n      tag_22\n      jump\t// in\n    tag_21:\n      mload(0x40)\n      tag_23\n      swap2\n      swap1\n      tag_16\n      jump\t// in\n    tag_23:\n      mload(0x40)\n      dup1\n      swap2\n      sub\n      swap1\n      return\n        /* \"contracts/FundMe.sol\":920:1136  function fund () public payable{... */\n    tag_5:\n      tag_24\n      tag_25\n      jump\t// in\n    tag_24:\n      stop\n        /* \"contracts/FundMe.sol\":150:170  int public favNumber */\n    tag_6:\n      callvalue\n      dup1\n      iszero\n      tag_26\n      jumpi\n      0x00\n      dup1\n      revert\n    tag_26:\n      pop\n      tag_27\n      tag_28\n      jump\t// in\n    tag_27:\n      mload(0x40)\n      tag_29\n      swap2\n      swap1\n      tag_30\n      jump\t// in\n    tag_29:\n      mload(0x40)\n      dup1\n      swap2\n      sub\n      swap1\n      return\n        /* \"contracts/FundMe.sol\":262:294  address public immutable i_owner */\n    tag_7:\n      callvalue\n      dup1\n      iszero\n      tag_31\n      jumpi\n      0x00\n      dup1\n      revert\n    tag_31:\n      pop\n      tag_32\n      tag_33\n      jump\t// in\n    tag_32:\n      mload(0x40)\n      tag_34\n      swap2\n      swap1\n      tag_35\n      jump\t// in\n    tag_34:\n      mload(0x40)\n      dup1\n      swap2\n      sub\n      swap1\n      return\n        /* \"contracts/FundMe.sol\":231:255  address[] public funders */\n    tag_8:\n      callvalue\n      dup1\n      iszero\n      tag_36\n      jumpi\n      0x00\n      dup1\n      revert\n    tag_36:\n      pop\n      tag_37\n      0x04\n      dup1\n      calldatasize\n      sub\n      dup2\n      add\n      swap1\n      tag_38\n      swap2\n      swap1\n      tag_39\n      jump\t// in\n    tag_38:\n      tag_40\n      jump\t// in\n    tag_37:\n      mload(0x40)\n      tag_41\n      swap2\n      swap1\n      tag_35\n      jump\t// in\n    tag_41:\n      mload(0x40)\n      dup1\n      swap2\n      sub\n      swap1\n      return\n        /* \"contracts/FundMe.sol\":301:355  mapping(address=>uint256) public funderAddressToAmount */\n    tag_14:\n      mstore(0x20, 0x02)\n      dup1\n      0x00\n      mstore\n      keccak256(0x00, 0x40)\n      0x00\n      swap2\n      pop\n      swap1\n      pop\n      sload\n      dup2\n      jump\t// out\n        /* \"contracts/FundMe.sol\":1144:1556  function withdraw() public onlyOwner{... */\n    tag_19:\n        /* \"contracts/FundMe.sol\":1621:1628  i_owner */\n      immutable(\"0x4569971f3d79dc8da7f8a6820be6cb8dc4a52bb0df6599b2aae7182111b63cd5\")\n        /* \"contracts/FundMe.sol\":1607:1628  msg.sender == i_owner */\n      0xffffffffffffffffffffffffffffffffffffffff\n      and\n        /* \"contracts/FundMe.sol\":1607:1617  msg.sender */\n      caller\n        /* \"contracts/FundMe.sol\":1607:1628  msg.sender == i_owner */\n      0xffffffffffffffffffffffffffffffffffffffff\n      and\n      eq\n        /* \"contracts/FundMe.sol\":1599:1656  require(msg.sender == i_owner, \"Sender is not the owner\") */\n      tag_43\n      jumpi\n      mload(0x40)\n      0x08c379a000000000000000000000000000000000000000000000000000000000\n      dup2\n      mstore\n      0x04\n      add\n      tag_44\n      swap1\n      tag_45\n      jump\t// in\n    tag_44:\n      mload(0x40)\n      dup1\n      swap2\n      sub\n      swap1\n      revert\n    tag_43:\n        /* \"contracts/FundMe.sol\":1195:1214  uint256 funderIndex */\n      0x00\n        /* \"contracts/FundMe.sol\":1191:1376  for(uint256 funderIndex = 0; funderIndex < funders.length; funderIndex++){... */\n    tag_47:\n        /* \"contracts/FundMe.sol\":1234:1241  funders */\n      0x01\n        /* \"contracts/FundMe.sol\":1234:1248  funders.length */\n      dup1\n      sload\n      swap1\n      pop\n        /* \"contracts/FundMe.sol\":1220:1231  funderIndex */\n      dup2\n        /* \"contracts/FundMe.sol\":1220:1248  funderIndex < funders.length */\n      lt\n        /* \"contracts/FundMe.sol\":1191:1376  for(uint256 funderIndex = 0; funderIndex < funders.length; funderIndex++){... */\n      iszero\n      tag_48\n      jumpi\n        /* \"contracts/FundMe.sol\":1279:1293  address funder */\n      0x00\n        /* \"contracts/FundMe.sol\":1296:1303  funders */\n      0x01\n        /* \"contracts/FundMe.sol\":1304:1315  funderIndex */\n      dup3\n        /* \"contracts/FundMe.sol\":1296:1316  funders[funderIndex] */\n      dup2\n      sload\n      dup2\n      lt\n      tag_50\n      jumpi\n      tag_51\n      tag_52\n      jump\t// in\n    tag_51:\n    tag_50:\n      swap1\n      0x00\n      mstore\n      keccak256(0x00, 0x20)\n      add\n      0x00\n      swap1\n      sload\n      swap1\n      0x0100\n      exp\n      swap1\n      div\n      0xffffffffffffffffffffffffffffffffffffffff\n      and\n        /* \"contracts/FundMe.sol\":1279:1316  address funder = funders[funderIndex] */\n      swap1\n      pop\n        /* \"contracts/FundMe.sol\":1363:1364  0 */\n      0x00\n        /* \"contracts/FundMe.sol\":1331:1352  funderAddressToAmount */\n      0x02\n        /* \"contracts/FundMe.sol\":1331:1360  funderAddressToAmount[funder] */\n      0x00\n        /* \"contracts/FundMe.sol\":1353:1359  funder */\n      dup4\n        /* \"contracts/FundMe.sol\":1331:1360  funderAddressToAmount[funder] */\n      0xffffffffffffffffffffffffffffffffffffffff\n      and\n      0xffffffffffffffffffffffffffffffffffffffff\n      and\n      dup2\n      mstore\n      0x20\n      add\n      swap1\n      dup2\n      mstore\n      0x20\n      add\n      0x00\n      keccak256\n        /* \"contracts/FundMe.sol\":1331:1364  funderAddressToAmount[funder] = 0 */\n      dup2\n      swap1\n      sstore\n      pop\n        /* \"contracts/FundMe.sol\":1264:1376  {... */\n      pop\n        /* \"contracts/FundMe.sol\":1250:1263  funderIndex++ */\n      dup1\n      dup1\n      tag_54\n      swap1\n      tag_55\n      jump\t// in\n    tag_54:\n      swap2\n      pop\n      pop\n        /* \"contracts/FundMe.sol\":1191:1376  for(uint256 funderIndex = 0; funderIndex < funders.length; funderIndex++){... */\n      jump(tag_47)\n    tag_48:\n      pop\n        /* \"contracts/FundMe.sol\":1410:1411  0 */\n      0x00\n        /* \"contracts/FundMe.sol\":1396:1412  new address[](0) */\n      0xffffffffffffffff\n      dup2\n      gt\n      iszero\n      tag_56\n      jumpi\n      tag_57\n      tag_58\n      jump\t// in\n    tag_57:\n    tag_56:\n      mload(0x40)\n      swap1\n      dup1\n      dup3\n      mstore\n      dup1\n      0x20\n      mul\n      0x20\n      add\n      dup3\n      add\n      0x40\n      mstore\n      dup1\n      iszero\n      tag_59\n      jumpi\n      dup2\n      0x20\n      add\n      0x20\n      dup3\n      mul\n      dup1\n      calldatasize\n      dup4\n      calldatacopy\n      dup1\n      dup3\n      add\n      swap2\n      pop\n      pop\n      swap1\n      pop\n    tag_59:\n      pop\n        /* \"contracts/FundMe.sol\":1386:1393  funders */\n      0x01\n        /* \"contracts/FundMe.sol\":1386:1412  funders = new address[](0) */\n      swap1\n      dup1\n      mload\n      swap1\n      0x20\n      add\n      swap1\n      tag_60\n      swap3\n      swap2\n      swap1\n      tag_61\n      jump\t// in\n    tag_60:\n      pop\n        /* \"contracts/FundMe.sol\":1424:1440  bool callSuccess */\n      0x00\n        /* \"contracts/FundMe.sol\":1453:1463  msg.sender */\n      caller\n        /* \"contracts/FundMe.sol\":1445:1469  payable(msg.sender).call */\n      0xffffffffffffffffffffffffffffffffffffffff\n      and\n        /* \"contracts/FundMe.sol\":1477:1498  address(this).balance */\n      selfbalance\n        /* \"contracts/FundMe.sol\":1445:1503  payable(msg.sender).call{value: address(this).balance}(\"\") */\n      mload(0x40)\n      tag_62\n      swap1\n      tag_63\n      jump\t// in\n    tag_62:\n      0x00\n      mload(0x40)\n      dup1\n      dup4\n      sub\n      dup2\n      dup6\n      dup8\n      gas\n      call\n      swap3\n      pop\n      pop\n      pop\n      returndatasize\n      dup1\n      0x00\n      dup2\n      eq\n      tag_66\n      jumpi\n      mload(0x40)\n      swap2\n      pop\n      and(add(returndatasize, 0x3f), not(0x1f))\n      dup3\n      add\n      0x40\n      mstore\n      returndatasize\n      dup3\n      mstore\n      returndatasize\n      0x00\n      0x20\n      dup5\n      add\n      returndatacopy\n      jump(tag_65)\n    tag_66:\n      0x60\n      swap2\n      pop\n    tag_65:\n      pop\n        /* \"contracts/FundMe.sol\":1423:1503  (bool callSuccess,) = payable(msg.sender).call{value: address(this).balance}(\"\") */\n      pop\n      swap1\n      pop\n        /* \"contracts/FundMe.sol\":1522:1533  callSuccess */\n      dup1\n        /* \"contracts/FundMe.sol\":1514:1548  require(callSuccess,\"Call failed\") */\n      tag_67\n      jumpi\n      mload(0x40)\n      0x08c379a000000000000000000000000000000000000000000000000000000000\n      dup2\n      mstore\n      0x04\n      add\n      tag_68\n      swap1\n      tag_69\n      jump\t// in\n    tag_68:\n      mload(0x40)\n      dup1\n      swap2\n      sub\n      swap1\n      revert\n    tag_67:\n        /* \"contracts/FundMe.sol\":1180:1556  {... */\n      pop\n        /* \"contracts/FundMe.sol\":1144:1556  function withdraw() public onlyOwner{... */\n      jump\t// out\n        /* \"contracts/FundMe.sol\":178:224  uint256 public constant MINIMUM_USD = 1 * 1e18 */\n    tag_22:\n        /* \"contracts/FundMe.sol\":216:224  1 * 1e18 */\n      0x0de0b6b3a7640000\n        /* \"contracts/FundMe.sol\":178:224  uint256 public constant MINIMUM_USD = 1 * 1e18 */\n      dup2\n      jump\t// out\n        /* \"contracts/FundMe.sol\":920:1136  function fund () public payable{... */\n    tag_25:\n        /* \"contracts/FundMe.sol\":216:224  1 * 1e18 */\n      0x0de0b6b3a7640000\n        /* \"contracts/FundMe.sol\":970:979  msg.value */\n      callvalue\n        /* \"contracts/FundMe.sol\":970:999  msg.value.convertEthToDollars */\n      linkerSymbol(\"970d497a1df28a900e3dd97e15a13b1baeeba470cc419874572e93617a0043b2\")\n      0x535be4f9\n      swap1\n      swap2\n        /* \"contracts/FundMe.sol\":970:1001  msg.value.convertEthToDollars() */\n      mload(0x40)\n      dup3\n      0xffffffff\n      and\n      0xe0\n      shl\n      dup2\n      mstore\n      0x04\n      add\n      tag_71\n      swap2\n      swap1\n      tag_72\n      jump\t// in\n    tag_71:\n      0x20\n      mload(0x40)\n      dup1\n      dup4\n      sub\n      dup2\n      dup7\n      dup1\n      extcodesize\n      iszero\n      dup1\n      iszero\n      tag_73\n      jumpi\n      0x00\n      dup1\n      revert\n    tag_73:\n      pop\n      gas\n      delegatecall\n      iszero\n      dup1\n      iszero\n      tag_75\n      jumpi\n      returndatasize\n      0x00\n      dup1\n      returndatacopy\n      revert(0x00, returndatasize)\n    tag_75:\n      pop\n      pop\n      pop\n      pop\n      mload(0x40)\n      returndatasize\n      not(0x1f)\n      0x1f\n      dup3\n      add\n      and\n      dup3\n      add\n      dup1\n      0x40\n      mstore\n      pop\n      dup2\n      add\n      swap1\n      tag_76\n      swap2\n      swap1\n      tag_77\n      jump\t// in\n    tag_76:\n        /* \"contracts/FundMe.sol\":970:1016  msg.value.convertEthToDollars() >= MINIMUM_USD */\n      lt\n      iszero\n        /* \"contracts/FundMe.sol\":962:1036  require(msg.value.convertEthToDollars() >= MINIMUM_USD, \"not enough fund\") */\n      tag_78\n      jumpi\n      mload(0x40)\n      0x08c379a000000000000000000000000000000000000000000000000000000000\n      dup2\n      mstore\n      0x04\n      add\n      tag_79\n      swap1\n      tag_80\n      jump\t// in\n    tag_79:\n      mload(0x40)\n      dup1\n      swap2\n      sub\n      swap1\n      revert\n    tag_78:\n        /* \"contracts/FundMe.sol\":1047:1054  funders */\n      0x01\n        /* \"contracts/FundMe.sol\":1060:1070  msg.sender */\n      caller\n        /* \"contracts/FundMe.sol\":1047:1071  funders.push(msg.sender) */\n      swap1\n      dup1\n      0x01\n      dup2\n      sload\n      add\n      dup1\n      dup3\n      sstore\n      dup1\n      swap2\n      pop\n      pop\n      0x01\n      swap1\n      sub\n      swap1\n      0x00\n      mstore\n      keccak256(0x00, 0x20)\n      add\n      0x00\n      swap1\n      swap2\n      swap1\n      swap2\n      swap1\n      swap2\n      0x0100\n      exp\n      dup2\n      sload\n      dup2\n      0xffffffffffffffffffffffffffffffffffffffff\n      mul\n      not\n      and\n      swap1\n      dup4\n      0xffffffffffffffffffffffffffffffffffffffff\n      and\n      mul\n      or\n      swap1\n      sstore\n      pop\n        /* \"contracts/FundMe.sol\":1119:1128  msg.value */\n      callvalue\n        /* \"contracts/FundMe.sol\":1082:1103  funderAddressToAmount */\n      0x02\n        /* \"contracts/FundMe.sol\":1082:1115  funderAddressToAmount[msg.sender] */\n      0x00\n        /* \"contracts/FundMe.sol\":1104:1114  msg.sender */\n      caller\n        /* \"contracts/FundMe.sol\":1082:1115  funderAddressToAmount[msg.sender] */\n      0xffffffffffffffffffffffffffffffffffffffff\n      and\n      0xffffffffffffffffffffffffffffffffffffffff\n      and\n      dup2\n      mstore\n      0x20\n      add\n      swap1\n      dup2\n      mstore\n      0x20\n      add\n      0x00\n      keccak256\n      0x00\n        /* \"contracts/FundMe.sol\":1082:1128  funderAddressToAmount[msg.sender] += msg.value */\n      dup3\n      dup3\n      sload\n      tag_82\n      swap2\n      swap1\n      tag_83\n      jump\t// in\n    tag_82:\n      swap3\n      pop\n      pop\n      dup2\n      swap1\n      sstore\n      pop\n        /* \"contracts/FundMe.sol\":920:1136  function fund () public payable{... */\n      jump\t// out\n        /* \"contracts/FundMe.sol\":150:170  int public favNumber */\n    tag_28:\n      sload(0x00)\n      dup2\n      jump\t// out\n        /* \"contracts/FundMe.sol\":262:294  address public immutable i_owner */\n    tag_33:\n      immutable(\"0x4569971f3d79dc8da7f8a6820be6cb8dc4a52bb0df6599b2aae7182111b63cd5\")\n      dup2\n      jump\t// out\n        /* \"contracts/FundMe.sol\":231:255  address[] public funders */\n    tag_40:\n      0x01\n      dup2\n      dup2\n      sload\n      dup2\n      lt\n      tag_84\n      jumpi\n      0x00\n      dup1\n      revert\n    tag_84:\n      swap1\n      0x00\n      mstore\n      keccak256(0x00, 0x20)\n      add\n      0x00\n      swap2\n      pop\n      sload\n      swap1\n      0x0100\n      exp\n      swap1\n      div\n      0xffffffffffffffffffffffffffffffffffffffff\n      and\n      dup2\n      jump\t// out\n    tag_61:\n      dup3\n      dup1\n      sload\n      dup3\n      dup3\n      sstore\n      swap1\n      0x00\n      mstore\n      keccak256(0x00, 0x20)\n      swap1\n      dup2\n      add\n      swap3\n      dup3\n      iszero\n      tag_86\n      jumpi\n      swap2\n      0x20\n      mul\n      dup3\n      add\n    tag_87:\n      dup3\n      dup2\n      gt\n      iszero\n      tag_88\n      jumpi\n      dup3\n      mload\n      dup3\n      exp(0x0100, 0x00)\n      dup2\n      sload\n      dup2\n      0xffffffffffffffffffffffffffffffffffffffff\n      mul\n      not\n      and\n      swap1\n      dup4\n      0xffffffffffffffffffffffffffffffffffffffff\n      and\n      mul\n      or\n      swap1\n      sstore\n      pop\n      swap2\n      0x20\n      add\n      swap2\n      swap1\n      0x01\n      add\n      swap1\n      jump(tag_87)\n    tag_88:\n    tag_86:\n      pop\n      swap1\n      pop\n      tag_89\n      swap2\n      swap1\n      tag_90\n      jump\t// in\n    tag_89:\n      pop\n      swap1\n      jump\t// out\n    tag_90:\n    tag_91:\n      dup1\n      dup3\n      gt\n      iszero\n      tag_92\n      jumpi\n      0x00\n      dup2\n      0x00\n      swap1\n      sstore\n      pop\n      0x01\n      add\n      jump(tag_91)\n    tag_92:\n      pop\n      swap1\n      jump\t// out\n        /* \"#utility.yul\":88:205   */\n    tag_94:\n        /* \"#utility.yul\":197:198   */\n      0x00\n        /* \"#utility.yul\":194:195   */\n      dup1\n        /* \"#utility.yul\":187:199   */\n      revert\n        /* \"#utility.yul\":334:460   */\n    tag_96:\n        /* \"#utility.yul\":371:378   */\n      0x00\n        /* \"#utility.yul\":411:453   */\n      0xffffffffffffffffffffffffffffffffffffffff\n        /* \"#utility.yul\":404:409   */\n      dup3\n        /* \"#utility.yul\":400:454   */\n      and\n        /* \"#utility.yul\":389:454   */\n      swap1\n      pop\n        /* \"#utility.yul\":334:460   */\n      swap2\n      swap1\n      pop\n      jump\t// out\n        /* \"#utility.yul\":466:562   */\n    tag_97:\n        /* \"#utility.yul\":503:510   */\n      0x00\n        /* \"#utility.yul\":532:556   */\n      tag_126\n        /* \"#utility.yul\":550:555   */\n      dup3\n        /* \"#utility.yul\":532:556   */\n      tag_96\n      jump\t// in\n    tag_126:\n        /* \"#utility.yul\":521:556   */\n      swap1\n      pop\n        /* \"#utility.yul\":466:562   */\n      swap2\n      swap1\n      pop\n      jump\t// out\n        /* \"#utility.yul\":568:690   */\n    tag_98:\n        /* \"#utility.yul\":641:665   */\n      tag_128\n        /* \"#utility.yul\":659:664   */\n      dup2\n        /* \"#utility.yul\":641:665   */\n      tag_97\n      jump\t// in\n    tag_128:\n        /* \"#utility.yul\":634:639   */\n      dup2\n        /* \"#utility.yul\":631:666   */\n      eq\n        /* \"#utility.yul\":621:684   */\n      tag_129\n      jumpi\n        /* \"#utility.yul\":680:681   */\n      0x00\n        /* \"#utility.yul\":677:678   */\n      dup1\n        /* \"#utility.yul\":670:682   */\n      revert\n        /* \"#utility.yul\":621:684   */\n    tag_129:\n        /* \"#utility.yul\":568:690   */\n      pop\n      jump\t// out\n        /* \"#utility.yul\":696:835   */\n    tag_99:\n        /* \"#utility.yul\":742:747   */\n      0x00\n        /* \"#utility.yul\":780:786   */\n      dup2\n        /* \"#utility.yul\":767:787   */\n      calldataload\n        /* \"#utility.yul\":758:787   */\n      swap1\n      pop\n        /* \"#utility.yul\":796:829   */\n      tag_131\n        /* \"#utility.yul\":823:828   */\n      dup2\n        /* \"#utility.yul\":796:829   */\n      tag_98\n      jump\t// in\n    tag_131:\n        /* \"#utility.yul\":696:835   */\n      swap3\n      swap2\n      pop\n      pop\n      jump\t// out\n        /* \"#utility.yul\":841:1170   */\n    tag_13:\n        /* \"#utility.yul\":900:906   */\n      0x00\n        /* \"#utility.yul\":949:951   */\n      0x20\n        /* \"#utility.yul\":937:946   */\n      dup3\n        /* \"#utility.yul\":928:935   */\n      dup5\n        /* \"#utility.yul\":924:947   */\n      sub\n        /* \"#utility.yul\":920:952   */\n      slt\n        /* \"#utility.yul\":917:1036   */\n      iszero\n      tag_133\n      jumpi\n        /* \"#utility.yul\":955:1034   */\n      tag_134\n      tag_94\n      jump\t// in\n    tag_134:\n        /* \"#utility.yul\":917:1036   */\n    tag_133:\n        /* \"#utility.yul\":1075:1076   */\n      0x00\n        /* \"#utility.yul\":1100:1153   */\n      tag_135\n        /* \"#utility.yul\":1145:1152   */\n      dup5\n        /* \"#utility.yul\":1136:1142   */\n      dup3\n        /* \"#utility.yul\":1125:1134   */\n      dup6\n        /* \"#utility.yul\":1121:1143   */\n      add\n        /* \"#utility.yul\":1100:1153   */\n      tag_99\n      jump\t// in\n    tag_135:\n        /* \"#utility.yul\":1090:1153   */\n      swap2\n      pop\n        /* \"#utility.yul\":1046:1163   */\n      pop\n        /* \"#utility.yul\":841:1170   */\n      swap3\n      swap2\n      pop\n      pop\n      jump\t// out\n        /* \"#utility.yul\":1176:1253   */\n    tag_100:\n        /* \"#utility.yul\":1213:1220   */\n      0x00\n        /* \"#utility.yul\":1242:1247   */\n      dup2\n        /* \"#utility.yul\":1231:1247   */\n      swap1\n      pop\n        /* \"#utility.yul\":1176:1253   */\n      swap2\n      swap1\n      pop\n      jump\t// out\n        /* \"#utility.yul\":1259:1377   */\n    tag_101:\n        /* \"#utility.yul\":1346:1370   */\n      tag_138\n        /* \"#utility.yul\":1364:1369   */\n      dup2\n        /* \"#utility.yul\":1346:1370   */\n      tag_100\n      jump\t// in\n    tag_138:\n        /* \"#utility.yul\":1341:1344   */\n      dup3\n        /* \"#utility.yul\":1334:1371   */\n      mstore\n        /* \"#utility.yul\":1259:1377   */\n      pop\n      pop\n      jump\t// out\n        /* \"#utility.yul\":1383:1605   */\n    tag_16:\n        /* \"#utility.yul\":1476:1480   */\n      0x00\n        /* \"#utility.yul\":1514:1516   */\n      0x20\n        /* \"#utility.yul\":1503:1512   */\n      dup3\n        /* \"#utility.yul\":1499:1517   */\n      add\n        /* \"#utility.yul\":1491:1517   */\n      swap1\n      pop\n        /* \"#utility.yul\":1527:1598   */\n      tag_140\n        /* \"#utility.yul\":1595:1596   */\n      0x00\n        /* \"#utility.yul\":1584:1593   */\n      dup4\n        /* \"#utility.yul\":1580:1597   */\n      add\n        /* \"#utility.yul\":1571:1577   */\n      dup5\n        /* \"#utility.yul\":1527:1598   */\n      tag_101\n      jump\t// in\n    tag_140:\n        /* \"#utility.yul\":1383:1605   */\n      swap3\n      swap2\n      pop\n      pop\n      jump\t// out\n        /* \"#utility.yul\":1611:1687   */\n    tag_102:\n        /* \"#utility.yul\":1647:1654   */\n      0x00\n        /* \"#utility.yul\":1676:1681   */\n      dup2\n        /* \"#utility.yul\":1665:1681   */\n      swap1\n      pop\n        /* \"#utility.yul\":1611:1687   */\n      swap2\n      swap1\n      pop\n      jump\t// out\n        /* \"#utility.yul\":1693:1808   */\n    tag_103:\n        /* \"#utility.yul\":1778:1801   */\n      tag_143\n        /* \"#utility.yul\":1795:1800   */\n      dup2\n        /* \"#utility.yul\":1778:1801   */\n      tag_102\n      jump\t// in\n    tag_143:\n        /* \"#utility.yul\":1773:1776   */\n      dup3\n        /* \"#utility.yul\":1766:1802   */\n      mstore\n        /* \"#utility.yul\":1693:1808   */\n      pop\n      pop\n      jump\t// out\n        /* \"#utility.yul\":1814:2032   */\n    tag_30:\n        /* \"#utility.yul\":1905:1909   */\n      0x00\n        /* \"#utility.yul\":1943:1945   */\n      0x20\n        /* \"#utility.yul\":1932:1941   */\n      dup3\n        /* \"#utility.yul\":1928:1946   */\n      add\n        /* \"#utility.yul\":1920:1946   */\n      swap1\n      pop\n        /* \"#utility.yul\":1956:2025   */\n      tag_145\n        /* \"#utility.yul\":2022:2023   */\n      0x00\n        /* \"#utility.yul\":2011:2020   */\n      dup4\n        /* \"#utility.yul\":2007:2024   */\n      add\n        /* \"#utility.yul\":1998:2004   */\n      dup5\n        /* \"#utility.yul\":1956:2025   */\n      tag_103\n      jump\t// in\n    tag_145:\n        /* \"#utility.yul\":1814:2032   */\n      swap3\n      swap2\n      pop\n      pop\n      jump\t// out\n        /* \"#utility.yul\":2038:2156   */\n    tag_104:\n        /* \"#utility.yul\":2125:2149   */\n      tag_147\n        /* \"#utility.yul\":2143:2148   */\n      dup2\n        /* \"#utility.yul\":2125:2149   */\n      tag_97\n      jump\t// in\n    tag_147:\n        /* \"#utility.yul\":2120:2123   */\n      dup3\n        /* \"#utility.yul\":2113:2150   */\n      mstore\n        /* \"#utility.yul\":2038:2156   */\n      pop\n      pop\n      jump\t// out\n        /* \"#utility.yul\":2162:2384   */\n    tag_35:\n        /* \"#utility.yul\":2255:2259   */\n      0x00\n        /* \"#utility.yul\":2293:2295   */\n      0x20\n        /* \"#utility.yul\":2282:2291   */\n      dup3\n        /* \"#utility.yul\":2278:2296   */\n      add\n        /* \"#utility.yul\":2270:2296   */\n      swap1\n      pop\n        /* \"#utility.yul\":2306:2377   */\n      tag_149\n        /* \"#utility.yul\":2374:2375   */\n      0x00\n        /* \"#utility.yul\":2363:2372   */\n      dup4\n        /* \"#utility.yul\":2359:2376   */\n      add\n        /* \"#utility.yul\":2350:2356   */\n      dup5\n        /* \"#utility.yul\":2306:2377   */\n      tag_104\n      jump\t// in\n    tag_149:\n        /* \"#utility.yul\":2162:2384   */\n      swap3\n      swap2\n      pop\n      pop\n      jump\t// out\n        /* \"#utility.yul\":2390:2512   */\n    tag_105:\n        /* \"#utility.yul\":2463:2487   */\n      tag_151\n        /* \"#utility.yul\":2481:2486   */\n      dup2\n        /* \"#utility.yul\":2463:2487   */\n      tag_100\n      jump\t// in\n    tag_151:\n        /* \"#utility.yul\":2456:2461   */\n      dup2\n        /* \"#utility.yul\":2453:2488   */\n      eq\n        /* \"#utility.yul\":2443:2506   */\n      tag_152\n      jumpi\n        /* \"#utility.yul\":2502:2503   */\n      0x00\n        /* \"#utility.yul\":2499:2500   */\n      dup1\n        /* \"#utility.yul\":2492:2504   */\n      revert\n        /* \"#utility.yul\":2443:2506   */\n    tag_152:\n        /* \"#utility.yul\":2390:2512   */\n      pop\n      jump\t// out\n        /* \"#utility.yul\":2518:2657   */\n    tag_106:\n        /* \"#utility.yul\":2564:2569   */\n      0x00\n        /* \"#utility.yul\":2602:2608   */\n      dup2\n        /* \"#utility.yul\":2589:2609   */\n      calldataload\n        /* \"#utility.yul\":2580:2609   */\n      swap1\n      pop\n        /* \"#utility.yul\":2618:2651   */\n      tag_154\n        /* \"#utility.yul\":2645:2650   */\n      dup2\n        /* \"#utility.yul\":2618:2651   */\n      tag_105\n      jump\t// in\n    tag_154:\n        /* \"#utility.yul\":2518:2657   */\n      swap3\n      swap2\n      pop\n      pop\n      jump\t// out\n        /* \"#utility.yul\":2663:2992   */\n    tag_39:\n        /* \"#utility.yul\":2722:2728   */\n      0x00\n        /* \"#utility.yul\":2771:2773   */\n      0x20\n        /* \"#utility.yul\":2759:2768   */\n      dup3\n        /* \"#utility.yul\":2750:2757   */\n      dup5\n        /* \"#utility.yul\":2746:2769   */\n      sub\n        /* \"#utility.yul\":2742:2774   */\n      slt\n        /* \"#utility.yul\":2739:2858   */\n      iszero\n      tag_156\n      jumpi\n        /* \"#utility.yul\":2777:2856   */\n      tag_157\n      tag_94\n      jump\t// in\n    tag_157:\n        /* \"#utility.yul\":2739:2858   */\n    tag_156:\n        /* \"#utility.yul\":2897:2898   */\n      0x00\n        /* \"#utility.yul\":2922:2975   */\n      tag_158\n        /* \"#utility.yul\":2967:2974   */\n      dup5\n        /* \"#utility.yul\":2958:2964   */\n      dup3\n        /* \"#utility.yul\":2947:2956   */\n      dup6\n        /* \"#utility.yul\":2943:2965   */\n      add\n        /* \"#utility.yul\":2922:2975   */\n      tag_106\n      jump\t// in\n    tag_158:\n        /* \"#utility.yul\":2912:2975   */\n      swap2\n      pop\n        /* \"#utility.yul\":2868:2985   */\n      pop\n        /* \"#utility.yul\":2663:2992   */\n      swap3\n      swap2\n      pop\n      pop\n      jump\t// out\n        /* \"#utility.yul\":2998:3167   */\n    tag_107:\n        /* \"#utility.yul\":3082:3093   */\n      0x00\n        /* \"#utility.yul\":3116:3122   */\n      dup3\n        /* \"#utility.yul\":3111:3114   */\n      dup3\n        /* \"#utility.yul\":3104:3123   */\n      mstore\n        /* \"#utility.yul\":3156:3160   */\n      0x20\n        /* \"#utility.yul\":3151:3154   */\n      dup3\n        /* \"#utility.yul\":3147:3161   */\n      add\n        /* \"#utility.yul\":3132:3161   */\n      swap1\n      pop\n        /* \"#utility.yul\":2998:3167   */\n      swap3\n      swap2\n      pop\n      pop\n      jump\t// out\n        /* \"#utility.yul\":3173:3346   */\n    tag_108:\n        /* \"#utility.yul\":3313:3338   */\n      0x53656e646572206973206e6f7420746865206f776e6572000000000000000000\n        /* \"#utility.yul\":3309:3310   */\n      0x00\n        /* \"#utility.yul\":3301:3307   */\n      dup3\n        /* \"#utility.yul\":3297:3311   */\n      add\n        /* \"#utility.yul\":3290:3339   */\n      mstore\n        /* \"#utility.yul\":3173:3346   */\n      pop\n      jump\t// out\n        /* \"#utility.yul\":3352:3718   */\n    tag_109:\n        /* \"#utility.yul\":3494:3497   */\n      0x00\n        /* \"#utility.yul\":3515:3582   */\n      tag_162\n        /* \"#utility.yul\":3579:3581   */\n      0x17\n        /* \"#utility.yul\":3574:3577   */\n      dup4\n        /* \"#utility.yul\":3515:3582   */\n      tag_107\n      jump\t// in\n    tag_162:\n        /* \"#utility.yul\":3508:3582   */\n      swap2\n      pop\n        /* \"#utility.yul\":3591:3684   */\n      tag_163\n        /* \"#utility.yul\":3680:3683   */\n      dup3\n        /* \"#utility.yul\":3591:3684   */\n      tag_108\n      jump\t// in\n    tag_163:\n        /* \"#utility.yul\":3709:3711   */\n      0x20\n        /* \"#utility.yul\":3704:3707   */\n      dup3\n        /* \"#utility.yul\":3700:3712   */\n      add\n        /* \"#utility.yul\":3693:3712   */\n      swap1\n      pop\n        /* \"#utility.yul\":3352:3718   */\n      swap2\n      swap1\n      pop\n      jump\t// out\n        /* \"#utility.yul\":3724:4143   */\n    tag_45:\n        /* \"#utility.yul\":3890:3894   */\n      0x00\n        /* \"#utility.yul\":3928:3930   */\n      0x20\n        /* \"#utility.yul\":3917:3926   */\n      dup3\n        /* \"#utility.yul\":3913:3931   */\n      add\n        /* \"#utility.yul\":3905:3931   */\n      swap1\n      pop\n        /* \"#utility.yul\":3977:3986   */\n      dup2\n        /* \"#utility.yul\":3971:3975   */\n      dup2\n        /* \"#utility.yul\":3967:3987   */\n      sub\n        /* \"#utility.yul\":3963:3964   */\n      0x00\n        /* \"#utility.yul\":3952:3961   */\n      dup4\n        /* \"#utility.yul\":3948:3965   */\n      add\n        /* \"#utility.yul\":3941:3988   */\n      mstore\n        /* \"#utility.yul\":4005:4136   */\n      tag_165\n        /* \"#utility.yul\":4131:4135   */\n      dup2\n        /* \"#utility.yul\":4005:4136   */\n      tag_109\n      jump\t// in\n    tag_165:\n        /* \"#utility.yul\":3997:4136   */\n      swap1\n      pop\n        /* \"#utility.yul\":3724:4143   */\n      swap2\n      swap1\n      pop\n      jump\t// out\n        /* \"#utility.yul\":4149:4329   */\n    tag_52:\n        /* \"#utility.yul\":4197:4274   */\n      0x4e487b7100000000000000000000000000000000000000000000000000000000\n        /* \"#utility.yul\":4194:4195   */\n      0x00\n        /* \"#utility.yul\":4187:4275   */\n      mstore\n        /* \"#utility.yul\":4294:4298   */\n      0x32\n        /* \"#utility.yul\":4291:4292   */\n      0x04\n        /* \"#utility.yul\":4284:4299   */\n      mstore\n        /* \"#utility.yul\":4318:4322   */\n      0x24\n        /* \"#utility.yul\":4315:4316   */\n      0x00\n        /* \"#utility.yul\":4308:4323   */\n      revert\n        /* \"#utility.yul\":4335:4515   */\n    tag_110:\n        /* \"#utility.yul\":4383:4460   */\n      0x4e487b7100000000000000000000000000000000000000000000000000000000\n        /* \"#utility.yul\":4380:4381   */\n      0x00\n        /* \"#utility.yul\":4373:4461   */\n      mstore\n        /* \"#utility.yul\":4480:4484   */\n      0x11\n        /* \"#utility.yul\":4477:4478   */\n      0x04\n        /* \"#utility.yul\":4470:4485   */\n      mstore\n        /* \"#utility.yul\":4504:4508   */\n      0x24\n        /* \"#utility.yul\":4501:4502   */\n      0x00\n        /* \"#utility.yul\":4494:4509   */\n      revert\n        /* \"#utility.yul\":4521:4754   */\n    tag_55:\n        /* \"#utility.yul\":4560:4563   */\n      0x00\n        /* \"#utility.yul\":4583:4607   */\n      tag_169\n        /* \"#utility.yul\":4601:4606   */\n      dup3\n        /* \"#utility.yul\":4583:4607   */\n      tag_100\n      jump\t// in\n    tag_169:\n        /* \"#utility.yul\":4574:4607   */\n      swap2\n      pop\n        /* \"#utility.yul\":4629:4695   */\n      0xffffffffffffffffffffffffffffffffffffffffffffffffffffffffffffffff\n        /* \"#utility.yul\":4622:4627   */\n      dup3\n        /* \"#utility.yul\":4619:4696   */\n      eq\n        /* \"#utility.yul\":4616:4719   */\n      iszero\n      tag_170\n      jumpi\n        /* \"#utility.yul\":4699:4717   */\n      tag_171\n      tag_110\n      jump\t// in\n    tag_171:\n        /* \"#utility.yul\":4616:4719   */\n    tag_170:\n        /* \"#utility.yul\":4746:4747   */\n      0x01\n        /* \"#utility.yul\":4739:4744   */\n      dup3\n        /* \"#utility.yul\":4735:4748   */\n      add\n        /* \"#utility.yul\":4728:4748   */\n      swap1\n      pop\n        /* \"#utility.yul\":4521:4754   */\n      swap2\n      swap1\n      pop\n      jump\t// out\n        /* \"#utility.yul\":4760:4940   */\n    tag_58:\n        /* \"#utility.yul\":4808:4885   */\n      0x4e487b7100000000000000000000000000000000000000000000000000000000\n        /* \"#utility.yul\":4805:4806   */\n      0x00\n        /* \"#utility.yul\":4798:4886   */\n      mstore\n        /* \"#utility.yul\":4905:4909   */\n      0x41\n        /* \"#utility.yul\":4902:4903   */\n      0x04\n        /* \"#utility.yul\":4895:4910   */\n      mstore\n        /* \"#utility.yul\":4929:4933   */\n      0x24\n        /* \"#utility.yul\":4926:4927   */\n      0x00\n        /* \"#utility.yul\":4919:4934   */\n      revert\n        /* \"#utility.yul\":4946:5093   */\n    tag_111:\n        /* \"#utility.yul\":5047:5058   */\n      0x00\n        /* \"#utility.yul\":5084:5087   */\n      dup2\n        /* \"#utility.yul\":5069:5087   */\n      swap1\n      pop\n        /* \"#utility.yul\":4946:5093   */\n      swap3\n      swap2\n      pop\n      pop\n      jump\t// out\n        /* \"#utility.yul\":5099:5213   */\n    tag_112:\n      pop\n      jump\t// out\n        /* \"#utility.yul\":5219:5617   */\n    tag_113:\n        /* \"#utility.yul\":5378:5381   */\n      0x00\n        /* \"#utility.yul\":5399:5482   */\n      tag_176\n        /* \"#utility.yul\":5480:5481   */\n      0x00\n        /* \"#utility.yul\":5475:5478   */\n      dup4\n        /* \"#utility.yul\":5399:5482   */\n      tag_111\n      jump\t// in\n    tag_176:\n        /* \"#utility.yul\":5392:5482   */\n      swap2\n      pop\n        /* \"#utility.yul\":5491:5584   */\n      tag_177\n        /* \"#utility.yul\":5580:5583   */\n      dup3\n        /* \"#utility.yul\":5491:5584   */\n      tag_112\n      jump\t// in\n    tag_177:\n        /* \"#utility.yul\":5609:5610   */\n      0x00\n        /* \"#utility.yul\":5604:5607   */\n      dup3\n        /* \"#utility.yul\":5600:5611   */\n      add\n        /* \"#utility.yul\":5593:5611   */\n      swap1\n      pop\n        /* \"#utility.yul\":5219:5617   */\n      swap2\n      swap1\n      pop\n      jump\t// out\n        /* \"#utility.yul\":5623:6002   */\n    tag_63:\n        /* \"#utility.yul\":5807:5810   */\n      0x00\n        /* \"#utility.yul\":5829:5976   */\n      tag_179\n        /* \"#utility.yul\":5972:5975   */\n      dup3\n        /* \"#utility.yul\":5829:5976   */\n      tag_113\n      jump\t// in\n    tag_179:\n        /* \"#utility.yul\":5822:5976   */\n      swap2\n      pop\n        /* \"#utility.yul\":5993:5996   */\n      dup2\n        /* \"#utility.yul\":5986:5996   */\n      swap1\n      pop\n        /* \"#utility.yul\":5623:6002   */\n      swap2\n      swap1\n      pop\n      jump\t// out\n        /* \"#utility.yul\":6008:6169   */\n    tag_114:\n        /* \"#utility.yul\":6148:6161   */\n      0x43616c6c206661696c6564000000000000000000000000000000000000000000\n        /* \"#utility.yul\":6144:6145   */\n      0x00\n        /* \"#utility.yul\":6136:6142   */\n      dup3\n        /* \"#utility.yul\":6132:6146   */\n      add\n        /* \"#utility.yul\":6125:6162   */\n      mstore\n        /* \"#utility.yul\":6008:6169   */\n      pop\n      jump\t// out\n        /* \"#utility.yul\":6175:6541   */\n    tag_115:\n        /* \"#utility.yul\":6317:6320   */\n      0x00\n        /* \"#utility.yul\":6338:6405   */\n      tag_182\n        /* \"#utility.yul\":6402:6404   */\n      0x0b\n        /* \"#utility.yul\":6397:6400   */\n      dup4\n        /* \"#utility.yul\":6338:6405   */\n      tag_107\n      jump\t// in\n    tag_182:\n        /* \"#utility.yul\":6331:6405   */\n      swap2\n      pop\n        /* \"#utility.yul\":6414:6507   */\n      tag_183\n        /* \"#utility.yul\":6503:6506   */\n      dup3\n        /* \"#utility.yul\":6414:6507   */\n      tag_114\n      jump\t// in\n    tag_183:\n        /* \"#utility.yul\":6532:6534   */\n      0x20\n        /* \"#utility.yul\":6527:6530   */\n      dup3\n        /* \"#utility.yul\":6523:6535   */\n      add\n        /* \"#utility.yul\":6516:6535   */\n      swap1\n      pop\n        /* \"#utility.yul\":6175:6541   */\n      swap2\n      swap1\n      pop\n      jump\t// out\n        /* \"#utility.yul\":6547:6966   */\n    tag_69:\n        /* \"#utility.yul\":6713:6717   */\n      0x00\n        /* \"#utility.yul\":6751:6753   */\n      0x20\n        /* \"#utility.yul\":6740:6749   */\n      dup3\n        /* \"#utility.yul\":6736:6754   */\n      add\n        /* \"#utility.yul\":6728:6754   */\n      swap1\n      pop\n        /* \"#utility.yul\":6800:6809   */\n      dup2\n        /* \"#utility.yul\":6794:6798   */\n      dup2\n        /* \"#utility.yul\":6790:6810   */\n      sub\n        /* \"#utility.yul\":6786:6787   */\n      0x00\n        /* \"#utility.yul\":6775:6784   */\n      dup4\n        /* \"#utility.yul\":6771:6788   */\n      add\n        /* \"#utility.yul\":6764:6811   */\n      mstore\n        /* \"#utility.yul\":6828:6959   */\n      tag_185\n        /* \"#utility.yul\":6954:6958   */\n      dup2\n        /* \"#utility.yul\":6828:6959   */\n      tag_115\n      jump\t// in\n    tag_185:\n        /* \"#utility.yul\":6820:6959   */\n      swap1\n      pop\n        /* \"#utility.yul\":6547:6966   */\n      swap2\n      swap1\n      pop\n      jump\t// out\n        /* \"#utility.yul\":6972:7098   */\n    tag_116:\n        /* \"#utility.yul\":7067:7091   */\n      tag_187\n        /* \"#utility.yul\":7085:7090   */\n      dup2\n        /* \"#utility.yul\":7067:7091   */\n      tag_100\n      jump\t// in\n    tag_187:\n        /* \"#utility.yul\":7062:7065   */\n      dup3\n        /* \"#utility.yul\":7055:7092   */\n      mstore\n        /* \"#utility.yul\":6972:7098   */\n      pop\n      pop\n      jump\t// out\n        /* \"#utility.yul\":7104:7342   */\n    tag_72:\n        /* \"#utility.yul\":7205:7209   */\n      0x00\n        /* \"#utility.yul\":7243:7245   */\n      0x20\n        /* \"#utility.yul\":7232:7241   */\n      dup3\n        /* \"#utility.yul\":7228:7246   */\n      add\n        /* \"#utility.yul\":7220:7246   */\n      swap1\n      pop\n        /* \"#utility.yul\":7256:7335   */\n      tag_189\n        /* \"#utility.yul\":7332:7333   */\n      0x00\n        /* \"#utility.yul\":7321:7330   */\n      dup4\n        /* \"#utility.yul\":7317:7334   */\n      add\n        /* \"#utility.yul\":7308:7314   */\n      dup5\n        /* \"#utility.yul\":7256:7335   */\n      tag_116\n      jump\t// in\n    tag_189:\n        /* \"#utility.yul\":7104:7342   */\n      swap3\n      swap2\n      pop\n      pop\n      jump\t// out\n        /* \"#utility.yul\":7348:7491   */\n    tag_117:\n        /* \"#utility.yul\":7405:7410   */\n      0x00\n        /* \"#utility.yul\":7436:7442   */\n      dup2\n        /* \"#utility.yul\":7430:7443   */\n      mload\n        /* \"#utility.yul\":7421:7443   */\n      swap1\n      pop\n        /* \"#utility.yul\":7452:7485   */\n      tag_191\n        /* \"#utility.yul\":7479:7484   */\n      dup2\n        /* \"#utility.yul\":7452:7485   */\n      tag_105\n      jump\t// in\n    tag_191:\n        /* \"#utility.yul\":7348:7491   */\n      swap3\n      swap2\n      pop\n      pop\n      jump\t// out\n        /* \"#utility.yul\":7497:7848   */\n    tag_77:\n        /* \"#utility.yul\":7567:7573   */\n      0x00\n        /* \"#utility.yul\":7616:7618   */\n      0x20\n        /* \"#utility.yul\":7604:7613   */\n      dup3\n        /* \"#utility.yul\":7595:7602   */\n      dup5\n        /* \"#utility.yul\":7591:7614   */\n      sub\n        /* \"#utility.yul\":7587:7619   */\n      slt\n        /* \"#utility.yul\":7584:7703   */\n      iszero\n      tag_193\n      jumpi\n        /* \"#utility.yul\":7622:7701   */\n      tag_194\n      tag_94\n      jump\t// in\n    tag_194:\n        /* \"#utility.yul\":7584:7703   */\n    tag_193:\n        /* \"#utility.yul\":7742:7743   */\n      0x00\n        /* \"#utility.yul\":7767:7831   */\n      tag_195\n        /* \"#utility.yul\":7823:7830   */\n      dup5\n        /* \"#utility.yul\":7814:7820   */\n      dup3\n        /* \"#utility.yul\":7803:7812   */\n      dup6\n        /* \"#utility.yul\":7799:7821   */\n      add\n        /* \"#utility.yul\":7767:7831   */\n      tag_117\n      jump\t// in\n    tag_195:\n        /* \"#utility.yul\":7757:7831   */\n      swap2\n      pop\n        /* \"#utility.yul\":7713:7841   */\n      pop\n        /* \"#utility.yul\":7497:7848   */\n      swap3\n      swap2\n      pop\n      pop\n      jump\t// out\n        /* \"#utility.yul\":7854:8019   */\n    tag_118:\n        /* \"#utility.yul\":7994:8011   */\n      0x6e6f7420656e6f7567682066756e640000000000000000000000000000000000\n        /* \"#utility.yul\":7990:7991   */\n      0x00\n        /* \"#utility.yul\":7982:7988   */\n      dup3\n        /* \"#utility.yul\":7978:7992   */\n      add\n        /* \"#utility.yul\":7971:8012   */\n      mstore\n        /* \"#utility.yul\":7854:8019   */\n      pop\n      jump\t// out\n        /* \"#utility.yul\":8025:8391   */\n    tag_119:\n        /* \"#utility.yul\":8167:8170   */\n      0x00\n        /* \"#utility.yul\":8188:8255   */\n      tag_198\n        /* \"#utility.yul\":8252:8254   */\n      0x0f\n        /* \"#utility.yul\":8247:8250   */\n      dup4\n        /* \"#utility.yul\":8188:8255   */\n      tag_107\n      jump\t// in\n    tag_198:\n        /* \"#utility.yul\":8181:8255   */\n      swap2\n      pop\n        /* \"#utility.yul\":8264:8357   */\n      tag_199\n        /* \"#utility.yul\":8353:8356   */\n      dup3\n        /* \"#utility.yul\":8264:8357   */\n      tag_118\n      jump\t// in\n    tag_199:\n        /* \"#utility.yul\":8382:8384   */\n      0x20\n        /* \"#utility.yul\":8377:8380   */\n      dup3\n        /* \"#utility.yul\":8373:8385   */\n      add\n        /* \"#utility.yul\":8366:8385   */\n      swap1\n      pop\n        /* \"#utility.yul\":8025:8391   */\n      swap2\n      swap1\n      pop\n      jump\t// out\n        /* \"#utility.yul\":8397:8816   */\n    tag_80:\n        /* \"#utility.yul\":8563:8567   */\n      0x00\n        /* \"#utility.yul\":8601:8603   */\n      0x20\n        /* \"#utility.yul\":8590:8599   */\n      dup3\n        /* \"#utility.yul\":8586:8604   */\n      add\n        /* \"#utility.yul\":8578:8604   */\n      swap1\n      pop\n        /* \"#utility.yul\":8650:8659   */\n      dup2\n        /* \"#utility.yul\":8644:8648   */\n      dup2\n        /* \"#utility.yul\":8640:8660   */\n      sub\n        /* \"#utility.yul\":8636:8637   */\n      0x00\n        /* \"#utility.yul\":8625:8634   */\n      dup4\n        /* \"#utility.yul\":8621:8638   */\n      add\n        /* \"#utility.yul\":8614:8661   */\n      mstore\n        /* \"#utility.yul\":8678:8809   */\n      tag_201\n        /* \"#utility.yul\":8804:8808   */\n      dup2\n        /* \"#utility.yul\":8678:8809   */\n      tag_119\n      jump\t// in\n    tag_201:\n        /* \"#utility.yul\":8670:8809   */\n      swap1\n      pop\n        /* \"#utility.yul\":8397:8816   */\n      swap2\n      swap1\n      pop\n      jump\t// out\n        /* \"#utility.yul\":8822:9127   */\n    tag_83:\n        /* \"#utility.yul\":8862:8865   */\n      0x00\n        /* \"#utility.yul\":8881:8901   */\n      tag_203\n        /* \"#utility.yul\":8899:8900   */\n      dup3\n        /* \"#utility.yul\":8881:8901   */\n      tag_100\n      jump\t// in\n    tag_203:\n        /* \"#utility.yul\":8876:8901   */\n      swap2\n      pop\n        /* \"#utility.yul\":8915:8935   */\n      tag_204\n        /* \"#utility.yul\":8933:8934   */\n      dup4\n        /* \"#utility.yul\":8915:8935   */\n      tag_100\n      jump\t// in\n    tag_204:\n        /* \"#utility.yul\":8910:8935   */\n      swap3\n      pop\n        /* \"#utility.yul\":9069:9070   */\n      dup3\n        /* \"#utility.yul\":9001:9067   */\n      0xffffffffffffffffffffffffffffffffffffffffffffffffffffffffffffffff\n        /* \"#utility.yul\":8997:9071   */\n      sub\n        /* \"#utility.yul\":8994:8995   */\n      dup3\n        /* \"#utility.yul\":8991:9072   */\n      gt\n        /* \"#utility.yul\":8988:9095   */\n      iszero\n      tag_205\n      jumpi\n        /* \"#utility.yul\":9075:9093   */\n      tag_206\n      tag_110\n      jump\t// in\n    tag_206:\n        /* \"#utility.yul\":8988:9095   */\n    tag_205:\n        /* \"#utility.yul\":9119:9120   */\n      dup3\n        /* \"#utility.yul\":9116:9117   */\n      dup3\n        /* \"#utility.yul\":9112:9121   */\n      add\n        /* \"#utility.yul\":9105:9121   */\n      swap1\n      pop\n        /* \"#utility.yul\":8822:9127   */\n      swap3\n      swap2\n      pop\n      pop\n      jump\t// out\n\n    auxdata: 0xa2646970667358221220ccac572f1ab84304de9158266b198101eaec92550e19417bc511f8c027c0592b64736f6c63430008080033\n}\n",
				"bytecode": {
					"linkReferences": {
						"contracts/PriceConverter.sol": {
							"PriceConverter": [
								{
									"length": 20,
									"start": 1144
								}
							]
						}
					},
					"object": "60a060405234801561001057600080fd5b503373ffffffffffffffffffffffffffffffffffffffff1660808173ffffffffffffffffffffffffffffffffffffffff1660601b8152505060805160601c610b8161006d600039600081816101ab01526105950152610b816000f3fe6080604052600436106100705760003560e01c8063b60d42881161004e578063b60d4288146100f4578063c7a0d9f6146100fe578063dba6335f14610129578063dc0d3dff1461015457610070565b8063132ebbd6146100755780633ccfd60b146100b25780636b69a592146100c9575b600080fd5b34801561008157600080fd5b5061009c60048036038101906100979190610700565b610191565b6040516100a99190610746565b60405180910390f35b3480156100be57600080fd5b506100c76101a9565b005b3480156100d557600080fd5b506100de6103f3565b6040516100eb9190610746565b60405180910390f35b6100fc6103ff565b005b34801561010a57600080fd5b5061011361058d565b604051610120919061077a565b60405180910390f35b34801561013557600080fd5b5061013e610593565b60405161014b91906107a4565b60405180910390f35b34801561016057600080fd5b5061017b600480360381019061017691906107eb565b6105b7565b60405161018891906107a4565b60405180910390f35b60026020528060005260406000206000915090505481565b7f000000000000000000000000000000000000000000000000000000000000000073ffffffffffffffffffffffffffffffffffffffff163373ffffffffffffffffffffffffffffffffffffffff1614610237576040517f08c379a000000000000000000000000000000000000000000000000000000000815260040161022e90610875565b60405180910390fd5b60005b6001805490508110156102e35760006001828154811061025d5761025c610895565b5b9060005260206000200160009054906101000a900473ffffffffffffffffffffffffffffffffffffffff1690506000600260008373ffffffffffffffffffffffffffffffffffffffff1673ffffffffffffffffffffffffffffffffffffffff168152602001908152602001600020819055505080806102db906108f3565b91505061023a565b50600067ffffffffffffffff8111156102ff576102fe61093c565b5b60405190808252806020026020018201604052801561032d5781602001602082028036833780820191505090505b50600190805190602001906103439291906105f6565b5060003373ffffffffffffffffffffffffffffffffffffffff164760405161036a9061099c565b60006040518083038185875af1925050503d80600081146103a7576040519150601f19603f3d011682016040523d82523d6000602084013e6103ac565b606091505b50509050806103f0576040517f08c379a00000000000000000000000000000000000000000000000000000000081526004016103e7906109fd565b60405180910390fd5b50565b670de0b6b3a764000081565b670de0b6b3a76400003473__$970d497a1df28a900e3dd97e15a13b1bae$__63535be4f990916040518263ffffffff1660e01b81526004016104419190610a2c565b60206040518083038186803b15801561045957600080fd5b505af415801561046d573d6000803e3d6000fd5b505050506040513d601f19601f820116820180604052508101906104919190610a5c565b10156104d2576040517f08c379a00000000000000000000000000000000000000000000000000000000081526004016104c990610ad5565b60405180910390fd5b6001339080600181540180825580915050600190039060005260206000200160009091909190916101000a81548173ffffffffffffffffffffffffffffffffffffffff021916908373ffffffffffffffffffffffffffffffffffffffff16021790555034600260003373ffffffffffffffffffffffffffffffffffffffff1673ffffffffffffffffffffffffffffffffffffffff16815260200190815260200160002060008282546105849190610af5565b92505081905550565b60005481565b7f000000000000000000000000000000000000000000000000000000000000000081565b600181815481106105c757600080fd5b906000526020600020016000915054906101000a900473ffffffffffffffffffffffffffffffffffffffff1681565b82805482825590600052602060002090810192821561066f579160200282015b8281111561066e5782518260006101000a81548173ffffffffffffffffffffffffffffffffffffffff021916908373ffffffffffffffffffffffffffffffffffffffff16021790555091602001919060010190610616565b5b50905061067c9190610680565b5090565b5b80821115610699576000816000905550600101610681565b5090565b600080fd5b600073ffffffffffffffffffffffffffffffffffffffff82169050919050565b60006106cd826106a2565b9050919050565b6106dd816106c2565b81146106e857600080fd5b50565b6000813590506106fa816106d4565b92915050565b6000602082840312156107165761071561069d565b5b6000610724848285016106eb565b91505092915050565b6000819050919050565b6107408161072d565b82525050565b600060208201905061075b6000830184610737565b92915050565b6000819050919050565b61077481610761565b82525050565b600060208201905061078f600083018461076b565b92915050565b61079e816106c2565b82525050565b60006020820190506107b96000830184610795565b92915050565b6107c88161072d565b81146107d357600080fd5b50565b6000813590506107e5816107bf565b92915050565b6000602082840312156108015761080061069d565b5b600061080f848285016107d6565b91505092915050565b600082825260208201905092915050565b7f53656e646572206973206e6f7420746865206f776e6572000000000000000000600082015250565b600061085f601783610818565b915061086a82610829565b602082019050919050565b6000602082019050818103600083015261088e81610852565b9050919050565b7f4e487b7100000000000000000000000000000000000000000000000000000000600052603260045260246000fd5b7f4e487b7100000000000000000000000000000000000000000000000000000000600052601160045260246000fd5b60006108fe8261072d565b91507fffffffffffffffffffffffffffffffffffffffffffffffffffffffffffffffff821415610931576109306108c4565b5b600182019050919050565b7f4e487b7100000000000000000000000000000000000000000000000000000000600052604160045260246000fd5b600081905092915050565b50565b600061098660008361096b565b915061099182610976565b600082019050919050565b60006109a782610979565b9150819050919050565b7f43616c6c206661696c6564000000000000000000000000000000000000000000600082015250565b60006109e7600b83610818565b91506109f2826109b1565b602082019050919050565b60006020820190508181036000830152610a16816109da565b9050919050565b610a268161072d565b82525050565b6000602082019050610a416000830184610a1d565b92915050565b600081519050610a56816107bf565b92915050565b600060208284031215610a7257610a7161069d565b5b6000610a8084828501610a47565b91505092915050565b7f6e6f7420656e6f7567682066756e640000000000000000000000000000000000600082015250565b6000610abf600f83610818565b9150610aca82610a89565b602082019050919050565b60006020820190508181036000830152610aee81610ab2565b9050919050565b6000610b008261072d565b9150610b0b8361072d565b9250827fffffffffffffffffffffffffffffffffffffffffffffffffffffffffffffffff03821115610b4057610b3f6108c4565b5b82820190509291505056fea2646970667358221220ccac572f1ab84304de9158266b198101eaec92550e19417bc511f8c027c0592b64736f6c63430008080033",
					"opcodes": "PUSH1 0xA0 PUSH1 0x40 MSTORE CALLVALUE DUP1 ISZERO PUSH2 0x10 JUMPI PUSH1 0x0 DUP1 REVERT JUMPDEST POP CALLER PUSH20 0xFFFFFFFFFFFFFFFFFFFFFFFFFFFFFFFFFFFFFFFF AND PUSH1 0x80 DUP2 PUSH20 0xFFFFFFFFFFFFFFFFFFFFFFFFFFFFFFFFFFFFFFFF AND PUSH1 0x60 SHL DUP2 MSTORE POP POP PUSH1 0x80 MLOAD PUSH1 0x60 SHR PUSH2 0xB81 PUSH2 0x6D PUSH1 0x0 CODECOPY PUSH1 0x0 DUP2 DUP2 PUSH2 0x1AB ADD MSTORE PUSH2 0x595 ADD MSTORE PUSH2 0xB81 PUSH1 0x0 RETURN INVALID PUSH1 0x80 PUSH1 0x40 MSTORE PUSH1 0x4 CALLDATASIZE LT PUSH2 0x70 JUMPI PUSH1 0x0 CALLDATALOAD PUSH1 0xE0 SHR DUP1 PUSH4 0xB60D4288 GT PUSH2 0x4E JUMPI DUP1 PUSH4 0xB60D4288 EQ PUSH2 0xF4 JUMPI DUP1 PUSH4 0xC7A0D9F6 EQ PUSH2 0xFE JUMPI DUP1 PUSH4 0xDBA6335F EQ PUSH2 0x129 JUMPI DUP1 PUSH4 0xDC0D3DFF EQ PUSH2 0x154 JUMPI PUSH2 0x70 JUMP JUMPDEST DUP1 PUSH4 0x132EBBD6 EQ PUSH2 0x75 JUMPI DUP1 PUSH4 0x3CCFD60B EQ PUSH2 0xB2 JUMPI DUP1 PUSH4 0x6B69A592 EQ PUSH2 0xC9 JUMPI JUMPDEST PUSH1 0x0 DUP1 REVERT JUMPDEST CALLVALUE DUP1 ISZERO PUSH2 0x81 JUMPI PUSH1 0x0 DUP1 REVERT JUMPDEST POP PUSH2 0x9C PUSH1 0x4 DUP1 CALLDATASIZE SUB DUP2 ADD SWAP1 PUSH2 0x97 SWAP2 SWAP1 PUSH2 0x700 JUMP JUMPDEST PUSH2 0x191 JUMP JUMPDEST PUSH1 0x40 MLOAD PUSH2 0xA9 SWAP2 SWAP1 PUSH2 0x746 JUMP JUMPDEST PUSH1 0x40 MLOAD DUP1 SWAP2 SUB SWAP1 RETURN JUMPDEST CALLVALUE DUP1 ISZERO PUSH2 0xBE JUMPI PUSH1 0x0 DUP1 REVERT JUMPDEST POP PUSH2 0xC7 PUSH2 0x1A9 JUMP JUMPDEST STOP JUMPDEST CALLVALUE DUP1 ISZERO PUSH2 0xD5 JUMPI PUSH1 0x0 DUP1 REVERT JUMPDEST POP PUSH2 0xDE PUSH2 0x3F3 JUMP JUMPDEST PUSH1 0x40 MLOAD PUSH2 0xEB SWAP2 SWAP1 PUSH2 0x746 JUMP JUMPDEST PUSH1 0x40 MLOAD DUP1 SWAP2 SUB SWAP1 RETURN JUMPDEST PUSH2 0xFC PUSH2 0x3FF JUMP JUMPDEST STOP JUMPDEST CALLVALUE DUP1 ISZERO PUSH2 0x10A JUMPI PUSH1 0x0 DUP1 REVERT JUMPDEST POP PUSH2 0x113 PUSH2 0x58D JUMP JUMPDEST PUSH1 0x40 MLOAD PUSH2 0x120 SWAP2 SWAP1 PUSH2 0x77A JUMP JUMPDEST PUSH1 0x40 MLOAD DUP1 SWAP2 SUB SWAP1 RETURN JUMPDEST CALLVALUE DUP1 ISZERO PUSH2 0x135 JUMPI PUSH1 0x0 DUP1 REVERT JUMPDEST POP PUSH2 0x13E PUSH2 0x593 JUMP JUMPDEST PUSH1 0x40 MLOAD PUSH2 0x14B SWAP2 SWAP1 PUSH2 0x7A4 JUMP JUMPDEST PUSH1 0x40 MLOAD DUP1 SWAP2 SUB SWAP1 RETURN JUMPDEST CALLVALUE DUP1 ISZERO PUSH2 0x160 JUMPI PUSH1 0x0 DUP1 REVERT JUMPDEST POP PUSH2 0x17B PUSH1 0x4 DUP1 CALLDATASIZE SUB DUP2 ADD SWAP1 PUSH2 0x176 SWAP2 SWAP1 PUSH2 0x7EB JUMP JUMPDEST PUSH2 0x5B7 JUMP JUMPDEST PUSH1 0x40 MLOAD PUSH2 0x188 SWAP2 SWAP1 PUSH2 0x7A4 JUMP JUMPDEST PUSH1 0x40 MLOAD DUP1 SWAP2 SUB SWAP1 RETURN JUMPDEST PUSH1 0x2 PUSH1 0x20 MSTORE DUP1 PUSH1 0x0 MSTORE PUSH1 0x40 PUSH1 0x0 KECCAK256 PUSH1 0x0 SWAP2 POP SWAP1 POP SLOAD DUP2 JUMP JUMPDEST PUSH32 0x0 PUSH20 0xFFFFFFFFFFFFFFFFFFFFFFFFFFFFFFFFFFFFFFFF AND CALLER PUSH20 0xFFFFFFFFFFFFFFFFFFFFFFFFFFFFFFFFFFFFFFFF AND EQ PUSH2 0x237 JUMPI PUSH1 0x40 MLOAD PUSH32 0x8C379A000000000000000000000000000000000000000000000000000000000 DUP2 MSTORE PUSH1 0x4 ADD PUSH2 0x22E SWAP1 PUSH2 0x875 JUMP JUMPDEST PUSH1 0x40 MLOAD DUP1 SWAP2 SUB SWAP1 REVERT JUMPDEST PUSH1 0x0 JUMPDEST PUSH1 0x1 DUP1 SLOAD SWAP1 POP DUP2 LT ISZERO PUSH2 0x2E3 JUMPI PUSH1 0x0 PUSH1 0x1 DUP3 DUP2 SLOAD DUP2 LT PUSH2 0x25D JUMPI PUSH2 0x25C PUSH2 0x895 JUMP JUMPDEST JUMPDEST SWAP1 PUSH1 0x0 MSTORE PUSH1 0x20 PUSH1 0x0 KECCAK256 ADD PUSH1 0x0 SWAP1 SLOAD SWAP1 PUSH2 0x100 EXP SWAP1 DIV PUSH20 0xFFFFFFFFFFFFFFFFFFFFFFFFFFFFFFFFFFFFFFFF AND SWAP1 POP PUSH1 0x0 PUSH1 0x2 PUSH1 0x0 DUP4 PUSH20 0xFFFFFFFFFFFFFFFFFFFFFFFFFFFFFFFFFFFFFFFF AND PUSH20 0xFFFFFFFFFFFFFFFFFFFFFFFFFFFFFFFFFFFFFFFF AND DUP2 MSTORE PUSH1 0x20 ADD SWAP1 DUP2 MSTORE PUSH1 0x20 ADD PUSH1 0x0 KECCAK256 DUP2 SWAP1 SSTORE POP POP DUP1 DUP1 PUSH2 0x2DB SWAP1 PUSH2 0x8F3 JUMP JUMPDEST SWAP2 POP POP PUSH2 0x23A JUMP JUMPDEST POP PUSH1 0x0 PUSH8 0xFFFFFFFFFFFFFFFF DUP2 GT ISZERO PUSH2 0x2FF JUMPI PUSH2 0x2FE PUSH2 0x93C JUMP JUMPDEST JUMPDEST PUSH1 0x40 MLOAD SWAP1 DUP1 DUP3 MSTORE DUP1 PUSH1 0x20 MUL PUSH1 0x20 ADD DUP3 ADD PUSH1 0x40 MSTORE DUP1 ISZERO PUSH2 0x32D JUMPI DUP2 PUSH1 0x20 ADD PUSH1 0x20 DUP3 MUL DUP1 CALLDATASIZE DUP4 CALLDATACOPY DUP1 DUP3 ADD SWAP2 POP POP SWAP1 POP JUMPDEST POP PUSH1 0x1 SWAP1 DUP1 MLOAD SWAP1 PUSH1 0x20 ADD SWAP1 PUSH2 0x343 SWAP3 SWAP2 SWAP1 PUSH2 0x5F6 JUMP JUMPDEST POP PUSH1 0x0 CALLER PUSH20 0xFFFFFFFFFFFFFFFFFFFFFFFFFFFFFFFFFFFFFFFF AND SELFBALANCE PUSH1 0x40 MLOAD PUSH2 0x36A SWAP1 PUSH2 0x99C JUMP JUMPDEST PUSH1 0x0 PUSH1 0x40 MLOAD DUP1 DUP4 SUB DUP2 DUP6 DUP8 GAS CALL SWAP3 POP POP POP RETURNDATASIZE DUP1 PUSH1 0x0 DUP2 EQ PUSH2 0x3A7 JUMPI PUSH1 0x40 MLOAD SWAP2 POP PUSH1 0x1F NOT PUSH1 0x3F RETURNDATASIZE ADD AND DUP3 ADD PUSH1 0x40 MSTORE RETURNDATASIZE DUP3 MSTORE RETURNDATASIZE PUSH1 0x0 PUSH1 0x20 DUP5 ADD RETURNDATACOPY PUSH2 0x3AC JUMP JUMPDEST PUSH1 0x60 SWAP2 POP JUMPDEST POP POP SWAP1 POP DUP1 PUSH2 0x3F0 JUMPI PUSH1 0x40 MLOAD PUSH32 0x8C379A000000000000000000000000000000000000000000000000000000000 DUP2 MSTORE PUSH1 0x4 ADD PUSH2 0x3E7 SWAP1 PUSH2 0x9FD JUMP JUMPDEST PUSH1 0x40 MLOAD DUP1 SWAP2 SUB SWAP1 REVERT JUMPDEST POP JUMP JUMPDEST PUSH8 0xDE0B6B3A7640000 DUP2 JUMP JUMPDEST PUSH8 0xDE0B6B3A7640000 CALLVALUE PUSH20 0x0 PUSH4 0x535BE4F9 SWAP1 SWAP2 PUSH1 0x40 MLOAD DUP3 PUSH4 0xFFFFFFFF AND PUSH1 0xE0 SHL DUP2 MSTORE PUSH1 0x4 ADD PUSH2 0x441 SWAP2 SWAP1 PUSH2 0xA2C JUMP JUMPDEST PUSH1 0x20 PUSH1 0x40 MLOAD DUP1 DUP4 SUB DUP2 DUP7 DUP1 EXTCODESIZE ISZERO DUP1 ISZERO PUSH2 0x459 JUMPI PUSH1 0x0 DUP1 REVERT JUMPDEST POP GAS DELEGATECALL ISZERO DUP1 ISZERO PUSH2 0x46D JUMPI RETURNDATASIZE PUSH1 0x0 DUP1 RETURNDATACOPY RETURNDATASIZE PUSH1 0x0 REVERT JUMPDEST POP POP POP POP PUSH1 0x40 MLOAD RETURNDATASIZE PUSH1 0x1F NOT PUSH1 0x1F DUP3 ADD AND DUP3 ADD DUP1 PUSH1 0x40 MSTORE POP DUP2 ADD SWAP1 PUSH2 0x491 SWAP2 SWAP1 PUSH2 0xA5C JUMP JUMPDEST LT ISZERO PUSH2 0x4D2 JUMPI PUSH1 0x40 MLOAD PUSH32 0x8C379A000000000000000000000000000000000000000000000000000000000 DUP2 MSTORE PUSH1 0x4 ADD PUSH2 0x4C9 SWAP1 PUSH2 0xAD5 JUMP JUMPDEST PUSH1 0x40 MLOAD DUP1 SWAP2 SUB SWAP1 REVERT JUMPDEST PUSH1 0x1 CALLER SWAP1 DUP1 PUSH1 0x1 DUP2 SLOAD ADD DUP1 DUP3 SSTORE DUP1 SWAP2 POP POP PUSH1 0x1 SWAP1 SUB SWAP1 PUSH1 0x0 MSTORE PUSH1 0x20 PUSH1 0x0 KECCAK256 ADD PUSH1 0x0 SWAP1 SWAP2 SWAP1 SWAP2 SWAP1 SWAP2 PUSH2 0x100 EXP DUP2 SLOAD DUP2 PUSH20 0xFFFFFFFFFFFFFFFFFFFFFFFFFFFFFFFFFFFFFFFF MUL NOT AND SWAP1 DUP4 PUSH20 0xFFFFFFFFFFFFFFFFFFFFFFFFFFFFFFFFFFFFFFFF AND MUL OR SWAP1 SSTORE POP CALLVALUE PUSH1 0x2 PUSH1 0x0 CALLER PUSH20 0xFFFFFFFFFFFFFFFFFFFFFFFFFFFFFFFFFFFFFFFF AND PUSH20 0xFFFFFFFFFFFFFFFFFFFFFFFFFFFFFFFFFFFFFFFF AND DUP2 MSTORE PUSH1 0x20 ADD SWAP1 DUP2 MSTORE PUSH1 0x20 ADD PUSH1 0x0 KECCAK256 PUSH1 0x0 DUP3 DUP3 SLOAD PUSH2 0x584 SWAP2 SWAP1 PUSH2 0xAF5 JUMP JUMPDEST SWAP3 POP POP DUP2 SWAP1 SSTORE POP JUMP JUMPDEST PUSH1 0x0 SLOAD DUP2 JUMP JUMPDEST PUSH32 0x0 DUP2 JUMP JUMPDEST PUSH1 0x1 DUP2 DUP2 SLOAD DUP2 LT PUSH2 0x5C7 JUMPI PUSH1 0x0 DUP1 REVERT JUMPDEST SWAP1 PUSH1 0x0 MSTORE PUSH1 0x20 PUSH1 0x0 KECCAK256 ADD PUSH1 0x0 SWAP2 POP SLOAD SWAP1 PUSH2 0x100 EXP SWAP1 DIV PUSH20 0xFFFFFFFFFFFFFFFFFFFFFFFFFFFFFFFFFFFFFFFF AND DUP2 JUMP JUMPDEST DUP3 DUP1 SLOAD DUP3 DUP3 SSTORE SWAP1 PUSH1 0x0 MSTORE PUSH1 0x20 PUSH1 0x0 KECCAK256 SWAP1 DUP2 ADD SWAP3 DUP3 ISZERO PUSH2 0x66F JUMPI SWAP2 PUSH1 0x20 MUL DUP3 ADD JUMPDEST DUP3 DUP2 GT ISZERO PUSH2 0x66E JUMPI DUP3 MLOAD DUP3 PUSH1 0x0 PUSH2 0x100 EXP DUP2 SLOAD DUP2 PUSH20 0xFFFFFFFFFFFFFFFFFFFFFFFFFFFFFFFFFFFFFFFF MUL NOT AND SWAP1 DUP4 PUSH20 0xFFFFFFFFFFFFFFFFFFFFFFFFFFFFFFFFFFFFFFFF AND MUL OR SWAP1 SSTORE POP SWAP2 PUSH1 0x20 ADD SWAP2 SWAP1 PUSH1 0x1 ADD SWAP1 PUSH2 0x616 JUMP JUMPDEST JUMPDEST POP SWAP1 POP PUSH2 0x67C SWAP2 SWAP1 PUSH2 0x680 JUMP JUMPDEST POP SWAP1 JUMP JUMPDEST JUMPDEST DUP1 DUP3 GT ISZERO PUSH2 0x699 JUMPI PUSH1 0x0 DUP2 PUSH1 0x0 SWAP1 SSTORE POP PUSH1 0x1 ADD PUSH2 0x681 JUMP JUMPDEST POP SWAP1 JUMP JUMPDEST PUSH1 0x0 DUP1 REVERT JUMPDEST PUSH1 0x0 PUSH20 0xFFFFFFFFFFFFFFFFFFFFFFFFFFFFFFFFFFFFFFFF DUP3 AND SWAP1 POP SWAP2 SWAP1 POP JUMP JUMPDEST PUSH1 0x0 PUSH2 0x6CD DUP3 PUSH2 0x6A2 JUMP JUMPDEST SWAP1 POP SWAP2 SWAP1 POP JUMP JUMPDEST PUSH2 0x6DD DUP2 PUSH2 0x6C2 JUMP JUMPDEST DUP2 EQ PUSH2 0x6E8 JUMPI PUSH1 0x0 DUP1 REVERT JUMPDEST POP JUMP JUMPDEST PUSH1 0x0 DUP2 CALLDATALOAD SWAP1 POP PUSH2 0x6FA DUP2 PUSH2 0x6D4 JUMP JUMPDEST SWAP3 SWAP2 POP POP JUMP JUMPDEST PUSH1 0x0 PUSH1 0x20 DUP3 DUP5 SUB SLT ISZERO PUSH2 0x716 JUMPI PUSH2 0x715 PUSH2 0x69D JUMP JUMPDEST JUMPDEST PUSH1 0x0 PUSH2 0x724 DUP5 DUP3 DUP6 ADD PUSH2 0x6EB JUMP JUMPDEST SWAP2 POP POP SWAP3 SWAP2 POP POP JUMP JUMPDEST PUSH1 0x0 DUP2 SWAP1 POP SWAP2 SWAP1 POP JUMP JUMPDEST PUSH2 0x740 DUP2 PUSH2 0x72D JUMP JUMPDEST DUP3 MSTORE POP POP JUMP JUMPDEST PUSH1 0x0 PUSH1 0x20 DUP3 ADD SWAP1 POP PUSH2 0x75B PUSH1 0x0 DUP4 ADD DUP5 PUSH2 0x737 JUMP JUMPDEST SWAP3 SWAP2 POP POP JUMP JUMPDEST PUSH1 0x0 DUP2 SWAP1 POP SWAP2 SWAP1 POP JUMP JUMPDEST PUSH2 0x774 DUP2 PUSH2 0x761 JUMP JUMPDEST DUP3 MSTORE POP POP JUMP JUMPDEST PUSH1 0x0 PUSH1 0x20 DUP3 ADD SWAP1 POP PUSH2 0x78F PUSH1 0x0 DUP4 ADD DUP5 PUSH2 0x76B JUMP JUMPDEST SWAP3 SWAP2 POP POP JUMP JUMPDEST PUSH2 0x79E DUP2 PUSH2 0x6C2 JUMP JUMPDEST DUP3 MSTORE POP POP JUMP JUMPDEST PUSH1 0x0 PUSH1 0x20 DUP3 ADD SWAP1 POP PUSH2 0x7B9 PUSH1 0x0 DUP4 ADD DUP5 PUSH2 0x795 JUMP JUMPDEST SWAP3 SWAP2 POP POP JUMP JUMPDEST PUSH2 0x7C8 DUP2 PUSH2 0x72D JUMP JUMPDEST DUP2 EQ PUSH2 0x7D3 JUMPI PUSH1 0x0 DUP1 REVERT JUMPDEST POP JUMP JUMPDEST PUSH1 0x0 DUP2 CALLDATALOAD SWAP1 POP PUSH2 0x7E5 DUP2 PUSH2 0x7BF JUMP JUMPDEST SWAP3 SWAP2 POP POP JUMP JUMPDEST PUSH1 0x0 PUSH1 0x20 DUP3 DUP5 SUB SLT ISZERO PUSH2 0x801 JUMPI PUSH2 0x800 PUSH2 0x69D JUMP JUMPDEST JUMPDEST PUSH1 0x0 PUSH2 0x80F DUP5 DUP3 DUP6 ADD PUSH2 0x7D6 JUMP JUMPDEST SWAP2 POP POP SWAP3 SWAP2 POP POP JUMP JUMPDEST PUSH1 0x0 DUP3 DUP3 MSTORE PUSH1 0x20 DUP3 ADD SWAP1 POP SWAP3 SWAP2 POP POP JUMP JUMPDEST PUSH32 0x53656E646572206973206E6F7420746865206F776E6572000000000000000000 PUSH1 0x0 DUP3 ADD MSTORE POP JUMP JUMPDEST PUSH1 0x0 PUSH2 0x85F PUSH1 0x17 DUP4 PUSH2 0x818 JUMP JUMPDEST SWAP2 POP PUSH2 0x86A DUP3 PUSH2 0x829 JUMP JUMPDEST PUSH1 0x20 DUP3 ADD SWAP1 POP SWAP2 SWAP1 POP JUMP JUMPDEST PUSH1 0x0 PUSH1 0x20 DUP3 ADD SWAP1 POP DUP2 DUP2 SUB PUSH1 0x0 DUP4 ADD MSTORE PUSH2 0x88E DUP2 PUSH2 0x852 JUMP JUMPDEST SWAP1 POP SWAP2 SWAP1 POP JUMP JUMPDEST PUSH32 0x4E487B7100000000000000000000000000000000000000000000000000000000 PUSH1 0x0 MSTORE PUSH1 0x32 PUSH1 0x4 MSTORE PUSH1 0x24 PUSH1 0x0 REVERT JUMPDEST PUSH32 0x4E487B7100000000000000000000000000000000000000000000000000000000 PUSH1 0x0 MSTORE PUSH1 0x11 PUSH1 0x4 MSTORE PUSH1 0x24 PUSH1 0x0 REVERT JUMPDEST PUSH1 0x0 PUSH2 0x8FE DUP3 PUSH2 0x72D JUMP JUMPDEST SWAP2 POP PUSH32 0xFFFFFFFFFFFFFFFFFFFFFFFFFFFFFFFFFFFFFFFFFFFFFFFFFFFFFFFFFFFFFFFF DUP3 EQ ISZERO PUSH2 0x931 JUMPI PUSH2 0x930 PUSH2 0x8C4 JUMP JUMPDEST JUMPDEST PUSH1 0x1 DUP3 ADD SWAP1 POP SWAP2 SWAP1 POP JUMP JUMPDEST PUSH32 0x4E487B7100000000000000000000000000000000000000000000000000000000 PUSH1 0x0 MSTORE PUSH1 0x41 PUSH1 0x4 MSTORE PUSH1 0x24 PUSH1 0x0 REVERT JUMPDEST PUSH1 0x0 DUP2 SWAP1 POP SWAP3 SWAP2 POP POP JUMP JUMPDEST POP JUMP JUMPDEST PUSH1 0x0 PUSH2 0x986 PUSH1 0x0 DUP4 PUSH2 0x96B JUMP JUMPDEST SWAP2 POP PUSH2 0x991 DUP3 PUSH2 0x976 JUMP JUMPDEST PUSH1 0x0 DUP3 ADD SWAP1 POP SWAP2 SWAP1 POP JUMP JUMPDEST PUSH1 0x0 PUSH2 0x9A7 DUP3 PUSH2 0x979 JUMP JUMPDEST SWAP2 POP DUP2 SWAP1 POP SWAP2 SWAP1 POP JUMP JUMPDEST PUSH32 0x43616C6C206661696C6564000000000000000000000000000000000000000000 PUSH1 0x0 DUP3 ADD MSTORE POP JUMP JUMPDEST PUSH1 0x0 PUSH2 0x9E7 PUSH1 0xB DUP4 PUSH2 0x818 JUMP JUMPDEST SWAP2 POP PUSH2 0x9F2 DUP3 PUSH2 0x9B1 JUMP JUMPDEST PUSH1 0x20 DUP3 ADD SWAP1 POP SWAP2 SWAP1 POP JUMP JUMPDEST PUSH1 0x0 PUSH1 0x20 DUP3 ADD SWAP1 POP DUP2 DUP2 SUB PUSH1 0x0 DUP4 ADD MSTORE PUSH2 0xA16 DUP2 PUSH2 0x9DA JUMP JUMPDEST SWAP1 POP SWAP2 SWAP1 POP JUMP JUMPDEST PUSH2 0xA26 DUP2 PUSH2 0x72D JUMP JUMPDEST DUP3 MSTORE POP POP JUMP JUMPDEST PUSH1 0x0 PUSH1 0x20 DUP3 ADD SWAP1 POP PUSH2 0xA41 PUSH1 0x0 DUP4 ADD DUP5 PUSH2 0xA1D JUMP JUMPDEST SWAP3 SWAP2 POP POP JUMP JUMPDEST PUSH1 0x0 DUP2 MLOAD SWAP1 POP PUSH2 0xA56 DUP2 PUSH2 0x7BF JUMP JUMPDEST SWAP3 SWAP2 POP POP JUMP JUMPDEST PUSH1 0x0 PUSH1 0x20 DUP3 DUP5 SUB SLT ISZERO PUSH2 0xA72 JUMPI PUSH2 0xA71 PUSH2 0x69D JUMP JUMPDEST JUMPDEST PUSH1 0x0 PUSH2 0xA80 DUP5 DUP3 DUP6 ADD PUSH2 0xA47 JUMP JUMPDEST SWAP2 POP POP SWAP3 SWAP2 POP POP JUMP JUMPDEST PUSH32 0x6E6F7420656E6F7567682066756E640000000000000000000000000000000000 PUSH1 0x0 DUP3 ADD MSTORE POP JUMP JUMPDEST PUSH1 0x0 PUSH2 0xABF PUSH1 0xF DUP4 PUSH2 0x818 JUMP JUMPDEST SWAP2 POP PUSH2 0xACA DUP3 PUSH2 0xA89 JUMP JUMPDEST PUSH1 0x20 DUP3 ADD SWAP1 POP SWAP2 SWAP1 POP JUMP JUMPDEST PUSH1 0x0 PUSH1 0x20 DUP3 ADD SWAP1 POP DUP2 DUP2 SUB PUSH1 0x0 DUP4 ADD MSTORE PUSH2 0xAEE DUP2 PUSH2 0xAB2 JUMP JUMPDEST SWAP1 POP SWAP2 SWAP1 POP JUMP JUMPDEST PUSH1 0x0 PUSH2 0xB00 DUP3 PUSH2 0x72D JUMP JUMPDEST SWAP2 POP PUSH2 0xB0B DUP4 PUSH2 0x72D JUMP JUMPDEST SWAP3 POP DUP3 PUSH32 0xFFFFFFFFFFFFFFFFFFFFFFFFFFFFFFFFFFFFFFFFFFFFFFFFFFFFFFFFFFFFFFFF SUB DUP3 GT ISZERO PUSH2 0xB40 JUMPI PUSH2 0xB3F PUSH2 0x8C4 JUMP JUMPDEST JUMPDEST DUP3 DUP3 ADD SWAP1 POP SWAP3 SWAP2 POP POP JUMP INVALID LOG2 PUSH5 0x6970667358 0x22 SLT KECCAK256 0xCC 0xAC JUMPI 0x2F BYTE 0xB8 NUMBER DIV 0xDE SWAP2 PC 0x26 PUSH12 0x198101EAEC92550E19417BC5 GT 0xF8 0xC0 0x27 0xC0 MSIZE 0x2B PUSH5 0x736F6C6343 STOP ADDMOD ADDMOD STOP CALLER "
				},
				"gasEstimates": {
					"creation": {
						"codeDepositCost": "589000",
						"executionCost": "infinite",
						"totalCost": "infinite"
					},
					"external": {
						"MINIMUM_USD()": "374",
						"favNumber()": "2451",
						"fund()": "infinite",
						"funderAddressToAmount(address)": "2815",
						"funders(uint256)": "5022",
						"i_owner()": "infinite",
						"withdraw()": "infinite"
					}
				},
				"methodIdentifiers": {
					"MINIMUM_USD()": "6b69a592",
					"favNumber()": "c7a0d9f6",
					"fund()": "b60d4288",
					"funderAddressToAmount(address)": "132ebbd6",
					"funders(uint256)": "dc0d3dff",
					"i_owner()": "dba6335f",
					"withdraw()": "3ccfd60b"
				}
			},
			"storageLayout": {
				"storage": [
					{
						"astId": 53,
						"contract": "contracts/FundMe.sol:FundMe",
						"label": "favNumber",
						"offset": 0,
						"slot": "0",
						"type": "t_int256"
					},
					{
						"astId": 61,
						"contract": "contracts/FundMe.sol:FundMe",
						"label": "funders",
						"offset": 0,
						"slot": "1",
						"type": "t_array(t_address)dyn_storage"
					},
					{
						"astId": 67,
						"contract": "contracts/FundMe.sol:FundMe",
						"label": "funderAddressToAmount",
						"offset": 0,
						"slot": "2",
						"type": "t_mapping(t_address,t_uint256)"
					}
				],
				"types": {
					"t_address": {
						"encoding": "inplace",
						"label": "address",
						"numberOfBytes": "20"
					},
					"t_array(t_address)dyn_storage": {
						"base": "t_address",
						"encoding": "dynamic_array",
						"label": "address[]",
						"numberOfBytes": "32"
					},
					"t_int256": {
						"encoding": "inplace",
						"label": "int256",
						"numberOfBytes": "32"
					},
					"t_mapping(t_address,t_uint256)": {
						"encoding": "mapping",
						"key": "t_address",
						"label": "mapping(address => uint256)",
						"numberOfBytes": "32",
						"value": "t_uint256"
					},
					"t_uint256": {
						"encoding": "inplace",
						"label": "uint256",
						"numberOfBytes": "32"
					}
				}
			},
			"userdoc": {
				"kind": "user",
				"methods": {},
				"version": 1
			}
		}
	}
}