{
	"contracts/FundMe.sol": {
		"FundMe": {
			"abi": [
				{
					"inputs": [],
					"stateMutability": "nonpayable",
					"type": "constructor"
				},
				{
					"inputs": [
						{
							"internalType": "uint256",
							"name": "ethValue",
							"type": "uint256"
						}
					],
					"name": "convertEthToDollars",
					"outputs": [
						{
							"internalType": "uint256",
							"name": "",
							"type": "uint256"
						}
					],
					"stateMutability": "view",
					"type": "function"
				},
				{
					"inputs": [],
					"name": "favNumber",
					"outputs": [
						{
							"internalType": "int256",
							"name": "",
							"type": "int256"
						}
					],
					"stateMutability": "view",
					"type": "function"
				},
				{
					"inputs": [],
					"name": "feedAddress",
					"outputs": [
						{
							"internalType": "address",
							"name": "",
							"type": "address"
						}
					],
					"stateMutability": "view",
					"type": "function"
				},
				{
					"inputs": [],
					"name": "fund",
					"outputs": [],
					"stateMutability": "payable",
					"type": "function"
				},
				{
					"inputs": [],
					"name": "getDecimalsInReturnedValueByThePriceFeed",
					"outputs": [
						{
							"internalType": "uint8",
							"name": "",
							"type": "uint8"
						}
					],
					"stateMutability": "view",
					"type": "function"
				},
				{
					"inputs": [],
					"name": "getLatestPriceOfEthInUSD",
					"outputs": [
						{
							"internalType": "int256",
							"name": "",
							"type": "int256"
						}
					],
					"stateMutability": "view",
					"type": "function"
				},
				{
					"inputs": [],
					"name": "minimumUSDToSend",
					"outputs": [
						{
							"internalType": "uint256",
							"name": "",
							"type": "uint256"
						}
					],
					"stateMutability": "view",
					"type": "function"
				}
			],
			"devdoc": {
				"kind": "dev",
				"methods": {},
				"version": 1
			},
			"evm": {
				"assembly": "    /* \"contracts/FundMe.sol\":136:1144  contract FundMe{... */\n  mstore(0x40, 0x80)\n    /* \"contracts/FundMe.sol\":220:228  1 * 1e18 */\n  0x0de0b6b3a7640000\n    /* \"contracts/FundMe.sol\":186:228  uint256 public minimumUSDToSend = 1 * 1e18 */\n  0x01\n  sstore\n    /* \"contracts/FundMe.sol\":264:306  0x8A753747A1Fa494EC906cE90E9f37563A8AF630e */\n  0x8a753747a1fa494ec906ce90e9f37563a8af630e\n    /* \"contracts/FundMe.sol\":235:306  address public feedAddress = 0x8A753747A1Fa494EC906cE90E9f37563A8AF630e */\n  0x02\n  exp(0x0100, 0x00)\n  dup2\n  sload\n  dup2\n  0xffffffffffffffffffffffffffffffffffffffff\n  mul\n  not\n  and\n  swap1\n  dup4\n  0xffffffffffffffffffffffffffffffffffffffff\n  and\n  mul\n  or\n  swap1\n  sstore\n  pop\n    /* \"contracts/FundMe.sol\":500:579  constructor() {... */\n  callvalue\n  dup1\n  iszero\n  tag_1\n  jumpi\n  0x00\n  dup1\n  revert\ntag_1:\n  pop\n    /* \"contracts/FundMe.sol\":559:570  feedAddress */\n  0x02\n  0x00\n  swap1\n  sload\n  swap1\n  0x0100\n  exp\n  swap1\n  div\n  0xffffffffffffffffffffffffffffffffffffffff\n  and\n    /* \"contracts/FundMe.sol\":525:534  priceFeed */\n  0x03\n  0x00\n    /* \"contracts/FundMe.sol\":525:571  priceFeed = AggregatorV3Interface(feedAddress) */\n  0x0100\n  exp\n  dup2\n  sload\n  dup2\n  0xffffffffffffffffffffffffffffffffffffffff\n  mul\n  not\n  and\n  swap1\n  dup4\n  0xffffffffffffffffffffffffffffffffffffffff\n  and\n  mul\n  or\n  swap1\n  sstore\n  pop\n    /* \"contracts/FundMe.sol\":136:1144  contract FundMe{... */\n  dataSize(sub_0)\n  dup1\n  dataOffset(sub_0)\n  0x00\n  codecopy\n  0x00\n  return\nstop\n\nsub_0: assembly {\n        /* \"contracts/FundMe.sol\":136:1144  contract FundMe{... */\n      mstore(0x40, 0x80)\n      jumpi(tag_1, lt(calldatasize, 0x04))\n      shr(0xe0, calldataload(0x00))\n      dup1\n      0x8e5d6157\n      gt\n      tag_9\n      jumpi\n      dup1\n      0x8e5d6157\n      eq\n      tag_5\n      jumpi\n      dup1\n      0xad93f57a\n      eq\n      tag_6\n      jumpi\n      dup1\n      0xb60d4288\n      eq\n      tag_7\n      jumpi\n      dup1\n      0xc7a0d9f6\n      eq\n      tag_8\n      jumpi\n      jump(tag_1)\n    tag_9:\n      dup1\n      0x11ae655a\n      eq\n      tag_2\n      jumpi\n      dup1\n      0x29c36bb5\n      eq\n      tag_3\n      jumpi\n      dup1\n      0x535be4f9\n      eq\n      tag_4\n      jumpi\n    tag_1:\n      0x00\n      dup1\n      revert\n        /* \"contracts/FundMe.sol\":186:228  uint256 public minimumUSDToSend = 1 * 1e18 */\n    tag_2:\n      callvalue\n      dup1\n      iszero\n      tag_10\n      jumpi\n      0x00\n      dup1\n      revert\n    tag_10:\n      pop\n      tag_11\n      tag_12\n      jump\t// in\n    tag_11:\n      mload(0x40)\n      tag_13\n      swap2\n      swap1\n      tag_14\n      jump\t// in\n    tag_13:\n      mload(0x40)\n      dup1\n      swap2\n      sub\n      swap1\n      return\n        /* \"contracts/FundMe.sol\":235:306  address public feedAddress = 0x8A753747A1Fa494EC906cE90E9f37563A8AF630e */\n    tag_3:\n      callvalue\n      dup1\n      iszero\n      tag_15\n      jumpi\n      0x00\n      dup1\n      revert\n    tag_15:\n      pop\n      tag_16\n      tag_17\n      jump\t// in\n    tag_16:\n      mload(0x40)\n      tag_18\n      swap2\n      swap1\n      tag_19\n      jump\t// in\n    tag_18:\n      mload(0x40)\n      dup1\n      swap2\n      sub\n      swap1\n      return\n        /* \"contracts/FundMe.sol\":587:845  function convertEthToDollars(uint256 ethValue) public view returns (uint256){... */\n    tag_4:\n      callvalue\n      dup1\n      iszero\n      tag_20\n      jumpi\n      0x00\n      dup1\n      revert\n    tag_20:\n      pop\n      tag_21\n      0x04\n      dup1\n      calldatasize\n      sub\n      dup2\n      add\n      swap1\n      tag_22\n      swap2\n      swap1\n      tag_23\n      jump\t// in\n    tag_22:\n      tag_24\n      jump\t// in\n    tag_21:\n      mload(0x40)\n      tag_25\n      swap2\n      swap1\n      tag_14\n      jump\t// in\n    tag_25:\n      mload(0x40)\n      dup1\n      swap2\n      sub\n      swap1\n      return\n        /* \"contracts/FundMe.sol\":855:1010  function getLatestPriceOfEthInUSD() public view returns (int256) {... */\n    tag_5:\n      callvalue\n      dup1\n      iszero\n      tag_26\n      jumpi\n      0x00\n      dup1\n      revert\n    tag_26:\n      pop\n      tag_27\n      tag_28\n      jump\t// in\n    tag_27:\n      mload(0x40)\n      tag_29\n      swap2\n      swap1\n      tag_30\n      jump\t// in\n    tag_29:\n      mload(0x40)\n      dup1\n      swap2\n      sub\n      swap1\n      return\n        /* \"contracts/FundMe.sol\":1016:1141  function getDecimalsInReturnedValueByThePriceFeed() public view returns (uint8){... */\n    tag_6:\n      callvalue\n      dup1\n      iszero\n      tag_31\n      jumpi\n      0x00\n      dup1\n      revert\n    tag_31:\n      pop\n      tag_32\n      tag_33\n      jump\t// in\n    tag_32:\n      mload(0x40)\n      tag_34\n      swap2\n      swap1\n      tag_35\n      jump\t// in\n    tag_34:\n      mload(0x40)\n      dup1\n      swap2\n      sub\n      swap1\n      return\n        /* \"contracts/FundMe.sol\":360:488  function fund () public payable{... */\n    tag_7:\n      tag_36\n      tag_37\n      jump\t// in\n    tag_36:\n      stop\n        /* \"contracts/FundMe.sol\":158:178  int public favNumber */\n    tag_8:\n      callvalue\n      dup1\n      iszero\n      tag_38\n      jumpi\n      0x00\n      dup1\n      revert\n    tag_38:\n      pop\n      tag_39\n      tag_40\n      jump\t// in\n    tag_39:\n      mload(0x40)\n      tag_41\n      swap2\n      swap1\n      tag_30\n      jump\t// in\n    tag_41:\n      mload(0x40)\n      dup1\n      swap2\n      sub\n      swap1\n      return\n        /* \"contracts/FundMe.sol\":186:228  uint256 public minimumUSDToSend = 1 * 1e18 */\n    tag_12:\n      sload(0x01)\n      dup2\n      jump\t// out\n        /* \"contracts/FundMe.sol\":235:306  address public feedAddress = 0x8A753747A1Fa494EC906cE90E9f37563A8AF630e */\n    tag_17:\n      0x02\n      0x00\n      swap1\n      sload\n      swap1\n      0x0100\n      exp\n      swap1\n      div\n      0xffffffffffffffffffffffffffffffffffffffff\n      and\n      dup2\n      jump\t// out\n        /* \"contracts/FundMe.sol\":587:845  function convertEthToDollars(uint256 ethValue) public view returns (uint256){... */\n    tag_24:\n        /* \"contracts/FundMe.sol\":655:662  uint256 */\n      0x00\n        /* \"contracts/FundMe.sol\":674:692  uint256 priceInUSD */\n      dup1\n        /* \"contracts/FundMe.sol\":703:729  getLatestPriceOfEthInUSD() */\n      tag_43\n        /* \"contracts/FundMe.sol\":703:727  getLatestPriceOfEthInUSD */\n      tag_28\n        /* \"contracts/FundMe.sol\":703:729  getLatestPriceOfEthInUSD() */\n      jump\t// in\n    tag_43:\n        /* \"contracts/FundMe.sol\":674:730  uint256 priceInUSD = uint256(getLatestPriceOfEthInUSD()) */\n      swap1\n      pop\n        /* \"contracts/FundMe.sol\":833:837  1e18 */\n      0x0de0b6b3a7640000\n        /* \"contracts/FundMe.sol\":822:830  ethValue */\n      dup4\n        /* \"contracts/FundMe.sol\":775:817  getDecimalsInReturnedValueByThePriceFeed() */\n      tag_44\n        /* \"contracts/FundMe.sol\":775:815  getDecimalsInReturnedValueByThePriceFeed */\n      tag_33\n        /* \"contracts/FundMe.sol\":775:817  getDecimalsInReturnedValueByThePriceFeed() */\n      jump\t// in\n    tag_44:\n        /* \"contracts/FundMe.sol\":770:772  18 */\n      0x12\n        /* \"contracts/FundMe.sol\":770:817  18 - getDecimalsInReturnedValueByThePriceFeed() */\n      tag_45\n      swap2\n      swap1\n      tag_46\n      jump\t// in\n    tag_45:\n        /* \"contracts/FundMe.sol\":763:765  10 */\n      0x0a\n        /* \"contracts/FundMe.sol\":763:818  10 ** (18 - getDecimalsInReturnedValueByThePriceFeed()) */\n      tag_47\n      swap2\n      swap1\n      tag_48\n      jump\t// in\n    tag_47:\n        /* \"contracts/FundMe.sol\":749:759  priceInUSD */\n      dup4\n        /* \"contracts/FundMe.sol\":749:819  priceInUSD * (10 ** (18 - getDecimalsInReturnedValueByThePriceFeed())) */\n      tag_49\n      swap2\n      swap1\n      tag_50\n      jump\t// in\n    tag_49:\n        /* \"contracts/FundMe.sol\":749:830  priceInUSD * (10 ** (18 - getDecimalsInReturnedValueByThePriceFeed())) * ethValue */\n      tag_51\n      swap2\n      swap1\n      tag_50\n      jump\t// in\n    tag_51:\n        /* \"contracts/FundMe.sol\":748:837  (priceInUSD * (10 ** (18 - getDecimalsInReturnedValueByThePriceFeed())) * ethValue) /1e18 */\n      tag_52\n      swap2\n      swap1\n      tag_53\n      jump\t// in\n    tag_52:\n        /* \"contracts/FundMe.sol\":741:837  return (priceInUSD * (10 ** (18 - getDecimalsInReturnedValueByThePriceFeed())) * ethValue) /1e18 */\n      swap2\n      pop\n      pop\n        /* \"contracts/FundMe.sol\":587:845  function convertEthToDollars(uint256 ethValue) public view returns (uint256){... */\n      swap2\n      swap1\n      pop\n      jump\t// out\n        /* \"contracts/FundMe.sol\":855:1010  function getLatestPriceOfEthInUSD() public view returns (int256) {... */\n    tag_28:\n        /* \"contracts/FundMe.sol\":912:918  int256 */\n      0x00\n        /* \"contracts/FundMe.sol\":933:945  int256 price */\n      dup1\n        /* \"contracts/FundMe.sol\":952:961  priceFeed */\n      0x03\n      0x00\n      swap1\n      sload\n      swap1\n      0x0100\n      exp\n      swap1\n      div\n      0xffffffffffffffffffffffffffffffffffffffff\n      and\n        /* \"contracts/FundMe.sol\":952:977  priceFeed.latestRoundData */\n      0xffffffffffffffffffffffffffffffffffffffff\n      and\n      0xfeaf968c\n        /* \"contracts/FundMe.sol\":952:979  priceFeed.latestRoundData() */\n      mload(0x40)\n      dup2\n      0xffffffff\n      and\n      0xe0\n      shl\n      dup2\n      mstore\n      0x04\n      add\n      0xa0\n      mload(0x40)\n      dup1\n      dup4\n      sub\n      dup2\n      dup7\n      dup1\n      extcodesize\n      iszero\n      dup1\n      iszero\n      tag_55\n      jumpi\n      0x00\n      dup1\n      revert\n    tag_55:\n      pop\n      gas\n      staticcall\n      iszero\n      dup1\n      iszero\n      tag_57\n      jumpi\n      returndatasize\n      0x00\n      dup1\n      returndatacopy\n      revert(0x00, returndatasize)\n    tag_57:\n      pop\n      pop\n      pop\n      pop\n      mload(0x40)\n      returndatasize\n      not(0x1f)\n      0x1f\n      dup3\n      add\n      and\n      dup3\n      add\n      dup1\n      0x40\n      mstore\n      pop\n      dup2\n      add\n      swap1\n      tag_58\n      swap2\n      swap1\n      tag_59\n      jump\t// in\n    tag_58:\n        /* \"contracts/FundMe.sol\":931:979  (,int256 price,,,) = priceFeed.latestRoundData() */\n      pop\n      pop\n      pop\n      swap2\n      pop\n      pop\n        /* \"contracts/FundMe.sol\":997:1002  price */\n      dup1\n        /* \"contracts/FundMe.sol\":990:1002  return price */\n      swap2\n      pop\n      pop\n        /* \"contracts/FundMe.sol\":855:1010  function getLatestPriceOfEthInUSD() public view returns (int256) {... */\n      swap1\n      jump\t// out\n        /* \"contracts/FundMe.sol\":1016:1141  function getDecimalsInReturnedValueByThePriceFeed() public view returns (uint8){... */\n    tag_33:\n        /* \"contracts/FundMe.sol\":1089:1094  uint8 */\n      0x00\n        /* \"contracts/FundMe.sol\":1113:1122  priceFeed */\n      0x03\n      0x00\n      swap1\n      sload\n      swap1\n      0x0100\n      exp\n      swap1\n      div\n      0xffffffffffffffffffffffffffffffffffffffff\n      and\n        /* \"contracts/FundMe.sol\":1113:1131  priceFeed.decimals */\n      0xffffffffffffffffffffffffffffffffffffffff\n      and\n      0x313ce567\n        /* \"contracts/FundMe.sol\":1113:1133  priceFeed.decimals() */\n      mload(0x40)\n      dup2\n      0xffffffff\n      and\n      0xe0\n      shl\n      dup2\n      mstore\n      0x04\n      add\n      0x20\n      mload(0x40)\n      dup1\n      dup4\n      sub\n      dup2\n      dup7\n      dup1\n      extcodesize\n      iszero\n      dup1\n      iszero\n      tag_61\n      jumpi\n      0x00\n      dup1\n      revert\n    tag_61:\n      pop\n      gas\n      staticcall\n      iszero\n      dup1\n      iszero\n      tag_63\n      jumpi\n      returndatasize\n      0x00\n      dup1\n      returndatacopy\n      revert(0x00, returndatasize)\n    tag_63:\n      pop\n      pop\n      pop\n      pop\n      mload(0x40)\n      returndatasize\n      not(0x1f)\n      0x1f\n      dup3\n      add\n      and\n      dup3\n      add\n      dup1\n      0x40\n      mstore\n      pop\n      dup2\n      add\n      swap1\n      tag_64\n      swap2\n      swap1\n      tag_65\n      jump\t// in\n    tag_64:\n        /* \"contracts/FundMe.sol\":1106:1133  return priceFeed.decimals() */\n      swap1\n      pop\n        /* \"contracts/FundMe.sol\":1016:1141  function getDecimalsInReturnedValueByThePriceFeed() public view returns (uint8){... */\n      swap1\n      jump\t// out\n        /* \"contracts/FundMe.sol\":360:488  function fund () public payable{... */\n    tag_37:\n        /* \"contracts/FundMe.sol\":444:460  minimumUSDToSend */\n      sload(0x01)\n        /* \"contracts/FundMe.sol\":410:440  convertEthToDollars(msg.value) */\n      tag_67\n        /* \"contracts/FundMe.sol\":430:439  msg.value */\n      callvalue\n        /* \"contracts/FundMe.sol\":410:429  convertEthToDollars */\n      tag_24\n        /* \"contracts/FundMe.sol\":410:440  convertEthToDollars(msg.value) */\n      jump\t// in\n    tag_67:\n        /* \"contracts/FundMe.sol\":410:460  convertEthToDollars(msg.value) >= minimumUSDToSend */\n      lt\n      iszero\n        /* \"contracts/FundMe.sol\":402:480  require(convertEthToDollars(msg.value) >= minimumUSDToSend, \"not enough fund\") */\n      tag_68\n      jumpi\n      mload(0x40)\n      0x08c379a000000000000000000000000000000000000000000000000000000000\n      dup2\n      mstore\n      0x04\n      add\n      tag_69\n      swap1\n      tag_70\n      jump\t// in\n    tag_69:\n      mload(0x40)\n      dup1\n      swap2\n      sub\n      swap1\n      revert\n    tag_68:\n        /* \"contracts/FundMe.sol\":360:488  function fund () public payable{... */\n      jump\t// out\n        /* \"contracts/FundMe.sol\":158:178  int public favNumber */\n    tag_40:\n      sload(0x00)\n      dup2\n      jump\t// out\n        /* \"#utility.yul\":7:84   */\n    tag_71:\n        /* \"#utility.yul\":44:51   */\n      0x00\n        /* \"#utility.yul\":73:78   */\n      dup2\n        /* \"#utility.yul\":62:78   */\n      swap1\n      pop\n        /* \"#utility.yul\":7:84   */\n      swap2\n      swap1\n      pop\n      jump\t// out\n        /* \"#utility.yul\":90:208   */\n    tag_72:\n        /* \"#utility.yul\":177:201   */\n      tag_104\n        /* \"#utility.yul\":195:200   */\n      dup2\n        /* \"#utility.yul\":177:201   */\n      tag_71\n      jump\t// in\n    tag_104:\n        /* \"#utility.yul\":172:175   */\n      dup3\n        /* \"#utility.yul\":165:202   */\n      mstore\n        /* \"#utility.yul\":90:208   */\n      pop\n      pop\n      jump\t// out\n        /* \"#utility.yul\":214:436   */\n    tag_14:\n        /* \"#utility.yul\":307:311   */\n      0x00\n        /* \"#utility.yul\":345:347   */\n      0x20\n        /* \"#utility.yul\":334:343   */\n      dup3\n        /* \"#utility.yul\":330:348   */\n      add\n        /* \"#utility.yul\":322:348   */\n      swap1\n      pop\n        /* \"#utility.yul\":358:429   */\n      tag_106\n        /* \"#utility.yul\":426:427   */\n      0x00\n        /* \"#utility.yul\":415:424   */\n      dup4\n        /* \"#utility.yul\":411:428   */\n      add\n        /* \"#utility.yul\":402:408   */\n      dup5\n        /* \"#utility.yul\":358:429   */\n      tag_72\n      jump\t// in\n    tag_106:\n        /* \"#utility.yul\":214:436   */\n      swap3\n      swap2\n      pop\n      pop\n      jump\t// out\n        /* \"#utility.yul\":442:568   */\n    tag_73:\n        /* \"#utility.yul\":479:486   */\n      0x00\n        /* \"#utility.yul\":519:561   */\n      0xffffffffffffffffffffffffffffffffffffffff\n        /* \"#utility.yul\":512:517   */\n      dup3\n        /* \"#utility.yul\":508:562   */\n      and\n        /* \"#utility.yul\":497:562   */\n      swap1\n      pop\n        /* \"#utility.yul\":442:568   */\n      swap2\n      swap1\n      pop\n      jump\t// out\n        /* \"#utility.yul\":574:670   */\n    tag_74:\n        /* \"#utility.yul\":611:618   */\n      0x00\n        /* \"#utility.yul\":640:664   */\n      tag_109\n        /* \"#utility.yul\":658:663   */\n      dup3\n        /* \"#utility.yul\":640:664   */\n      tag_73\n      jump\t// in\n    tag_109:\n        /* \"#utility.yul\":629:664   */\n      swap1\n      pop\n        /* \"#utility.yul\":574:670   */\n      swap2\n      swap1\n      pop\n      jump\t// out\n        /* \"#utility.yul\":676:794   */\n    tag_75:\n        /* \"#utility.yul\":763:787   */\n      tag_111\n        /* \"#utility.yul\":781:786   */\n      dup2\n        /* \"#utility.yul\":763:787   */\n      tag_74\n      jump\t// in\n    tag_111:\n        /* \"#utility.yul\":758:761   */\n      dup3\n        /* \"#utility.yul\":751:788   */\n      mstore\n        /* \"#utility.yul\":676:794   */\n      pop\n      pop\n      jump\t// out\n        /* \"#utility.yul\":800:1022   */\n    tag_19:\n        /* \"#utility.yul\":893:897   */\n      0x00\n        /* \"#utility.yul\":931:933   */\n      0x20\n        /* \"#utility.yul\":920:929   */\n      dup3\n        /* \"#utility.yul\":916:934   */\n      add\n        /* \"#utility.yul\":908:934   */\n      swap1\n      pop\n        /* \"#utility.yul\":944:1015   */\n      tag_113\n        /* \"#utility.yul\":1012:1013   */\n      0x00\n        /* \"#utility.yul\":1001:1010   */\n      dup4\n        /* \"#utility.yul\":997:1014   */\n      add\n        /* \"#utility.yul\":988:994   */\n      dup5\n        /* \"#utility.yul\":944:1015   */\n      tag_75\n      jump\t// in\n    tag_113:\n        /* \"#utility.yul\":800:1022   */\n      swap3\n      swap2\n      pop\n      pop\n      jump\t// out\n        /* \"#utility.yul\":1109:1226   */\n    tag_77:\n        /* \"#utility.yul\":1218:1219   */\n      0x00\n        /* \"#utility.yul\":1215:1216   */\n      dup1\n        /* \"#utility.yul\":1208:1220   */\n      revert\n        /* \"#utility.yul\":1355:1477   */\n    tag_79:\n        /* \"#utility.yul\":1428:1452   */\n      tag_118\n        /* \"#utility.yul\":1446:1451   */\n      dup2\n        /* \"#utility.yul\":1428:1452   */\n      tag_71\n      jump\t// in\n    tag_118:\n        /* \"#utility.yul\":1421:1426   */\n      dup2\n        /* \"#utility.yul\":1418:1453   */\n      eq\n        /* \"#utility.yul\":1408:1471   */\n      tag_119\n      jumpi\n        /* \"#utility.yul\":1467:1468   */\n      0x00\n        /* \"#utility.yul\":1464:1465   */\n      dup1\n        /* \"#utility.yul\":1457:1469   */\n      revert\n        /* \"#utility.yul\":1408:1471   */\n    tag_119:\n        /* \"#utility.yul\":1355:1477   */\n      pop\n      jump\t// out\n        /* \"#utility.yul\":1483:1622   */\n    tag_80:\n        /* \"#utility.yul\":1529:1534   */\n      0x00\n        /* \"#utility.yul\":1567:1573   */\n      dup2\n        /* \"#utility.yul\":1554:1574   */\n      calldataload\n        /* \"#utility.yul\":1545:1574   */\n      swap1\n      pop\n        /* \"#utility.yul\":1583:1616   */\n      tag_121\n        /* \"#utility.yul\":1610:1615   */\n      dup2\n        /* \"#utility.yul\":1583:1616   */\n      tag_79\n      jump\t// in\n    tag_121:\n        /* \"#utility.yul\":1483:1622   */\n      swap3\n      swap2\n      pop\n      pop\n      jump\t// out\n        /* \"#utility.yul\":1628:1957   */\n    tag_23:\n        /* \"#utility.yul\":1687:1693   */\n      0x00\n        /* \"#utility.yul\":1736:1738   */\n      0x20\n        /* \"#utility.yul\":1724:1733   */\n      dup3\n        /* \"#utility.yul\":1715:1722   */\n      dup5\n        /* \"#utility.yul\":1711:1734   */\n      sub\n        /* \"#utility.yul\":1707:1739   */\n      slt\n        /* \"#utility.yul\":1704:1823   */\n      iszero\n      tag_123\n      jumpi\n        /* \"#utility.yul\":1742:1821   */\n      tag_124\n      tag_77\n      jump\t// in\n    tag_124:\n        /* \"#utility.yul\":1704:1823   */\n    tag_123:\n        /* \"#utility.yul\":1862:1863   */\n      0x00\n        /* \"#utility.yul\":1887:1940   */\n      tag_125\n        /* \"#utility.yul\":1932:1939   */\n      dup5\n        /* \"#utility.yul\":1923:1929   */\n      dup3\n        /* \"#utility.yul\":1912:1921   */\n      dup6\n        /* \"#utility.yul\":1908:1930   */\n      add\n        /* \"#utility.yul\":1887:1940   */\n      tag_80\n      jump\t// in\n    tag_125:\n        /* \"#utility.yul\":1877:1940   */\n      swap2\n      pop\n        /* \"#utility.yul\":1833:1950   */\n      pop\n        /* \"#utility.yul\":1628:1957   */\n      swap3\n      swap2\n      pop\n      pop\n      jump\t// out\n        /* \"#utility.yul\":1963:2039   */\n    tag_81:\n        /* \"#utility.yul\":1999:2006   */\n      0x00\n        /* \"#utility.yul\":2028:2033   */\n      dup2\n        /* \"#utility.yul\":2017:2033   */\n      swap1\n      pop\n        /* \"#utility.yul\":1963:2039   */\n      swap2\n      swap1\n      pop\n      jump\t// out\n        /* \"#utility.yul\":2045:2160   */\n    tag_82:\n        /* \"#utility.yul\":2130:2153   */\n      tag_128\n        /* \"#utility.yul\":2147:2152   */\n      dup2\n        /* \"#utility.yul\":2130:2153   */\n      tag_81\n      jump\t// in\n    tag_128:\n        /* \"#utility.yul\":2125:2128   */\n      dup3\n        /* \"#utility.yul\":2118:2154   */\n      mstore\n        /* \"#utility.yul\":2045:2160   */\n      pop\n      pop\n      jump\t// out\n        /* \"#utility.yul\":2166:2384   */\n    tag_30:\n        /* \"#utility.yul\":2257:2261   */\n      0x00\n        /* \"#utility.yul\":2295:2297   */\n      0x20\n        /* \"#utility.yul\":2284:2293   */\n      dup3\n        /* \"#utility.yul\":2280:2298   */\n      add\n        /* \"#utility.yul\":2272:2298   */\n      swap1\n      pop\n        /* \"#utility.yul\":2308:2377   */\n      tag_130\n        /* \"#utility.yul\":2374:2375   */\n      0x00\n        /* \"#utility.yul\":2363:2372   */\n      dup4\n        /* \"#utility.yul\":2359:2376   */\n      add\n        /* \"#utility.yul\":2350:2356   */\n      dup5\n        /* \"#utility.yul\":2308:2377   */\n      tag_82\n      jump\t// in\n    tag_130:\n        /* \"#utility.yul\":2166:2384   */\n      swap3\n      swap2\n      pop\n      pop\n      jump\t// out\n        /* \"#utility.yul\":2390:2476   */\n    tag_83:\n        /* \"#utility.yul\":2425:2432   */\n      0x00\n        /* \"#utility.yul\":2465:2469   */\n      0xff\n        /* \"#utility.yul\":2458:2463   */\n      dup3\n        /* \"#utility.yul\":2454:2470   */\n      and\n        /* \"#utility.yul\":2443:2470   */\n      swap1\n      pop\n        /* \"#utility.yul\":2390:2476   */\n      swap2\n      swap1\n      pop\n      jump\t// out\n        /* \"#utility.yul\":2482:2594   */\n    tag_84:\n        /* \"#utility.yul\":2565:2587   */\n      tag_133\n        /* \"#utility.yul\":2581:2586   */\n      dup2\n        /* \"#utility.yul\":2565:2587   */\n      tag_83\n      jump\t// in\n    tag_133:\n        /* \"#utility.yul\":2560:2563   */\n      dup3\n        /* \"#utility.yul\":2553:2588   */\n      mstore\n        /* \"#utility.yul\":2482:2594   */\n      pop\n      pop\n      jump\t// out\n        /* \"#utility.yul\":2600:2814   */\n    tag_35:\n        /* \"#utility.yul\":2689:2693   */\n      0x00\n        /* \"#utility.yul\":2727:2729   */\n      0x20\n        /* \"#utility.yul\":2716:2725   */\n      dup3\n        /* \"#utility.yul\":2712:2730   */\n      add\n        /* \"#utility.yul\":2704:2730   */\n      swap1\n      pop\n        /* \"#utility.yul\":2740:2807   */\n      tag_135\n        /* \"#utility.yul\":2804:2805   */\n      0x00\n        /* \"#utility.yul\":2793:2802   */\n      dup4\n        /* \"#utility.yul\":2789:2806   */\n      add\n        /* \"#utility.yul\":2780:2786   */\n      dup5\n        /* \"#utility.yul\":2740:2807   */\n      tag_84\n      jump\t// in\n    tag_135:\n        /* \"#utility.yul\":2600:2814   */\n      swap3\n      swap2\n      pop\n      pop\n      jump\t// out\n        /* \"#utility.yul\":2820:3000   */\n    tag_85:\n        /* \"#utility.yul\":2868:2945   */\n      0x4e487b7100000000000000000000000000000000000000000000000000000000\n        /* \"#utility.yul\":2865:2866   */\n      0x00\n        /* \"#utility.yul\":2858:2946   */\n      mstore\n        /* \"#utility.yul\":2965:2969   */\n      0x11\n        /* \"#utility.yul\":2962:2963   */\n      0x04\n        /* \"#utility.yul\":2955:2970   */\n      mstore\n        /* \"#utility.yul\":2989:2993   */\n      0x24\n        /* \"#utility.yul\":2986:2987   */\n      0x00\n        /* \"#utility.yul\":2979:2994   */\n      revert\n        /* \"#utility.yul\":3006:3191   */\n    tag_46:\n        /* \"#utility.yul\":3044:3048   */\n      0x00\n        /* \"#utility.yul\":3064:3082   */\n      tag_138\n        /* \"#utility.yul\":3080:3081   */\n      dup3\n        /* \"#utility.yul\":3064:3082   */\n      tag_83\n      jump\t// in\n    tag_138:\n        /* \"#utility.yul\":3059:3082   */\n      swap2\n      pop\n        /* \"#utility.yul\":3096:3114   */\n      tag_139\n        /* \"#utility.yul\":3112:3113   */\n      dup4\n        /* \"#utility.yul\":3096:3114   */\n      tag_83\n      jump\t// in\n    tag_139:\n        /* \"#utility.yul\":3091:3114   */\n      swap3\n      pop\n        /* \"#utility.yul\":3133:3134   */\n      dup3\n        /* \"#utility.yul\":3130:3131   */\n      dup3\n        /* \"#utility.yul\":3127:3135   */\n      lt\n        /* \"#utility.yul\":3124:3158   */\n      iszero\n      tag_140\n      jumpi\n        /* \"#utility.yul\":3138:3156   */\n      tag_141\n      tag_85\n      jump\t// in\n    tag_141:\n        /* \"#utility.yul\":3124:3158   */\n    tag_140:\n        /* \"#utility.yul\":3183:3184   */\n      dup3\n        /* \"#utility.yul\":3180:3181   */\n      dup3\n        /* \"#utility.yul\":3176:3185   */\n      sub\n        /* \"#utility.yul\":3168:3185   */\n      swap1\n      pop\n        /* \"#utility.yul\":3006:3191   */\n      swap3\n      swap2\n      pop\n      pop\n      jump\t// out\n        /* \"#utility.yul\":3197:3299   */\n    tag_86:\n        /* \"#utility.yul\":3239:3247   */\n      0x00\n        /* \"#utility.yul\":3286:3291   */\n      dup2\n        /* \"#utility.yul\":3283:3284   */\n      0x01\n        /* \"#utility.yul\":3279:3292   */\n      shr\n        /* \"#utility.yul\":3258:3292   */\n      swap1\n      pop\n        /* \"#utility.yul\":3197:3299   */\n      swap2\n      swap1\n      pop\n      jump\t// out\n        /* \"#utility.yul\":3305:4153   */\n    tag_87:\n        /* \"#utility.yul\":3366:3371   */\n      0x00\n        /* \"#utility.yul\":3373:3377   */\n      dup1\n        /* \"#utility.yul\":3397:3403   */\n      dup3\n        /* \"#utility.yul\":3388:3403   */\n      swap2\n      pop\n        /* \"#utility.yul\":3421:3426   */\n      dup4\n        /* \"#utility.yul\":3412:3426   */\n      swap1\n      pop\n        /* \"#utility.yul\":3435:4147   */\n    tag_144:\n        /* \"#utility.yul\":3456:3457   */\n      0x01\n        /* \"#utility.yul\":3446:3454   */\n      dup6\n        /* \"#utility.yul\":3443:3458   */\n      gt\n        /* \"#utility.yul\":3435:4147   */\n      iszero\n      tag_146\n      jumpi\n        /* \"#utility.yul\":3551:3555   */\n      dup1\n        /* \"#utility.yul\":3546:3549   */\n      dup7\n        /* \"#utility.yul\":3542:3556   */\n      div\n        /* \"#utility.yul\":3536:3540   */\n      dup2\n        /* \"#utility.yul\":3533:3557   */\n      gt\n        /* \"#utility.yul\":3530:3580   */\n      iszero\n      tag_147\n      jumpi\n        /* \"#utility.yul\":3560:3578   */\n      tag_148\n      tag_85\n      jump\t// in\n    tag_148:\n        /* \"#utility.yul\":3530:3580   */\n    tag_147:\n        /* \"#utility.yul\":3610:3611   */\n      0x01\n        /* \"#utility.yul\":3600:3608   */\n      dup6\n        /* \"#utility.yul\":3596:3612   */\n      and\n        /* \"#utility.yul\":3593:4044   */\n      iszero\n      tag_149\n      jumpi\n        /* \"#utility.yul\":4025:4029   */\n      dup1\n        /* \"#utility.yul\":4018:4023   */\n      dup3\n        /* \"#utility.yul\":4014:4030   */\n      mul\n        /* \"#utility.yul\":4005:4030   */\n      swap2\n      pop\n        /* \"#utility.yul\":3593:4044   */\n    tag_149:\n        /* \"#utility.yul\":4075:4079   */\n      dup1\n        /* \"#utility.yul\":4069:4073   */\n      dup2\n        /* \"#utility.yul\":4065:4080   */\n      mul\n        /* \"#utility.yul\":4057:4080   */\n      swap1\n      pop\n        /* \"#utility.yul\":4105:4137   */\n      tag_150\n        /* \"#utility.yul\":4128:4136   */\n      dup6\n        /* \"#utility.yul\":4105:4137   */\n      tag_86\n      jump\t// in\n    tag_150:\n        /* \"#utility.yul\":4093:4137   */\n      swap5\n      pop\n        /* \"#utility.yul\":3435:4147   */\n      jump(tag_144)\n    tag_146:\n        /* \"#utility.yul\":3305:4153   */\n      swap5\n      pop\n      swap5\n      swap3\n      pop\n      pop\n      pop\n      jump\t// out\n        /* \"#utility.yul\":4159:5232   */\n    tag_88:\n        /* \"#utility.yul\":4213:4218   */\n      0x00\n        /* \"#utility.yul\":4404:4412   */\n      dup3\n        /* \"#utility.yul\":4394:4434   */\n      tag_152\n      jumpi\n        /* \"#utility.yul\":4425:4426   */\n      0x01\n        /* \"#utility.yul\":4416:4426   */\n      swap1\n      pop\n        /* \"#utility.yul\":4427:4432   */\n      jump(tag_151)\n        /* \"#utility.yul\":4394:4434   */\n    tag_152:\n        /* \"#utility.yul\":4453:4457   */\n      dup2\n        /* \"#utility.yul\":4443:4479   */\n      tag_153\n      jumpi\n        /* \"#utility.yul\":4470:4471   */\n      0x00\n        /* \"#utility.yul\":4461:4471   */\n      swap1\n      pop\n        /* \"#utility.yul\":4472:4477   */\n      jump(tag_151)\n        /* \"#utility.yul\":4443:4479   */\n    tag_153:\n        /* \"#utility.yul\":4539:4543   */\n      dup2\n        /* \"#utility.yul\":4587:4588   */\n      0x01\n        /* \"#utility.yul\":4582:4609   */\n      dup2\n      eq\n      tag_155\n      jumpi\n        /* \"#utility.yul\":4623:4624   */\n      0x02\n        /* \"#utility.yul\":4618:4809   */\n      dup2\n      eq\n      tag_156\n      jumpi\n        /* \"#utility.yul\":4532:4809   */\n      jump(tag_154)\n        /* \"#utility.yul\":4582:4609   */\n    tag_155:\n        /* \"#utility.yul\":4600:4601   */\n      0x01\n        /* \"#utility.yul\":4591:4601   */\n      swap2\n      pop\n        /* \"#utility.yul\":4602:4607   */\n      pop\n      jump(tag_151)\n        /* \"#utility.yul\":4618:4809   */\n    tag_156:\n        /* \"#utility.yul\":4663:4666   */\n      0xff\n        /* \"#utility.yul\":4653:4661   */\n      dup5\n        /* \"#utility.yul\":4650:4667   */\n      gt\n        /* \"#utility.yul\":4647:4690   */\n      iszero\n      tag_157\n      jumpi\n        /* \"#utility.yul\":4670:4688   */\n      tag_158\n      tag_85\n      jump\t// in\n    tag_158:\n        /* \"#utility.yul\":4647:4690   */\n    tag_157:\n        /* \"#utility.yul\":4719:4727   */\n      dup4\n        /* \"#utility.yul\":4716:4717   */\n      0x02\n        /* \"#utility.yul\":4712:4728   */\n      exp\n        /* \"#utility.yul\":4703:4728   */\n      swap2\n      pop\n        /* \"#utility.yul\":4754:4757   */\n      dup5\n        /* \"#utility.yul\":4747:4752   */\n      dup3\n        /* \"#utility.yul\":4744:4758   */\n      gt\n        /* \"#utility.yul\":4741:4781   */\n      iszero\n      tag_159\n      jumpi\n        /* \"#utility.yul\":4761:4779   */\n      tag_160\n      tag_85\n      jump\t// in\n    tag_160:\n        /* \"#utility.yul\":4741:4781   */\n    tag_159:\n        /* \"#utility.yul\":4794:4799   */\n      pop\n      jump(tag_151)\n        /* \"#utility.yul\":4532:4809   */\n    tag_154:\n      pop\n        /* \"#utility.yul\":4918:4920   */\n      0x20\n        /* \"#utility.yul\":4908:4916   */\n      dup4\n        /* \"#utility.yul\":4905:4921   */\n      lt\n        /* \"#utility.yul\":4899:4902   */\n      0x0133\n        /* \"#utility.yul\":4893:4897   */\n      dup4\n        /* \"#utility.yul\":4890:4903   */\n      lt\n        /* \"#utility.yul\":4886:4922   */\n      and\n        /* \"#utility.yul\":4868:4870   */\n      0x4e\n        /* \"#utility.yul\":4858:4866   */\n      dup5\n        /* \"#utility.yul\":4855:4871   */\n      lt\n        /* \"#utility.yul\":4850:4852   */\n      0x0b\n        /* \"#utility.yul\":4844:4848   */\n      dup5\n        /* \"#utility.yul\":4841:4853   */\n      lt\n        /* \"#utility.yul\":4837:4872   */\n      and\n        /* \"#utility.yul\":4821:4932   */\n      or\n        /* \"#utility.yul\":4818:5064   */\n      iszero\n      tag_161\n      jumpi\n        /* \"#utility.yul\":4974:4982   */\n      dup3\n        /* \"#utility.yul\":4968:4972   */\n      dup3\n        /* \"#utility.yul\":4964:4983   */\n      exp\n        /* \"#utility.yul\":4955:4983   */\n      swap1\n      pop\n        /* \"#utility.yul\":5009:5012   */\n      dup4\n        /* \"#utility.yul\":5002:5007   */\n      dup2\n        /* \"#utility.yul\":4999:5013   */\n      gt\n        /* \"#utility.yul\":4996:5036   */\n      iszero\n      tag_162\n      jumpi\n        /* \"#utility.yul\":5016:5034   */\n      tag_163\n      tag_85\n      jump\t// in\n    tag_163:\n        /* \"#utility.yul\":4996:5036   */\n    tag_162:\n        /* \"#utility.yul\":5049:5054   */\n      jump(tag_151)\n        /* \"#utility.yul\":4818:5064   */\n    tag_161:\n        /* \"#utility.yul\":5089:5131   */\n      tag_164\n        /* \"#utility.yul\":5127:5130   */\n      dup5\n        /* \"#utility.yul\":5117:5125   */\n      dup5\n        /* \"#utility.yul\":5111:5115   */\n      dup5\n        /* \"#utility.yul\":5108:5109   */\n      0x01\n        /* \"#utility.yul\":5089:5131   */\n      tag_87\n      jump\t// in\n    tag_164:\n        /* \"#utility.yul\":5074:5131   */\n      swap3\n      pop\n      swap1\n      pop\n        /* \"#utility.yul\":5163:5167   */\n      dup2\n        /* \"#utility.yul\":5158:5161   */\n      dup5\n        /* \"#utility.yul\":5154:5168   */\n      div\n        /* \"#utility.yul\":5147:5152   */\n      dup2\n        /* \"#utility.yul\":5144:5169   */\n      gt\n        /* \"#utility.yul\":5141:5192   */\n      iszero\n      tag_165\n      jumpi\n        /* \"#utility.yul\":5172:5190   */\n      tag_166\n      tag_85\n      jump\t// in\n    tag_166:\n        /* \"#utility.yul\":5141:5192   */\n    tag_165:\n        /* \"#utility.yul\":5221:5225   */\n      dup2\n        /* \"#utility.yul\":5214:5219   */\n      dup2\n        /* \"#utility.yul\":5210:5226   */\n      mul\n        /* \"#utility.yul\":5201:5226   */\n      swap1\n      pop\n        /* \"#utility.yul\":4159:5232   */\n    tag_151:\n      swap4\n      swap3\n      pop\n      pop\n      pop\n      jump\t// out\n        /* \"#utility.yul\":5238:5519   */\n    tag_48:\n        /* \"#utility.yul\":5296:5301   */\n      0x00\n        /* \"#utility.yul\":5320:5343   */\n      tag_168\n        /* \"#utility.yul\":5338:5342   */\n      dup3\n        /* \"#utility.yul\":5320:5343   */\n      tag_71\n      jump\t// in\n    tag_168:\n        /* \"#utility.yul\":5312:5343   */\n      swap2\n      pop\n        /* \"#utility.yul\":5364:5389   */\n      tag_169\n        /* \"#utility.yul\":5380:5388   */\n      dup4\n        /* \"#utility.yul\":5364:5389   */\n      tag_83\n      jump\t// in\n    tag_169:\n        /* \"#utility.yul\":5352:5389   */\n      swap3\n      pop\n        /* \"#utility.yul\":5408:5512   */\n      tag_170\n        /* \"#utility.yul\":5445:5511   */\n      0xffffffffffffffffffffffffffffffffffffffffffffffffffffffffffffffff\n        /* \"#utility.yul\":5435:5443   */\n      dup5\n        /* \"#utility.yul\":5429:5433   */\n      dup5\n        /* \"#utility.yul\":5408:5512   */\n      tag_88\n      jump\t// in\n    tag_170:\n        /* \"#utility.yul\":5399:5512   */\n      swap1\n      pop\n        /* \"#utility.yul\":5238:5519   */\n      swap3\n      swap2\n      pop\n      pop\n      jump\t// out\n        /* \"#utility.yul\":5525:5873   */\n    tag_50:\n        /* \"#utility.yul\":5565:5572   */\n      0x00\n        /* \"#utility.yul\":5588:5608   */\n      tag_172\n        /* \"#utility.yul\":5606:5607   */\n      dup3\n        /* \"#utility.yul\":5588:5608   */\n      tag_71\n      jump\t// in\n    tag_172:\n        /* \"#utility.yul\":5583:5608   */\n      swap2\n      pop\n        /* \"#utility.yul\":5622:5642   */\n      tag_173\n        /* \"#utility.yul\":5640:5641   */\n      dup4\n        /* \"#utility.yul\":5622:5642   */\n      tag_71\n      jump\t// in\n    tag_173:\n        /* \"#utility.yul\":5617:5642   */\n      swap3\n      pop\n        /* \"#utility.yul\":5810:5811   */\n      dup2\n        /* \"#utility.yul\":5742:5808   */\n      0xffffffffffffffffffffffffffffffffffffffffffffffffffffffffffffffff\n        /* \"#utility.yul\":5738:5812   */\n      div\n        /* \"#utility.yul\":5735:5736   */\n      dup4\n        /* \"#utility.yul\":5732:5813   */\n      gt\n        /* \"#utility.yul\":5727:5728   */\n      dup3\n        /* \"#utility.yul\":5720:5729   */\n      iszero\n        /* \"#utility.yul\":5713:5730   */\n      iszero\n        /* \"#utility.yul\":5709:5814   */\n      and\n        /* \"#utility.yul\":5706:5837   */\n      iszero\n      tag_174\n      jumpi\n        /* \"#utility.yul\":5817:5835   */\n      tag_175\n      tag_85\n      jump\t// in\n    tag_175:\n        /* \"#utility.yul\":5706:5837   */\n    tag_174:\n        /* \"#utility.yul\":5865:5866   */\n      dup3\n        /* \"#utility.yul\":5862:5863   */\n      dup3\n        /* \"#utility.yul\":5858:5867   */\n      mul\n        /* \"#utility.yul\":5847:5867   */\n      swap1\n      pop\n        /* \"#utility.yul\":5525:5873   */\n      swap3\n      swap2\n      pop\n      pop\n      jump\t// out\n        /* \"#utility.yul\":5879:6059   */\n    tag_89:\n        /* \"#utility.yul\":5927:6004   */\n      0x4e487b7100000000000000000000000000000000000000000000000000000000\n        /* \"#utility.yul\":5924:5925   */\n      0x00\n        /* \"#utility.yul\":5917:6005   */\n      mstore\n        /* \"#utility.yul\":6024:6028   */\n      0x12\n        /* \"#utility.yul\":6021:6022   */\n      0x04\n        /* \"#utility.yul\":6014:6029   */\n      mstore\n        /* \"#utility.yul\":6048:6052   */\n      0x24\n        /* \"#utility.yul\":6045:6046   */\n      0x00\n        /* \"#utility.yul\":6038:6053   */\n      revert\n        /* \"#utility.yul\":6065:6250   */\n    tag_53:\n        /* \"#utility.yul\":6105:6106   */\n      0x00\n        /* \"#utility.yul\":6122:6142   */\n      tag_178\n        /* \"#utility.yul\":6140:6141   */\n      dup3\n        /* \"#utility.yul\":6122:6142   */\n      tag_71\n      jump\t// in\n    tag_178:\n        /* \"#utility.yul\":6117:6142   */\n      swap2\n      pop\n        /* \"#utility.yul\":6156:6176   */\n      tag_179\n        /* \"#utility.yul\":6174:6175   */\n      dup4\n        /* \"#utility.yul\":6156:6176   */\n      tag_71\n      jump\t// in\n    tag_179:\n        /* \"#utility.yul\":6151:6176   */\n      swap3\n      pop\n        /* \"#utility.yul\":6195:6196   */\n      dup3\n        /* \"#utility.yul\":6185:6220   */\n      tag_180\n      jumpi\n        /* \"#utility.yul\":6200:6218   */\n      tag_181\n      tag_89\n      jump\t// in\n    tag_181:\n        /* \"#utility.yul\":6185:6220   */\n    tag_180:\n        /* \"#utility.yul\":6242:6243   */\n      dup3\n        /* \"#utility.yul\":6239:6240   */\n      dup3\n        /* \"#utility.yul\":6235:6244   */\n      div\n        /* \"#utility.yul\":6230:6244   */\n      swap1\n      pop\n        /* \"#utility.yul\":6065:6250   */\n      swap3\n      swap2\n      pop\n      pop\n      jump\t// out\n        /* \"#utility.yul\":6256:6361   */\n    tag_90:\n        /* \"#utility.yul\":6292:6299   */\n      0x00\n        /* \"#utility.yul\":6332:6354   */\n      0xffffffffffffffffffff\n        /* \"#utility.yul\":6325:6330   */\n      dup3\n        /* \"#utility.yul\":6321:6355   */\n      and\n        /* \"#utility.yul\":6310:6355   */\n      swap1\n      pop\n        /* \"#utility.yul\":6256:6361   */\n      swap2\n      swap1\n      pop\n      jump\t// out\n        /* \"#utility.yul\":6367:6487   */\n    tag_91:\n        /* \"#utility.yul\":6439:6462   */\n      tag_184\n        /* \"#utility.yul\":6456:6461   */\n      dup2\n        /* \"#utility.yul\":6439:6462   */\n      tag_90\n      jump\t// in\n    tag_184:\n        /* \"#utility.yul\":6432:6437   */\n      dup2\n        /* \"#utility.yul\":6429:6463   */\n      eq\n        /* \"#utility.yul\":6419:6481   */\n      tag_185\n      jumpi\n        /* \"#utility.yul\":6477:6478   */\n      0x00\n        /* \"#utility.yul\":6474:6475   */\n      dup1\n        /* \"#utility.yul\":6467:6479   */\n      revert\n        /* \"#utility.yul\":6419:6481   */\n    tag_185:\n        /* \"#utility.yul\":6367:6487   */\n      pop\n      jump\t// out\n        /* \"#utility.yul\":6493:6634   */\n    tag_92:\n        /* \"#utility.yul\":6549:6554   */\n      0x00\n        /* \"#utility.yul\":6580:6586   */\n      dup2\n        /* \"#utility.yul\":6574:6587   */\n      mload\n        /* \"#utility.yul\":6565:6587   */\n      swap1\n      pop\n        /* \"#utility.yul\":6596:6628   */\n      tag_187\n        /* \"#utility.yul\":6622:6627   */\n      dup2\n        /* \"#utility.yul\":6596:6628   */\n      tag_91\n      jump\t// in\n    tag_187:\n        /* \"#utility.yul\":6493:6634   */\n      swap3\n      swap2\n      pop\n      pop\n      jump\t// out\n        /* \"#utility.yul\":6640:6760   */\n    tag_93:\n        /* \"#utility.yul\":6712:6735   */\n      tag_189\n        /* \"#utility.yul\":6729:6734   */\n      dup2\n        /* \"#utility.yul\":6712:6735   */\n      tag_81\n      jump\t// in\n    tag_189:\n        /* \"#utility.yul\":6705:6710   */\n      dup2\n        /* \"#utility.yul\":6702:6736   */\n      eq\n        /* \"#utility.yul\":6692:6754   */\n      tag_190\n      jumpi\n        /* \"#utility.yul\":6750:6751   */\n      0x00\n        /* \"#utility.yul\":6747:6748   */\n      dup1\n        /* \"#utility.yul\":6740:6752   */\n      revert\n        /* \"#utility.yul\":6692:6754   */\n    tag_190:\n        /* \"#utility.yul\":6640:6760   */\n      pop\n      jump\t// out\n        /* \"#utility.yul\":6766:6907   */\n    tag_94:\n        /* \"#utility.yul\":6822:6827   */\n      0x00\n        /* \"#utility.yul\":6853:6859   */\n      dup2\n        /* \"#utility.yul\":6847:6860   */\n      mload\n        /* \"#utility.yul\":6838:6860   */\n      swap1\n      pop\n        /* \"#utility.yul\":6869:6901   */\n      tag_192\n        /* \"#utility.yul\":6895:6900   */\n      dup2\n        /* \"#utility.yul\":6869:6901   */\n      tag_93\n      jump\t// in\n    tag_192:\n        /* \"#utility.yul\":6766:6907   */\n      swap3\n      swap2\n      pop\n      pop\n      jump\t// out\n        /* \"#utility.yul\":6913:7056   */\n    tag_95:\n        /* \"#utility.yul\":6970:6975   */\n      0x00\n        /* \"#utility.yul\":7001:7007   */\n      dup2\n        /* \"#utility.yul\":6995:7008   */\n      mload\n        /* \"#utility.yul\":6986:7008   */\n      swap1\n      pop\n        /* \"#utility.yul\":7017:7050   */\n      tag_194\n        /* \"#utility.yul\":7044:7049   */\n      dup2\n        /* \"#utility.yul\":7017:7050   */\n      tag_79\n      jump\t// in\n    tag_194:\n        /* \"#utility.yul\":6913:7056   */\n      swap3\n      swap2\n      pop\n      pop\n      jump\t// out\n        /* \"#utility.yul\":7062:8033   */\n    tag_59:\n        /* \"#utility.yul\":7165:7171   */\n      0x00\n        /* \"#utility.yul\":7173:7179   */\n      dup1\n        /* \"#utility.yul\":7181:7187   */\n      0x00\n        /* \"#utility.yul\":7189:7195   */\n      dup1\n        /* \"#utility.yul\":7197:7203   */\n      0x00\n        /* \"#utility.yul\":7246:7249   */\n      0xa0\n        /* \"#utility.yul\":7234:7243   */\n      dup7\n        /* \"#utility.yul\":7225:7232   */\n      dup9\n        /* \"#utility.yul\":7221:7244   */\n      sub\n        /* \"#utility.yul\":7217:7250   */\n      slt\n        /* \"#utility.yul\":7214:7334   */\n      iszero\n      tag_196\n      jumpi\n        /* \"#utility.yul\":7253:7332   */\n      tag_197\n      tag_77\n      jump\t// in\n    tag_197:\n        /* \"#utility.yul\":7214:7334   */\n    tag_196:\n        /* \"#utility.yul\":7373:7374   */\n      0x00\n        /* \"#utility.yul\":7398:7461   */\n      tag_198\n        /* \"#utility.yul\":7453:7460   */\n      dup9\n        /* \"#utility.yul\":7444:7450   */\n      dup3\n        /* \"#utility.yul\":7433:7442   */\n      dup10\n        /* \"#utility.yul\":7429:7451   */\n      add\n        /* \"#utility.yul\":7398:7461   */\n      tag_92\n      jump\t// in\n    tag_198:\n        /* \"#utility.yul\":7388:7461   */\n      swap6\n      pop\n        /* \"#utility.yul\":7344:7471   */\n      pop\n        /* \"#utility.yul\":7510:7512   */\n      0x20\n        /* \"#utility.yul\":7536:7599   */\n      tag_199\n        /* \"#utility.yul\":7591:7598   */\n      dup9\n        /* \"#utility.yul\":7582:7588   */\n      dup3\n        /* \"#utility.yul\":7571:7580   */\n      dup10\n        /* \"#utility.yul\":7567:7589   */\n      add\n        /* \"#utility.yul\":7536:7599   */\n      tag_94\n      jump\t// in\n    tag_199:\n        /* \"#utility.yul\":7526:7599   */\n      swap5\n      pop\n        /* \"#utility.yul\":7481:7609   */\n      pop\n        /* \"#utility.yul\":7648:7650   */\n      0x40\n        /* \"#utility.yul\":7674:7738   */\n      tag_200\n        /* \"#utility.yul\":7730:7737   */\n      dup9\n        /* \"#utility.yul\":7721:7727   */\n      dup3\n        /* \"#utility.yul\":7710:7719   */\n      dup10\n        /* \"#utility.yul\":7706:7728   */\n      add\n        /* \"#utility.yul\":7674:7738   */\n      tag_95\n      jump\t// in\n    tag_200:\n        /* \"#utility.yul\":7664:7738   */\n      swap4\n      pop\n        /* \"#utility.yul\":7619:7748   */\n      pop\n        /* \"#utility.yul\":7787:7789   */\n      0x60\n        /* \"#utility.yul\":7813:7877   */\n      tag_201\n        /* \"#utility.yul\":7869:7876   */\n      dup9\n        /* \"#utility.yul\":7860:7866   */\n      dup3\n        /* \"#utility.yul\":7849:7858   */\n      dup10\n        /* \"#utility.yul\":7845:7867   */\n      add\n        /* \"#utility.yul\":7813:7877   */\n      tag_95\n      jump\t// in\n    tag_201:\n        /* \"#utility.yul\":7803:7877   */\n      swap3\n      pop\n        /* \"#utility.yul\":7758:7887   */\n      pop\n        /* \"#utility.yul\":7926:7929   */\n      0x80\n        /* \"#utility.yul\":7953:8016   */\n      tag_202\n        /* \"#utility.yul\":8008:8015   */\n      dup9\n        /* \"#utility.yul\":7999:8005   */\n      dup3\n        /* \"#utility.yul\":7988:7997   */\n      dup10\n        /* \"#utility.yul\":7984:8006   */\n      add\n        /* \"#utility.yul\":7953:8016   */\n      tag_92\n      jump\t// in\n    tag_202:\n        /* \"#utility.yul\":7943:8016   */\n      swap2\n      pop\n        /* \"#utility.yul\":7897:8026   */\n      pop\n        /* \"#utility.yul\":7062:8033   */\n      swap3\n      swap6\n      pop\n      swap3\n      swap6\n      swap1\n      swap4\n      pop\n      jump\t// out\n        /* \"#utility.yul\":8039:8157   */\n    tag_96:\n        /* \"#utility.yul\":8110:8132   */\n      tag_204\n        /* \"#utility.yul\":8126:8131   */\n      dup2\n        /* \"#utility.yul\":8110:8132   */\n      tag_83\n      jump\t// in\n    tag_204:\n        /* \"#utility.yul\":8103:8108   */\n      dup2\n        /* \"#utility.yul\":8100:8133   */\n      eq\n        /* \"#utility.yul\":8090:8151   */\n      tag_205\n      jumpi\n        /* \"#utility.yul\":8147:8148   */\n      0x00\n        /* \"#utility.yul\":8144:8145   */\n      dup1\n        /* \"#utility.yul\":8137:8149   */\n      revert\n        /* \"#utility.yul\":8090:8151   */\n    tag_205:\n        /* \"#utility.yul\":8039:8157   */\n      pop\n      jump\t// out\n        /* \"#utility.yul\":8163:8302   */\n    tag_97:\n        /* \"#utility.yul\":8218:8223   */\n      0x00\n        /* \"#utility.yul\":8249:8255   */\n      dup2\n        /* \"#utility.yul\":8243:8256   */\n      mload\n        /* \"#utility.yul\":8234:8256   */\n      swap1\n      pop\n        /* \"#utility.yul\":8265:8296   */\n      tag_207\n        /* \"#utility.yul\":8290:8295   */\n      dup2\n        /* \"#utility.yul\":8265:8296   */\n      tag_96\n      jump\t// in\n    tag_207:\n        /* \"#utility.yul\":8163:8302   */\n      swap3\n      swap2\n      pop\n      pop\n      jump\t// out\n        /* \"#utility.yul\":8308:8655   */\n    tag_65:\n        /* \"#utility.yul\":8376:8382   */\n      0x00\n        /* \"#utility.yul\":8425:8427   */\n      0x20\n        /* \"#utility.yul\":8413:8422   */\n      dup3\n        /* \"#utility.yul\":8404:8411   */\n      dup5\n        /* \"#utility.yul\":8400:8423   */\n      sub\n        /* \"#utility.yul\":8396:8428   */\n      slt\n        /* \"#utility.yul\":8393:8512   */\n      iszero\n      tag_209\n      jumpi\n        /* \"#utility.yul\":8431:8510   */\n      tag_210\n      tag_77\n      jump\t// in\n    tag_210:\n        /* \"#utility.yul\":8393:8512   */\n    tag_209:\n        /* \"#utility.yul\":8551:8552   */\n      0x00\n        /* \"#utility.yul\":8576:8638   */\n      tag_211\n        /* \"#utility.yul\":8630:8637   */\n      dup5\n        /* \"#utility.yul\":8621:8627   */\n      dup3\n        /* \"#utility.yul\":8610:8619   */\n      dup6\n        /* \"#utility.yul\":8606:8628   */\n      add\n        /* \"#utility.yul\":8576:8638   */\n      tag_97\n      jump\t// in\n    tag_211:\n        /* \"#utility.yul\":8566:8638   */\n      swap2\n      pop\n        /* \"#utility.yul\":8522:8648   */\n      pop\n        /* \"#utility.yul\":8308:8655   */\n      swap3\n      swap2\n      pop\n      pop\n      jump\t// out\n        /* \"#utility.yul\":8661:8830   */\n    tag_98:\n        /* \"#utility.yul\":8745:8756   */\n      0x00\n        /* \"#utility.yul\":8779:8785   */\n      dup3\n        /* \"#utility.yul\":8774:8777   */\n      dup3\n        /* \"#utility.yul\":8767:8786   */\n      mstore\n        /* \"#utility.yul\":8819:8823   */\n      0x20\n        /* \"#utility.yul\":8814:8817   */\n      dup3\n        /* \"#utility.yul\":8810:8824   */\n      add\n        /* \"#utility.yul\":8795:8824   */\n      swap1\n      pop\n        /* \"#utility.yul\":8661:8830   */\n      swap3\n      swap2\n      pop\n      pop\n      jump\t// out\n        /* \"#utility.yul\":8836:9001   */\n    tag_99:\n        /* \"#utility.yul\":8976:8993   */\n      0x6e6f7420656e6f7567682066756e640000000000000000000000000000000000\n        /* \"#utility.yul\":8972:8973   */\n      0x00\n        /* \"#utility.yul\":8964:8970   */\n      dup3\n        /* \"#utility.yul\":8960:8974   */\n      add\n        /* \"#utility.yul\":8953:8994   */\n      mstore\n        /* \"#utility.yul\":8836:9001   */\n      pop\n      jump\t// out\n        /* \"#utility.yul\":9007:9373   */\n    tag_100:\n        /* \"#utility.yul\":9149:9152   */\n      0x00\n        /* \"#utility.yul\":9170:9237   */\n      tag_215\n        /* \"#utility.yul\":9234:9236   */\n      0x0f\n        /* \"#utility.yul\":9229:9232   */\n      dup4\n        /* \"#utility.yul\":9170:9237   */\n      tag_98\n      jump\t// in\n    tag_215:\n        /* \"#utility.yul\":9163:9237   */\n      swap2\n      pop\n        /* \"#utility.yul\":9246:9339   */\n      tag_216\n        /* \"#utility.yul\":9335:9338   */\n      dup3\n        /* \"#utility.yul\":9246:9339   */\n      tag_99\n      jump\t// in\n    tag_216:\n        /* \"#utility.yul\":9364:9366   */\n      0x20\n        /* \"#utility.yul\":9359:9362   */\n      dup3\n        /* \"#utility.yul\":9355:9367   */\n      add\n        /* \"#utility.yul\":9348:9367   */\n      swap1\n      pop\n        /* \"#utility.yul\":9007:9373   */\n      swap2\n      swap1\n      pop\n      jump\t// out\n        /* \"#utility.yul\":9379:9798   */\n    tag_70:\n        /* \"#utility.yul\":9545:9549   */\n      0x00\n        /* \"#utility.yul\":9583:9585   */\n      0x20\n        /* \"#utility.yul\":9572:9581   */\n      dup3\n        /* \"#utility.yul\":9568:9586   */\n      add\n        /* \"#utility.yul\":9560:9586   */\n      swap1\n      pop\n        /* \"#utility.yul\":9632:9641   */\n      dup2\n        /* \"#utility.yul\":9626:9630   */\n      dup2\n        /* \"#utility.yul\":9622:9642   */\n      sub\n        /* \"#utility.yul\":9618:9619   */\n      0x00\n        /* \"#utility.yul\":9607:9616   */\n      dup4\n        /* \"#utility.yul\":9603:9620   */\n      add\n        /* \"#utility.yul\":9596:9643   */\n      mstore\n        /* \"#utility.yul\":9660:9791   */\n      tag_218\n        /* \"#utility.yul\":9786:9790   */\n      dup2\n        /* \"#utility.yul\":9660:9791   */\n      tag_100\n      jump\t// in\n    tag_218:\n        /* \"#utility.yul\":9652:9791   */\n      swap1\n      pop\n        /* \"#utility.yul\":9379:9798   */\n      swap2\n      swap1\n      pop\n      jump\t// out\n\n    auxdata: 0xa2646970667358221220c9749d704df0312f7087488beefc434f3dd3f97d992f7bd9791ca38ee2e4d78264736f6c63430008080033\n}\n",
				"bytecode": {
					"linkReferences": {},
					"object": "6080604052670de0b6b3a7640000600155738a753747a1fa494ec906ce90e9f37563a8af630e600260006101000a81548173ffffffffffffffffffffffffffffffffffffffff021916908373ffffffffffffffffffffffffffffffffffffffff16021790555034801561007157600080fd5b50600260009054906101000a900473ffffffffffffffffffffffffffffffffffffffff16600360006101000a81548173ffffffffffffffffffffffffffffffffffffffff021916908373ffffffffffffffffffffffffffffffffffffffff1602179055506109c7806100e46000396000f3fe6080604052600436106100705760003560e01c80638e5d61571161004e5780638e5d615714610108578063ad93f57a14610133578063b60d42881461015e578063c7a0d9f61461016857610070565b806311ae655a1461007557806329c36bb5146100a0578063535be4f9146100cb575b600080fd5b34801561008157600080fd5b5061008a610193565b60405161009791906103e2565b60405180910390f35b3480156100ac57600080fd5b506100b5610199565b6040516100c2919061043e565b60405180910390f35b3480156100d757600080fd5b506100f260048036038101906100ed919061048a565b6101bf565b6040516100ff91906103e2565b60405180910390f35b34801561011457600080fd5b5061011d61021d565b60405161012a91906104d0565b60405180910390f35b34801561013f57600080fd5b506101486102cd565b6040516101559190610507565b60405180910390f35b610166610374565b005b34801561017457600080fd5b5061017d6103c3565b60405161018a91906104d0565b60405180910390f35b60015481565b600260009054906101000a900473ffffffffffffffffffffffffffffffffffffffff1681565b6000806101ca61021d565b9050670de0b6b3a7640000836101de6102cd565b60126101ea9190610551565b600a6101f691906106b8565b836102019190610703565b61020b9190610703565b610215919061078c565b915050919050565b600080600360009054906101000a900473ffffffffffffffffffffffffffffffffffffffff1673ffffffffffffffffffffffffffffffffffffffff1663feaf968c6040518163ffffffff1660e01b815260040160a06040518083038186803b15801561028857600080fd5b505afa15801561029c573d6000803e3d6000fd5b505050506040513d601f19601f820116820180604052508101906102c09190610840565b5050509150508091505090565b6000600360009054906101000a900473ffffffffffffffffffffffffffffffffffffffff1673ffffffffffffffffffffffffffffffffffffffff1663313ce5676040518163ffffffff1660e01b815260040160206040518083038186803b15801561033757600080fd5b505afa15801561034b573d6000803e3d6000fd5b505050506040513d601f19601f8201168201806040525081019061036f91906108e7565b905090565b600154610380346101bf565b10156103c1576040517f08c379a00000000000000000000000000000000000000000000000000000000081526004016103b890610971565b60405180910390fd5b565b60005481565b6000819050919050565b6103dc816103c9565b82525050565b60006020820190506103f760008301846103d3565b92915050565b600073ffffffffffffffffffffffffffffffffffffffff82169050919050565b6000610428826103fd565b9050919050565b6104388161041d565b82525050565b6000602082019050610453600083018461042f565b92915050565b600080fd5b610467816103c9565b811461047257600080fd5b50565b6000813590506104848161045e565b92915050565b6000602082840312156104a05761049f610459565b5b60006104ae84828501610475565b91505092915050565b6000819050919050565b6104ca816104b7565b82525050565b60006020820190506104e560008301846104c1565b92915050565b600060ff82169050919050565b610501816104eb565b82525050565b600060208201905061051c60008301846104f8565b92915050565b7f4e487b7100000000000000000000000000000000000000000000000000000000600052601160045260246000fd5b600061055c826104eb565b9150610567836104eb565b92508282101561057a57610579610522565b5b828203905092915050565b60008160011c9050919050565b6000808291508390505b60018511156105dc578086048111156105b8576105b7610522565b5b60018516156105c75780820291505b80810290506105d585610585565b945061059c565b94509492505050565b6000826105f557600190506106b1565b8161060357600090506106b1565b8160018114610619576002811461062357610652565b60019150506106b1565b60ff84111561063557610634610522565b5b8360020a91508482111561064c5761064b610522565b5b506106b1565b5060208310610133831016604e8410600b84101617156106875782820a90508381111561068257610681610522565b5b6106b1565b6106948484846001610592565b925090508184048111156106ab576106aa610522565b5b81810290505b9392505050565b60006106c3826103c9565b91506106ce836104eb565b92506106fb7fffffffffffffffffffffffffffffffffffffffffffffffffffffffffffffffff84846105e5565b905092915050565b600061070e826103c9565b9150610719836103c9565b9250817fffffffffffffffffffffffffffffffffffffffffffffffffffffffffffffffff048311821515161561075257610751610522565b5b828202905092915050565b7f4e487b7100000000000000000000000000000000000000000000000000000000600052601260045260246000fd5b6000610797826103c9565b91506107a2836103c9565b9250826107b2576107b161075d565b5b828204905092915050565b600069ffffffffffffffffffff82169050919050565b6107dc816107bd565b81146107e757600080fd5b50565b6000815190506107f9816107d3565b92915050565b610808816104b7565b811461081357600080fd5b50565b600081519050610825816107ff565b92915050565b60008151905061083a8161045e565b92915050565b600080600080600060a0868803121561085c5761085b610459565b5b600061086a888289016107ea565b955050602061087b88828901610816565b945050604061088c8882890161082b565b935050606061089d8882890161082b565b92505060806108ae888289016107ea565b9150509295509295909350565b6108c4816104eb565b81146108cf57600080fd5b50565b6000815190506108e1816108bb565b92915050565b6000602082840312156108fd576108fc610459565b5b600061090b848285016108d2565b91505092915050565b600082825260208201905092915050565b7f6e6f7420656e6f7567682066756e640000000000000000000000000000000000600082015250565b600061095b600f83610914565b915061096682610925565b602082019050919050565b6000602082019050818103600083015261098a8161094e565b905091905056fea2646970667358221220c9749d704df0312f7087488beefc434f3dd3f97d992f7bd9791ca38ee2e4d78264736f6c63430008080033",
					"opcodes": "PUSH1 0x80 PUSH1 0x40 MSTORE PUSH8 0xDE0B6B3A7640000 PUSH1 0x1 SSTORE PUSH20 0x8A753747A1FA494EC906CE90E9F37563A8AF630E PUSH1 0x2 PUSH1 0x0 PUSH2 0x100 EXP DUP2 SLOAD DUP2 PUSH20 0xFFFFFFFFFFFFFFFFFFFFFFFFFFFFFFFFFFFFFFFF MUL NOT AND SWAP1 DUP4 PUSH20 0xFFFFFFFFFFFFFFFFFFFFFFFFFFFFFFFFFFFFFFFF AND MUL OR SWAP1 SSTORE POP CALLVALUE DUP1 ISZERO PUSH2 0x71 JUMPI PUSH1 0x0 DUP1 REVERT JUMPDEST POP PUSH1 0x2 PUSH1 0x0 SWAP1 SLOAD SWAP1 PUSH2 0x100 EXP SWAP1 DIV PUSH20 0xFFFFFFFFFFFFFFFFFFFFFFFFFFFFFFFFFFFFFFFF AND PUSH1 0x3 PUSH1 0x0 PUSH2 0x100 EXP DUP2 SLOAD DUP2 PUSH20 0xFFFFFFFFFFFFFFFFFFFFFFFFFFFFFFFFFFFFFFFF MUL NOT AND SWAP1 DUP4 PUSH20 0xFFFFFFFFFFFFFFFFFFFFFFFFFFFFFFFFFFFFFFFF AND MUL OR SWAP1 SSTORE POP PUSH2 0x9C7 DUP1 PUSH2 0xE4 PUSH1 0x0 CODECOPY PUSH1 0x0 RETURN INVALID PUSH1 0x80 PUSH1 0x40 MSTORE PUSH1 0x4 CALLDATASIZE LT PUSH2 0x70 JUMPI PUSH1 0x0 CALLDATALOAD PUSH1 0xE0 SHR DUP1 PUSH4 0x8E5D6157 GT PUSH2 0x4E JUMPI DUP1 PUSH4 0x8E5D6157 EQ PUSH2 0x108 JUMPI DUP1 PUSH4 0xAD93F57A EQ PUSH2 0x133 JUMPI DUP1 PUSH4 0xB60D4288 EQ PUSH2 0x15E JUMPI DUP1 PUSH4 0xC7A0D9F6 EQ PUSH2 0x168 JUMPI PUSH2 0x70 JUMP JUMPDEST DUP1 PUSH4 0x11AE655A EQ PUSH2 0x75 JUMPI DUP1 PUSH4 0x29C36BB5 EQ PUSH2 0xA0 JUMPI DUP1 PUSH4 0x535BE4F9 EQ PUSH2 0xCB JUMPI JUMPDEST PUSH1 0x0 DUP1 REVERT JUMPDEST CALLVALUE DUP1 ISZERO PUSH2 0x81 JUMPI PUSH1 0x0 DUP1 REVERT JUMPDEST POP PUSH2 0x8A PUSH2 0x193 JUMP JUMPDEST PUSH1 0x40 MLOAD PUSH2 0x97 SWAP2 SWAP1 PUSH2 0x3E2 JUMP JUMPDEST PUSH1 0x40 MLOAD DUP1 SWAP2 SUB SWAP1 RETURN JUMPDEST CALLVALUE DUP1 ISZERO PUSH2 0xAC JUMPI PUSH1 0x0 DUP1 REVERT JUMPDEST POP PUSH2 0xB5 PUSH2 0x199 JUMP JUMPDEST PUSH1 0x40 MLOAD PUSH2 0xC2 SWAP2 SWAP1 PUSH2 0x43E JUMP JUMPDEST PUSH1 0x40 MLOAD DUP1 SWAP2 SUB SWAP1 RETURN JUMPDEST CALLVALUE DUP1 ISZERO PUSH2 0xD7 JUMPI PUSH1 0x0 DUP1 REVERT JUMPDEST POP PUSH2 0xF2 PUSH1 0x4 DUP1 CALLDATASIZE SUB DUP2 ADD SWAP1 PUSH2 0xED SWAP2 SWAP1 PUSH2 0x48A JUMP JUMPDEST PUSH2 0x1BF JUMP JUMPDEST PUSH1 0x40 MLOAD PUSH2 0xFF SWAP2 SWAP1 PUSH2 0x3E2 JUMP JUMPDEST PUSH1 0x40 MLOAD DUP1 SWAP2 SUB SWAP1 RETURN JUMPDEST CALLVALUE DUP1 ISZERO PUSH2 0x114 JUMPI PUSH1 0x0 DUP1 REVERT JUMPDEST POP PUSH2 0x11D PUSH2 0x21D JUMP JUMPDEST PUSH1 0x40 MLOAD PUSH2 0x12A SWAP2 SWAP1 PUSH2 0x4D0 JUMP JUMPDEST PUSH1 0x40 MLOAD DUP1 SWAP2 SUB SWAP1 RETURN JUMPDEST CALLVALUE DUP1 ISZERO PUSH2 0x13F JUMPI PUSH1 0x0 DUP1 REVERT JUMPDEST POP PUSH2 0x148 PUSH2 0x2CD JUMP JUMPDEST PUSH1 0x40 MLOAD PUSH2 0x155 SWAP2 SWAP1 PUSH2 0x507 JUMP JUMPDEST PUSH1 0x40 MLOAD DUP1 SWAP2 SUB SWAP1 RETURN JUMPDEST PUSH2 0x166 PUSH2 0x374 JUMP JUMPDEST STOP JUMPDEST CALLVALUE DUP1 ISZERO PUSH2 0x174 JUMPI PUSH1 0x0 DUP1 REVERT JUMPDEST POP PUSH2 0x17D PUSH2 0x3C3 JUMP JUMPDEST PUSH1 0x40 MLOAD PUSH2 0x18A SWAP2 SWAP1 PUSH2 0x4D0 JUMP JUMPDEST PUSH1 0x40 MLOAD DUP1 SWAP2 SUB SWAP1 RETURN JUMPDEST PUSH1 0x1 SLOAD DUP2 JUMP JUMPDEST PUSH1 0x2 PUSH1 0x0 SWAP1 SLOAD SWAP1 PUSH2 0x100 EXP SWAP1 DIV PUSH20 0xFFFFFFFFFFFFFFFFFFFFFFFFFFFFFFFFFFFFFFFF AND DUP2 JUMP JUMPDEST PUSH1 0x0 DUP1 PUSH2 0x1CA PUSH2 0x21D JUMP JUMPDEST SWAP1 POP PUSH8 0xDE0B6B3A7640000 DUP4 PUSH2 0x1DE PUSH2 0x2CD JUMP JUMPDEST PUSH1 0x12 PUSH2 0x1EA SWAP2 SWAP1 PUSH2 0x551 JUMP JUMPDEST PUSH1 0xA PUSH2 0x1F6 SWAP2 SWAP1 PUSH2 0x6B8 JUMP JUMPDEST DUP4 PUSH2 0x201 SWAP2 SWAP1 PUSH2 0x703 JUMP JUMPDEST PUSH2 0x20B SWAP2 SWAP1 PUSH2 0x703 JUMP JUMPDEST PUSH2 0x215 SWAP2 SWAP1 PUSH2 0x78C JUMP JUMPDEST SWAP2 POP POP SWAP2 SWAP1 POP JUMP JUMPDEST PUSH1 0x0 DUP1 PUSH1 0x3 PUSH1 0x0 SWAP1 SLOAD SWAP1 PUSH2 0x100 EXP SWAP1 DIV PUSH20 0xFFFFFFFFFFFFFFFFFFFFFFFFFFFFFFFFFFFFFFFF AND PUSH20 0xFFFFFFFFFFFFFFFFFFFFFFFFFFFFFFFFFFFFFFFF AND PUSH4 0xFEAF968C PUSH1 0x40 MLOAD DUP2 PUSH4 0xFFFFFFFF AND PUSH1 0xE0 SHL DUP2 MSTORE PUSH1 0x4 ADD PUSH1 0xA0 PUSH1 0x40 MLOAD DUP1 DUP4 SUB DUP2 DUP7 DUP1 EXTCODESIZE ISZERO DUP1 ISZERO PUSH2 0x288 JUMPI PUSH1 0x0 DUP1 REVERT JUMPDEST POP GAS STATICCALL ISZERO DUP1 ISZERO PUSH2 0x29C JUMPI RETURNDATASIZE PUSH1 0x0 DUP1 RETURNDATACOPY RETURNDATASIZE PUSH1 0x0 REVERT JUMPDEST POP POP POP POP PUSH1 0x40 MLOAD RETURNDATASIZE PUSH1 0x1F NOT PUSH1 0x1F DUP3 ADD AND DUP3 ADD DUP1 PUSH1 0x40 MSTORE POP DUP2 ADD SWAP1 PUSH2 0x2C0 SWAP2 SWAP1 PUSH2 0x840 JUMP JUMPDEST POP POP POP SWAP2 POP POP DUP1 SWAP2 POP POP SWAP1 JUMP JUMPDEST PUSH1 0x0 PUSH1 0x3 PUSH1 0x0 SWAP1 SLOAD SWAP1 PUSH2 0x100 EXP SWAP1 DIV PUSH20 0xFFFFFFFFFFFFFFFFFFFFFFFFFFFFFFFFFFFFFFFF AND PUSH20 0xFFFFFFFFFFFFFFFFFFFFFFFFFFFFFFFFFFFFFFFF AND PUSH4 0x313CE567 PUSH1 0x40 MLOAD DUP2 PUSH4 0xFFFFFFFF AND PUSH1 0xE0 SHL DUP2 MSTORE PUSH1 0x4 ADD PUSH1 0x20 PUSH1 0x40 MLOAD DUP1 DUP4 SUB DUP2 DUP7 DUP1 EXTCODESIZE ISZERO DUP1 ISZERO PUSH2 0x337 JUMPI PUSH1 0x0 DUP1 REVERT JUMPDEST POP GAS STATICCALL ISZERO DUP1 ISZERO PUSH2 0x34B JUMPI RETURNDATASIZE PUSH1 0x0 DUP1 RETURNDATACOPY RETURNDATASIZE PUSH1 0x0 REVERT JUMPDEST POP POP POP POP PUSH1 0x40 MLOAD RETURNDATASIZE PUSH1 0x1F NOT PUSH1 0x1F DUP3 ADD AND DUP3 ADD DUP1 PUSH1 0x40 MSTORE POP DUP2 ADD SWAP1 PUSH2 0x36F SWAP2 SWAP1 PUSH2 0x8E7 JUMP JUMPDEST SWAP1 POP SWAP1 JUMP JUMPDEST PUSH1 0x1 SLOAD PUSH2 0x380 CALLVALUE PUSH2 0x1BF JUMP JUMPDEST LT ISZERO PUSH2 0x3C1 JUMPI PUSH1 0x40 MLOAD PUSH32 0x8C379A000000000000000000000000000000000000000000000000000000000 DUP2 MSTORE PUSH1 0x4 ADD PUSH2 0x3B8 SWAP1 PUSH2 0x971 JUMP JUMPDEST PUSH1 0x40 MLOAD DUP1 SWAP2 SUB SWAP1 REVERT JUMPDEST JUMP JUMPDEST PUSH1 0x0 SLOAD DUP2 JUMP JUMPDEST PUSH1 0x0 DUP2 SWAP1 POP SWAP2 SWAP1 POP JUMP JUMPDEST PUSH2 0x3DC DUP2 PUSH2 0x3C9 JUMP JUMPDEST DUP3 MSTORE POP POP JUMP JUMPDEST PUSH1 0x0 PUSH1 0x20 DUP3 ADD SWAP1 POP PUSH2 0x3F7 PUSH1 0x0 DUP4 ADD DUP5 PUSH2 0x3D3 JUMP JUMPDEST SWAP3 SWAP2 POP POP JUMP JUMPDEST PUSH1 0x0 PUSH20 0xFFFFFFFFFFFFFFFFFFFFFFFFFFFFFFFFFFFFFFFF DUP3 AND SWAP1 POP SWAP2 SWAP1 POP JUMP JUMPDEST PUSH1 0x0 PUSH2 0x428 DUP3 PUSH2 0x3FD JUMP JUMPDEST SWAP1 POP SWAP2 SWAP1 POP JUMP JUMPDEST PUSH2 0x438 DUP2 PUSH2 0x41D JUMP JUMPDEST DUP3 MSTORE POP POP JUMP JUMPDEST PUSH1 0x0 PUSH1 0x20 DUP3 ADD SWAP1 POP PUSH2 0x453 PUSH1 0x0 DUP4 ADD DUP5 PUSH2 0x42F JUMP JUMPDEST SWAP3 SWAP2 POP POP JUMP JUMPDEST PUSH1 0x0 DUP1 REVERT JUMPDEST PUSH2 0x467 DUP2 PUSH2 0x3C9 JUMP JUMPDEST DUP2 EQ PUSH2 0x472 JUMPI PUSH1 0x0 DUP1 REVERT JUMPDEST POP JUMP JUMPDEST PUSH1 0x0 DUP2 CALLDATALOAD SWAP1 POP PUSH2 0x484 DUP2 PUSH2 0x45E JUMP JUMPDEST SWAP3 SWAP2 POP POP JUMP JUMPDEST PUSH1 0x0 PUSH1 0x20 DUP3 DUP5 SUB SLT ISZERO PUSH2 0x4A0 JUMPI PUSH2 0x49F PUSH2 0x459 JUMP JUMPDEST JUMPDEST PUSH1 0x0 PUSH2 0x4AE DUP5 DUP3 DUP6 ADD PUSH2 0x475 JUMP JUMPDEST SWAP2 POP POP SWAP3 SWAP2 POP POP JUMP JUMPDEST PUSH1 0x0 DUP2 SWAP1 POP SWAP2 SWAP1 POP JUMP JUMPDEST PUSH2 0x4CA DUP2 PUSH2 0x4B7 JUMP JUMPDEST DUP3 MSTORE POP POP JUMP JUMPDEST PUSH1 0x0 PUSH1 0x20 DUP3 ADD SWAP1 POP PUSH2 0x4E5 PUSH1 0x0 DUP4 ADD DUP5 PUSH2 0x4C1 JUMP JUMPDEST SWAP3 SWAP2 POP POP JUMP JUMPDEST PUSH1 0x0 PUSH1 0xFF DUP3 AND SWAP1 POP SWAP2 SWAP1 POP JUMP JUMPDEST PUSH2 0x501 DUP2 PUSH2 0x4EB JUMP JUMPDEST DUP3 MSTORE POP POP JUMP JUMPDEST PUSH1 0x0 PUSH1 0x20 DUP3 ADD SWAP1 POP PUSH2 0x51C PUSH1 0x0 DUP4 ADD DUP5 PUSH2 0x4F8 JUMP JUMPDEST SWAP3 SWAP2 POP POP JUMP JUMPDEST PUSH32 0x4E487B7100000000000000000000000000000000000000000000000000000000 PUSH1 0x0 MSTORE PUSH1 0x11 PUSH1 0x4 MSTORE PUSH1 0x24 PUSH1 0x0 REVERT JUMPDEST PUSH1 0x0 PUSH2 0x55C DUP3 PUSH2 0x4EB JUMP JUMPDEST SWAP2 POP PUSH2 0x567 DUP4 PUSH2 0x4EB JUMP JUMPDEST SWAP3 POP DUP3 DUP3 LT ISZERO PUSH2 0x57A JUMPI PUSH2 0x579 PUSH2 0x522 JUMP JUMPDEST JUMPDEST DUP3 DUP3 SUB SWAP1 POP SWAP3 SWAP2 POP POP JUMP JUMPDEST PUSH1 0x0 DUP2 PUSH1 0x1 SHR SWAP1 POP SWAP2 SWAP1 POP JUMP JUMPDEST PUSH1 0x0 DUP1 DUP3 SWAP2 POP DUP4 SWAP1 POP JUMPDEST PUSH1 0x1 DUP6 GT ISZERO PUSH2 0x5DC JUMPI DUP1 DUP7 DIV DUP2 GT ISZERO PUSH2 0x5B8 JUMPI PUSH2 0x5B7 PUSH2 0x522 JUMP JUMPDEST JUMPDEST PUSH1 0x1 DUP6 AND ISZERO PUSH2 0x5C7 JUMPI DUP1 DUP3 MUL SWAP2 POP JUMPDEST DUP1 DUP2 MUL SWAP1 POP PUSH2 0x5D5 DUP6 PUSH2 0x585 JUMP JUMPDEST SWAP5 POP PUSH2 0x59C JUMP JUMPDEST SWAP5 POP SWAP5 SWAP3 POP POP POP JUMP JUMPDEST PUSH1 0x0 DUP3 PUSH2 0x5F5 JUMPI PUSH1 0x1 SWAP1 POP PUSH2 0x6B1 JUMP JUMPDEST DUP2 PUSH2 0x603 JUMPI PUSH1 0x0 SWAP1 POP PUSH2 0x6B1 JUMP JUMPDEST DUP2 PUSH1 0x1 DUP2 EQ PUSH2 0x619 JUMPI PUSH1 0x2 DUP2 EQ PUSH2 0x623 JUMPI PUSH2 0x652 JUMP JUMPDEST PUSH1 0x1 SWAP2 POP POP PUSH2 0x6B1 JUMP JUMPDEST PUSH1 0xFF DUP5 GT ISZERO PUSH2 0x635 JUMPI PUSH2 0x634 PUSH2 0x522 JUMP JUMPDEST JUMPDEST DUP4 PUSH1 0x2 EXP SWAP2 POP DUP5 DUP3 GT ISZERO PUSH2 0x64C JUMPI PUSH2 0x64B PUSH2 0x522 JUMP JUMPDEST JUMPDEST POP PUSH2 0x6B1 JUMP JUMPDEST POP PUSH1 0x20 DUP4 LT PUSH2 0x133 DUP4 LT AND PUSH1 0x4E DUP5 LT PUSH1 0xB DUP5 LT AND OR ISZERO PUSH2 0x687 JUMPI DUP3 DUP3 EXP SWAP1 POP DUP4 DUP2 GT ISZERO PUSH2 0x682 JUMPI PUSH2 0x681 PUSH2 0x522 JUMP JUMPDEST JUMPDEST PUSH2 0x6B1 JUMP JUMPDEST PUSH2 0x694 DUP5 DUP5 DUP5 PUSH1 0x1 PUSH2 0x592 JUMP JUMPDEST SWAP3 POP SWAP1 POP DUP2 DUP5 DIV DUP2 GT ISZERO PUSH2 0x6AB JUMPI PUSH2 0x6AA PUSH2 0x522 JUMP JUMPDEST JUMPDEST DUP2 DUP2 MUL SWAP1 POP JUMPDEST SWAP4 SWAP3 POP POP POP JUMP JUMPDEST PUSH1 0x0 PUSH2 0x6C3 DUP3 PUSH2 0x3C9 JUMP JUMPDEST SWAP2 POP PUSH2 0x6CE DUP4 PUSH2 0x4EB JUMP JUMPDEST SWAP3 POP PUSH2 0x6FB PUSH32 0xFFFFFFFFFFFFFFFFFFFFFFFFFFFFFFFFFFFFFFFFFFFFFFFFFFFFFFFFFFFFFFFF DUP5 DUP5 PUSH2 0x5E5 JUMP JUMPDEST SWAP1 POP SWAP3 SWAP2 POP POP JUMP JUMPDEST PUSH1 0x0 PUSH2 0x70E DUP3 PUSH2 0x3C9 JUMP JUMPDEST SWAP2 POP PUSH2 0x719 DUP4 PUSH2 0x3C9 JUMP JUMPDEST SWAP3 POP DUP2 PUSH32 0xFFFFFFFFFFFFFFFFFFFFFFFFFFFFFFFFFFFFFFFFFFFFFFFFFFFFFFFFFFFFFFFF DIV DUP4 GT DUP3 ISZERO ISZERO AND ISZERO PUSH2 0x752 JUMPI PUSH2 0x751 PUSH2 0x522 JUMP JUMPDEST JUMPDEST DUP3 DUP3 MUL SWAP1 POP SWAP3 SWAP2 POP POP JUMP JUMPDEST PUSH32 0x4E487B7100000000000000000000000000000000000000000000000000000000 PUSH1 0x0 MSTORE PUSH1 0x12 PUSH1 0x4 MSTORE PUSH1 0x24 PUSH1 0x0 REVERT JUMPDEST PUSH1 0x0 PUSH2 0x797 DUP3 PUSH2 0x3C9 JUMP JUMPDEST SWAP2 POP PUSH2 0x7A2 DUP4 PUSH2 0x3C9 JUMP JUMPDEST SWAP3 POP DUP3 PUSH2 0x7B2 JUMPI PUSH2 0x7B1 PUSH2 0x75D JUMP JUMPDEST JUMPDEST DUP3 DUP3 DIV SWAP1 POP SWAP3 SWAP2 POP POP JUMP JUMPDEST PUSH1 0x0 PUSH10 0xFFFFFFFFFFFFFFFFFFFF DUP3 AND SWAP1 POP SWAP2 SWAP1 POP JUMP JUMPDEST PUSH2 0x7DC DUP2 PUSH2 0x7BD JUMP JUMPDEST DUP2 EQ PUSH2 0x7E7 JUMPI PUSH1 0x0 DUP1 REVERT JUMPDEST POP JUMP JUMPDEST PUSH1 0x0 DUP2 MLOAD SWAP1 POP PUSH2 0x7F9 DUP2 PUSH2 0x7D3 JUMP JUMPDEST SWAP3 SWAP2 POP POP JUMP JUMPDEST PUSH2 0x808 DUP2 PUSH2 0x4B7 JUMP JUMPDEST DUP2 EQ PUSH2 0x813 JUMPI PUSH1 0x0 DUP1 REVERT JUMPDEST POP JUMP JUMPDEST PUSH1 0x0 DUP2 MLOAD SWAP1 POP PUSH2 0x825 DUP2 PUSH2 0x7FF JUMP JUMPDEST SWAP3 SWAP2 POP POP JUMP JUMPDEST PUSH1 0x0 DUP2 MLOAD SWAP1 POP PUSH2 0x83A DUP2 PUSH2 0x45E JUMP JUMPDEST SWAP3 SWAP2 POP POP JUMP JUMPDEST PUSH1 0x0 DUP1 PUSH1 0x0 DUP1 PUSH1 0x0 PUSH1 0xA0 DUP7 DUP9 SUB SLT ISZERO PUSH2 0x85C JUMPI PUSH2 0x85B PUSH2 0x459 JUMP JUMPDEST JUMPDEST PUSH1 0x0 PUSH2 0x86A DUP9 DUP3 DUP10 ADD PUSH2 0x7EA JUMP JUMPDEST SWAP6 POP POP PUSH1 0x20 PUSH2 0x87B DUP9 DUP3 DUP10 ADD PUSH2 0x816 JUMP JUMPDEST SWAP5 POP POP PUSH1 0x40 PUSH2 0x88C DUP9 DUP3 DUP10 ADD PUSH2 0x82B JUMP JUMPDEST SWAP4 POP POP PUSH1 0x60 PUSH2 0x89D DUP9 DUP3 DUP10 ADD PUSH2 0x82B JUMP JUMPDEST SWAP3 POP POP PUSH1 0x80 PUSH2 0x8AE DUP9 DUP3 DUP10 ADD PUSH2 0x7EA JUMP JUMPDEST SWAP2 POP POP SWAP3 SWAP6 POP SWAP3 SWAP6 SWAP1 SWAP4 POP JUMP JUMPDEST PUSH2 0x8C4 DUP2 PUSH2 0x4EB JUMP JUMPDEST DUP2 EQ PUSH2 0x8CF JUMPI PUSH1 0x0 DUP1 REVERT JUMPDEST POP JUMP JUMPDEST PUSH1 0x0 DUP2 MLOAD SWAP1 POP PUSH2 0x8E1 DUP2 PUSH2 0x8BB JUMP JUMPDEST SWAP3 SWAP2 POP POP JUMP JUMPDEST PUSH1 0x0 PUSH1 0x20 DUP3 DUP5 SUB SLT ISZERO PUSH2 0x8FD JUMPI PUSH2 0x8FC PUSH2 0x459 JUMP JUMPDEST JUMPDEST PUSH1 0x0 PUSH2 0x90B DUP5 DUP3 DUP6 ADD PUSH2 0x8D2 JUMP JUMPDEST SWAP2 POP POP SWAP3 SWAP2 POP POP JUMP JUMPDEST PUSH1 0x0 DUP3 DUP3 MSTORE PUSH1 0x20 DUP3 ADD SWAP1 POP SWAP3 SWAP2 POP POP JUMP JUMPDEST PUSH32 0x6E6F7420656E6F7567682066756E640000000000000000000000000000000000 PUSH1 0x0 DUP3 ADD MSTORE POP JUMP JUMPDEST PUSH1 0x0 PUSH2 0x95B PUSH1 0xF DUP4 PUSH2 0x914 JUMP JUMPDEST SWAP2 POP PUSH2 0x966 DUP3 PUSH2 0x925 JUMP JUMPDEST PUSH1 0x20 DUP3 ADD SWAP1 POP SWAP2 SWAP1 POP JUMP JUMPDEST PUSH1 0x0 PUSH1 0x20 DUP3 ADD SWAP1 POP DUP2 DUP2 SUB PUSH1 0x0 DUP4 ADD MSTORE PUSH2 0x98A DUP2 PUSH2 0x94E JUMP JUMPDEST SWAP1 POP SWAP2 SWAP1 POP JUMP INVALID LOG2 PUSH5 0x6970667358 0x22 SLT KECCAK256 0xC9 PUSH21 0x9D704DF0312F7087488BEEFC434F3DD3F97D992F7B 0xD9 PUSH26 0x1CA38EE2E4D78264736F6C634300080800330000000000000000 "
				},
				"gasEstimates": {
					"creation": {
						"codeDepositCost": "500600",
						"executionCost": "73313",
						"totalCost": "573913"
					},
					"external": {
						"convertEthToDollars(uint256)": "infinite",
						"favNumber()": "2495",
						"feedAddress()": "2537",
						"fund()": "infinite",
						"getDecimalsInReturnedValueByThePriceFeed()": "infinite",
						"getLatestPriceOfEthInUSD()": "infinite",
						"minimumUSDToSend()": "2430"
					}
				},
				"methodIdentifiers": {
					"convertEthToDollars(uint256)": "535be4f9",
					"favNumber()": "c7a0d9f6",
					"feedAddress()": "29c36bb5",
					"fund()": "b60d4288",
					"getDecimalsInReturnedValueByThePriceFeed()": "ad93f57a",
					"getLatestPriceOfEthInUSD()": "8e5d6157",
					"minimumUSDToSend()": "11ae655a"
				}
			},
			"storageLayout": {
				"storage": [
					{
						"astId": 50,
						"contract": "contracts/FundMe.sol:FundMe",
						"label": "favNumber",
						"offset": 0,
						"slot": "0",
						"type": "t_int256"
					},
					{
						"astId": 55,
						"contract": "contracts/FundMe.sol:FundMe",
						"label": "minimumUSDToSend",
						"offset": 0,
						"slot": "1",
						"type": "t_uint256"
					},
					{
						"astId": 58,
						"contract": "contracts/FundMe.sol:FundMe",
						"label": "feedAddress",
						"offset": 0,
						"slot": "2",
						"type": "t_address"
					},
					{
						"astId": 61,
						"contract": "contracts/FundMe.sol:FundMe",
						"label": "priceFeed",
						"offset": 0,
						"slot": "3",
						"type": "t_contract(AggregatorV3Interface)45"
					}
				],
				"types": {
					"t_address": {
						"encoding": "inplace",
						"label": "address",
						"numberOfBytes": "20"
					},
					"t_contract(AggregatorV3Interface)45": {
						"encoding": "inplace",
						"label": "contract AggregatorV3Interface",
						"numberOfBytes": "20"
					},
					"t_int256": {
						"encoding": "inplace",
						"label": "int256",
						"numberOfBytes": "32"
					},
					"t_uint256": {
						"encoding": "inplace",
						"label": "uint256",
						"numberOfBytes": "32"
					}
				}
			},
			"userdoc": {
				"kind": "user",
				"methods": {},
				"version": 1
			}
		}
	}
}